:020000040000FA
:06000000ECEF39F01200E4
:0600080004EF08F01200F5
:060018000CEF08F01200DD
:06100000ECEF39F01200D4
:06100800BBEF09F012002D
:0610180022EF08F01200B7
:06102A000200A9740000A1
:10103000AC0E0000020000003A74000080020000C4
:041040006F0000003D
:0C104400D8CFE4FFE0CFE4FFE46EDACF89
:10105000E4FFE2CFDAFFE9CFE4FFEACFE4FFF3CF2A
:10106000E4FFF4CFE4FFE6529EA201D19E92030E6C
:10107000406E0E50EA6A510FE96E010EEA22EF50FF
:10108000405C30E10E50E96EEA6AD890E936EA3603
:10109000690EE926010EEA22EECF40F0EFCF41F0D3
:1010A00041C040F0416A4050D76E0E50E96EEA6A86
:1010B000D890E936EA36690EE926010EEA22EECF2B
:1010C00040F0EFCF41F04050D66EF28AF294D58EC8
:1010D0000E50EA6A510FE96E010EEA22040EEF6E1D
:1010E0000E50106E020E406E0F50EA6A510FE96EFC
:1010F000010EEA22EF50405C49E10F50E96EEA6AC6
:10110000D890E936EA36690EE926010EEA22EE5059
:10111000ED1009E10F50EA6A510FE96E010EEA2263
:10112000010EEF6E33D0080E0F5C0CE2070E0F14A9
:10113000406E010E405204E0E846FE0B4006FCE122
:1011400089121AD0100E0F5C0CE2070E0F14406EBD
:10115000010E405204E0E846FE0B4006FCE18A1214
:101160000BD0070E0F14406E010E405204E0E8460B
:10117000FE0B4006FCE18B120F50EA6A510FE96E3C
:10118000010EEA22030EEF6E0F500E6E0F2A060EAE
:101190000F5C03E1080E0F6E0AD0130E0F5C03E123
:1011A000160E0F6E04D0180E0F5C01E10F6A000ED0
:1011B000D8800254000E03542EE2112A000E12228F
:1011C0000250115C0350125826E3116A126A030E92
:1011D000065C1FE20450EA6A480FE96E010EEA223B
:1011E00080CFEFFF0450EA6A4B0FE96E010EEA224E
:1011F00081CFEFFF0450EA6A4E0FE96E010EEA223A
:1012000082CFEFFF042A030E045C01E3046A062A7E
:1012100002D0026A036A000ED8800754000E0854F8
:1012200019E20C50000816E2132A000E142207508F
:10123000135C085014580EE3136A146A030E0B5C17
:1012400007E2092A030E095C01E3096A0B2A02D0AE
:10125000076A086A0C5000080AE2156A1550040D66
:10126000F328C26E9E9C9F9C9D8CC280C2829EACC5
:101270002DD09E9CC450446E44C045F0446AC35077
:1012800000014410426E45C043F01550060DF3CFE7
:1012900040F0F4CF41F0000E4026010E41220950EB
:1012A000020D4050F324E96E4150F420EA6E42C032
:1012B000EEFF43C0EDFF152A0C50155C02E39D9C28
:1012C00005D01550040DF328C26EC282F2A442D09C
:1012D000D59EF294F29A040E406E1050EA6A510FB5
:1012E000E96E010EEA22EF50405C34E1080E105C1A
:1012F0000DE2070E1014406E010E405204E0E84665
:10130000FE0B4006FCE1E81C89161CD0100E105C98
:101310000DE2070E1014406E010E405204E0E84644
:10132000FE0B4006FCE1E81C8A160CD0070E1014D8
:10133000406E010E405204E0E846FE0B4006FCE120
:10134000E81C8B161050EA6A510FE96E010EEA2272
:10135000020EEF6EE552E5CFF4FFE5CFF3FFE5CFE8
:10136000EAFFE5CFE9FFE5CFDAFFE550E5CFE0FFA3
:10137000E5CFD8FF1000DACFE4FFE2CFDAFFE9CF04
:10138000E4FFEACFE4FFF6CFE4FFF7CFE4FFF8CFC6
:10139000E4FFF5CFE4FFF3CFE4FFF4CFE4FFFACFAF
:1013A000E4FFFBCFE4FF00EE1EF0140EE80403E3BD
:1013B000EECFE4FFFBD700EE32F00E0EE80403E3BD
:1013C000EECFE4FFFBD7E6528CEC23F0A1A241D094
:1013D000A1920201805181110AE083C246F0476A5E
:1013E00046507B6E82517A6E8CEC1DF032D01D50CF
:1013F00018E016507B6E17507A6E1C2A1A501C5C2F
:101400000FE31D6A841D8914896E851D8A148A6EF6
:10141000861D8B148B6E18507B6E19507A6E1C6A69
:1014200018D018507B6E19507A6E1C2A1B501C5C09
:1014300010E3010E1D6E84518910896E85518A104A
:101440008A6E86518B108B6E16507B6E17507A6E9B
:101450001C6AE55200EE3FF00E0EE80403E3E5CF10
:10146000EDFFFBD700EE31F0140EE80403E3E5CF07
:10147000EDFFFBD7E5CFFBFFE5CFFAFFE5CFF4FFAC
:10148000E5CFF3FFE5CFF5FFE5CFF8FFE5CFF7FFB9
:10149000E5CFF6FFE5CFEAFFE5CFE9FFE5CFDAFFDD
:1014A0001100D9CFE6FFE1CFD9FF020EE126896A0C
:1014B00092680F0EC16EC2900C6A8A6A93688B6A3A
:1014C0009468FC0E8D16961693840101010EE66F4A
:1014D0000E01AC69AD690A6A096A0B6A056A046A99
:1014E000066A026A036A076A086A116A126A136A5C
:1014F000146A156ACA82CA80CA9CCA9ACA88CA96DD
:10150000FA0ECB6EDF6ADFCF32F00C0EE76E3218C8
:10151000E8AE02D0E73402D0E750325C36E2010E8A
:10152000DB6ADBCF32F0030EE76E3218E8AE02D092
:10153000E73402D0E750325C26E2DFCF32F0336A84
:1015400032BE3368060E3302F3CF33F03202F3CFEC
:1015500032F0F4503326000E3226010E3322010EF3
:10156000DBCF34F0356A34BE3568D8903436353642
:1015700032503424E96E33503520EA6EEE6AED6A5B
:10158000010EDB2ACED7DF2ABED70101E06BE16B6B
:10159000DE6BDF6BE26BE36BE46BE56B0E6A0F6A8D
:1015A000106ADF6ADFCF32F0180EE76E3218E8AE4D
:1015B00002D0E73402D0E750325C1BE2DFCFE9FF14
:1015C000EA6AE9BEEA68D890E936EA36690EE926A1
:1015D000010EEA22EE6AED6ADFCFE9FFEA6AE9BEB0
:1015E000EA68510EE926010EEA22010EEF6EDF2AAB
:1015F000D9D7D586D59AD59CF294F29AF194D08E0B
:10160000CA949D829F92F28EF28CCA847990020EC7
:10161000E15C02E2E16AE552E16EE552E7CFD9FF13
:101620001200D9CFE6FFE1CFD9FF050EE126020E69
:10163000DB6A030EDB6A040EDB6A17EC1DF0065052
:10164000000809E2D8EC10F0052A030E055C01E160
:10165000056A0606F4D70B50000809E2FAEC10F010
:101660000A2A030E0A5C01E10A6A0B06F4D7200E6F
:101670000D01E76E4019E8AE02D0E73402D0E75022
:10168000405D03E36550020B01E0C4D1400EE66EFD
:10169000400EE66E020EE66EBDEC33F0E552E5520A
:1016A000E552E76E030EE7CFDBFFDB50000801E3F6
:1016B0005DD1040EDB6A030EDB50F36E040EDBCF4C
:1016C000F4FFF350F45C01E351D1040EDB50EA6AFD
:1016D000400FE96E020EEA22EFCFDFFF0201CF5189
:1016E00010E0D05100080DE20101E051EA6A000F5C
:1016F000E96E070EEA22DFCFEFFFE02B0201D007F1
:1017000025D1CB5144E10D0E326EDF50325C05E045
:101710000A0E336EDF50335C3AE1010ECB6F0101EC
:10172000E051EA6A000FE96E070EEA220D0EEF6E35
:10173000E02B010EDB6AE051F36E010EDBCFF4FF0C
:10174000F350F45C1CE2010EDBCFE9FFEA6AE9BE6C
:10175000EA68000EE926070EEA22EF50E66E010E57
:10176000DBCFE9FFEA6AE9BEEA68870EE926020EE6
:10177000EA22E552E750EF6E010EDB2ADCD7D3D91F
:101780000201CF6BD06B0101E06BE16BDFD01B0E70
:10179000DF5C09E1C75107E1010EC76F1B0EC86F7F
:1017A000C96BCA6BD3D0C7050BE15B0EDF5C08E1E8
:1017B0001B0EC85D05E1C95103E15B0EC96FC6D0C0
:1017C000C7055EE1410EDF5C5BE11B0EC85D58E1C1
:1017D0005B0EC95D55E1C86BC96BCA6BC76B010E67
:1017E000DB6ADBCFE9FFEA6AE9BEEA68000EE926B8
:1017F000070EEA22EF500D081CE0010EDBCFE9FFD7
:10180000EA6AE9BEEA68870EE926020EEA22EF508C
:10181000E66E010EDBCFE9FFEA6AE9BEEA68000E78
:10182000E926070EEA22E552E750EF6E010EDB2AA9
:10183000D8D7010EDBCFE0F10101E051EA6A000FD9
:10184000E96E070EEA22EF6A7E0EE66E6C0EE66E19
:10185000000EE66EBBEC38F0E552E552E552000EA4
:10186000E66E070EE66E7B0EE66E6C0EE66E000E02
:10187000E66EBBEC38F0326E050EE15E325066D09B
:10188000080EDF5C18E10101E051000814E2E007F6
:10189000E051EA6A000FE96E070EEA22EF6A780E5D
:1018A000E66E6C0EE66E000EE66EBBEC38F0E552AE
:1018B000E552E5524BD00D0EDF5C48E00A0EDF5CCE
:1018C00045E0200EDF5C42E30201C86BC96BCA6BC6
:1018D000C76B0101E051EA6A000FE96E070EEA22C8
:1018E000DFCFEFFF0201CB6B0101E02B030EE05DC8
:1018F0000AE1420E0701005D06E1530E015D03E1BE
:101900000201010ECF6F0201CF5120E0D0511EE144
:10191000050E0101E05D09E12C0E0701045D05E102
:10192000300E035D0201D06F11D0060E0101E05DA3
:101930000DE12C0E0701055D09E1300E035D0A0D76
:10194000F3CFD0F2300E045D0201D0270101E05147
:10195000326E336A000E321802E1010E331803E1D1
:101960000D86E06BE16B040EDB2AA5D60D5051E02D
:101970000DA00BD0720EE66E6C0EE66E000EE66EDB
:10198000BBEC38F0E552E552E5520DA40BD0560EF3
:10199000E66E6C0EE66E000EE66EBBEC38F0E552BD
:1019A000E552E5520DA60BD03A0EE66E6C0EE66ED1
:1019B000000EE66EBBEC38F0E552E552E5520DA89C
:1019C0000BD01B0EE66E6C0EE66E000EE66EBBECE8
:1019D00038F0E552E552E5520DAA00D00DAC0BD01F
:1019E000FA0EE66E6B0EE66E000EE66EBBEC38F09D
:1019F000E552E552E5520DAE0BD0E10EE66E6B0EF0
:101A0000E66E000EE66EBBEC38F0E552E552E552AC
:101A10000D6A40D8050EE15C02E2E16AE552E16E32
:101A2000E552E7CFD9FF1200D9CFE6FFE1CFD9FFCA
:101A3000E652DEC1DFFFDF2A400E326EDF50325C3D
:101A400001E1DF6A0101DF51DF5C01E123D801011F
:101A5000DE51EA6A000FE96E020EEA22FE0EDBCFCB
:101A6000EFFFDE2B400EDE5D01E1DE6BDF51DE5D60
:101A700001E10D84FE0EDBCF32F0336A32BE3368F3
:101A800032C0F3FF33C0F4FF00D0E552E552E7CF98
:101A9000D9FF1200D9CFE6FFE1CFD9FFE65201010D
:101AA000DE51DF5D3BE00E01925103E0CEEC34F0FD
:101AB000FAD70101DF51D880DE5517E2DF51DE5D34
:101AC000DF6EDFCFE6FFDF51336A000F326E020EAA
:101AD000332232C0E6FF33C0E6FF1EEC34F0E5529D
:101AE000E552E552DEC1DFF117D0400ED880DF5558
:101AF000DF6EDFCFE6FFDF51336A000F326E020E7A
:101B0000332232C0E6FF33C0E6FF1EEC34F0E5526C
:101B1000E552E5520101DF6BCEEC34F0E552E552BF
:101B2000E7CFD9FF1200D9CFE6FFE1CFD9FF040EEE
:101B3000E126DE6ADD6A020EDB6A030EDB6A010162
:101B4000E151EA6A000FE96E070EEA22EF50E66EF5
:101B5000E66A81EC39F0E552E552020EF3CFDBFF85
:101B60000101E12BE151326E336A000E321802E1BD
:101B7000010E331801E1E16B020EDB50DE6EDD6A0F
:101B8000E151EA6A000FE96E070EEA22EF502C08D5
:101B900037E0E151EA6A000FE96E070EEA22EF50E2
:101BA0000D082EE0E151EA6A000FE96E070EEA2205
:101BB000EF50E66EE66A81EC39F0E552E552030E2D
:101BC000F3CFDBFF0101E12BE151326E336A000EEE
:101BD000321802E1010E331801E1E16B020EDBCF96
:101BE00034F034C035F0346A030EDB500001342485
:101BF000326E000E3520336E32C0DEFF33C0DDFFA3
:101C0000000EDFCF26F0010EDBCF27F0420E2618A4
:101C100002E1480E271801E10ED1530E261802E109
:101C2000480E271801E104D1460E261801E127507D
:101C300001E1FBD0490E261802E1430E271801E10D
:101C4000F1D0490E261802E1520E271801E1E7D023
:101C5000490E261802E1530E271801E1DDD0530E7C
:101C6000261802E1430E271801E1D3D0530E26189F
:101C700002E1520E271801E1C9D0530E261802E1E5
:101C8000530E271801E1BFD0530E261802E1420E71
:101C9000271801E1B5D0430E261802E1420E27189D
:101CA00001E1ABD0430E261802E1520E271801E1E4
:101CB000A1D04F0E261802E1420E271801E197D05D
:101CC000570E261802E14D0E271801E18ED0520E54
:101CD000261802E14D0E271801E185D0440E261882
:101CE00002E1500E271801E17CD04F0E261802E1C8
:101CF000500E271873E0490E261802E1500E2718DF
:101D00006BE0580E261802E1540E271862E0540EBC
:101D1000261801E127505BE0410E261801E127500B
:101D200054E0560E261801E127504DE0490E2618C2
:101D300001E1275046E04F0E261801E127503FE011
:101D4000550E261802E1430E271837E0580E2618C4
:101D500002E1430E27182EE0430E261801E127501A
:101D600027E0520E261801E1275020E0580E2618D1
:101D700002E1520E271817E0030EDB505FE1020E5E
:101D8000DBCFE6FFE66ADBCFE6FFE66ABE0EE66E75
:101D90006B0EE66E000EE66EBBEC38F0326E070E90
:101DA000E15E325067D0ACEC13F065D096D863D0CA
:101DB0002DD961D0AEEC13F05ED093D85CD09CD915
:101DC0005AD0F6D958D00ADA56D014DA54D0D2D82C
:101DD00052D0AAEC13F04FD086DB4DD0FFEC12F0BE
:101DE0004AD0D7DA48D096DA46D055DA44D0D7EC84
:101DF00014F041D0B0EC13F03ED069EC14F03BD0BD
:101E00002BEC16F038D0F6EC16F035D0F8EC16F0D6
:101E100032D0FAEC16F02FD0FCEC16F02CD0FEEC01
:101E200016F029D000EC17F026D002EC17F023D0E2
:101E300074EC1FF020D013EC22F01DD0030EDBCF8A
:101E4000E6FFE66A020EDBCFE6FFE66A030EDBCFB3
:101E5000E6FFE66A020EDBCFE6FFE66A960EE66E66
:101E60006B0EE66E000EE66EBBEC38F0326E0B0EBB
:101E7000E15E325000D00101E151EA6A000FE96EE3
:101E8000070EEA22EF500D080DE00D500BE1520E47
:101E9000326E336ADF50321803E1DE52DD50331800
:101EA00001E00D8EE0C1E1F1040EE15C02E2E16AC5
:101EB000E552E16EE552E7CFD9FF12000101E6518C
:101EC0000BE0960EE66E730EE66E000EE66EBBEC51
:101ED00038F0E552E552E552120051EC0AF05EEF9F
:101EE0000FF0D9CFE6FFE1CFD9FF030EE126E66A76
:101EF000D9CFE6FFDACFE6FF010EE66E8DEC1AF0E1
:101F0000E552E552E552E552E66AD950010FE66E18
:101F1000000EDA20E66E020EE66E8DEC1AF0E55247
:101F2000E552E552E5520D5001E01AD0DF0417E109
:101F3000D950010FE96EDACFEAFFEE50ED100AE05A
:101F4000010E326E336ADB50321803E1020EDB50B1
:101F5000331804E1010EDBCFE6F101D00D8CAEDFCA
:101F6000030EE15C02E2E16AE552E16EE552E7CF81
:101F7000D9FF1200D9CFE6FFE1CFD9FF030EE1264A
:101F8000020EDB6AE66A000EE66E000EE66E030ED7
:101F9000E66E8DEC1AF0E552E552E552E552E66A3E
:101FA000D950020FE66E000EDA20E66E010EE66EE4
:101FB0008DEC1AF0E552E552E552E5520D5001E084
:101FC0001BD0020EDB500CE10050011003E1026A4D
:101FD000036A05D0CA8400C002F001C003F00BD030
:101FE0000050011003E1076A086A05D0CA8400C0E6
:101FF00007F001C008F062DF030EE15C02E2E16A73
:10200000E552E16EE552E7CFD9FF1200D9CFE6FFE6
:10201000E1CFD9FF040EE126E66AD9CFE6FFDACF99
:10202000E6FF010EE66E8DEC1AF0E552E552E55240
:10203000E552E66AD950010FE66E000EDA20E66E30
:10204000010EE66E8DEC1AF0E552E552E552E552CE
:10205000E66AD950020FE66E000EDA20E66E010E37
:10206000E66E8DEC1AF0E552E552E552E552E66A6D
:10207000D950030FE66E000EDA20E66E010EE66E12
:102080008DEC1AF0E552E552E552E5520D5001E0B3
:1020900029D0DF50926E010EDB50936E020EDB50A2
:1020A000946E030EDB500D0805E20D0EF36E030E69
:1020B000F3CFDBFF030EDB5005E10F0EC16EC290C4
:1020C0000C6A0FD00C6AC26A030EDBCFE6FF0F0E5C
:1020D000E552D880E754C16EC280030EDB500C6E0F
:1020E000CA84ECDE040EE15C02E2E16AE552E16ED4
:1020F000E552E7CFD9FF1200D9CFE6FFE1CFD9FFF4
:10210000020EE126E66AD9CFE6FFDACFE6FF010E3E
:10211000E66E8DEC1AF0E552E552E552E552E76EB7
:10212000010EE7CFDBFF0D5001E038D0010EDB5090
:1021300002E1DF50896E010EE66ED9CFE6FFDACFFD
:10214000E6FFE66E8DEC1AF0E552E552E552E552F7
:10215000E76E010EE7CFDBFF0D5001E01FD0010E4F
:10216000DB5002E1DF508A6E010EE66ED9CFE6FF4A
:10217000DACFE6FFE66E8DEC1AF0E552E552E55255
:10218000E552E76E010EE7CFDBFF0D5001E006D010
:10219000010EDB5002E1DF508B6E90DE020EE15C3F
:1021A00002E2E16AE552E16EE552E7CFD9FF1200A3
:1021B0008250E66EE66A8150E66EE66A8050E66E10
:1021C000E66A830EE66E6B0EE66E000EE66EBBEC04
:1021D00038F0326E090EE15E325012009E0EE66E4D
:1021E000730EE66E000EE66EBBEC38F0E552E5527B
:1021F000E5521200D9CFE6FFE1CFD9FFE652DF6A00
:10220000810EE66E6B0EE66E000EE66EBBEC38F0ED
:10221000E552E552E552DF6A0C50DF5C2CE2DFCF7D
:1022200032F0336A32BE3368060E3302F3CF33F036
:102230003202F3CF32F0F4503326000E3226010E74
:1022400033220A50020D3250F324E96E3350F42049
:10225000EA6EEECFE6FFEFCFE6FF7B0EE66E6B0E8B
:10226000E66E000EE66EBBEC38F0346E050EE15EF5
:102270003450DF2AD1D79B0EE66E730EE66E000E49
:10228000E66EBBEC38F0E552E552E552E552E55218
:10229000E7CFD9FF1200D9CFE6FFE1CFD9FF030E78
:1022A000E126E66AD9CFE6FFDACFE6FFE66E8DECEF
:1022B0001AF0E552E552E552E552E66AD950020FAE
:1022C000E66E000EDA20E66E010EE66E8DEC1AF078
:1022D000E552E552E552E5520D5001E011D0DECF56
:1022E00032F0DDCF33F0000E325C100E335807E2CF
:1022F000DECFE9FFDDCFEAFF020EDBCFEFFFDEDD51
:10230000030EE15C02E2E16AE552E16EE552E7CFDD
:10231000D9FF1200D9CFE6FFE1CFD9FF030EE126A6
:10232000E66AD9CFE6FFDACFE6FFE66E8DEC1AF06B
:10233000E552E552E552E5520D5001E020D0DECFE6
:1023400032F0DDCF33F0000E325C100E335807E26E
:10235000DECFE9FFDDCFEAFF020EEFCFDBFF020E9B
:10236000DBCFE6FFE66A710EE66E6B0EE66E000EE0
:10237000E66EBBEC38F0326E050EE15E3250030EB5
:10238000E15C02E2E16AE552E16EE552E7CFD9FF96
:102390001200D9CFE6FFE1CFD9FF030EE126E66AAE
:1023A000D9CFE6FFDACFE6FF050EE66E8DEC1AF028
:1023B000E552E552E552E552E66AD950010FE66E64
:1023C000000EDA20E66E010EE66E8DEC1AF0E55294
:1023D000E552E552E552E66AD950020FE66E000E6C
:1023E000DA20E66E010EE66E8DEC1AF0E552E5524B
:1023F000E552E5520D5001E06CD0020EDB500108B1
:1024000002E20D8C66D0010EDB50070802E20D8C53
:1024100060D0410E326EDF50325C1AE1020EDB50AA
:102420000CE1010EF36EDB5004E0D890F336E806C1
:10243000FCE1F350E81C92160AD0010EF36EDB505B
:1024400004E0D890F336E806FCE1F350921240D055
:10245000420E326EDF50325C1AE1020EDB500CE1AC
:10246000010EF36EDB5004E0D890F336E806FCE191
:10247000F350E81C93160AD0010EF36EDB5004E013
:10248000D890F336E806FCE1F350931221D0430EC6
:10249000326EDF50325C1AE1020EDB500CE1010EAD
:1024A000F36EDB5004E0D890F336E806FCE1F3501D
:1024B000E81C94160AD0010EF36EDB5004E0D890AD
:1024C000F336E806FCE1F350941202D00D8C01D0F3
:1024D000F5DC030EE15C02E2E16AE552E16EE552F1
:1024E000E7CFD9FF1200D9CFE6FFE1CFD9FF030E26
:1024F000E126020EDB6AE66AD9CFE6FFDACFE6FF15
:10250000050EE66E8DEC1AF0E552E552E552E55205
:10251000E66AD950010FE66E000EDA20E66E010E73
:10252000E66E8DEC1AF0E552E552E552E5520D509B
:1025300001E05BD0010EDB50070802E20D8C55D0A4
:10254000410E326EDF50325C0FE1010EF36EDB5054
:1025500004E0D890F336E806FCE1F3508014E76E0F
:10256000020EE7CFDBFF2AD0420E326EDF50325C24
:102570000FE1010EF36EDB5004E0D890F336E8066D
:10258000FCE1F3508114E76E020EE7CFDBFF16D0BB
:10259000430E326EDF50325C0FE1010EF36EDB5002
:1025A00004E0D890F336E806FCE1F3508214E76EBD
:1025B000020EE7CFDBFF02D00D8C17D0DB5005E019
:1025C000010EF36E020EF3CFDBFF020EDBCFE6FF50
:1025D000E66A680EE66E6B0EE66E000EE66EBBEC0B
:1025E00038F0326E050EE15E3250030EE15C02E21D
:1025F000E16AE552E16EE552E7CFD9FF1200D9CF8B
:10260000E6FFE1CFD9FF030EE126E66AD9CFE6FF68
:10261000DACFE6FF050EE66E8DEC1AF0E552E552D4
:10262000E552E552E66AD950010FE66E000EDA2057
:10263000E66E010EE66E8DEC1AF0E552E552E552BB
:10264000E552E66AD950020FE66E000EDA20E66E19
:10265000010EE66E8DEC1AF0E552E552E552E552B8
:102660000D5001E06DD0020EDB50010802E20D8C2E
:1026700067D0010EDB50070802E20D8C61D0410EDD
:10268000326EDF50325C1AE1020EDB500CE1010EBB
:10269000F36EDB5004E0D890F336E806FCE1F3502B
:1026A000E81C89160AD0010EF36EDB5004E0D890C6
:1026B000F336E806FCE1F350891240D0420E326E48
:1026C000DF50325C1AE1020EDB500CE1010EF36EBA
:1026D000DB5004E0D890F336E806FCE1F350E81C48
:1026E0008A160AD0010EF36EDB5004E0D890F33660
:1026F000E806FCE1F3508A1221D0430E326EDF501F
:10270000325C1AE1020EDB500CE1010EF36EDB507D
:1027100004E0D890F336E806FCE1F350E81C8B1691
:102720000AD0010EF36EDB5004E0D890F336E806D1
:10273000FCE1F3508B1202D00D8C02D05EEC0FF056
:10274000030EE15C02E2E16AE552E16EE552E7CF99
:10275000D9FF12005EEF0FF05EEF0FF05EEF0FF0AB
:10276000D9CFE6FFE1CFD9FF040EE126E66AD9CF43
:10277000E6FFDACFE6FF050EE66E8DEC1AF0E552C5
:10278000E552E552E552E66AD950010FE66E000EB9
:10279000DA20E66E010EE66E8DEC1AF0E552E55297
:1027A000E552E552E66AD950020FE66E000EDA20D5
:1027B000E66E030EE66E8DEC1AF0E552E552E55238
:1027C000E5520D5001E07BD0D950020FE96EDACF0F
:1027D000EAFF720ED880EE542E0EED5402E20D8CFC
:1027E0006ED0D950020FE96EDACFEAFFEE50ED104D
:1027F0001FE035683668376A2D0EE76E020EDBCFB4
:1028000038F0030EDBCF39F0E7503826000E3922BE
:102810003A6A3850355C326E39503658336E3A5019
:102820003758346E020E32C0DBFF030E33C0DBFFBD
:10283000010EDB50070802E20D8C41D0410E326ED2
:10284000DF50325C02E1DF6A12D0420E326EDF509E
:10285000325C03E1080EDF6E0AD0430E326EDF50A9
:10286000325C03E1100EDF6E02D00D8C28D0010E19
:10287000DB50DF24E96EEA6AD890E936EA36690E61
:10288000E926010EEA22020EDBCFEEFF030EDBCFBC
:10289000EDFF010EDB50DF24EA6A510FE96E010EF5
:1028A000EA22EF040AE1010EDB50DF24EA6A510F4D
:1028B000E96E010EEA22020EEF6E5EEC0FF0040EDE
:1028C000E15C02E2E16AE552E16EE552E7CFD9FF51
:1028D0001200D9CFE6FFE1CFD9FF050EE126E66A67
:1028E000D9CFE6FFDACFE6FF010EE66E8DEC1AF0E7
:1028F000E552E552E552E552E66AD950020FE66E1E
:10290000000EDA20E66E010EE66E8DEC1AF0E5524E
:10291000E552E552E552E66AD950030FE66E000E25
:10292000DA20E66E010EE66E8DEC1AF0E552E55205
:10293000E552E552E66AD950010FE66E000EDA2044
:10294000E66E010EE66E8DEC1AF0E552E552E552A8
:10295000E552E66AD950040FE66E000EDA20E66E04
:10296000010EE66E8DEC1AF0E552E552E552E552A5
:102970000D5001E012D0DFCFD9F1020EDBCFDBF139
:10298000010EDBCFDAF1030EDBCFDCF1040EDBCF7F
:10299000DDF1D9C189FF5EEC0FF0050EE15C02E2CA
:1029A000E16AE552E16EE552E7CFD9FF1200D9CFD7
:1029B000E6FFE1CFD9FF040EE126030EDB6A010139
:1029C000E151EA6A000FE96E070EEA22EF502C0887
:1029D00018E00101E151EA6A000FE96E070EEA22F0
:1029E000EF50E66EE66A410EE66E6B0EE66E000E86
:1029F000E66EBBEC38F0326E050EE15E32500D8AA9
:102A000020D10101E12B0101E151326E336A000E48
:102A1000321802E1010E331802E10101E16BD9C164
:102A200089FF0101DA1D8914326E891C0101DA1552
:102A30003210E76E010EE7CFDBFF0101E151EA6AD8
:102A4000000FE96E070EEA22EF500D0801E1F7D002
:102A50000101E151EA6A000FE96E070EEA22EF5028
:102A6000E66EE66A81EC39F0E552E552020EF3CFEC
:102A7000DBFF300EF36E020EDBCFF4FFF350F45C9D
:102A80000FE3020EDB5039080BE3300E326E020EFC
:102A9000DBCFE7FF3250E75E020EE7CFDBFF19D056
:102AA000410EF36E020EDBCFF4FFF350F45C0FE344
:102AB000020EDB5046080BE3370E326E020EDBCF00
:102AC000E7FF3250E75E020EE7CFDBFF02D00D8C4E
:102AD000B8D0020EDB38F00BDF6E0101E12B0101F3
:102AE000E151326E336A000E321802E1010E3318E2
:102AF00002E10101E16B0D0E326E0101E151EA6A62
:102B0000000FE96E070EEA22EF50325C02E10D88F9
:102B100098D00101E151EA6A000FE96E070EEA223E
:102B2000EF50E66EE66A81EC39F0E552E552020EAE
:102B3000F3CFDBFF300EF36E020EDBCFF4FFF3506A
:102B4000F45C0FE3020EDB5039080BE3300E326EFB
:102B5000020EDBCFE7FF3250E75E020EE7CFDBFF6E
:102B600019D0410EF36E020EDBCFF4FFF350F45C8C
:102B70000FE3020EDB5046080BE3370E326E020EF7
:102B8000DBCFE7FF3250E75E020EE7CFDBFF02D07C
:102B90000D8C57D0020EDB50DF24DF6E0101E12BDC
:102BA0000101E151326E336A000E321802E1010E6A
:102BB000331802E10101E16BDF508A6E010EDB5038
:102BC000896E0101DD5105E0DDC1E6FF08EC3AF058
:102BD000E552D9C189FF0101DC5130E0030EDCC1AF
:102BE000DBFF0101D9510101DB15326E0101DB511F
:102BF0008014325C0BE1030EDB5008E000000000A3
:102C0000000000000000030EDB06EBD7030EDCC162
:102C1000DBFF0101D9510101DB15326E0101DB51EE
:102C20008014325C0BE0030EDB5008E00000000073
:102C3000000000000000030EDB06EBD7FED65EECC2
:102C40000FF0040EE15C02E2E16AE552E16EE5524A
:102C5000E7CFD9FF1200D9CFE6FFE1CFD9FF050EAC
:102C6000E126030EDB6A040EDB6AE66AD950040F24
:102C7000E66E000EDA20E66E010EE66E8DEC1AF0BE
:102C8000E552E552E552E552040EDB5004E0040E35
:102C9000DB50380802E20D8C9FD00101E151EA6A55
:102CA000000FE96E070EEA22EF502C0818E0010130
:102CB000E151EA6A000FE96E070EEA22EF50E66E74
:102CC000E66A410EE66E6B0EE66E000EE66EBBEC3B
:102CD00038F0326E050EE15E32500D8A7DD0010172
:102CE000E12B0101E151326E336A000E321802E12C
:102CF000010E331802E10101E16BD9C189FF010125
:102D0000DA1D8914326E891C0101DA153210E76E62
:102D1000010EE7CFDBFF040EDB505CE00101E15167
:102D2000EA6A000FE96E070EEA22EFCFDFFF01012A
:102D3000E12B0101E151326E336A000E321802E1DB
:102D4000010E331802E10101E16B040EDB06DF50D6
:102D50008A6E010EDB50896E0101DD5105E0DDC197
:102D6000E6FF08EC3AF0E552D9C189FF0101DC51D8
:102D700030E0030EDCC1DBFF0101D9510101DB159D
:102D8000326E0101DB518014325C0BE1030EDB502B
:102D900008E000000000000000000000030EDB0659
:102DA000EBD7030EDCC1DBFF0101D9510101DB15BB
:102DB000326E0101DB518014325C0BE0030EDB50FC
:102DC00008E000000000000000000000030EDB0629
:102DD000EBD7A1D75EEC0FF0050EE15C02E2E16AF1
:102DE000E552E16EE552E7CFD9FF12005EEF0FF03A
:102DF0005EEF0FF05EEF0FF05EEF0FF05EEF0FF0A3
:102E00005EEF0FF0D9CFE6FFE1CFD9FF0F0EE1263D
:102E1000320EF36E0C0EF3CFDBFF010EF36E0D0ED0
:102E2000F3CFDBFF010EF36E0E0EF3CFDBFFE66A8E
:102E3000D950080FE66E000EDA20E66E030EE66E3D
:102E40006CDBE552E552E552E552D950080FE96EC8
:102E5000DACFEAFFEE50ED101FE1010EE66ED95019
:102E60000A0FE66E000EDA20E66E050EE66E55DB02
:102E7000E552E552E552E552010EE66ED9500B0FD0
:102E8000E66E000EDA20E66E010EE66E46DBE552D7
:102E9000E552E552E5521CD0E66AD9500A0FE66EBB
:102EA000000EDA20E66E050EE66E37DBE552E552DF
:102EB000E552E552E66AD9500B0FE66E000EDA20B5
:102EC000E66E010EE66E29DBE552E552E552E5526B
:102ED000010EE66ED9500C0FE66E000EDA20E66E9B
:102EE000010EE66E1ADBE552E552E552E5520D5051
:102EF00001E009D3D950080FE96EDACFEAFFEE50AE
:102F0000ED1032E17990A092410E0101E95D0CE1F2
:102F1000010EE8C1E7FFE75204E0E846FE0BE706D2
:102F2000FCE1E81C89161DD0420EE95D0CE1010EA2
:102F3000E8C1E7FFE75204E0E846FE0BE706FCE1E4
:102F4000E81C8A160ED0430EE95D0BE1010EE8C1C4
:102F5000E7FFE75204E0E846FE0BE706FCE1E81C69
:102F60008B165EEC0FF0CFD2080EDBCF36F0090ED9
:102F7000DBCF37F0386A396A640E296E2A6A2B6A09
:102F80002C6A36C024F037C025F038C026F039C08E
:102F900027F049EC39F020C036F021C037F022C0CC
:102FA00038F023C039F00C0EDBCF32F0336A346ACC
:102FB000356A296A1B0E2A6EB70E2B6E2C6A32C038
:102FC00024F033C025F034C026F035C027F049EC9A
:102FD00039F020C032F021C033F022C034F023C0D9
:102FE00035F032C024F033C025F034C026F035C0AF
:102FF00027F036C029F037C02AF038C02BF039C08E
:103000002CF00EEC37F024C0DEFF25C0DEFF26C01A
:10301000DEFF27C0DDFFDD52DD52080EDBCF36F0CC
:10302000090EDBCF37F0386A396A640E296E2A6AD6
:103030002B6A2C6A36C024F037C025F038C026F041
:1030400039C027F049EC39F020C036F021C037F004
:1030500022C038F023C039F00C0EDBCFE6FF640E3F
:10306000E552D880E754326E336A346A356A296A89
:103070001B0E2A6EB70E2B6E2C6A32C024F033C0A2
:1030800025F034C026F035C027F049EC39F020C0D7
:1030900032F021C033F022C034F023C035F032C00A
:1030A00024F033C025F034C026F035C027F036C0F8
:1030B00029F037C02AF038C02BF039C02CF00EECC4
:1030C00037F0040E24C0DBFF050E25C0DBFF060E23
:1030D00026C0DBFF070E27C0DBFFD9CFE9FFDACF21
:1030E000EAFFD880FF0EEE54FF0EEE54000EEE54B1
:1030F000000EEE5423E2800EF36E0D0EF3CFDBFFD5
:10310000D9CFE9FFDACFEAFFEECF24F0EECF25F0FA
:10311000EECF26F0EFCF27F0800E296E2A6A2B6AB9
:103120002C6AA7EC39F024C0DEFF25C0DEFF26C0E4
:10313000DEFF27C0DDFFDD52DD5205D0010EF36E4C
:103140000D0EF3CFDBFFD9CFE9FFDACFEAFF280E70
:10315000EE5C000EEE58000EEE58000EEE5807E240
:10316000280EDE6EDE6ADE6ADD6ADD52DD52D9507F
:10317000040FE96EDACFEAFFD880FF0EEE54FF0E9F
:10318000EE54000EEE54000EEE5425E2800EF36E67
:103190000E0EF3CFDBFF040EDBCF24F0050EDBCFEA
:1031A00025F0060EDBCF26F0070EDBCF27F0800ED2
:1031B000296E2A6A2B6A2C6AA7EC39F0040E24C007
:1031C000DBFF050E25C0DBFF060E26C0DBFF070E6A
:1031D00027C0DBFF05D0010EF36E0E0EF3CFDBFF31
:1031E000D950040FE96EDACFEAFF280EEE5C000E2C
:1031F000EE58000EEE58000EEE580BE2280EF36E5D
:10320000040EF3CFDBFF050EDB6A060EDB6A070E4A
:10321000DB6A040EDBCF32F0050EDBCF33F0060E97
:10322000DBCF34F0070EDBCF35F0140E325E000E2C
:10323000335A345A355A040E32C0DBFF050E33C000
:10324000DBFF060E34C0DBFF070E35C0DBFFD9CF36
:10325000E9FFDACFEAFFEECF32F0EECF33F0EECF78
:1032600034F0EFCF35F0140E325E000E335A345A7C
:10327000355A32C0DFFF010E33C0DBFF020E34C00F
:10328000DBFF030E35C0DBFF0B0EDB50070802E24D
:103290000D8C39D1000EF36E0C0EDBCFF4FFF35022
:1032A000F45C04E30C0EDB50630802E20D8C2BD1BE
:1032B00079B06CD00201846B856B866B410E326EE7
:1032C0000A0EDB50325C19E1010EF36E0B0EDB507F
:1032D00004E0D890F336E806FCE1F350E81C9216BF
:1032E000010EF36E0B0EDB5004E0D890F336E806C7
:1032F000FCE1F3500201841340D0420E326E0A0EFC
:10330000DB50325C19E1010EF36E0B0EDB5004E072
:10331000D890F336E806FCE1F350E81C9316010E52
:10332000F36E0B0EDB5004E0D890F336E806FCE1B8
:10333000F3500201851321D0430E326E0A0EDB508A
:10334000325C19E1010EF36E0B0EDB5004E0D890F5
:10335000F336E806FCE1F350E81C9416010EF36E18
:103360000B0EDB5004E0D890F336E806FCE1F35096
:103370000201861302D00D8CC6D00B0EDBCFE8F114
:103380000A0EDBCFE9F1010E1D6E1C6AD9CFE9FFF1
:10339000DACFEAFFD880FF0EEE54FF0EEE54000E97
:1033A000EE54000EEE540FE3D950040FE96EDACF5D
:1033B000EAFFD880FF0EEE54FF0EEE54000EEE54DE
:1033C000000EEE5402E20D8C9ED036683768386AE3
:1033D000396AD9CFE9FFDACFEAFFEE50365C326EB8
:1033E000EE503758336EEE503858346EEE50395830
:1033F000356E32C0DFFF010E33C0DBFF020E34C07A
:10340000DBFF030E35C0DBFF36683768386A396A80
:10341000D950040FE96EDACFEAFFEE50365C326E17
:10342000EE503758336EEE503858346EEE503958EF
:10343000356E040E32C0DBFF050E33C0DBFF060E17
:1034400034C0DBFF070E35C0DBFFF29ED9CFE9FFAA
:10345000DACFEAFFEECF32F0EECF33F0EECF34F03A
:10346000EFCF35F0080ED890353234323332323265
:10347000E806F9E13250166ED9CFE9FFDACFEAFF5C
:10348000EECF32F0EECF33F0EECF34F0EFCF35F0B9
:103490003250176E040EDBCF32F0050EDBCF33F067
:1034A000060EDBCF34F0070EDBCF35F0080ED890D8
:1034B0003532343233323232E806F9E13250186EA6
:1034C000040EDBCF32F0050EDBCF33F0060EDBCF80
:1034D00034F0070EDBCF35F03250196E0D0EDB5095
:1034E0001A6E0E0EDB501B6EF28E79B00AD03F0EB4
:1034F00079140009796E7998799AA282A192A082B2
:1035000079805EEC0FF00F0EE15C02E2E16AE552B9
:10351000E16EE552E7CFD9FF1200D9CFE6FFE1CF48
:10352000D9FF040EE126030EDB6A0D0E326E010197
:10353000E151EA6A000FE96E070EEA22EF50325CB1
:1035400006E1FB0EDB5001E10D88030ED4D1E15101
:10355000EA6A000FE96E070EEA22EF502C081BE022
:10356000FB0EDB5016E1E151EA6A000FE96E070E2F
:10357000EA22EF50E66EE66A410EE66E6B0EE66EEC
:10358000000EE66EBBEC38F0326E050EE15E325096
:103590000D8A020EB0D1E12BE151326E336A000E7A
:1035A000321802E1010E331801E1E16B0D0E326EAB
:1035B000E151EA6A000FE96E070EEA22EF50325C31
:1035C00006E1FB0EDB5001E10D88030E94D12D0EB8
:1035D000326EE151EA6A000FE96E070EEA22EF50FF
:1035E000325C29E1040E336EFE0EDB50335C23E0C7
:1035F000050E346EFE0EDB50345C1DE0FE0EDB0467
:1036000006E0030E326EFE0EDB50325C04E10D8CE0
:10361000010E71D110D0010EF36E030EF3CFDBFF5C
:10362000E12BE151326E336A000E321802E1010ED5
:10363000331801E1E16B040E326EFE0EDB50325C9A
:1036400011E0050E336EFE0EDB50335C0BE0050E11
:10365000E66ED9CFE6FFDACFE6FF59D9E552E5525B
:10366000E5523ED00101E151EA6A000FE96E070E12
:10367000EA22EFCF32F0336A346A32C0DFFF010E44
:1036800033C0DBFF020E34C0DBFF050E326EFE0ED0
:10369000DB50325C19E1000EDFCFE6FF010EDBCF1D
:1036A000E6FF81EC39F0E552E552F3CF32F0F4CF8A
:1036B00033F0346A33BE346832C0DFFF010E33C0EA
:1036C000DBFF020E34C0DBFF0101E12BE151326E62
:1036D000336A000E321802E1010E331801E1E16B8A
:1036E000030EDB5021E0DFCF32F0010EDBCF33F0F1
:1036F000020EDBCF34F02A682B682C6832C025F02C
:1037000033C026F034C027F042EC37F022C032F04C
:1037100023C033F024C034F032C0DFFF010E33C0C9
:10372000DBFF020E34C0DBFFFE0EDB5026E1DFCFF5
:1037300032F0010EDBCF33F0020EDBCF34F0343445
:10374000000E341807E6D8807F0E3254000E335432
:10375000000E345401E28CD0D9CFE9FFDACFEAFF72
:10376000020ED880EB50FF0A06E6800EEE5CFF0EDC
:10377000EE58FF0EEF5801E27BD0FE0EDB0424E191
:10378000DFCF35F0010EDBCF36F0020EDBCF37F0A6
:103790003734000E371807E6D880FF0E3554000E78
:1037A0003654000E375464E3D9CFE9FFDACFEAFF8D
:1037B000020ED890EB50000A06E6000EEE5C000EFA
:1037C000EE58000EEF5854E3020E386EFE0EDB503A
:1037D000385C24E1DFCF39F0010EDBCF3AF0020E86
:1037E000DBCF3BF03B34000E3B1807E6D880FF0EE2
:1037F00039547F0E3A54000E3B543AE3D9CFE9FFD7
:10380000DACFEAFF020ED880EB50FF0A06E6000E80
:10381000EE5C800EEE58FF0EEF582AE3030E3C6E6E
:10382000FE0EDB503C5C27E1DFCF3DF0010EDBCF2D
:103830003EF0020EDBCF3FF03F34000E3F1807E6AC
:10384000D880FF0E3D54FF0E3E54000E3F5410E34F
:10385000D9CFE9FFDACFEAFF020ED890EB50000A89
:1038600006E6000EEE5C000EEE58000EEF5803E286
:103870000D8C010E40D0FE0EDB50030A2DE0010A34
:103880001EE0030A12E0050A10E0010A0EE0050A34
:1038900002E0040E30D0FC0EDBCFE9FFFD0EDBCFE3
:1038A000EAFF000EDFCFEFFF24D0FC0EDBCFE9FFF5
:1038B000FD0EDBCFEAFF000EDFCFEFFF1AD0FC0ECC
:1038C000DBCFE9FFFD0EDBCFEAFF000EDFCFEEFF1F
:1038D000010EDBCFEDFF0DD0FC0EDBCFE9FFFD0EBF
:1038E000DBCFEAFF000EDFCFEEFF010EDBCFEDFFF7
:1038F00000D0000E00D0326E040EE15C02E2E16AFC
:10390000E552E16E3250E552E7CFD9FF1200D9CF30
:10391000E6FFE1CFD9FF020EE126FD0EDBCFE9FF86
:10392000FE0EDBCFEAFFEE6AEE6AEE6A010EDB6A9C
:10393000FC0EDB50F36E010EDBCFF4FFF350F45CB2
:1039400058E20101E151EA6A000FE96E070EEA222E
:10395000EFCFDFFF300EDF5C4AE3DF50390847E38B
:10396000FD0EDBCFE9FFFE0EDBCFEAFFEECF35F039
:10397000EECF36F0EFCF37F00A0E2A6E2B6A2C6AA4
:1039800035C025F036C026F037C027F042EC37F0BE
:1039900022C035F023C036F024C037F0300EDF5C93
:1039A000386E396A3A6A35503824326E36503920CA
:1039B000336E37503A20346EFD0EDBCFE9FFFE0E3A
:1039C000DBCFEAFF32C0EEFF33C0EEFF34C0EEFFC4
:1039D0000101E12BE151326E336A000E321802E12F
:1039E000010E331801E1E16B010EDB2AA1D7000EB5
:1039F00002D0010E00D0326E020EE15C02E2E16AFA
:103A0000E552E16E3250E552E7CFD9FF1200065081
:103A1000E66EE66A350EE66E6B0EE66E000EE66E3C
:103A2000BBEC38F0326E050EE15E325012000D0133
:103A3000405108E0010E326E6550020B01E0010EAC
:103A4000325C1BE10201D107000ED25BD3510BE1C6
:103A5000D151D21107E18D80D00ED16F070ED26FF8
:103A6000010ED36F09D0D151D21106E18D90D00E45
:103A7000D16F070ED26FD36B48D0400509E0020E1C
:103A8000405D06E0040E405D03E0100E405D02E183
:103A90008D803BD0200E405D38E10201D107000E41
:103AA000D25BD3510BE1D151D21107E18D80100EC1
:103AB000D16F270ED26F010ED36F27D0D3050BE144
:103AC000D151D21107E18D90100ED16F270ED26F18
:103AD000020ED36F1AD0020ED35D0BE1D151D21179
:103AE00007E18D80A00ED16F860ED26F030ED36FCB
:103AF0000CD0030ED35D09E3D151D21106E18D90B4
:103B0000100ED16F270ED26FD36B1200000E03D0B0
:103B1000010E01D000D01200D9CFE6FFE1CFD9FFCE
:103B2000E6520201EC2B000EED230A0EEDAF02D09F
:103B3000D89003D0EC5D000EED5903E3EC6BED6B18
:103B4000EE2BDF6ADFCF32F0336A32BE3368020118
:103B500033508119E8AE02D0813504D08051325CF7
:103B60008151335801E3BBD1DFCFE9FFEA6AE9BEF7
:103B7000EA68E40EE926020EEA22EF5064E0DFCFA5
:103B8000E9FFEA6AE9BEEA68D40EE926020EEA22F3
:103B9000EF50440A43E0070A2DE0010A17E0030A48
:103BA00001E050D0DFCFE9FFEA6AE9BEEA68D80E4B
:103BB000E926020EEA22EF50326E010E325204E084
:103BC000E846FE0B3206FCE189123CD0DFCFE9FF6C
:103BD000EA6AE9BEEA68D80EE926020EEA22EF5048
:103BE000326E010E325204E0E846FE0B3206FCE172
:103BF0008A1228D0DFCFE9FFEA6AE9BEEA68D80E68
:103C0000E926020EEA22EF50326E010E325204E033
:103C1000E846FE0B3206FCE18B1214D0DFCFE9FF41
:103C2000EA6AE9BEEA68D80EE926020EEA22EF50F7
:103C3000326E010E325204E0E846FE0B3206FCE121
:103C40008C1200D067D0DFCFE9FFEA6AE9BEEA68EC
:103C5000D40EE926020EEA22EF50440A46E0070A93
:103C60002FE0010A18E0030A01E054D0DFCFE9FF9A
:103C7000EA6AE9BEEA68D80EE926020EEA22EF50A7
:103C8000326E010E325204E0E846FE0B3206FCE1D1
:103C9000E81C89163FD0DFCFE9FFEA6AE9BEEA688F
:103CA000D80EE926020EEA22EF50326E010E325291
:103CB00004E0E846FE0B3206FCE1E81C8A162AD036
:103CC000DFCFE9FFEA6AE9BEEA68D80EE926020E0C
:103CD000EA22EF50326E010E325204E0E846FE0B4B
:103CE0003206FCE1E81C8B1615D0DFCFE9FFEA6A4B
:103CF000E9BEEA68D80EE926020EEA22EF50326EDB
:103D0000010E325204E0E846FE0B3206FCE1E81CEC
:103D10008C1600D0DFCFE9FFEA6AE9BEEA68E80E58
:103D2000E926020EEA22EF50326E336A0201ED51AB
:103D30003318E8AE02D0333404D03250EC5D335047
:103D4000ED5964E2DFCFE9FFEA6AE9BEEA68DC0E1A
:103D5000E926020EEA22EF50440A43E0070A2DE06A
:103D6000010A17E0030A01E050D0DFCFE9FFEA6A59
:103D7000E9BEEA68E00EE926020EEA22EF50326E52
:103D8000010E325204E0E846FE0B3206FCE18912D5
:103D90003CD0DFCFE9FFEA6AE9BEEA68E00EE92637
:103DA000020EEA22EF50326E010E325204E0E84673
:103DB000FE0B3206FCE18A1228D0DFCFE9FFEA6A67
:103DC000E9BEEA68E00EE926020EEA22EF50326E02
:103DD000010E325204E0E846FE0B3206FCE18B1283
:103DE00014D0DFCFE9FFEA6AE9BEEA68E00EE9260F
:103DF000020EEA22EF50326E010E325204E0E84623
:103E0000FE0B3206FCE18C1200D067D0DFCFE9FF59
:103E1000EA6AE9BEEA68DC0EE926020EEA22EF5001
:103E2000440A46E0070A2FE0010A18E0030A01E00D
:103E300054D0DFCFE9FFEA6AE9BEEA68E00EE9267E
:103E4000020EEA22EF50326E010E325204E0E846D2
:103E5000FE0B3206FCE1E81C89163FD0DFCFE9FFFC
:103E6000EA6AE9BEEA68E00EE926020EEA22EF50AD
:103E7000326E010E325204E0E846FE0B3206FCE1DF
:103E8000E81C8A162AD0DFCFE9FFEA6AE9BEEA68B1
:103E9000E00EE926020EEA22EF50326E010E325297
:103EA00004E0E846FE0B3206FCE1E81C8B1615D058
:103EB000DFCFE9FFEA6AE9BEEA68E00EE926020E12
:103EC000EA22EF50326E010E325204E0E846FE0B59
:103ED0003206FCE1E81C8C1600D0DF2A33D6E5520E
:103EE000E552E7CFD9FF1200D9CFE6FFE1CFD9FFE6
:103EF000070EE126040EE66EE66AE66AD40EE66E6A
:103F0000020EE66E6EEC38F0326E050EE15E325057
:103F1000040EE66EE66AE66AD80EE66E020EE66EFD
:103F20006EEC38F0326E050EE15E3250040EE66E35
:103F3000E66AE66ADC0EE66E020EE66E6EEC38F0BD
:103F4000326E050EE15E3250040EE66EE66AE66AF7
:103F5000E00EE66E020EE66E6EEC38F0326E050E86
:103F6000E15E32500201806B816BDE6ADD6ADECF7A
:103F700032F0DDCF33F0D890335004E6040E325CDB
:103F8000000E335801E3D2D1010EE66EDECF32F0DF
:103F9000DDCF33F0D40E3226020E332232C0E6FFDC
:103FA00033C0E6FF050EE66E8DEC1AF0E552E552E1
:103FB000E552E552010EE66EDECF32F0DDCF33F092
:103FC000D80E3226020E332232C0E6FF33C0E6FF9F
:103FD000010EE66E8DEC1AF0E552E552E552E5521F
:103FE000010EE66EDECF32F0DDCF33F0DC0E32268E
:103FF000020E332232C0E6FF33C0E6FF050EE66E46
:104000008DEC1AF0E552E552E552E552010EE66EEE
:10401000DECF32F0DDCF33F0E00E3226020E332257
:1040200032C0E6FF33C0E6FF010EE66E8DEC1AF0FB
:10403000E552E552E552E552DECFE9FFDDCFEAFF7A
:10404000DC0EE926020EEA22EF5001E16AD10201FC
:10405000802B000E8123D950020F326EDACF33F05D
:10406000030E32C0DBFF040E33C0DBFFDECFE9FFFF
:10407000DDCFEAFFD40EE926020EEA22EF50440A11
:1040800040E0070A2BE0010A16E0030A01E04CD0E9
:10409000D950030FE96EDACFEAFF920EEE6E0F0EE3
:1040A000ED6ED950050FE96EDACFEAFF890EEE6E9C
:1040B0000F0EED6E39D0D950030FE96EDACFEAFF5B
:1040C000930EEE6E0F0EED6ED950050FE96EDACF3E
:1040D000EAFF8A0EEE6E0F0EED6E26D0D950030F5A
:1040E000E96EDACFEAFF940EEE6E0F0EED6ED95048
:1040F000050FE96EDACFEAFF8B0EEE6E0F0EED6E56
:1041000013D0D950030FE96EDACFEAFF950EEE6EA9
:104110000F0EED6ED950050FE96EDACFEAFF8C0E67
:10412000EE6E0F0EED6E00D0DECFE9FFDDCFEAFFC1
:10413000D80EE926020EEA22EF50336E010E3352FA
:1041400004E0E846FE0B3306FCE1E81C326E030E89
:10415000DBCFE9FF040EDBCFEAFFEF503214E66E4F
:10416000030EDBCFE9FF040EDBCFEAFFE552E75099
:10417000EF6EDECFE9FFDDCFEAFFD80EE926020EB3
:10418000EA22EF50336E010E335204E0E846FE0B94
:104190003306FCE1E81C326E050EDBCFE9FF060EAC
:1041A000DBCFEAFFEF503214E66E050EDBCFE9FFFE
:1041B000060EDBCFEAFFE552E750EF6ED950020F53
:1041C000326EDACF33F0030E32C0DBFF040E33C0A1
:1041D000DBFFDECFE9FFDDCFEAFFDC0EE926020ED2
:1041E000EA22EF50440A40E0070A2BE0010A16E0F9
:1041F000030A01E04CD0D950030FE96EDACFEAFF91
:10420000920EEE6E0F0EED6ED950050FE96EDACFFD
:10421000EAFF890EEE6E0F0EED6E39D0D950030F06
:10422000E96EDACFEAFF930EEE6E0F0EED6ED95007
:10423000050FE96EDACFEAFF8A0EEE6E0F0EED6E15
:1042400026D0D950030FE96EDACFEAFF940EEE6E56
:104250000F0EED6ED950050FE96EDACFEAFF8B0E27
:10426000EE6E0F0EED6E13D0D950030FE96EDACF5C
:10427000EAFF950EEE6E0F0EED6ED950050FE96E4A
:10428000DACFEAFF8C0EEE6E0F0EED6E00D0DECFB1
:10429000E9FFDDCFEAFFE00EE926020EEA22EF5049
:1042A000336E010E335204E0E846FE0B3306FCE1A8
:1042B000E81C326E030EDBCFE9FF040EDBCFEAFF12
:1042C000EF503214E66E030EDBCFE9FF040EDBCFB6
:1042D000EAFFE552E750EF6EDECFE9FFDDCFEAFF00
:1042E000E00EE926020EEA22EF50336E010E335241
:1042F00004E0E846FE0B3306FCE1E81C326E050ED6
:10430000DBCFE9FF060EDBCFEAFFEF503214E66E9B
:10431000050EDBCFE9FF060EDBCFEAFFE552E750E3
:10432000EF6EDF2A010E01E3DB2A21D680C2E6FF11
:1043300081C2E6FF230EE66E6B0EE66E000EE66EA1
:10434000BBEC38F0326E050EE15E3250DE6ADD6A9B
:10435000DECF32F0DDCF33F0020133508119E8AE09
:1043600002D0813504D08051325C815133583DE216
:10437000DECFE9FFDDCFEAFFE00EE926020EEA22FA
:10438000EF50E66EE66ADECFE9FFDDCFEAFFDC0E36
:10439000E926020EEA22EF50E66EE66ADECFE9FF7A
:1043A000DDCFEAFFD80EE926020EEA22EF50E66ED4
:1043B000E66ADECFE9FFDDCFEAFFD40EE926020E82
:1043C000EA22EF50E66EE66A170EE66E6B0EE66EB8
:1043D000000EE66EBBEC38F0326E0B0EE15E325032
:1043E000DF2A010E01E3DB2AB3D78950E66EE66AC5
:1043F0009250E66EE66A040EE66E6B0EE66E000EF6
:10440000E66EBBEC38F0326E070EE15E32505EECC9
:104410000FF0070EE15C02E2E16AE552E16EE5525F
:10442000E7CFD9FF1200D9CFE6FFE1CFD9FF060EC3
:10443000E126DE6ADD6ADECF32F0DDCF33F0D890E0
:10444000335004E6040E325C000E335801E39AD078
:10445000010EE66ED950020F346EDACF35F0DE5021
:104460003424326EDD503520336E32C0E6FF33C067
:10447000E6FFE66A8DEC1AF0E552E552E552E552A8
:10448000000901E07AD0D950020F336EDACF34F050
:10449000DE503324E96EDD503420EA6EEFCF32F087
:1044A000323428E3DECFE9FFDDCFEAFFE40EE92670
:1044B000020EEA22010EEF6ED950020F346EDACFEF
:1044C00035F0DE503424E96EDD503520EA6EEF50D1
:1044D000FF0DF350E66ED950020F326EDACF33F093
:1044E000DE503224E96EDD503320EA6EE552E750AB
:1044F000EF6E09D0DECFE9FFDDCFEAFFE40EE9265B
:10450000020EEA22EF6AD950020F326EDACF33F090
:10451000DE503224E96EDD503320EA6EEF50E66E55
:10452000DECFE9FFDDCFEAFFE80EE926020EEA2240
:10453000E552E750EF6EDECFE9FFDDCFEAFFE80E90
:10454000E926020EEA22EF50E66EE66ADECFE9FFC8
:10455000DDCFEAFFE40EE926020EEA22EF50E66E16
:10456000E66AFB0EE66E6A0EE66E000EE66EBBECC9
:1045700038F0326E070EE15E3250DF2A010E01E3A1
:10458000DB2A59D779B00AD03F0E79140009796E29
:104590007998799AA282A192A08279808950E66E58
:1045A000E66A9250E66EE66A040EE66E6B0EE66E02
:1045B000000EE66EBBEC38F0326E070EE15E325054
:1045C0000201EE51E66EE66AF60EE66E6A0EE66EE1
:1045D000000EE66EBBEC38F0326E050EE15E325036
:1045E0005EEC0FF0060EE15C02E2E16AE552E16E7C
:0845F000E552E7CFD9FF1200EC
:0845F800D9CFE6FFE1CFD9FFA6
:10460000E652A098636A626A0F01266B020EE66E9C
:10461000E66AE66A270EE66E0F0EE66E6EEC38F07E
:10462000326E050EE15E32500F01160E396F9F0E8D
:10463000376F7B0E366FDF6ADF50326E336A0C0ED7
:10464000325C000E335810E2DF50040DF3CFE9FF67
:10465000F4CFEAFF000EE9260D0EEA22EE6AEE6ABA
:10466000EE6AEE6ADF2AE8D7658C0F01386B659831
:10467000659C62A607D062960D01596B5E6B5F6BFD
:10468000606BF7D70D01010E736F746F756B766BEE
:10469000676BDF6A030EDF5C26E2EA6ADF34FE0B3B
:1046A000EA36E96E4E0EE9260D0EEA22EE6AED6A52
:1046B000EA6ADF34FE0BEA36E96E480EE9260D0E93
:1046C000EA22EE6AED6ADF50EA6A6B0FE96E0D0EC0
:1046D000EA22EF6ADF50EA6A6E0FE96E0D0EEA22F7
:1046E000EF6ADF2AD7D70D01080E4E6F0D0E4F6F00
:1046F0000F01160E266F0D01300E026F0D0E036FA7
:10470000080E016F840E006F0D01416B406BE55286
:10471000E552E7CFD9FF1200D9CFE6FFE1CFD9FFAD
:10472000E6520D01400509E165BA07D0626A0F0142
:10473000368136890D01020E406F6250040B07E08E
:104740000F013651040B03E0629402EC2AF065A2DB
:1047500002D0A1989DD06250010B0AE00F013651A2
:10476000010B06E049DFA0880D01040E406F629046
:104770006250100B07E00F013651100B03E0ECEC18
:1047800029F0629862AC1AD00F0136AD0FD0010E3D
:10479000E66EE66A000EE66EE66A730EE66EE66A9E
:1047A000BFEC36F0326E060EE15E3250629C0D01B7
:1047B000715101E07107715101E110DA6250200B73
:1047C00006E00F013651200B02E0D2EC29F06250D6
:1047D000020B14E00F013651020B10E0010EE66EE1
:1047E000E66A000EE66EE66AE6687F0EE66EBFECED
:1047F00036F0326E060EE15E3250636A040E0D0131
:10480000E76E4019E8AE02D0E73402D0E750405DD1
:1048100002E2A1983DD00F0136A739D0DF6A040E1D
:10482000DF5C35E262A632D064CF68FD0D016851CD
:10483000780BE842E842E842696F629668B508D0B2
:104840006951EA6A6E0FE96E0D0EEA22EF7007D029
:104850006951EA6A6B0FE96E0D0EEA22EF70695139
:1048600003E11AEC2AF010D0000EE66EE66A680E3C
:10487000E66E0D0EE66E720EE66EE66ABFEC36F080
:10488000326E060EE15E3250DF2AC9D700D0A19801
:10489000E552E552E7CFD9FF1200D9CFE6FFE1CFCD
:1048A000D9FF020EE126FD0EDBA407D0E66AFE0E5C
:1048B000DBCFE6FF24DAE552E552FD0EDBA208D09D
:1048C000010EE66EFE0EDBCFE6FF19DAE552E55289
:1048D000FE0EDB50336A260F326E0F0E332232C0CB
:1048E000DEFF33C0DDFFDECFE9FFDDCFEAFFFD0EE7
:1048F000DBCFEFFF020EE15C02E2E16AE552E16E1E
:10490000E552E7CFD9FF1200D9CFE6FFE1CFD9FFBB
:10491000020EE126FD0EDB500FE0FE0EEA6ADB34EC
:10492000FE0BEA36E96E4E0EE9260D0EEA22EECFB8
:10493000DEFFEDCFDDFF0ED0FE0EEA6ADB34FE0BAC
:10494000EA36E96E480EE9260D0EEA22EECFDEFFCA
:10495000EDCFDDFFD9CFE9FFDACFEAFFEE50ED1062
:1049600003E1F36AF46A49D0DECFE9FFDDCFEAFF65
:10497000020EE926000EEA22FB0EDBCFEEFFFC0E54
:10498000DBCFEDFFDECFE9FFDDCFEAFFEE52FA0E1F
:10499000DBCFEFFF400E326EDECFE9FFDDCFEAFF67
:1049A0003250EF16880E326EDECFE9FFDDCFEAFF20
:1049B0003250EF12FD0EDB500CE0FE0EEA6ADB34E3
:1049C000FE0BEA36E96E4E0EE9260D0EEA22EF7472
:1049D0000BD0FE0EEA6ADB34FE0BEA36E96E480EB7
:1049E000E9260D0EEA22EF74DECF32F0DDCF33F090
:1049F00032C0F3FF33C0F4FF00D0020EE15C02E2EC
:104A0000E16AE552E16EE552E7CFD9FF1200D9CF56
:104A1000E6FFE1CFD9FF020EE126FE0EDB5020E1DA
:104A200046CDE9FF47CDEAFFEE52080EEF6E46CDC8
:104A3000E9FF47CDEAFF020EE926000EEA22300E1A
:104A4000EE6E0D0EED6E46CDE9FF47CDEAFF8C0E02
:104A5000EF6E4ECDE9FF4FCDEAFF840EEF6E3DD0F5
:104A6000FD0EDB50E824346EFE0EDB50040DF350D7
:104A70003424040DF3CF32F0F4CF33F0000E32269D
:104A80000D0E332232C0DEFF33C0DDFF840E326EE6
:104A9000DECFE9FFDDCFEAFF3250EF12FD0EDB5033
:104AA000E824346EFE0EDB50040DF3503424010F65
:104AB000040DF3CF32F0F4CF33F0000E32260D0E9A
:104AC000332232C0DEFF33C0DDFF840E326EDECF14
:104AD000E9FFDDCFEAFF3250EF12020EE15C02E2A5
:104AE000E16AE552E16EE552E7CFD9FF1200D9CF76
:104AF000E6FFE1CFD9FF65A84ED0FE0EEA6ADB34AF
:104B0000FE0BEA36E96E4E0EE9260D0EEA22EE5055
:104B1000EFCFEAFFE96E400EEE16EE6AEE6AEE6A3D
:104B2000FE0EEA6ADB34FE0BEA36E96E4E0EE9262B
:104B30000D0EEA22EE50EFCFEAFFE96EEE7CFE0E9C
:104B4000EA6ADB34FE0BEA36E96E4E0EE9260D0EFC
:104B5000EA22EF74400E326EFE0EEA6ADB34FE0B80
:104B6000EA36E96E4E0EE9260D0EEA22EE50EFCF40
:104B7000EAFFE96E3250EF16FE0EEA6ADB34FE0BF6
:104B8000EA36E96E4E0EE9260D0EEA22EE50EFCF20
:104B9000EAFFE96EEF7CE552E7CFD9FF1200656AC4
:104BA0000F01366B0D01406B00D012000D0140511A
:104BB00014E1656A0F01366B160E396F9F0E376F61
:104BC0007B0E366FD08EA288A088F28E65B602D09A
:104BD0006586FCD70D01010E406F12000D01735167
:104BE0004DE1010E736F745149E1010E746F020EB5
:104BF000555D0DE14ECDE9FF4FCDEAFFEE52EF6A74
:104C00004ECDE9FF4FCDEAFFC80EEF6E37D0550508
:104C100035E16A6B44CDE9FF45CDEAFFEE52080E5F
:104C2000EF6E44CDE9FF45CDEAFF020EE926000E06
:104C3000EA22300EEE6E0D0EED6E44CDE9FF45CD4D
:104C4000EAFF840EEF6E010E6A6F46CDE9FF47CD95
:104C5000EAFFEE52080EEF6E46CDE9FF47CDEAFFC0
:104C6000020EE926000EEA22300EEE6E0D0EED6EFB
:104C700046CDE9FF47CDEAFF800EEF6E12000D0131
:104C8000756B766B020E555D1AE146CDE9FF47CD97
:104C9000EAFFEE52080EEF6E46CDE9FF47CDEAFF80
:104CA000020EE926000EEA22380EEE6E0D0EED6EB3
:104CB00046CDE9FF47CDEAFFC80EEF6E1FD05A512F
:104CC0000D01365D0D015B510D01375904E236CD02
:104CD0005AFD37CD5BFDD1D84ECDE9FF4FCDEAFF70
:104CE000020EE926000EEA22380EEE6E0D0EED6E73
:104CF0004ECDE9FF4FCDEAFFC80EEF6E1200D9CFBF
:104D0000E6FFE1CFD9FF020EE126000EDE6E0D0EAA
:104D1000DD6EFD0EDB50E824346EFE0EDB50040D1C
:104D2000F3503424040DF3CF32F0F4CF33F0D9CF65
:104D3000E9FFDACFEAFF3250EE263350ED22DECF24
:104D4000E9FFDDCFEAFFEF9EFD0EDB500FE1FE0E27
:104D5000EA6ADB34FE0BEA36E96E480EE9260D0EF0
:104D6000EA22DECFEEFFDDCFEDFF0ED0FE0EEA6AC7
:104D7000DB34FE0BEA36E96E4E0EE9260D0EEA2212
:104D8000DECFEEFFDDCFEDFFDECFE9FFDDCFEAFFC7
:104D9000EF9CDECFE9FFDDCFEAFF040EE926000E2F
:104DA000EA22EF8C020EE15C02E2E16AE552E16E7A
:104DB000E552E7CFD9FF120065980D0159BF2BD0FE
:104DC0005EAF09D0020E556F765101E158DF0D013B
:104DD000746B736B1FD046CDE9FF47CDEAFFEE52EF
:104DE000080EEF6E46CDE9FF47CDEAFF020EE92639
:104DF000000EEA22300EEE6E0D0EED6E46CDE9FF8E
:104E000047CDEAFF8C0EEF6E4ECDE9FF4FCDEAFFA6
:104E1000840EEF6E31D00D0130AF0DD00D01010EBB
:104E2000556F755101E12BDF0D01746B736B72517E
:104E300001E1D4DE21D00D01020E556F46CDE9FF10
:104E400047CDEAFFEE52080EEF6E46CDE9FF47CDA3
:104E5000EAFF020EE926000EEA22300EEE6E0D0E7B
:104E6000ED6E46CDE9FF47CDEAFF840EEF6E746B21
:104E7000736B725101E1B2DE1200D9CFE6FFE1CFD0
:104E8000D9FFE652080EDF6E0D015A5D000E5B5928
:104E90000BE25ACDDFFF545103E1010E546F04D0F1
:104EA000540502E1020E546FDF50326E336A325005
:104EB0005A5D5A6F33505B595B6F4ECDE9FF4FCD52
:104EC000EAFFEE52DFCFEFFF380E646F0D0E656F15
:104ED00059B11CD0DF5019E056CDF6FF562B57CDF7
:104EE000F7FF000E572358CDF8FF58230800F55060
:104EF000E66E64CDE9FF65CDEAFF642B000E652305
:104F0000E552E750EF6EDF06E5D717D0DF5015E02A
:104F100056CDE9FF57CDEAFF562B000E5723EF5031
:104F2000E66E64CDE9FF65CDEAFF642B000E6523D4
:104F3000E552E750EF6EDF06E9D7E552E552E7CFDD
:104F4000D9FF1200D9CFE6FFE1CFD9FF020EE1264B
:104F500044CDE9FF45CDEAFFEE52EFCFDFFFDFCFD3
:104F600032F032500D015F5D000E605902E25FCDFC
:104F7000DFFFDF50326E336A32505F5D5F6F335058
:104F80006059606F010EDB6ADF50F36E010EDBCFFC
:104F9000F4FFF350F45C16E2010EDB50EA6A380FBE
:104FA000E96E0D0EEA22EF50E66E5CCDE9FF5DCDB5
:104FB000EAFF5C2B000E5D23E552E750EF6E010E19
:104FC000DB2AE2D7000ED8805F55000E605528E23C
:104FD00046CDE9FF47CDEAFFEE52080EEF6E46CD13
:104FE000E9FF47CDEAFF020EE926000EEA22380E5D
:104FF000EE6E0D0EED6E44CDE9FF45CDEAFFEF50AC
:10500000400B07E146CDE9FF47CDEAFFC80EEF6E42
:1050100006D046CDE9FF47CDEAFF880EEF6E2BD0D4
:1050200046CDE9FF47CDEAFFEE52080EEF6E46CDC2
:10503000E9FF47CDEAFF020EE926000EEA22300E14
:10504000EE6E0D0EED6E46CDE9FF47CDEAFF840E04
:10505000EF6E61516211631109E007D063CDFBFF70
:1050600062CDFAFF0D016151F96EF8DF0D015E9F0F
:10507000725101E1B3DD020EE15C02E2E16AE55248
:10508000E16EE552E7CFD9FF1200D9CFE6FFE1CFBD
:10509000D9FFE6520D01598F020EE66EE66AE66A06
:1050A000270EE66E0F0EE66E6EEC38F0326E050ED1
:1050B000E15E3250300EE66EE66AE66A000EE66E9B
:1050C0000D0EE66E6EEC38F0326E050EE15E32507B
:1050D000658CDF6A030EDF5C10E2DF50EA6A6B0F5B
:1050E000E96E0D0EEA22EF6ADF50EA6A6E0FE96E92
:1050F0000D0EEA22EF6ADF2AEDD7020EE66EE66AAF
:10510000E66A420EE66E0D0EE66E6EEC38F0326E1A
:10511000050EE15E3250659C0D01080E4E6F0D0EBE
:105120004F6F000E446F0D0E456F44CD46FD45CDCB
:1051300047FD32CD41FD415103E1100E406F13D0C8
:10514000010EE66EE66A410EE66E0D0EE66E010E8B
:10515000E66EE66ABFEC36F0326E060EE15E325065
:105160000D01200E406FE552E552E7CFD9FF120046
:10517000800E0D01305D01E0ACD00D01C00E596F05
:105180000D013351030A61E0010A10E0030A03E054
:105190000D01596B9ED00D01700E566F6F0E576F3B
:1051A000000E586F120E5A6F5B6B93D0310E326E39
:1051B000700E336E000E346E32CD35F0366A376ABB
:1051C000030E2A6E2B6A2C6A35C025F036C026F0F5
:1051D00037C027F042EC37F022C035F023C036F05C
:1051E00024C037F032503524F36E33503620F46E3D
:1051F00034503720F86EF4CFF7FFF3CFF6FF0900F5
:10520000F5CF56FD0900F5CF57FD0800F5CF58FD45
:1052100056CDF6FF57CDF7FF58CDF8FF020EF62614
:10522000000EF722F8220800F5CF5AFD56CDF6FF02
:1052300057CDF7FF58CDF8FF030EF626000EF722E4
:10524000F8220800F5CF5BFD44D0030E325D3EE24C
:10525000340E326E700E336E000E346E32CD35F079
:10526000366A376A030E2A6E2B6A2C6A35C025F01F
:1052700036C026F037C027F042EC37F022C035F0B8
:1052800023C036F024C037F032503524F36E33504B
:105290003620F46E34503720F86EF4CFF7FFF3CF9A
:1052A000F6FF0900F5CF56FD0900F5CF57FD0800C0
:1052B000F5CF58FD56CDF6FF57CDF7FF58CDF8FF87
:1052C0000800F5500D015A6F5B6B02D00D01596B50
:1052D00000D01200D9CFE6FFE1CFD9FF020EE126C0
:1052E0000D01386B396B30511F0B020A12E0030AB3
:1052F0000DE0010A01E042D00D01598F0D01388106
:105300000D01660502E10D01388338D00D01598F7A
:1053100035D00D01598F0D0134BF10D034510F0B12
:10532000E96EEA6AD890E936EA36480EE9260D0EAB
:10533000EA22EECFDEFFEDCFDDFF0FD034510F0BB1
:10534000E96EEA6AD890E936EA364E0EE9260D0E85
:10535000EA22EECFDEFFEDCFDDFFDECFE9FFDDCFCE
:10536000EAFFEF50800B09E0DECFE9FFDDCFEAFF77
:10537000EF50040B02E0010E386F00D00D0159AF61
:1053800007D0380E566F0D0E576F5981020E5A6FA7
:10539000020EE15C02E2E16AE552E16EE552E7CF1E
:1053A000D9FF12000F0126A115D044CDE9FF45CD4C
:1053B000EAFFEF5080080DE14ECDE9FF4FCDEAFF47
:1053C000EF50840806E144CDE9FF45CDEAFF8C0E9D
:1053D000EF6E2691629A12000F01368562986582FF
:1053E0000D01010E676F000EE66EE66AE66EE66A74
:1053F000750EE66EE66ABFEC36F0326E060EE15EC2
:10540000325012000D01676B000EE66EE66AE66E22
:10541000E66A740EE66EE66ABFEC36F0326E060E91
:10542000E15E325065920F01369562A402D062941B
:10543000FCD71200D9CFE6FFE1CFD9FFE6520D012C
:105440002D0E716FFD0E681553E17E0E6815E84054
:105450007F0B040DF3CF44FDF4CF45FD000E442730
:105460000D0E452344CD46FD45CD47FD467544CD43
:10547000E9FF45CDEAFFEF503C0BE842E8420D085A
:1054800035E1DF6A080EDF5C23E244CDE9FF45CD5C
:10549000EAFF020EE926000EEA22EE50EFCFEAFF05
:1054A000E96EEF50E66EDF50EA6A300FE96E0D0EDE
:1054B000EA22E552E750EF6E44CDE9FF45CDEAFF21
:1054C000020EE926000EEA22EE2AEF22DF2ADAD7C0
:1054D00044CDE9FF45CDEAFF020EE926000EEA229F
:1054E000300EEE6E0D0EED6E0DD801D03AD805D00F
:1054F000FD0E6815040801E159D8E552E552E7CFE1
:10550000D9FF12000D01546B726B756B766B6A6B71
:10551000556B4ECDE9FF4FCDEAFFEF9E4E754ECD58
:10552000E9FF4FCDEAFFEF9E4E7546CDE9FF47CD2F
:10553000EAFFEF9E596B5A6B5B6B5E6B5F6B606B48
:1055400095D8000EE66EE66AE66EE66A030EE66E33
:10555000E66ABFEC36F0326E060EE15E3250DCEFEA
:1055600026F0020E0D01555D02E1ECDC1ED0556BFC
:105570006A511AE146CDE9FF47CDEAFFEE52080E27
:10558000EF6E46CDE9FF47CDEAFF020EE926000E99
:10559000EA22300EEE6E0D0EED6E46CDE9FF47CDE0
:1055A000EAFF8C0EEF6E01D06A6B1200D9CFE6FFD6
:1055B000E1CFD9FFE6524ECDE9FF4FCDEAFFEF50E4
:1055C000400B01E0010EDF6E0D014E75080E405DCF
:1055D0000CE132CD38FF0F01385104E00D01100EFF
:1055E000406F03D00D01040E406F550528E14ECDEC
:1055F000E9FF4FCDEAFF020EE926000EEA22380E3F
:10560000EE6E0D0EED6E39DC020E0D01545D07E1FC
:105610004ECDE9FF4FCDEAFF840EEF6E0FD0DF5085
:1056200007E14ECDE9FF4FCDEAFFC80EEF6E06D081
:105630004ECDE9FF4FCDEAFF880EEF6E12D05EAF80
:105640000FD061516211631109E007D063CDFBFFF8
:1056500062CDFAFF0D016151F96EF8DF0D015E9F19
:10566000556BE552E552E7CFD9FF12000D013051DD
:10567000600BE842E842E842E842E842000901E003
:1056800058D031510C0A54E00B0A43E00C0A35E0C3
:10569000010A26E00B0A22E0020A20E0030A1CE0CD
:1056A000080A10E0010A0CE00F0A08E0030A01E012
:1056B0003FD00D01598F080E406F3BD059DD39D0D6
:1056C000E4DC37D00D01410E566F0D0E576F598136
:1056D000010E5A6F598F2DD0FDDD2BD02BD829D03C
:1056E00034510D01566F576B420E56270D0E57233E
:1056F0005981010E5A6F598F1CD00D01598F0D0120
:105700003451EA6A420FE96E0D0EEA2232CDEFFF04
:1057100010D0000EE66EE66AE66EE66A020EE66EEF
:10572000E66ABFEC36F0326E060EE15E325001D012
:1057300000D01200D9CFE6FFE1CFD9FF050EE12658
:105740000D01320510E130511F0B00090CE10D0174
:10575000598F030E0D01315D04E10D01010E666FDD
:1057600002D00D01666B0D01325101E020D13051A4
:105770001F0B020801E01BD134510F0B000901E19E
:1057800016D134510F0B020801E211D1200E0D0188
:10579000405D01E00CD1598F0D0134BF1AD0345156
:1057A0000F0BE96EEA6AD890E936EA36480EE92628
:1057B0000D0EEA22EECFDEFFEDCFDDFF34510F0BF1
:1057C000EA6A6E0FE96E0D0EEA22020EEFCFDBFFE2
:1057D00019D034510F0BE96EEA6AD890E936EA36EF
:1057E0004E0EE9260D0EEA22EECFDEFFEDCFDDFFF5
:1057F00034510F0BEA6A6B0FE96E0D0EEA22020EAE
:10580000EFCFDBFFD950020FE96EDACFEAFFEF509E
:10581000010B03E1000EDF9401D0DF8434BF10D010
:1058200034510F0BE96EEA6AD890E936EA36480E31
:10583000E9260D0EEA22DECFEEFFDDCFEDFF0FD021
:1058400034510F0BE96EEA6AD890E936EA364E0E0B
:10585000E9260D0EEA22DECFEEFFDDCFEDFF030ECF
:10586000315D23E1DECFE9FFDDCFEAFFEF50800BB2
:1058700013E034BF09D034510F0BEA6A6E0FE96EA2
:105880000D0EEA22EF8208D034510F0BEA6A6B0F3B
:10589000E96E0D0EEA22EF82840E326EDECFE9FF52
:1058A000DDCFEAFF3250EF1282D0DF74DECFE9FFA6
:1058B000DDCFEAFFEF50800B1BE0DECFE9FFDDCF4D
:1058C000EAFFEF9EDECFE9FFDDCFEAFFEF8C020EAD
:1058D000E66EE66ADECFE6FFDDCFE6FF050EE66E9A
:1058E000E66ABFEC36F0326E060EE15E325005D04D
:1058F000DECFE9FFDDCFEAFFEF8CDF74D950020F76
:10590000E96EDACFEAFFEF50020B07E1DECFE9FFE5
:10591000DDCFEAFFEF50800B2DE00D0134BF09D041
:1059200034510F0BEA6A6E0FE96E0D0EEA22EF9208
:1059300008D034510F0BEA6A6B0FE96E0D0EEA22A4
:10594000EF923B0E326EDECFE9FFDDCFEAFF325041
:10595000EF16020EE66EE66ADECFE6FFDDCFE6FF6B
:10596000050EE66EE66ABFEC36F0326E060EE15EBC
:10597000325008D03B0E326EDECFE9FFDDCFEAFFBA
:105980003250EF160D0134510F0B336A260F326E71
:105990000F0E3322030E32C0DBFF040E33C0DBFFD9
:1059A000030EDBCFE9FF040EDBCFEAFFEF90050E1D
:1059B000E15C02E2E16AE552E16EE552E7CFD9FF30
:0259C0001200D3
:0E59C2001DEC32F0FB0EDBCFF3FFDB06F350E3
:1059D00000090AE06BEC32F0FA0ED6EC32F0F3E19B
:1059E000331CF1E1010E01D0000E4CEF32F01DEC42
:1059F00032F03B0EE12402E3E168E652E16E010E73
:105A0000DB6A020EDB6AF90EDBCFF6FFFA0EDBCFA4
:105A1000F7FFFB0EDBCFF8FF0800F550DF6EDF501D
:105A200002E170EF31F0250EDF5C02E063EF31F050
:105A3000030EDB6A040EDB6A050EDB6A060EDB6A08
:105A4000070EDB6A85EC31F02D0EDF5C0CE02B0ECF
:105A5000DF5C09E0200EDF5C06E0230EDF5C03E084
:105A6000300EDF5C1AE1DF50300A14E0130A0FE059
:105A7000030A0AE00B0A05E0060AE4E1030EDB80F4
:105A8000E1D7030EDB82DED7030EDB84DBD7030E08
:105A9000DB86D8D7030EDB88D5D72A0EDF5C1BE167
:105AA00081EC31F0CFEC31F010E0030EDB802668A2
:105AB0002768130EDBCF2BF0140EDBCF2CF08BEC12
:105AC00037F0040E24C0DBFF03D0130EB8EC31F026
:105AD00085EC31F00BD0090EDB6A26EC32F003E0E6
:105AE0009AEC32F0FAD7090EB8EC31F0030EDBB0C5
:105AF000DB982E0EDF5C1BE185EC31F02A0EDF5CBB
:105B00000BE181EC31F0CFEC31F003E1130E0AEC44
:105B100032F085EC31F00BD0090EDB6A26EC32F066
:105B200003E09AEC32F0FAD7090E0AEC32F0680E74
:105B3000DF5C07E185EC31F0680EDF5C1DE1030EF0
:105B400018D0740EDF5C17E07A0EDF5C14E0480EAC
:105B5000DF5C06E0540EDF5C03E05A0EDF5C02E11E
:105B6000020E07D06C0EDF5C03E06A0EDF5C04E11E
:105B7000010E5DEC32F0C9DBDF506E0A01E17FD32C
:105B80001E0A01E192D1200A01E18FD13F0A01E111
:105B900049D11A0A01E146D10D0A01E143D1200A97
:105BA00001E140D13A0A01E13DD1200A01E13AD1B7
:105BB000260A01E135D10D0A01E132D11A0A01E1CB
:105BC000D9D0200A4AE0300A1FE0460A0EE0250A32
:105BD00001E083D3D950F90FE96EFF0EDA20EA6EA7
:105BE000010EEE5E000EEE5AEE5A6BEC32F0250E10
:105BF000E66E95DB03E1331C01E169D367EC32F01B
:105C000001E26BD3DB2A69D3080EDB6A040EDB509A
:105C1000010806E2040EDB042FEC32F0DB508BDBD4
:105C2000080EDB5009E0030EDB50010B05E172DBCF
:105C300001E04DD3080EDB6A64DBEFCFDFFFDFEC62
:105C400032F003E1331C01E142D367EC32F001E3AF
:105C5000DB2A60DB01E141D33AD3070EDB500208B7
:105C60000FE1ABEC32F0030E72EC32F00E0EEECF21
:105C7000DBFF0F0EEECFDBFF100EEECFDBFF20D0F1
:105C8000F70EDBCF35F0F80EDBCF36F0020E355EC7
:105C9000000E365AF70E35C0DBFFF80E36C0DBFFBC
:105CA00035C0E9FF36C0EAFF62EC32F0346A0E0E0E
:105CB00032C0DBFF0F0E33C0DBFF100E34C0DBFF42
:105CC0000E0EDBCFE6FF0F0EDBCFE6FF100EDBCFB5
:105CD000E6FF96EC38F0E552E552E552130E25C08A
:105CE000DBFF140E26C0DBFF060EDB5005E0130EB3
:105CF000A6EC32F001E26ADBCAEC32F002E2130EEB
:105D000037DB8DEC32F006E0040EA6EC32F002E256
:105D1000050E2EDB030EDBB005D0FCDA01E0D7D296
:105D2000080EDB6A090EDB6A0E0EDBCFF6FF0F0EE4
:105D3000DBCFF7FF100EDBCFF8FF0800F550DF6E6A
:105D4000DF5014E0D0EC32F011E2DFEC32F003E18E
:105D5000331C01E1BCD2BBDB01E3DB2A090EDB2AE9
:105D6000D9500E0FE96E000ECBDBE7D7D3DA01E195
:105D7000B4D2ADD2C6DA110EEECFDBFF120EEDCFEC
:105D8000DBFF110EDBCFE6FF120EDBCFE6FF88EC68
:105D900038F0E552E552130EF3CFDBFF140EF4CFCB
:105DA000DBFF060EDB5004E0130ED0DB01E20EDB5E
:105DB000CAEC32F002E2130EDBDAAFDB05E0040ED0
:105DC000C5DB02E2050ED4DA030EDBB005D0A2DAA1
:105DD00001E07DD2080EDB6A090EDB6A110EDBCF13
:105DE000E9FF120EDBCFEAFFEFCFDFFFDF5014E059
:105DF000D7DB12E2E4DB03E1331C01E168D267DBAD
:105E000001E3DB2A090EDB2A110EDB2ADBCFE9FFD7
:105E1000120EE8E3DB2AE6D77DDA01E15ED257D243
:105E2000030EDB8E070EDB0410E195DB040E5ADB5C
:105E30000A0EEECFDBFF0B0EEECFDBFF0C0EEECF2C
:105E4000DBFF0D0EEECFDBFF6CD0070EDB5003083F
:105E50002CE1030EDBAE0DD0B2DA020E76DAEFCF14
:105E600032F0336A346A356A32AE39D03368346816
:105E700035D0F70EDBCF33F0F80EDBCF34F0020E67
:105E8000335E000E345AF70E33C0DBFFF80E34C019
:105E9000DBFF33C0E9FF34C0EAFFEFCF32F00A0E78
:105EA00032C0DBFF0B0EDB6A38D0070EDB50020876
:105EB00009E1030EDBAE04D059DB34AE10D00ED0B6
:105EC00055DB0DD0030EDBAE12D079DA020E3DDACF
:105ED000F9DA346A356A33AE02D034683568E2DA0A
:105EE0000C0E34C0DBFF0D0E35C0DBFF1AD0F70EF1
:105EF000DBCF34F0F80EDBCF35F0020E345E000E4F
:105F0000355AF70E34C0DBFFF80E35C0DBFF34C066
:105F1000E9FF35C0EAFFD6DAC5DA0C0EDB6A0D0EF2
:105F2000DB6A060EDB5005E1010EF36E050EF3CFC2
:105F3000DBFF150EDB6A160EDB6AD950370F326EA7
:105F4000000EDA20336E390E32C0DBFF3A0E33C05A
:105F5000DBFF380EDB6A080EDB6A0A0EAEDADF50B2
:105F6000780A12E0200A10E0280A0CE0200A0AE071
:105F70003F0A06E00D0A02E0200A08E1020E05D001
:105F8000080E03D0080EDF26100E97DA030EDBBED4
:105F900002D0DB92DB94DB50800B24E08ADAD890CD
:105FA000030EEB50000A08E6000EEE5C000EEE5801
:105FB000000EEE58000EEE5815E213DA29682A6832
:105FC0002B682C6849EC39F00A0E20C0DBFF0B0E61
:105FD00021C0DBFF0C0E22C0DBFF0D0E23C0DBFF58
:105FE0002D0E08D0030EDBA202D02B0E03D0DBA4B3
:105FF00008D0200EF36E170EF3CFDBFF150EDB2A51
:1060000002D0170EDB6A050EDB5003E1B7D901E1C0
:1060100089D0260E326E740E336E000E346E070E6B
:10602000DBCF35F0366A376A386A35C029F036C0BA
:106030002AF037C02BF038C02CF0D3D9A7EC39F0B8
:1060400032502024F36E33502120F46E345022203D
:10605000F86EF4CFF7FFF3CFF6FF0800090EF5CF87
:10606000DBFF580EDF5C0FE1610EF36E090E7BD98A
:106070000AE3200E326E090EDBCFE7FF3250E75EF7
:10608000090EE7CFDBFF070EDBCF32F0336A346A4D
:10609000356A0FDA32C029F033C02AF034C02BF051
:1060A00035C02CF0EECF24F0EECF25F0EECF26F069
:1060B000EFCF27F0A7EC39F027C0EDFF26C0EDFFAA
:1060C00025C0EDFF24C0EFFF390EDBCFE9FFDB0673
:1060D0003A0EDBCFEAFF01E2DB06090EDBCFEFFF72
:1060E000150EDB2A4BD995E1030EDBA61DD06F0EF2
:1060F000DF5C06E1C1D918E3150EDB285BDA14D0AA
:10610000780EDF5C09E0580EDF5C06E0620EDF5CB3
:1061100003E0420EDF5C08E1020EF36E160EF3CFD1
:10612000DBFF02D0150EDB6A030EDB50100B0EE016
:10613000040EDBCF32F0050EDB50D880325406E27D
:10614000060EDB5003E1040EDB5034DA95D90AE287
:10615000050EDBCFE7FF150EDB50E75E050EE7CF40
:10616000DBFF02D0050EDB6A040EDBCF32F0160E29
:1061700045D9D880325414E2160EDBCFE6FF150E57
:10618000DBCFE6FF040EDBCFE6FF050EDB50E5526A
:10619000E75CE552D880E754E552D880E7545FD9F0
:1061A000030EDB50010B0BE1080EDB5008E0B2D808
:1061B00001E08DD0080EDB50BED8080EDB6A170E4A
:1061C000DB5007E088D9170EF1D903E1331C01E158
:1061D0007ED0160EDB5016E07ED9300EE66E9FD8CC
:1061E00002E1331C74E077D9DFCFE6FF07EC39F02A
:1061F000E552E552E552F4CF33F00001F31C02E121
:10620000331C65E0050EDBCF32F0160EDB50D88074
:10621000325409E2050EDBCFE7FF160EDB50E75ED6
:10622000050EE7CFDBFF300EE66E050ECBD94FE152
:10623000390EDB2ADBCFE9FF3A0E01E3DB2ADBCFA5
:10624000EAFF090EEFCFDBFFDB500EE044D9090E69
:10625000ADD902E1331C3BE0390EDB2ADBCFE9FF8D
:106260003A0EEDE3DB2AEBD755D831E1160EDBCF42
:10627000E6FF080EC3D8E552E7245DD82ED0070EFE
:10628000DB50030A1CE0010A14E0030A07E07BD993
:10629000DBCFEEFF020EDBCFEDFF1FD0F5D8376A64
:1062A00035AE02D0366837682CD8BCD837C0EEFF80
:1062B00014D0EAD835BE366824D8B4D80ED063D905
:1062C000DBCFEFFF0AD07BD905E1331C03E1F36894
:1062D000F46810D0FCD801E3DB2A79D90CEF2DF05B
:1062E000010EDBCF32F0020EDBCF33F032C0F3FF12
:1062F00033C0F4FF3B0EE15C02E2E16AE552E16E7D
:10630000CBD029D9020E72EF32F061D90800F550D6
:10631000DF6E1200200EE66E080EE2EF32F007ECA0
:1063200039F0E552E552E552F3CF32F0F4CF33F0D5
:106330000001F31C1200326E336AD950010F4DD99F
:106340003250EE263350ED221200365E000E375AE0
:10635000F70E36C0DBFFF80E37C0DBFF36C0E9FFB3
:1063600037C0EAFF1200DBCFF4FFF350F45C1200F9
:10637000DB50E76E040EE7CFDBFF12000A0EDBCF27
:1063800032F00B0EDBCF33F00C0EDBCF34F00D0E02
:10639000DBCF35F032503310341035101200130EAD
:1063A000EECFDBFF140EEDCFDBFF130EDBCF32F0B1
:1063B000140EDBCF33F00001800E33141200F70E01
:1063C000DBCF36F0F80EDBCF37F01200050EDB50D6
:1063D000E66ED950130F01D9E552E750EE6EED6A23
:1063E00012000A0EDBCF24F00B0EDBCF25F00C0ED3
:1063F000DBCF26F00D0EDBCF27F01200DBCFE6FF60
:10640000150EDBCFE6FF050EDB50E552E724E55223
:10641000E7241200DB50CED8010EF36E060EF3CF48
:10642000DBFF1200EE50EFCFEAFFE96E34C0EEFF63
:1064300035C0EEFF36C0EEFF1200D9CFE6FFDACF4F
:10644000E6FFE1CFD9FFE2CFDAFF1200DFCFE6FFB0
:10645000E66A95EC39F0E552E552F3501200E76E2A
:10646000080EE7CFDBFF1200EECF32F0EECF33F0B5
:10647000EFCF34F0356A1200050EDBCF32F0150E87
:10648000DB50D88032541200010EDBCF34F0020E04
:10649000DBCF35F0366A1200E552E5CFDAFFE7CF01
:1064A000D9FF12000A0E32C0DBFF0B0E33C0DBFF38
:1064B0001200D9500A0FEDEF32F0F36E070EF3CF52
:1064C000DBFF1200EECF32F0EFCF33F01200010EFF
:1064D000DB2A020E1200FC0EDBCFE6FFFD0EDBCF47
:1064E000E6FF1200325E000E335AF70E32C0DBFFB9
:1064F000F80E33C0DBFF32C0E9FF33C0EAFF120001
:10650000DA20EA6EEF2AEECFF6FF000EEF22EECF92
:10651000F7FFEF22EECFF8FF1200040EDBCFE6FF0D
:10652000130EDB50E552E75C9ADFDB5004DF060E0A
:10653000DB501200090EDB500A0DF350DF24D00FA0
:10654000E76E090EE7CFDBFF85EF31F0DB50F36E2E
:10655000050EB3EF31F0F70EDBCF32F0F80EDBCFE4
:1065600033F01200DFCFE6FF8FEF31F028DF030EAC
:10657000ECDE34EF32F0E1EC2CF0E552E552E5527E
:10658000E55200091200BDDEEE50EFCFEAFFE96EE2
:10659000010E1200130EDB50F36E040EB3EF31F058
:1065A000040EDB50F36E090EB3EF31F0DBCFE6FFE4
:1065B0008FEF31F0E76E050EE7CFDBFF12008BDFC8
:1065C000B2EF32F0DBCFE6FF86DFBBEF32F0D9501F
:1065D000F90FE96EFF0E80EF32F0E96E000EDA205F
:0465E000EA6E12004D
:0C65E4000D0130511F0B010801E04BD0ED
:1065F0003051600BE842E842E842E842E8420108D4
:1066000001E041D0345103E0340501E03CD0315188
:10661000220A34E0030A27E0010A17E0210A0EE00B
:10662000010A01E030D00D01A40E566F0E0E576F17
:10663000080E5A6F5B6B5981598F25D00D01A40E3E
:10664000566F0E0E576F598F1ED036CD5FFD37CD6A
:1066500060FD0D01800E5C6F0E0E5D6F616B626BF5
:10666000636B5E8F10D00D01800E566F0E0E576F4C
:10667000070E5A6F5B6BC10E596F05D032CD9FFE6E
:106680000D01598F00D012000E01806B4B0E816FEF
:10669000826B836B846B856B080E866F916B1A0E11
:1066A000E66E010EE66E4DEC24F0E552E5521E0E4C
:1066B000E66E020EE66E4DEC24F0E552E552400E19
:1066C000E66E400EE66E0E0EE66EE66A020EE66EB0
:1066D00084EC24F0326E050EE15E3250F3CF9BFE67
:1066E000F4CF9CFE0E019D6B9E6B926B1200D9CF76
:1066F000E6FFE1CFD9FFFD0EDBCF26F0FE0EDBCFAC
:1067000027F0050E261801E1275002E0000E31D0D7
:10671000FB0EDBCF32F0FC0EDBCF33F00E019B51D2
:10672000321802E19C51331813E1400EE66E400E20
:10673000E66E0E0EE66EE66A020EE66E84EC24F05D
:10674000326E050EE15E3250F3CF9BFEF4CF9CFE1D
:10675000FB0EDBCF32F0FC0EDBCF33F00E019D5190
:10676000321802E19E51331802E1926B996B010ECF
:1067700000D0E552E7CFD9FF1200D9CFE6FFE1CF35
:10678000D9FF0E01916B9B519C1102E1000E08D0C4
:106790009BCEE9FF9CCEEAFFEF50800B01E0010E9B
:1067A000000945E1FC0EDBCF32F09BCEE9FF9CCE29
:1067B000EAFFEE52EF50D880325408E29BCEE9FF58
:1067C0009CCEEAFFEE52FC0EEFCFDBFF916BFC0E8E
:1067D000DB50915D19E29151EA6A400FE96E0E0EAD
:1067E000EA22EF50E66E9151E76EFD0EDBCFE9FF36
:1067F000FE0EDBCFEAFFE750E926000EEA22E55263
:10680000E750EF6E912BE3D7400EE66E400EE66E3A
:106810000E0EE66EE66A020EE66E84EC24F0326E30
:10682000050EE15E3250F3CF9BFEF4CF9CFE0E01CD
:10683000915100D0E552E7CFD9FF1200D9CFE6FF42
:10684000E1CFD9FFA0980E0192510CE1FD0EDBCFF4
:1068500093FEFE0EDBCF94FEFC0EDBCF99FE010E05
:106860009A6F926FA088E552E7CFD9FF1200D9CF77
:10687000E6FFE1CFD9FF030EE126A0980E01925169
:1068800002E0A0882FD0DF6AFD0EDBCF26F0FE0EDF
:10689000DBCF27F0DE5226C0DEFF27C0DDFFDD5252
:1068A000DF2ADF50326E336AFF0E321801E13350B7
:1068B00001E10BD0010EDBCFE9FFDB2A020EDBCFBB
:1068C000EAFF01E3DB2AEF50EBE1FD0EDBCF93FEA5
:1068D000FE0EDBCF94FEDFCF99FE0E01010E9A6F04
:1068E000926FA088030EE15C02E2E16AE552E16E7C
:1068F000E552E7CFD9FF1200D9CFE6FFE1CFD9FFAC
:10690000040EE126A0980E01925102E0A0883CD02E
:10691000DF6AD950FC0FE96EFF0EDA20EA6E010E35
:10692000EECFDBFF020EEECFDBFF030EEECFDBFF81
:10693000DF2ADF50326E336AFF0E321801E1335026
:1069400001E112D0D950010FE96EDACFEAFFEFCFA3
:10695000F6FFEE2AEFCFF7FF000EEE22EFCFF8FFA3
:10696000EE220800F550E4E1FC0EDBCF93FEFD0EB5
:10697000DBCF94FEFE0EDBCF95FEDFCF99FE0E013E
:106980009A6B010E926FA088040EE15C02E2E16A4C
:10699000E552E16EE552E7CFD9FF1200D9CFE6FF0D
:1069A000E1CFD9FF020EE126A0980E019D519E1164
:1069B00002E1000E08D09DCEE9FF9ECEEAFFEF5027
:1069C000800B01E0010E000902E0A0888AD0030ECE
:1069D000925D01E1926B925102E1A08882D0020E99
:1069E000925D16E1E66A000EE66EE66A010EE66E5C
:1069F000020EE66E84EC24F0326E050EE15E32503B
:106A0000F3CF9DFEF4CF9EFE0E01030E926F68D071
:106A1000920566E1400E326E336A9951325C000E87
:106A2000335803E2400EDF6E02D099CEDFFFDF5015
:106A3000995D996F000E966F0E0E976F010EDFCF66
:106A4000DBFF9A511AE1010EDB5016E093CEF6FF00
:106A500094CEF7FF95CEF8FF0800F55096CEE9FFEB
:106A600097CEEAFFEF6E962B000E9723932B94237D
:106A70009523010EDB06E7D715D0010EDB5012E09F
:106A800093CEE9FF94CEEAFFEF5096CEE9FF97CE82
:106A9000EAFFEF6E962B000E9723932B9423010EA3
:106AA000DB06EBD7995108E1400EDF5C03E1020EF3
:106AB000926F02D0030E926FDFCFE6FF000EE66EFC
