:020000040000FA
:060000003DEF41F012008B
:0600080004EF08F01200F5
:060018000CEF08F01200DD
:061000003DEF41F012007B
:06100800BBEF09F012002D
:0610180022EF08F01200B7
:06102A0002006D830000CE
:10103000FC0D000002000000FC82000080020000A5
:04104000710000003B
:0C104400D8CFE4FFE0CFE4FFE46EDACF89
:10105000E4FFE2CFDAFFE9CFE4FFEACFE4FFF3CF2A
:10106000E4FFF4CFE4FFE6529EA201D19E92030E6C
:10107000406E0E50EA6A510FE96E010EEA22EF50FF
:10108000405C30E10E50E96EEA6AD890E936EA3603
:10109000690EE926010EEA22EECF40F0EFCF41F0D3
:1010A00041C040F0416A4050D76E0E50E96EEA6A86
:1010B000D890E936EA36690EE926010EEA22EECF2B
:1010C00040F0EFCF41F04050D66EF28AF294D58EC8
:1010D0000E50EA6A510FE96E010EEA22040EEF6E1D
:1010E0000E50106E020E406E0F50EA6A510FE96EFC
:1010F000010EEA22EF50405C49E10F50E96EEA6AC6
:10110000D890E936EA36690EE926010EEA22EE5059
:10111000ED1009E10F50EA6A510FE96E010EEA2263
:10112000010EEF6E33D0080E0F5C0CE2070E0F14A9
:10113000406E010E405204E0E846FE0B4006FCE122
:1011400089121AD0100E0F5C0CE2070E0F14406EBD
:10115000010E405204E0E846FE0B4006FCE18A1214
:101160000BD0070E0F14406E010E405204E0E8460B
:10117000FE0B4006FCE18B120F50EA6A510FE96E3C
:10118000010EEA22030EEF6E0F500E6E0F2A060EAE
:101190000F5C03E1080E0F6E0AD0130E0F5C03E123
:1011A000160E0F6E04D0180E0F5C01E10F6A000ED0
:1011B000D8800254000E03542EE2112A000E12228F
:1011C0000250115C0350125826E3116A126A030E92
:1011D000065C1FE20450EA6A480FE96E010EEA223B
:1011E00080CFEFFF0450EA6A4B0FE96E010EEA224E
:1011F00081CFEFFF0450EA6A4E0FE96E010EEA223A
:1012000082CFEFFF042A030E045C01E3046A062A7E
:1012100002D0026A036A000ED8800754000E0854F8
:1012200019E20C50000816E2132A000E142207508F
:10123000135C085014580EE3136A146A030E0B5C17
:1012400007E2092A030E095C01E3096A0B2A02D0AE
:10125000076A086A0C5000080AE2156A1550040D66
:10126000F328C26E9E9C9F9C9D8CC280C2829EACC5
:101270002DD09E9CC450446E44C045F0446AC35077
:1012800000014410426E45C043F01550060DF3CFE7
:1012900040F0F4CF41F0000E4026010E41220950EB
:1012A000020D4050F324E96E4150F420EA6E42C032
:1012B000EEFF43C0EDFF152A0C50155C02E39D9C28
:1012C00005D01550040DF328C26EC282F2A442D09C
:1012D000D59EF294F29A040E406E1050EA6A510FB5
:1012E000E96E010EEA22EF50405C34E1080E105C1A
:1012F0000DE2070E1014406E010E405204E0E84665
:10130000FE0B4006FCE1E81C89161CD0100E105C98
:101310000DE2070E1014406E010E405204E0E84644
:10132000FE0B4006FCE1E81C8A160CD0070E1014D8
:10133000406E010E405204E0E846FE0B4006FCE120
:10134000E81C8B161050EA6A510FE96E010EEA2272
:10135000020EEF6EE552E5CFF4FFE5CFF3FFE5CFE8
:10136000EAFFE5CFE9FFE5CFDAFFE550E5CFE0FFA3
:10137000E5CFD8FF1000DACFE4FFE2CFDAFFE9CF04
:10138000E4FFEACFE4FFF6CFE4FFF7CFE4FFF8CFC6
:10139000E4FFF5CFE4FFF3CFE4FFF4CFE4FFFACFAF
:1013A000E4FFFBCFE4FF00EE1EF0140EE80403E3BD
:1013B000EECFE4FFFBD700EE32F00E0EE80403E3BD
:1013C000EECFE4FFFBD7E652D0EC29F0A1A24DD03E
:1013D000A1920201805181110AE083C246F0476A5E
:1013E00046507B6E82517A6EA7EC23F03ED01D50A2
:1013F0001EE016507B6E17507A6E1C2A1A501C5C29
:1014000015E31D6A841D8914896E851D8A148A6EF0
:10141000861D8B148B6E871D8C148C6E881D8D140D
:101420008D6E18507B6E19507A6E1C6A1ED0185043
:101430007B6E19507A6E1C2A1B501C5C16E3010E41
:101440001D6E84518910896E85518A108A6E86516D
:101450008B108B6E87518C108C6E88518D108D6E19
:1014600016507B6E17507A6E1C6AE55200EE3FF004
:101470000E0EE80403E3E5CFEDFFFBD700EE31F0FD
:10148000140EE80403E3E5CFEDFFFBD7E5CFFBFF48
:10149000E5CFFAFFE5CFF4FFE5CFF3FFE5CFF5FFAA
:1014A000E5CFF8FFE5CFF7FFE5CFF6FFE5CFEAFFA1
:1014B000E5CFE9FFE5CFDAFF1100D9CFE6FFE1CFB5
:1014C000D9FF020EE126896A92680F0EC16EC290A2
:1014D0000C6A8A6A93688B6A94688C6A95688D6ACC
:1014E0009668FC0E8D16961693840001010EAD6F62
:1014F0000D01FC69FD690A6A096A0B6A056A046ADA
:10150000066A026A036A076A086A116A126A136A3B
:10151000146A156ACA82CA80CA9CCA9ACA88CA96BC
:10152000FA0ECB6EDF6ADFCF32F00C0EE76E3218A8
:10153000E8AE02D0E73402D0E750325C36E2010E6A
:10154000DB6ADBCF32F0030EE76E3218E8AE02D072
:10155000E73402D0E750325C26E2DFCF32F0336A64
:1015600032BE3368060E3302F3CF33F03202F3CFCC
:1015700032F0F4503326000E3226010E3322010ED3
:10158000DBCF34F0356A34BE3568D8903436353622
:1015900032503424E96E33503520EA6EEE6AED6A3B
:1015A000010EDB2ACED7DF2ABED70001A76BA86BBE
:1015B000A56BA66BA96BAA6BAB6BAC6B0E6A0F6AC3
:1015C000106ADF6ADFCF32F0180EE76E3218E8AE2D
:1015D00002D0E73402D0E750325C1BE2DFCFE9FFF4
:1015E000EA6AE9BEEA68D890E936EA36690EE92681
:1015F000010EEA22EE6AED6ADFCFE9FFEA6AE9BE90
:10160000EA68510EE926010EEA22010EEF6EDF2A8A
:10161000D9D7D586D59AD59CF294F29AF194D08EEA
:10162000CA949D829F92F28EF28CCA847990360E73
:10163000E66EE66AE66AAE0EE66E000EE66E3BEC1D
:101640003FF0326E050EE15E3250020EE15C02E2C6
:10165000E16AE552E16EE552E7CFD9FF1200D9CF3A
:10166000E6FFE1CFD9FF070EE126020EDB6A030E8B
:10167000DB6A040EDB6A7FEC1FF00650000809E20B
:10168000DCEC12F0052A030E055C01E1056A060692
:10169000F4D70B50000809E2FEEC12F00A2A030E00
:1016A0000A5C01E10A6A0B06F4D7200E0D01E76E11
:1016B000C519E8AE02D0E73402D0E750C55D03E3B8
:1016C0006550020B01E0A1D3400EE66E400EE66EBF
:1016D000020EE66E01EC3AF0E552E552E552E76E95
:1016E000030EE7CFDBFFDB50000801E35DD1040E02
:1016F000DB6A030EDB50F36E040EDBCFF4FFF35016
:10170000F45C01E351D1040EDB50EA6A400FE96E4C
:10171000020EEA22EFCFDFFF0201D15110E0D251D9
:1017200000080DE20001A751EA6A000FE96E070EFA
:10173000EA22DFCFEFFFA72B0201D20725D1CD513F
:1017400044E10D0E326EDF50325C05E00A0E336E5E
:10175000DF50335C3AE1010ECD6F0001A751EA6A18
:10176000000FE96E070EEA220D0EEF6EA72B010E99
:10177000DB6AA751F36E010EDBCFF4FFF350F45C8C
:101780001CE2010EDBCFE9FFEA6AE9BEEA68000E5F
:10179000E926070EEA22EF50E66E010EDBCFE9FFE5
:1017A000EA6AE9BEEA68890EE926020EEA22E552F3
:1017B000E750EF6E010EDB2ADCD7B0DB0201D16B04
:1017C000D26B0001A76BA86BDFD01B0EDF5C09E1B9
:1017D000C95107E1010EC96F1B0ECA6FCB6BCC6BF1
:1017E000D3D0C9050BE15B0EDF5C08E11B0ECA5DBF
:1017F00005E1CB5103E15B0ECB6FC6D0C9055EE1BD
:10180000410EDF5C5BE11B0ECA5D58E15B0ECB5DF8
:1018100055E1CA6BCB6BCC6BC96B010EDB6ADBCFBE
:10182000E9FFEA6AE9BEEA68000EE926070EEA2245
:10183000EF500D081CE0010EDBCFE9FFEA6AE9BEBC
:10184000EA68890EE926020EEA22EF50E66E010EE2
:10185000DBCFE9FFEA6AE9BEEA68000EE926070E77
:10186000EA22E552E750EF6E010EDB2AD8D7010ECF
:10187000DBCFA7F00001A751EA6A000FE96E070E5F
:10188000EA22EF6A250EE66E790EE66E000EE66E2F
:1018900088EC3FF0E552E552E552000EE66E070E89
:1018A000E66E220EE66E790EE66E000EE66E88ECAF
:1018B0003FF0326E050EE15E325066D0080EDF5CFE
:1018C00018E10001A751000814E2A707A751EA6A2E
:1018D000000FE96E070EEA22EF6A1F0EE66E790E20
:1018E000E66E000EE66E88EC3FF0E552E552E552FA
:1018F0004BD00D0EDF5C48E00A0EDF5C45E0200EA9
:10190000DF5C42E30201CA6BCB6BCC6BC96B00019D
:10191000A751EA6A000FE96E070EEA22DFCFEFFF58
:101920000201CD6B0001A72B030EA75D0AE1420E59
:101930000701005D06E1530E015D03E10201010EA6
:10194000D16F0201D15120E0D2511EE1050E0001FC
:10195000A75D09E12C0E0701045D05E1300E035D72
:101960000201D26F11D0060E0001A75D0DE12C0E11
:101970000701055D09E1300E035D0A0DF3CFD2F2D8
:10198000300E045D0201D2270001A751326E336A86
:10199000000E321802E1010E331803E10D86A76B29
:1019A000A86B040EDB2AA5D60D5051E00DA00BD07C
:1019B000190EE66E790EE66E000EE66E88EC3FF0CC
:1019C000E552E552E5520DA40BD0FD0EE66E780E01
:1019D000E66E000EE66E88EC3FF0E552E552E55209
:1019E0000DA60BD0E10EE66E780EE66E000EE66EEA
:1019F00088EC3FF0E552E552E5520DA80BD0C20E3F
:101A0000E66E780EE66E000EE66E88EC3FF0E5526C
:101A1000E552E5520DAA00D00DAC0BD0A10EE66E3A
:101A2000780EE66E000EE66E88EC3FF0E552E55269
:101A3000E5520DAE0BD0880EE66E780EE66E000E07
:101A4000E66E88EC3FF0E552E552E5520D6A1DDA8C
:101A5000010EDB6ADBCF32F0030EE76E3218E8AE20
:101A600002D0E73402D0E750325C01E3CED1010E60
:101A7000DBCFE9FFEA6AE9BEEA68120EEA02F3CFB9
:101A8000EAFFE902F3CFE9FFF450EA26AE0EE926B9
:101A9000000EEA220B0EE926000EEA22EF5001E1C9
:101AA000B1D1010EDBCFE9FFEA6AE9BEEA68120EA6
:101AB000EA02F3CFEAFFE902F3CFE9FFF450EA26A6
:101AC000AE0EE926000EEA220C0EE926000EEA22EE
:101AD000EF50E66EE66A010EDBCFE9FFEA6AE9BE87
:101AE000EA68120EEA02F3CFEAFFE902F3CFE9FF58
:101AF000F450EA26AE0EE926000EEA220D0EE92683
:101B0000000EEA22EF50E66EE66A010EDBCF32F0FD
:101B1000336A32BE336832C0E6FF33C0E6FF750E6B
:101B2000E66E780EE66E000EE66E88EC3FF0346EE0
:101B3000090EE15E3450010EF36E050EF3CFDBFFAC
:101B4000060EDB6A050EDBCF32F0060EDBCF33F07C
:101B5000010EDBCFE9FFEA6AE9BEEA68120EEA028B
:101B6000F3CFEAFFE902F3CFE9FFF450EA26AE0E25
:101B7000E926000EEA220A0EE926000EEA22EF50BC
:101B8000000133AE02D0D89003D0325C000E33583F
:101B900062E2050EDBCF36F0060EDBCF37F03606FD
:101BA000000E375A070E3616000E3716010EDBCF21
:101BB000E9FFEA6AE9BEEA68120EEA02F3CFEAFF39
:101BC000E902F3CFE9FFF450EA26AE0EE926000E53
:101BD000EA22020EE926000EEA22E9CF32F0EACF2D
:101BE00033F0050EDBCF34F0060EDBCF35F03406D4
:101BF000000E355A080E2B6E2C6A34C026F035C004
:101C000027F09AEC3CF026C034F027C035F0325073
:101C10003424E96E33503520EA6EEF5036C0E7FFCA
:101C2000E75204E0E8427F0BE706FCE1010BE66EB9
:101C3000E66A720EE66E780EE66E000EE66E88ECD0
:101C40003FF0386E050EE15E3850050EDB2A060EB9
:101C500001E3DB2A77D7700EE66E780EE66E000E93
:101C6000E66E88EC3FF0E552E552E552050EDB6A80
:101C7000060EDB6A050EDBCF32F0060EDBCF33F04B
:101C8000010EDBCFE9FFEA6AE9BEEA68120EEA025A
:101C9000F3CFEAFFE902F3CFE9FFF450EA26AE0EF4
:101CA000E926000EEA220A0EE926000EEA22EF04D7
:101CB000070FF80BE842E842E842000133AE02D0D9
:101CC000D89003D0325C000E335838E2010EDBCFDF
:101CD000E9FFEA6AE9BEEA68120EEA02F3CFEAFF18
:101CE000E902F3CFE9FFF450EA26AE0EE926000E32
:101CF000EA22020EE926000EEA22E9CF32F0EACF0C
:101D000033F0050EDB503224E96E060EDB50332033
:101D1000EA6EEF50E66EE66A690EE66E780EE66EE3
:101D2000000EE66E88EC3FF0346E050EE15E345036
:101D3000050EDB2A060E01E3DB2A9CD7310EE66E88
:101D4000790EE66E000EE66E88EC3FF0E552E55245
:101D5000E552080EE66EE66AE66A010EDBCFE9FFA1
:101D6000EA6AE9BEEA68120EEA02F3CFEAFFE90284
:101D7000F3CFE9FFF450EA26AE0EE926000EEA2280
:101D8000020EE926000EEA22E9CF32F0EACF33F064
:101D900032C0E6FF33C0E6FF3BEC3FF0346E050E89
:101DA000E15E3450010EDBCFE9FFEA6AE9BEEA6882
:101DB000120EEA02F3CFEAFFE902F3CFE9FFF45093
:101DC000EA26AE0EE926000EEA220B0EE926000EE8
:101DD000EA22EF6A010EDBCFE9FFEA6AE9BEEA68B0
:101DE000120EEA02F3CFEAFFE902F3CFE9FFF45063
:101DF000EA26AE0EE926000EEA220A0EE926000EB9
:101E0000EA22EF6A010EDB2A25D6070EE15C02E228
:101E1000E16AE552E16EE552E7CFD9FF1200D9CF72
:101E2000E6FFE1CFD9FFE652A5C0DFFFDF2A400E73
:101E3000326EDF50325C01E1DF6A0001A651DF5CE7
:101E400001E123D80001A551EA6A000FE96E020EF4
:101E5000EA22FE0EDBCFEFFFA52B400EA55D01E1D0
:101E6000A56BA651A55D01E10D84FE0EDBCF32F01E
:101E7000336A32BE336832C0F3FF33C0F4FF00D0A0
:101E8000E552E552E7CFD9FF1200D9CFE6FFE1CF07
:101E9000D9FFE6520001A551A65D3BE00E0192512B
:101EA00003E012EC3BF0FAD70001A651D880A5550B
:101EB00017E2A651A55DDF6EDFCFE6FFA651336ABC
:101EC000000F326E020E332232C0E6FF33C0E6FF4F
:101ED00062EC3AF0E552E552E552A5C0A6F017D003
:101EE000400ED880A655DF6EDFCFE6FFA651336ADD
:101EF000000F326E020E332232C0E6FF33C0E6FF1F
:101F000062EC3AF0E552E552E5520001A66B12ECA4
:101F10003BF0E552E552E7CFD9FF1200D9CFE6FFFB
:101F2000E1CFD9FF040EE126DE6ADD6A020EDB6A2C
:101F3000030EDB6A0001A851EA6A000FE96E070E82
:101F4000EA22EF50E66EE66ABCEC40F0E552E5525C
:101F5000020EF3CFDBFF0001A82BA851326E336ACB
:101F6000000E321802E1010E331801E1A86B020ED7
:101F7000DB50DE6EDD6AA851EA6A000FE96E070EDB
:101F8000EA22EF502C0837E0A851EA6A000FE96E08
:101F9000070EEA22EF500D082EE0A851EA6A000F62
:101FA000E96E070EEA22EF50E66EE66ABCEC40F0FE
:101FB000E552E552030EF3CFDBFF0001A82BA85139
:101FC000326E336A000E321802E1010E331801E15D
:101FD000A86B020EDBCF34F034C035F0346A030E48
:101FE000DB5000013424326E000E3520336E32C0D7
:101FF000DEFF33C0DDFF000EDFCF26F0010EDBCFAA
:1020000027F0420E261802E1480E271801E117D1E9
:10201000530E261802E1480E271801E10DD1460E95
:10202000261801E1275001E104D1490E261802E1EA
:10203000430E271801E1FAD0490E261802E1520E8C
:10204000271801E1F0D0490E261802E1530E271897
:1020500001E1E6D0530E261802E1430E271801E1F4
:10206000DCD0530E261802E1520E271801E1D2D01F
:10207000530E261802E1530E271801E1C8D0530E63
:10208000261802E1420E271801E1BED0430E2618A1
:1020900002E1420E271801E1B4D0430E261802E1F6
:1020A000520E271801E1AAD04F0E261802E1420E67
:1020B000271801E1A0D0570E261802E14D0E27186F
:1020C00001E197D0520E261802E14D0E271801E1CA
:1020D0008ED0440E261802E1500E271801E185D05B
:1020E0004F0E261802E1500E271801E17BD0490E51
:1020F000261802E1500E271873E0580E261802E148
:10210000540E27186AE0540E261801E1275063E0A8
:10211000410E261801E127505CE0560E261801E119
:10212000275055E0490E261801E127504EE0570E82
:10213000261801E1275046E04F0E261801E12750EE
:102140003FE0550E261802E1430E271837E0580EDF
:10215000261802E1430E27182EE0430E261801E14F
:10216000275027E0520E261801E1275020E0580E94
:10217000261802E1520E271817E0030EDB5062E129
:10218000020EDBCFE6FFE66ADBCFE6FFE66A460E2D
:10219000E66E780EE66E000EE66E88EC3FF0326E6C
:1021A000070EE15E32506AD0B0EC15F068D099D8D5
:1021B00066D030D964D0B2EC15F061D096D85FD03B
:1021C0009FD95DD0FAEC18F05AD0F6D958D00ADA77
:1021D00056D014DA54D0D2D852D0AEEC15F04FD03D
:1021E00086DB4DD003EC15F04AD0D7DA48D096DA2A
:1021F00046D055DA44D0DBEC16F041D0B4EC15F003
:102200003ED06DEC16F03BD02FEC18F038D05EECE1
:1022100019F035D060EC19F032D062EC19F02FD003
:1022200064EC19F02CD066EC19F029D068EC19F0A8
:1022300026D06AEC19F023D0B8EC25F020D057EC6A
:1022400028F01DD0030EDBCFE6FFE66A020EDBCFDF
:10225000E6FFE66A030EDBCFE6FFE66A020EDBCF9F
:10226000E6FFE66A1E0EE66E780EE66E000EE66E7D
:1022700088EC3FF0326E0B0EE15E325000D0000170
:10228000A851EA6A000FE96E070EEA22EF500D0826
:102290000DE00D500BE1520E326E336ADF503218F2
:1022A00003E1DE52DD50331801E00D8EA7C0A8F027
:1022B000040EE15C02E2E16AE552E16EE552E7CF2D
:1022C000D9FF12000001AD510BE0380EE66E820E10
:1022D000E66E000EE66E88EC3FF0E552E552E55200
:1022E00012005DEC0AF062EF11F0D9CFE6FFE1CF0A
:1022F000D9FF030EE126E66AD9CFE6FFDACFE6FF83
:10230000010EE66EF5EC1CF0E552E552E552E552A1
:10231000E66AD950010FE66E000EDA20E66E020E74
:10232000E66EF5EC1CF0E552E552E552E5520D5033
:1023300001E01AD0DF0417E1D950010FE96EDACFBE
:10234000EAFFEE50ED100AE0010E326E336ADB5008
:10235000321803E1020EDB50331804E1010EDBCF2B
:10236000ADF001D00D8CAEDF030EE15C02E2E16A5C
:10237000E552E16EE552E7CFD9FF1200D9CFE6FF73
:10238000E1CFD9FF030EE126020EDB6AE66A000EFA
:10239000E66E000EE66E030EE66EF5EC1CF0E552FE
:1023A000E552E552E552E66AD950020FE66E000E9C
:1023B000DA20E66E010EE66EF5EC1CF0E552E55211
:1023C000E552E5520D5001E01BD0020EDB500CE14E
:1023D0000050011003E1026A036A05D0CA8400C0FC
:1023E00002F001C003F00BD00050011003E1076AB6
:1023F000086A05D0CA8400C007F001C008F062DF97
:10240000030EE15C02E2E16AE552E16EE552E7CFDC
:10241000D9FF1200D9CFE6FFE1CFD9FF040EE126A4
:10242000E66AD9CFE6FFDACFE6FF010EE66EF5ECFD
:102430001CF0E552E552E552E552E66AD950010F2B
:10244000E66E000EDA20E66E010EE66EF5EC1CF08C
:10245000E552E552E552E552E66AD950020FE66EC2
:10246000000EDA20E66E010EE66EF5EC1CF0E55289
:10247000E552E552E552E66AD950030FE66E000ECA
:10248000DA20E66E010EE66EF5EC1CF0E552E55240
:10249000E552E5520D5001E029D0DF50926E010E59
:1024A000DB50936E020EDB50946E030EDB500D0872
:1024B00005E20D0EF36E030EF3CFDBFF030EDB50D0
:1024C00005E10F0EC16EC2900C6A0FD00C6AC26A91
:1024D000030EDBCFE6FF0F0EE552D880E754C16E46
:1024E000C280030EDB500C6ECA84ECDE040EE15C8D
:1024F00002E2E16AE552E16EE552E7CFD9FF120050
:10250000D9CFE6FFE1CFD9FF020EE126E66AD9CFA7
:10251000E6FFDACFE6FF010EE66EF5EC1CF0E552C1
:10252000E552E552E552E76E010EE7CFDBFF0D50B5
:1025300001E038D0010EDB5002E1DF50896E010E60
:10254000E66ED9CFE6FFDACFE6FFE66EF5EC1CF0DB
:10255000E552E552E552E552E76E010EE7CFDBFFAB
:102560000D5001E01FD0010EDB5002E1DF508A6EFA
:10257000010EE66ED9CFE6FFDACFE6FFE66EF5ECA8
:102580001CF0E552E552E552E552E76E010EE7CF49
:10259000DBFF0D5001E006D0010EDB5002E1DF5001
:1025A0008B6E90DE020EE15C02E2E16AE552E16EC2
:1025B000E552E7CFD9FF12008250E66EE66A8150FD
:1025C000E66EE66A8050E66EE66A0B0EE66E780E00
:1025D000E66E000EE66E88EC3FF0326E090EE15EAC
:1025E00032501200400EE66E820EE66E000EE66E6F
:1025F00088EC3FF0E552E552E5521200D9CFE6FFF4
:10260000E1CFD9FFE652DF6A090EE66E780EE66E7C
:10261000000EE66E88EC3FF0E552E552E552DF6AC7
:102620000C50DF5C2CE2DFCF32F0336A32BE33680D
:10263000060E3302F3CF33F03202F3CF32F0F45010
:102640003326000E3226010E33220A50020D32507C
:10265000F324E96E3350F420EA6EEECFE6FFEFCFBD
:10266000E6FF030EE66E780EE66E000EE66E88EC70
:102670003FF0346E050EE15E3450DF2AD1D73D0EB7
:10268000E66E820EE66E000EE66E88EC3FF0E552D6
:10269000E552E552E552E552E7CFD9FF1200D9CF16
:1026A000E6FFE1CFD9FF030EE126E66AD9CFE6FFC8
:1026B000DACFE6FFE66EF5EC1CF0E552E552E552A6
:1026C000E552E66AD950020FE66E000EDA20E66E99
:1026D000010EE66EF5EC1CF0E552E552E552E552CE
:1026E0000D5001E011D0DECF32F0DDCF33F0000E1F
:1026F000325C100E335807E2DECFE9FFDDCFEAFF90
:10270000020EDBCFEFFFDEDD030EE15C02E2E16AE9
:10271000E552E16EE552E7CFD9FF1200D9CFE6FFCF
:10272000E1CFD9FF030EE126E66AD9CFE6FFDACF83
:10273000E6FFE66EF5EC1CF0E552E552E552E55297
:102740000D5001E020D0DECF32F0DDCF33F0000EAF
:10275000325C100E335807E2DECFE9FFDDCFEAFF2F
:10276000020EEFCFDBFF020EDBCFE6FFE66AF90ECB
:10277000E66E770EE66E000EE66E88EC3FF0326E87
:10278000050EE15E3250030EE15C02E2E16AE552C1
:10279000E16EE552E7CFD9FF1200D9CFE6FFE1CFD6
:1027A000D9FF030EE126E66AD9CFE6FFDACFE6FFCE
:1027B000050EE66EF5EC1CF0E552E552E552E552E9
:1027C000E66AD950010FE66E000EDA20E66E010EC1
:1027D000E66EF5EC1CF0E552E552E552E552E66A8C
:1027E000D950020FE66E000EDA20E66E010EE66E9C
:1027F000F5EC1CF0E552E552E552E5520D5001E0D2
:102800006CD0020EDB50010802E20D8C66D0010E86
:10281000DB50070802E20D8C60D0410E326EDF50B3
:10282000325C1AE1020EDB500CE1010EF36EDB505C
:1028300004E0D890F336E806FCE1F350E81C921669
:102840000AD0010EF36EDB5004E0D890F336E806B0
:10285000FCE1F350921240D0420E326EDF50325CF7
:102860001AE1020EDB500CE1010EF36EDB5004E0C6
:10287000D890F336E806FCE1F350E81C93160AD032
:10288000010EF36EDB5004E0D890F336E806FCE16D
:10289000F350931221D0430E326EDF50325C1AE1B6
:1028A000020EDB500CE1010EF36EDB5004E0D89019
:1028B000F336E806FCE1F350E81C94160AD0010E4A
:1028C000F36EDB5004E0D890F336E806FCE1F350F9
:1028D000941202D00D8C01D0F5DC030EE15C02E213
:1028E000E16AE552E16EE552E7CFD9FF1200D9CF98
:1028F000E6FFE1CFD9FF030EE126020EDB6AE66AAE
:10290000D9CFE6FFDACFE6FF050EE66EF5EC1CF058
:10291000E552E552E552E552E66AD950010FE66EFE
:10292000000EDA20E66E010EE66EF5EC1CF0E552C4
:10293000E552E552E5520D5001E05BD0010EDB504F
:10294000070802E20D8C55D0410E326EDF50325C2A
:102950000FE1010EF36EDB5004E0D890F336E80689
:10296000FCE1F3508014E76E020EE7CFDBFF2AD0C4
:10297000420E326EDF50325C0FE1010EF36EDB501F
:1029800004E0D890F336E806FCE1F3508114E76EDA
:10299000020EE7CFDBFF16D0430E326EDF50325C03
:1029A0000FE1010EF36EDB5004E0D890F336E80639
:1029B000FCE1F3508214E76E020EE7CFDBFF02D09A
:1029C0000D8C17D0DB5005E0010EF36E020EF3CF35
:1029D000DBFF020EDBCFE6FFE66AF00EE66E770E57
:1029E000E66E000EE66E88EC3FF0326E050EE15E9C
:1029F0003250030EE15C02E2E16AE552E16EE5521B
:102A0000E7CFD9FF1200D9CFE6FFE1CFD9FF030E00
:102A1000E126E66AD9CFE6FFDACFE6FF050EE66EDD
:102A2000F5EC1CF0E552E552E552E552E66AD95064
:102A3000010FE66E000EDA20E66E010EE66EF5EC92
:102A40001CF0E552E552E552E552E66AD950020F14
:102A5000E66E000EDA20E66E010EE66EF5EC1CF076
:102A6000E552E552E552E5520D5001E06DD0020EFF
:102A7000DB50010802E20D8C67D0010EDB50070825
:102A800002E20D8C61D0410E326EDF50325C1AE1F1
:102A9000020EDB500CE1010EF36EDB5004E0D89027
:102AA000F336E806FCE1F350E81C89160AD0010E63
:102AB000F36EDB5004E0D890F336E806FCE1F35007
:102AC000891240D0420E326EDF50325C1AE1020EA3
:102AD000DB500CE1010EF36EDB5004E0D890F336CE
:102AE000E806FCE1F350E81C8A160AD0010EF36EEA
:102AF000DB5004E0D890F336E806FCE1F3508A128C
:102B000021D0430E326EDF50325C1AE1020EDB50F0
:102B10000CE1010EF36EDB5004E0D890F336E806CA
:102B2000FCE1F350E81C8B160AD0010EF36EDB506B
:102B300004E0D890F336E806FCE1F3508B1202D0A3
:102B40000D8C02D062EC11F0030EE15C02E2E16A4E
:102B5000E552E16EE552E7CFD9FF120062EF11F0C6
:102B600062EF11F062EF11F0D9CFE6FFE1CFD9FFAC
:102B7000040EE126E66AD9CFE6FFDACFE6FF050EBE
:102B8000E66EF5EC1CF0E552E552E552E552E66AD8
:102B9000D950010FE66E000EDA20E66E010EE66EE9
:102BA000F5EC1CF0E552E552E552E552E66AD950E3
:102BB000020FE66E000EDA20E66E030EE66EF5EC0E
:102BC0001CF0E552E552E552E5520D5001E07BD094
:102BD000D950020FE96EDACFEAFF720ED880EE54B8
:102BE0002E0EED5402E20D8C6ED0D950020FE96E1C
:102BF000DACFEAFFEE50ED101FE035683668376A2D
:102C00002D0EE76E020EDBCF38F0030EDBCF39F06E
:102C1000E7503826000E39223A6A3850355C326E59
:102C200039503658336E3A503758346E020E32C02F
:102C3000DBFF030E33C0DBFF010EDB50070802E2AF
:102C40000D8C41D0410E326EDF50325C02E1DF6A02
:102C500012D0420E326EDF50325C03E1080EDF6E9E
:102C60000AD0430E326EDF50325C03E1100EDF6E8D
:102C700002D00D8C28D0010EDB50DF24E96EEA6A09
:102C8000D890E936EA36690EE926010EEA22020EEC
:102C9000DBCFEEFF030EDBCFEDFF010EDB50DF24B9
:102CA000EA6A510FE96E010EEA22EF040AE1010E11
:102CB000DB50DF24EA6A510FE96E010EEA22020EB0
:102CC000EF6E62EC11F0040EE15C02E2E16AE552A3
:102CD000E16EE552E7CFD9FF1200D9CFE6FFE1CF91
:102CE000D9FF050EE126E66AD9CFE6FFDACFE6FF87
:102CF000010EE66EF5EC1CF0E552E552E552E552A8
:102D0000E66AD950020FE66E000EDA20E66E010E7A
:102D1000E66EF5EC1CF0E552E552E552E552E66A46
:102D2000D950030FE66E000EDA20E66E010EE66E55
:102D3000F5EC1CF0E552E552E552E552E66AD95051
:102D4000010FE66E000EDA20E66E010EE66EF5EC7F
:102D50001CF0E552E552E552E552E66AD950040FFF
:102D6000E66E000EDA20E66E010EE66EF5EC1CF063
:102D7000E552E552E552E5520D5001E012D0DFCFA9
:102D8000A0F0020EDBCFA2F0010EDBCFA1F0030E0C
:102D9000DBCFA3F0040EDBCFA4F0A0C089FF62EC70
:102DA00011F0050EE15C02E2E16AE552E16EE552E6
:102DB000E7CFD9FF1200D9CFE6FFE1CFD9FF040E4C
:102DC000E126030EDB6A0001A851EA6A000FE96EF2
:102DD000070EEA22EF502C0818E00001A851EA6A19
:102DE000000FE96E070EEA22EF50E66EE66AC90EA2
:102DF000E66E770EE66E000EE66E88EC3FF0326E01
:102E0000050EE15E32500D8A20D10001A82B000191
:102E1000A851326E336A000E321802E1010E3318E7
:102E200002E10001A86BA0C089FF0001A11D891467
:102E3000326E891C0001A1153210E76E010EE7CF3A
:102E4000DBFF0001A851EA6A000FE96E070EEA22D3
:102E5000EF500D0801E1F7D00001A851EA6A000F18
:102E6000E96E070EEA22EF50E66EE66ABCEC40F02F
:102E7000E552E552020EF3CFDBFF300EF36E020E89
:102E8000DBCFF4FFF350F45C0FE3020EDB503908A4
:102E90000BE3300E326E020EDBCFE7FF3250E75EFF
:102EA000020EE7CFDBFF19D0410EF36E020EDBCF2F
:102EB000F4FFF350F45C0FE3020EDB5046080BE323
:102EC000370E326E020EDBCFE7FF3250E75E020EA6
:102ED000E7CFDBFF02D00D8CB8D0020EDB38F00B51
:102EE000DF6E0001A82B0001A851326E336A000E7C
:102EF000321802E1010E331802E10001A86B0D0E39
:102F0000326E0001A851EA6A000FE96E070EEA224C
:102F1000EF50325C02E10D8898D00001A851EA6AB6
:102F2000000FE96E070EEA22EF50E66EE66ABCEC8F
:102F300040F0E552E552020EF3CFDBFF300EF36EA8
:102F4000020EDBCFF4FFF350F45C0FE3020EDB5014
:102F500039080BE3300E326E020EDBCFE7FF325042
:102F6000E75E020EE7CFDBFF19D0410EF36E020ED3
:102F7000DBCFF4FFF350F45C0FE3020EDB504608A6
:102F80000BE3370E326E020EDBCFE7FF3250E75E07
:102F9000020EE7CFDBFF02D00D8C57D0020EDB50C4
:102FA000DF24DF6E0001A82B0001A851326E336AC6
:102FB000000E321802E1010E331802E10001A86B85
:102FC000DF508A6E010EDB50896E0001A45105E0CE
:102FD000A4C0E6FF67EC41F0E552A0C089FF000104
:102FE000A35130E0030EA3C0DBFF0001A05100019C
:102FF000A215326E0001A2518014325C0BE1030E67
:10300000DB5008E000000000000000000000030E9C
:10301000DB06EBD7030EA3C0DBFF0001A0510001CC
:10302000A215326E0001A2518014325C0BE0030E37
:10303000DB5008E000000000000000000000030E6C
:10304000DB06EBD7FED662EC11F0040EE15C02E287
:10305000E16AE552E16EE552E7CFD9FF1200D9CF20
:10306000E6FFE1CFD9FF050EE126030EDB6A040E71
:10307000DB6AE66AD950040FE66E000EDA20E66ECF
:10308000010EE66EF5EC1CF0E552E552E552E55214
:10309000040EDB5004E0040EDB50380802E20D8C15
:1030A0009FD00001A851EA6A000FE96E070EEA22DC
:1030B000EF502C0818E00001A851EA6A000FE96EF1
:1030C000070EEA22EF50E66EE66AC90EE66E770E4C
:1030D000E66E000EE66E88EC3FF0326E050EE15EA5
:1030E00032500D8A7DD00001A82B0001A851326E0C
:1030F000336A000E321802E1010E331802E10001BA
:10310000A86BA0C089FF0001A11D8914326E891C23
:103110000001A1153210E76E010EE7CFDBFF040EB0
:10312000DB505CE00001A851EA6A000FE96E070E6F
:10313000EA22EFCFDFFF0001A82B0001A851326E79
:10314000336A000E321802E1010E331802E1000169
:10315000A86B040EDB06DF508A6E010EDB50896E11
:103160000001A45105E0A4C0E6FF67EC41F0E55280
:10317000A0C089FF0001A35130E0030EA3C0DBFF14
:103180000001A0510001A215326E0001A25180146D
:10319000325C0BE1030EDB5008E000000000000091
:1031A00000000000030EDB06EBD7030EA3C0DBFF1D
:1031B0000001A0510001A215326E0001A25180143D
:1031C000325C0BE0030EDB5008E000000000000062
:1031D00000000000030EDB06EBD7A1D762EC11F074
:1031E000050EE15C02E2E16AE552E16EE552E7CFED
:1031F000D9FF1200D9CFE6FFE1CFD9FF030EE126B8
:10320000E66AD9CFE6FFDACFE6FF010EE66EEDDB28
:10321000E552E552E552E552E66AD950010FE66EF5
:10322000000EDA20E66E030EE66EDFDBE552E552B5
:10323000E552E552010EDBCF82F2020EDBCF83F2C4
:10324000DF50000821E20F011E811E931E85AF0E84
:10325000E66E4F0EE66E16EC40F0E552E552FC0EBF
:10326000E66E3F0EE66E9AEC3EF0E552E552DFCF99
:10327000E6FFE66A8DEC40F0E552E5520E01BF91A3
:103280000E0EC36F939002D07BEC41F0D950010F2A
:10329000E96EDACFEAFF000ED880EE54000EED544E
:1032A00001E200D062EC11F0030EE15C02E2E16A9F
:1032B000E552E16EE552E7CFD9FF120062EF11F05F
:1032C00062EF11F062EF11F062EF11F062EF11F0B6
:1032D00062EF11F0D9CFE6FFE1CFD9FF0F0EE12663
:1032E000320EF36E0C0EF3CFDBFF010EF36E0D0EFC
:1032F000F3CFDBFF010EF36E0E0EF3CFDBFFE66ABA
:10330000D950080FE66E000EDA20E66E030EE66E68
:103310006CDBE552E552E552E552D950080FE96EF3
:10332000DACFEAFFEE50ED101FE1010EE66ED95044
:103330000A0FE66E000EDA20E66E050EE66E55DB2D
:10334000E552E552E552E552010EE66ED9500B0FFB
:10335000E66E000EDA20E66E010EE66E46DBE55202
:10336000E552E552E5521CD0E66AD9500A0FE66EE6
:10337000000EDA20E66E050EE66E37DBE552E5520A
:10338000E552E552E66AD9500B0FE66E000EDA20E0
:10339000E66E010EE66E29DBE552E552E552E55296
:1033A000010EE66ED9500C0FE66E000EDA20E66EC6
:1033B000010EE66E1ADBE552E552E552E5520D507C
:1033C00001E009D3D950080FE96EDACFEAFFEE50D9
:1033D000ED1032E17990A092410E0001E65D0CE122
:1033E000010EE5C0E7FFE75204E0E846FE0BE70602
:1033F000FCE1E81C89161DD0420EE65D0CE1010ED1
:10340000E5C0E7FFE75204E0E846FE0BE706FCE113
:10341000E81C8A160ED0430EE65D0BE1010EE5C0F6
:10342000E7FFE75204E0E846FE0BE706FCE1E81C94
:103430008B1662EC11F0CFD2080EDBCF36F0090EFE
:10344000DBCF37F0386A396A640E296E2A6A2B6A34
:103450002C6A36C024F037C025F038C026F039C0B9
:1034600027F055EC40F020C036F021C037F022C0E4
:1034700038F023C039F00C0EDBCF32F0336A346AF7
:10348000356A296A1B0E2A6EB70E2B6E2C6A32C063
:1034900024F033C025F034C026F035C027F055ECB9
:1034A00040F020C032F021C033F022C034F023C0FD
:1034B00035F032C024F033C025F034C026F035C0DA
:1034C00027F036C029F037C02AF038C02BF039C0B9
:1034D0002CF0C0EC3CF024C0DEFF25C0DEFF26C08F
:1034E000DEFF27C0DDFFDD52DD52080EDBCF36F0F8
:1034F000090EDBCF37F0386A396A640E296E2A6A02
:103500002B6A2C6A36C024F037C025F038C026F06C
:1035100039C027F055EC40F020C036F021C037F01C
:1035200022C038F023C039F00C0EDBCFE6FF640E6A
:10353000E552D880E754326E336A346A356A296AB4
:103540001B0E2A6EB70E2B6E2C6A32C024F033C0CD
:1035500025F034C026F035C027F055EC40F020C0EF
:1035600032F021C033F022C034F023C035F032C035
:1035700024F033C025F034C026F035C027F036C023
:1035800029F037C02AF038C02BF039C02CF0C0EC3D
:103590003CF0040E24C0DBFF050E25C0DBFF060E49
:1035A00026C0DBFF070E27C0DBFFD9CFE9FFDACF4C
:1035B000EAFFD880FF0EEE54FF0EEE54000EEE54DC
:1035C000000EEE5423E2800EF36E0D0EF3CFDBFF00
:1035D000D9CFE9FFDACFEAFFEECF24F0EECF25F026
:1035E000EECF26F0EFCF27F0800E296E2A6A2B6AE5
:1035F0002C6AE2EC40F024C0DEFF25C0DEFF26C0CE
:10360000DEFF27C0DDFFDD52DD5205D0010EF36E77
:103610000D0EF3CFDBFFD9CFE9FFDACFEAFF280E9B
:10362000EE5C000EEE58000EEE58000EEE5807E26B
:10363000280EDE6EDE6ADE6ADD6ADD52DD52D950AA
:10364000040FE96EDACFEAFFD880FF0EEE54FF0ECA
:10365000EE54000EEE54000EEE5425E2800EF36E92
:103660000E0EF3CFDBFF040EDBCF24F0050EDBCF15
:1036700025F0060EDBCF26F0070EDBCF27F0800EFD
:10368000296E2A6A2B6A2C6AE2EC40F0040E24C0F0
:10369000DBFF050E25C0DBFF060E26C0DBFF070E95
:1036A00027C0DBFF05D0010EF36E0E0EF3CFDBFF5C
:1036B000D950040FE96EDACFEAFF280EEE5C000E57
:1036C000EE58000EEE58000EEE580BE2280EF36E88
:1036D000040EF3CFDBFF050EDB6A060EDB6A070E76
:1036E000DB6A040EDBCF32F0050EDBCF33F0060EC3
:1036F000DBCF34F0070EDBCF35F0140E325E000E58
:10370000335A345A355A040E32C0DBFF050E33C02B
:10371000DBFF060E34C0DBFF070E35C0DBFFD9CF61
:10372000E9FFDACFEAFFEECF32F0EECF33F0EECFA3
:1037300034F0EFCF35F0140E325E000E335A345AA7
:10374000355A32C0DFFF010E33C0DBFF020E34C03A
:10375000DBFF030E35C0DBFF0B0EDB50070802E278
:103760000D8C39D1000EF36E0C0EDBCFF4FFF3504D
:10377000F45C04E30C0EDB50630802E20D8C2BD1E9
:1037800079B06CD00201846B856B866B410E326E12
:103790000A0EDB50325C19E1010EF36E0B0EDB50AA
:1037A00004E0D890F336E806FCE1F350E81C9216EA
:1037B000010EF36E0B0EDB5004E0D890F336E806F2
:1037C000FCE1F3500201841340D0420E326E0A0E27
:1037D000DB50325C19E1010EF36E0B0EDB5004E09E
:1037E000D890F336E806FCE1F350E81C9316010E7E
:1037F000F36E0B0EDB5004E0D890F336E806FCE1E4
:10380000F3500201851321D0430E326E0A0EDB50B5
:10381000325C19E1010EF36E0B0EDB5004E0D89020
:10382000F336E806FCE1F350E81C9416010EF36E43
:103830000B0EDB5004E0D890F336E806FCE1F350C1
:103840000201861302D00D8CC6D00B0EDBCFE5F043
:103850000A0EDBCFE6F0010E1D6E1C6AD9CFE9FF20
:10386000DACFEAFFD880FF0EEE54FF0EEE54000EC2
:10387000EE54000EEE540FE3D950040FE96EDACF88
:10388000EAFFD880FF0EEE54FF0EEE54000EEE5409
:10389000000EEE5402E20D8C9ED036683768386A0E
:1038A000396AD9CFE9FFDACFEAFFEE50365C326EE3
:1038B000EE503758336EEE503858346EEE5039585B
:1038C000356E32C0DFFF010E33C0DBFF020E34C0A5
:1038D000DBFF030E35C0DBFF36683768386A396AAC
:1038E000D950040FE96EDACFEAFFEE50365C326E43
:1038F000EE503758336EEE503858346EEE5039581B
:10390000356E040E32C0DBFF050E33C0DBFF060E42
:1039100034C0DBFF070E35C0DBFFF29ED9CFE9FFD5
:10392000DACFEAFFEECF32F0EECF33F0EECF34F065
:10393000EFCF35F0080ED890353234323332323290
:10394000E806F9E13250166ED9CFE9FFDACFEAFF87
:10395000EECF32F0EECF33F0EECF34F0EFCF35F0E4
:103960003250176E040EDBCF32F0050EDBCF33F092
:10397000060EDBCF34F0070EDBCF35F0080ED89003
:103980003532343233323232E806F9E13250186ED1
:10399000040EDBCF32F0050EDBCF33F0060EDBCFAB
:1039A00034F0070EDBCF35F03250196E0D0EDB50C0
:1039B0001A6E0E0EDB501B6EF28E79B00AD03F0EDF
:1039C00079140009796E7998799AA282A192A082DD
:1039D000798062EC11F00F0EE15C02E2E16AE552DF
:1039E000E16EE552E7CFD9FF1200D9CFE6FFE1CF74
:1039F000D9FF040EE126030EDB6A0D0E326E0001C4
:103A0000A851EA6A000FE96E070EEA22EF50325C15
:103A100006E1FB0EDB5001E10D88030ED4D1A85165
:103A2000EA6A000FE96E070EEA22EF502C081BE04D
:103A3000FB0EDB5016E1A851EA6A000FE96E070E93
:103A4000EA22EF50E66EE66AC90EE66E770EE66E83
:103A5000000EE66E88EC3FF0326E050EE15E3250ED
:103A60000D8A020EB0D1A82BA851326E336A000E17
:103A7000321802E1010E331801E1A86B0D0E326E0F
:103A8000A851EA6A000FE96E070EEA22EF50325C95
:103A900006E1FB0EDB5001E10D88030E94D12D0EE3
:103AA000326EA851EA6A000FE96E070EEA22EF5063
:103AB000325C29E1040E336EFE0EDB50335C23E0F2
:103AC000050E346EFE0EDB50345C1DE0FE0EDB0492
:103AD00006E0030E326EFE0EDB50325C04E10D8C0C
:103AE000010E71D110D0010EF36E030EF3CFDBFF88
:103AF000A82BA851326E336A000E321802E1010E73
:103B0000331801E1A86B040E326EFE0EDB50325CFE
:103B100011E0050E336EFE0EDB50335C0BE0050E3C
:103B2000E66ED9CFE6FFDACFE6FF59D9E552E55286
:103B3000E5523ED00001A851EA6A000FE96E070E77
:103B4000EA22EFCF32F0336A346A32C0DFFF010E6F
:103B500033C0DBFF020E34C0DBFF050E326EFE0EFB
:103B6000DB50325C19E1000EDFCFE6FF010EDBCF48
:103B7000E6FFBCEC40F0E552E552F3CF32F0F4CF73
:103B800033F0346A33BE346832C0DFFF010E33C015
:103B9000DBFF020E34C0DBFF0001A82BA851326E00
:103BA000336A000E321802E1010E331801E1A86BEE
:103BB000030EDB5021E0DFCF32F0010EDBCF33F01C
:103BC000020EDBCF34F02A682B682C6832C025F057
:103BD00033C026F034C027F0F4EC3CF022C032F0C1
:103BE00023C033F024C034F032C0DFFF010E33C0F5
:103BF000DBFF020E34C0DBFFFE0EDB5026E1DFCF21
:103C000032F0010EDBCF33F0020EDBCF34F0343470
:103C1000000E341807E6D8807F0E3254000E33545D
:103C2000000E345401E28CD0D9CFE9FFDACFEAFF9D
:103C3000020ED880EB50FF0A06E6800EEE5CFF0E07
:103C4000EE58FF0EEF5801E27BD0FE0EDB0424E1BC
:103C5000DFCF35F0010EDBCF36F0020EDBCF37F0D1
:103C60003734000E371807E6D880FF0E3554000EA3
:103C70003654000E375464E3D9CFE9FFDACFEAFFB8
:103C8000020ED890EB50000A06E6000EEE5C000E25
:103C9000EE58000EEF5854E3020E386EFE0EDB5065
:103CA000385C24E1DFCF39F0010EDBCF3AF0020EB1
:103CB000DBCF3BF03B34000E3B1807E6D880FF0E0D
:103CC00039547F0E3A54000E3B543AE3D9CFE9FF02
:103CD000DACFEAFF020ED880EB50FF0A06E6000EAC
:103CE000EE5C800EEE58FF0EEF582AE3030E3C6E9A
:103CF000FE0EDB503C5C27E1DFCF3DF0010EDBCF59
:103D00003EF0020EDBCF3FF03F34000E3F1807E6D7
:103D1000D880FF0E3D54FF0E3E54000E3F5410E37A
:103D2000D9CFE9FFDACFEAFF020ED890EB50000AB4
:103D300006E6000EEE5C000EEE58000EEF5803E2B1
:103D40000D8C010E40D0FE0EDB50030A2DE0010A5F
:103D50001EE0030A12E0050A10E0010A0EE0050A5F
:103D600002E0040E30D0FC0EDBCFE9FFFD0EDBCF0E
:103D7000EAFF000EDFCFEFFF24D0FC0EDBCFE9FF20
:103D8000FD0EDBCFEAFF000EDFCFEFFF1AD0FC0EF7
:103D9000DBCFE9FFFD0EDBCFEAFF000EDFCFEEFF4A
:103DA000010EDBCFEDFF0DD0FC0EDBCFE9FFFD0EEA
:103DB000DBCFEAFF000EDFCFEEFF010EDBCFEDFF22
:103DC00000D0000E00D0326E040EE15C02E2E16A27
:103DD000E552E16E3250E552E7CFD9FF1200D9CF5C
:103DE000E6FFE1CFD9FF020EE126FD0EDBCFE9FFB2
:103DF000FE0EDBCFEAFFEE6AEE6AEE6A010EDB6AC8
:103E0000FC0EDB50F36E010EDBCFF4FFF350F45CDD
:103E100058E20001A851EA6A000FE96E070EEA2293
:103E2000EFCFDFFF300EDF5C4AE3DF50390847E3B6
:103E3000FD0EDBCFE9FFFE0EDBCFEAFFEECF35F064
:103E4000EECF36F0EFCF37F00A0E2A6E2B6A2C6ACF
:103E500035C025F036C026F037C027F0F4EC3CF032
:103E600022C035F023C036F024C037F0300EDF5CBE
:103E7000386E396A3A6A35503824326E36503920F5
:103E8000336E37503A20346EFD0EDBCFE9FFFE0E65
:103E9000DBCFEAFF32C0EEFF33C0EEFF34C0EEFFEF
:103EA0000001A82BA851326E336A000E321802E1CD
:103EB000010E331801E1A86B010EDB2AA1D7000E19
:103EC00002D0010E00D0326E020EE15C02E2E16A25
:103ED000E552E16E3250E552E7CFD9FF12000650AD
:103EE000E66EE66ABD0EE66E770EE66E000EE66ED4
:103EF00088EC3FF0326E050EE15E325012000D018B
:103F0000C55108E0010E326E6550020B01E0010E52
:103F1000325C1BE10201D307000ED45BD5510BE1EB
:103F2000D351D41107E18D80D00ED36F070ED46F1B
:103F3000010ED56F09D0D351D41106E18D90D00E6A
:103F4000D36F070ED46FD56B48D0C50509E0020EBC
:103F5000C55D06E0040EC55D03E0100EC55D02E11F
:103F60008D803BD0200EC55D38E10201D307000EE5
:103F7000D45BD5510BE1D351D41107E18D80100EE4
:103F8000D36F270ED46F010ED56F27D0D5050BE167
:103F9000D351D41107E18D90100ED36F270ED46F3B
:103FA000020ED56F1AD0020ED55D0BE1D351D4119C
:103FB00007E18D80A00ED36F860ED46F030ED56FF0
:103FC0000CD0030ED55D09E3D351D41106E18D90D9
:103FD000100ED36F270ED46FD56B1200000E03D0D6
:103FE000010E01D000D01200D9CFE6FFE1CFD9FFFA
:103FF000020EE126FD0EDBCFE9FFFE0EDBCFEAFF6E
:10400000EF50010B326EFC0EDB50325C70E0DF6A69
:10401000FD0EDBCFE9FFFE0EDBCFEAFFEE52EF50E5
:10402000050802E2010EDF6EFC0EDB5047E1FD0EDB
:10403000DBCFE9FFFE0EDBCFEAFF0A0EE926000E1A
:10404000EA22EF04E76E010EE7CFDBFFDF502BE043
:10405000070E356E010EDB50070B355C366E010E18
:10406000365204E0E846FE0B3606FCE1346EFD0EE7
:10407000DBCFE9FFFE0EDBCFEAFF020EE926000EE2
:10408000EA22E9CF32F0EACF33F0010EDB50F80B31
:10409000E842E842E8420F013224E96E000E332084
:1040A000EA6E3450EF12FD0EDBCFE9FFFE0EDBCFE0
:1040B000EAFF0A0EE926000EEA22EF2AFD0EDBCF08
:1040C000E9FFFE0EDBCFEAFFEE52EF6AFC0EDB509B
:1040D000326EFD0EDBCFE9FFFE0EDBCFEAFF325082
:1040E000010BF36EFE0EEF14F310EF6E2DD0FD0EEC
:1040F000DBCFE9FFFE0EDBCFEAFFEE52EFCF32F06F
:10410000640E325C09E2FD0EDBCFE9FFFE0EDBCF71
:10411000EAFFEE52EF2A18D0FD0EDBCFE9FFFE0ECC
:10412000DBCFEAFF0A0EE926000EEA22EF500CE090
:10413000FD0EDBCFE9FFFE0EDBCFEAFF0B0EE9261B
:10414000000EEA22010EEF6E020EE15C02E2E16A6D
:10415000E552E16EE552E7CFD9FF1200D9CFE6FF75
:10416000E1CFD9FFE652FD0EDBCFE9FFFE0EDBCF3C
:10417000EAFF0A0EE926000EEA22EFCFDFFFFD0E6E
:10418000DBCFE9FFFE0EDBCFEAFF0C0EE926000EC7
:10419000EA22EF041AE1FD0EDBCFE9FFFE0EDBCFD2
:1041A000EAFF0A0EE926000EEA22EF500EE0FC0EAE
:1041B000DBCFE6FFFD0EDBCFE6FFFE0EDBCFE6FF3B
:1041C00013DFE552E552E552BDD2FD0EDBCFE9FF2C
:1041D000FE0EDBCFEAFFEF50010B326EFC0EDB5020
:1041E000325C01E0D7D0FD0EDBCFE9FFFE0EDBCF66
:1041F000EAFFEE52EFCF32F0640E325C15E2FD0EB4
:10420000DBCFE9FFFE0EDBCFEAFF0E0EE926000E44
:10421000EA22EE2AEF22FD0EDBCFE9FFFE0EDBCF16
:10422000EAFFEE52EF2A18D0FD0EDBCFE9FFFE0EBB
:10423000DBCFEAFF0A0EE926000EEA22EF500CE07F
:10424000FD0EDBCFE9FFFE0EDBCFEAFF0B0EE9260A
:10425000000EEA22010EEF6EFD0EDBCFE9FFFE0E2F
:10426000DBCFEAFF0C0EE926000EEA22EF0401E0A4
:1042700090D0DF5001E18DD0DF06FD0EDBCFE9FFEE
:10428000FE0EDBCFEAFF100EE926000EEA22EECF8B
:1042900032F0EFCF33F0FD0EDBCFE9FFFE0EDBCFC8
:1042A000EAFF0E0EE926000EEA22EECF34F0EFCF41
:1042B00035F03450325C355033586BE2FD0EDBCFB5
:1042C000E9FFFE0EDBCFEAFF0E0EE926000EEA2222
:1042D000EECF34F0EFCF35F0FD0EDBCFE9FFFE0E71
:1042E000DBCFEAFF100EE926000EEA22EE50345C26
:1042F000326EEE503558336EFD0EDBCFE9FFFE0E09
:10430000DBCFEAFF0D0EE926000EEA22EF50020F86
:10431000366E376A3250365C335037583AE2FD0E0B
:10432000DBCFE9FFFE0EDBCFEAFF0A0EE926000E27
:10433000EA22EF2AFD0EDBCFE9FFFE0EDBCFEAFF1C
:104340000D0EE926000EEA22EF50346E356AFD0E9E
:10435000DBCFE9FFFE0EDBCFEAFF100EE926000EF1
:10436000EA223450EE24326E3550EE20336E020EC7
:104370003226000E3322FD0EDBCFE9FFFE0EDBCF2F
:10438000EAFF100EE926000EEA2232C0EEFF33C02B
:10439000EDFFD8D1FC0EDB50326EFD0EDBCFE9FF16
:1043A000FE0EDBCFEAFF3250010BF36EFE0EEF1470
:1043B000F310EF6EFC0EDB5001E04AD1FD0EDBCFB7
:1043C000E9FFFE0EDBCFEAFFEE52EFCF32F0640ED4
:1043D000325C01E33CD1DF5001E099D0FD0EDBCF30
:1043E000E9FFFE0EDBCFEAFF0E0EEB6A0F0EEB6A63
:1043F000FD0EDBCFE9FFFE0EDBCFEAFF0C0EE92658
:10440000000EEA22EF50030A55E0010A10E0030A09
:1044100001E000D0FD0EDBCFE9FFFE0EDBCFEAFFAF
:104420000D0EE926000EEA22030EEF6E64D0FD0E9B
:10443000DBCFE9FFFE0EDBCFEAFFEE52EF50030DBC
:10444000F350FE0BE842E66EFD0EDBCFE9FFFE0EF9
:10445000DBCFEAFF0D0EE926000EEA22E552E75017
:10446000EF6E070E356EDF14355C366E010E365278
:1044700004E0E846FE0B3606FCE1346EFD0EDBCFB1
:10448000E9FFFE0EDBCFEAFF020EE926000EEA226C
:10449000E9CF32F0EACF33F0DF50F80BE842E842E0
:1044A000E8420F013224E96E000E3320EA6E3450E8
:1044B000EF1221D0FD0EDBCFE9FFFE0EDBCFEAFFCE
:1044C000EE52EFCF32F0030E336E33C02CF032C019
:1044D00027F059EC41F02750E66EFD0EDBCFE9FFE7
:1044E000FE0EDBCFEAFF0D0EE926000EEA22E552B2
:1044F000E750EF6E00D0FD0EDBCFE9FFFE0EDBCF05
:10450000EAFF0A0EE926000EEA22EF2AA0D0400EAA
:10451000DF5C01E39CD0FD0EDBCFE9FFFE0EDBCFBD
:10452000EAFF0C0EE926000EEA22EF50030A43E0F0
:10453000010A01E000D0FD0EDBCFE9FFFE0EDBCF6C
:10454000EAFFEE52EFCF32F0FD0EDBCFE9FFFE0EB9
:10455000DBCFEAFF0D0EE926000EEA22EF50D880ED
:10456000325428E2070E356EDF14355C366E010ECC
:10457000365204E0E846FE0B3606FCE1346EFD0ED2
:10458000DBCFE9FFFE0EDBCFEAFF020EE926000ECD
:10459000EA22E9CF32F0EACF33F0DF50F80BE842FD
:1045A000E842E8420F013224E96E000E3320EA6E41
:1045B0003450EF1241D0DF06FD0EDBCFE9FFFE0ED7
:1045C000DBCFEAFFEE52EFCF32F0FD0EDBCFE9FF9B
:1045D000FE0EDBCFEAFF0D0EE926000EEA22EF50B9
:1045E000D880325428E2070E356EDF14355C366E03
:1045F000010E365204E0E846FE0B3606FCE1346E4E
:10460000FD0EDBCFE9FFFE0EDBCFEAFF020EE9264F
:10461000000EEA22E9CF32F0EACF33F0DF50F80B98
:10462000E842E842E8420F013224E96E000E3320EE
:10463000EA6E3450EF1200D0FD0EDBCFE9FFFE0E24
:10464000DBCFEAFF0A0EE926000EEA22EF2A72D03B
:10465000DF5070E1FD0EDBCFE9FFFE0EDBCFEAFF9E
:104660000E0EEB6A0F0EEB6AFD0EDBCFE9FFFE0EBE
:10467000DBCFEAFFEE52EF50280818E2FD0EDBCF49
:10468000E9FFFE0EDBCFEAFFEE52EFCF32F0320E43
:10469000325C0CE2FD0EDBCFE9FFFE0EDBCFEAFF62
:1046A0000C0EE926000EEA22010EEF6EFD0EDBCFA6
:1046B000E9FFFE0EDBCFEAFFEE52EF50190818E2D9
:1046C000FD0EDBCFE9FFFE0EDBCFEAFFEE52EFCFB0
:1046D00032F0240E325C0CE2FD0EDBCFE9FFFE0E61
:1046E000DBCFEAFF0C0EE926000EEA22020EEF6E87
:1046F000FD0EDBCFE9FFFE0EDBCFEAFFEE52EF50FF
:104700000D0818E2FD0EDBCFE9FFFE0EDBCFEAFF5E
:10471000EE52EFCF32F0150E325C0CE2FD0EDBCF25
:10472000E9FFFE0EDBCFEAFF0C0EE926000EEA22BF
:10473000030EEF6EFD0EDBCFE9FFFE0EDBCFEAFFCF
:10474000EE52EF6AE552E552E7CFD9FF1200D9CF1A
:10475000E6FFE1CFD9FFE6520201EE2B000EEF2378
:10476000817493948150400B01E0010EE66EAE0E11
:10477000E66E000EE66EF2DCE552E552E55281503F
:10478000800B01E0010EE66EC00EE66E000EE66ED6
:10479000E5DCE552E552E5528050010BE66ED20EA3
:1047A000E66E000EE66EDADCE552E552E5520A0EE0
:1047B0000201EFAF02D0D89003D0EE5D000EEF59AA
:1047C00001E2D1D1EE6BEF6BF02BDF6ADFCF32F07D
:1047D000336A32BE3368020133508119E8AE02D029
:1047E000813504D08051325C8151335801E3BBD113
:1047F000DFCFE9FFEA6AE9BEEA68E60EE926020EC3
:10480000EA22EF5064E0DFCFE9FFEA6AE9BEEA6836
:10481000D60EE926020EEA22EF50440A43E0070AC8
:104820002DE0010A17E0030A01E050D0DFCFE9FFD5
:10483000EA6AE9BEEA68DA0EE926020EEA22EF50D9
:10484000326E010E325204E0E846FE0B3206FCE105
:1048500089123CD0DFCFE9FFEA6AE9BEEA68DA0EE6
:10486000E926020EEA22EF50326E010E325204E0C7
:10487000E846FE0B3206FCE18A1228D0DFCFE9FFC2
:10488000EA6AE9BEEA68DA0EE926020EEA22EF5089
:10489000326E010E325204E0E846FE0B3206FCE1B5
:1048A0008B1214D0DFCFE9FFEA6AE9BEEA68DA0EBC
:1048B000E926020EEA22EF50326E010E325204E077
:1048C000E846FE0B3206FCE18C1200D067D0DFCF49
:1048D000E9FFEA6AE9BEEA68D60EE926020EEA2294
:1048E000EF50440A46E0070A2FE0010A18E0030AE5
:1048F00001E054D0DFCFE9FFEA6AE9BEEA68DA0EE8
:10490000E926020EEA22EF50326E010E325204E026
:10491000E846FE0B3206FCE1E81C89163FD0DFCFEB
:10492000E9FFEA6AE9BEEA68DA0EE926020EEA223F
:10493000EF50326E010E325204E0E846FE0B3206B2
:10494000FCE1E81C8A162AD0DFCFE9FFEA6AE9BE5B
:10495000EA68DA0EE926020EEA22EF50326E010E04
:10496000325204E0E846FE0B3206FCE1E81C8B16EE
:1049700015D0DFCFE9FFEA6AE9BEEA68DA0EE92678
:10498000020EEA22EF50326E010E325204E0E84687
:10499000FE0B3206FCE1E81C8C1600D0DFCFE9FFED
:1049A000EA6AE9BEEA68EA0EE926020EEA22EF5058
:1049B000326E336A0201EF513318E8AE02D033345D
:1049C00004D03250EE5D3350EF5964E2DFCFE9FF9F
:1049D000EA6AE9BEEA68DE0EE926020EEA22EF5034
:1049E000440A43E0070A2DE0010A17E0030A01E048
:1049F00050D0DFCFE9FFEA6AE9BEEA68E20EE926B5
:104A0000020EEA22EF50326E010E325204E0E84606
:104A1000FE0B3206FCE189123CD0DFCFE9FFEA6AE7
:104A2000E9BEEA68E20EE926020EEA22EF50326E93
:104A3000010E325204E0E846FE0B3206FCE18A1217
:104A400028D0DFCFE9FFEA6AE9BEEA68E20EE9268C
:104A5000020EEA22EF50326E010E325204E0E846B6
:104A6000FE0B3206FCE18B1214D0DFCFE9FFEA6ABD
:104A7000E9BEEA68E20EE926020EEA22EF50326E43
:104A8000010E325204E0E846FE0B3206FCE18C12C5
:104A900000D067D0DFCFE9FFEA6AE9BEEA68DE0E40
:104AA000E926020EEA22EF50440A46E0070A2FE008
:104AB000010A18E0030A01E054D0DFCFE9FFEA6AF7
:104AC000E9BEEA68E20EE926020EEA22EF50326EF3
:104AD000010E325204E0E846FE0B3206FCE1E81C0F
:104AE00089163FD0DFCFE9FFEA6AE9BEEA68E20E45
:104AF000E926020EEA22EF50326E010E325204E035
:104B0000E846FE0B3206FCE1E81C8A162AD0DFCF0D
:104B1000E9FFEA6AE9BEEA68E20EE926020EEA2245
:104B2000EF50326E010E325204E0E846FE0B3206C0
:104B3000FCE1E81C8B1615D0DFCFE9FFEA6AE9BE7D
:104B4000EA68E20EE926020EEA22EF50326E010E0A
:104B5000325204E0E846FE0B3206FCE1E81C8C16FB
:104B600000D0DF2A33D6E552E552E7CFD9FF120055
:104B7000D9CFE6FFE1CFD9FF070EE126040EE66E9E
:104B8000E66AE66AD60EE66E020EE66E3BEC3FF093
:104B9000326E050EE15E3250040EE66EE66AE66A9B
:104BA000DA0EE66E020EE66E3BEC3FF0326E050E5C
:104BB000E15E3250040EE66EE66AE66ADE0EE66EEE
:104BC000020EE66E3BEC3FF0326E050EE15E3250B7
:104BD000040EE66EE66AE66AE20EE66E020EE66E27
:104BE0003BEC3FF0326E050EE15E32500201806B0D
:104BF000816BDE6ADD6ADECF32F0DDCF33F0D89034
:104C0000335004E6040E325C000E335801E3D2D177
:104C1000010EE66EDECF32F0DDCF33F0D60E322657
:104C2000020E332232C0E6FF33C0E6FF050EE66E09
:104C3000F5EC1CF0E552E552E552E552010EE66E48
:104C4000DECF32F0DDCF33F0DA0E3226020E332221
:104C500032C0E6FF33C0E6FF010EE66EF5EC1CF055
:104C6000E552E552E552E552010EE66EDECF32F036
:104C7000DDCF33F0DE0E3226020E332232C0E6FFE5
:104C800033C0E6FF050EE66EF5EC1CF0E552E5528A
:104C9000E552E552010EE66EDECF32F0DDCF33F0A5
:104CA000E20E3226020E332232C0E6FF33C0E6FFA8
:104CB000010EE66EF5EC1CF0E552E552E552E552C8
:104CC000DECFE9FFDDCFEAFFDE0EE926020EEA22A3
:104CD000EF5001E16AD10201802B000E8123D950EF
:104CE000020F326EDACF33F0030E32C0DBFF040E58
:104CF00033C0DBFFDECFE9FFDDCFEAFFD60EE926CA
:104D0000020EEA22EF50440A40E0070A2BE0010AB3
:104D100016E0030A01E04CD0D950030FE96EDACF58
:104D2000EAFF920EEE6E0F0EED6ED950050FE96E92
:104D3000DACFEAFF890EEE6E0F0EED6E39D0D95044
:104D4000030FE96EDACFEAFF930EEE6E0F0EED6EF3
:104D5000D950050FE96EDACFEAFF8A0EEE6E0F0E1C
:104D6000ED6E26D0D950030FE96EDACFEAFF940E2C
:104D7000EE6E0F0EED6ED950050FE96EDACFEAFF39
:104D80008B0EEE6E0F0EED6E13D0D950030FE96E41
:104D9000DACFEAFF950EEE6E0F0EED6ED950050FCD
:104DA000E96EDACFEAFF8C0EEE6E0F0EED6E00D0DC
:104DB000DECFE9FFDDCFEAFFDA0EE926020EEA22B6
:104DC000EF50336E010E335204E0E846FE0B33061B
:104DD000FCE1E81C326E030EDBCFE9FF040EDBCFF3
:104DE000EAFFEF503214E66E030EDBCFE9FF040E4C
:104DF000DBCFEAFFE552E750EF6EDECFE9FFDDCF14
:104E0000EAFFDA0EE926020EEA22EF50336E010EB7
:104E1000335204E0E846FE0B3306FCE1E81C326E38
:104E2000050EDBCFE9FF060EDBCFEAFFEF503214B1
:104E3000E66E050EDBCFE9FF060EDBCFEAFFE5529B
:104E4000E750EF6ED950020F326EDACF33F0030E17
:104E500032C0DBFF040E33C0DBFFDECFE9FFDDCF66
:104E6000EAFFDE0EE926020EEA22EF50440A40E095
:104E7000070A2BE0010A16E0030A01E04CD0D950E2
:104E8000030FE96EDACFEAFF920EEE6E0F0EED6EB3
:104E9000D950050FE96EDACFEAFF890EEE6E0F0EDC
:104EA000ED6E39D0D950030FE96EDACFEAFF930ED9
:104EB000EE6E0F0EED6ED950050FE96EDACFEAFFF8
:104EC0008A0EEE6E0F0EED6E26D0D950030FE96EEE
:104ED000DACFEAFF940EEE6E0F0EED6ED950050F8D
:104EE000E96EDACFEAFF8B0EEE6E0F0EED6E13D089
:104EF000D950030FE96EDACFEAFF950EEE6E0F0E72
:104F0000ED6ED950050FE96EDACFEAFF8C0EEE6E2A
:104F10000F0EED6E00D0DECFE9FFDDCFEAFFE20E2F
:104F2000E926020EEA22EF50336E010E335204E0FE
:104F3000E846FE0B3306FCE1E81C326E030EDBCFC5
:104F4000E9FF040EDBCFEAFFEF503214E66E030EEA
:104F5000DBCFE9FF040EDBCFEAFFE552E750EF6E4F
:104F6000DECFE9FFDDCFEAFFE20EE926020EEA22FC
:104F7000EF50336E010E335204E0E846FE0B330669
:104F8000FCE1E81C326E050EDBCFE9FF060EDBCF3D
:104F9000EAFFEF503214E66E050EDBCFE9FF060E96
:104FA000DBCFEAFFE552E750EF6EDF2A010E01E3A7
:104FB000DB2A21D680C2E6FF81C2E6FFAB0EE66E99
:104FC000770EE66E000EE66E88EC3FF0326E050E50
:104FD000E15E3250DE6ADD6ADECF32F0DDCF33F0E3
:104FE000020133508119E8AE02D0813504D08051DE
:104FF000325C815133583DE2DECFE9FFDDCFEAFF7D
:10500000E20EE926020EEA22EF50E66EE66ADECFF5
:10501000E9FFDDCFEAFFDE0EE926020EEA22EF50BD
:10502000E66EE66ADECFE9FFDDCFEAFFDA0EE926BB
:10503000020EEA22EF50E66EE66ADECFE9FFDDCF30
:10504000EAFFD60EE926020EEA22EF50E66EE66A85
:105050009F0EE66E770EE66E000EE66E88EC3FF071
:10506000326E0B0EE15E3250DF2A010E01E3DB2AC5
:10507000B3D78950E66EE66A9250E66EE66A8C0E09
:10508000E66E770EE66E000EE66E88EC3FF0326E4E
:10509000070EE15E325062EC11F0070EE15C02E2B5
:1050A000E16AE552E16EE552E7CFD9FF1200D9CFB0
:1050B000E6FFE1CFD9FF060EE126DE6ADD6ADECF2C
:1050C00032F0DDCF33F0D890335004E6040E325C7A
:1050D000000E335801E39AD0010EE66ED950020F4C
:1050E000346EDACF35F0DE503424326EDD503520A8
:1050F000336E32C0E6FF33C0E6FFE66AF5EC1CF023
:10510000E552E552E552E552000901E07AD0D95066
:10511000020F336EDACF34F0DE503324E96EDD5007
:105120003420EA6EEFCF32F0323428E3DECFE9FFED
:10513000DDCFEAFFE60EE926020EEA22010EEF6E4F
:10514000D950020F346EDACF35F0DE503424E96ED8
:10515000DD503520EA6EEF50FF0DF350E66ED9506A
:10516000020F326EDACF33F0DE503224E96EDD50BA
:105170003320EA6EE552E750EF6E09D0DECFE9FF4B
:10518000DDCFEAFFE60EE926020EEA22EF6AD950E9
:10519000020F326EDACF33F0DE503224E96EDD508A
:1051A0003320EA6EEF50E66EDECFE9FFDDCFEAFF97
:1051B000EA0EE926020EEA22E552E750EF6EDECF54
:1051C000E9FFDDCFEAFFEA0EE926020EEA22EF5000
:1051D000E66EE66ADECFE9FFDDCFEAFFE60EE926FE
:1051E000020EEA22EF50E66EE66A830EE66E770E56
:1051F000E66E000EE66E88EC3FF0326E070EE15E62
:105200003250DF2A010E01E3DB2A59D779B00AD0E8
:105210003F0E79140009796E7998799AA282A19249
:10522000A08279808950E66EE66A9250E66EE66A60
:105230008C0EE66E770EE66E000EE66E88EC3FF0A2
:10524000326E070EE15E32500201F051E66EE66A00
:105250007E0EE66E770EE66E000EE66E88EC3FF090
:10526000326E050EE15E325062EC11F0060EE15C2A
:1052700002E2E16AE552E16EE552E7CFD9FF1200A2
:10528000D9CFE6FFE1CFD9FFE652A098636A626A00
:105290000F01266B020EE66EE66AE66A270EE66EE0
:1052A0000F0EE66E3BEC3FF0326E050EE15E3250C3
:1052B0000F01160E396F9F0E376F7B0E366FDF6A48
:1052C000DF50326E336A0C0E325C000E335810E23F
:1052D000DF50040DF3CFE9FFF4CFEAFF000EE9261B
:1052E0000D0EEA22EE6AEE6AEE6AEE6ADF2AE8D76F
:1052F000658C0F01386B6598659C62A607D0629635
:105300000D01DE6BE36BE46BE56BF7D70D01010E6E
:10531000F86FF96FFA6BFB6BEC6BDF6A030EDF5C07
:1053200026E2EA6ADF34FE0BEA36E96ED30EE9269E
:105330000D0EEA22EE6AED6AEA6ADF34FE0BEA3607
:10534000E96ECD0EE9260D0EEA22EE6AED6ADF5017
:10535000EA6AF00FE96E0D0EEA22EF6ADF50EA6AA0
:10536000F30FE96E0D0EEA22EF6ADF2AD7D70D019F
:10537000080ED36F0D0ED46F0F01160E266F0D01A0
:10538000300E026F0D0E036F080E016F840E006F5A
:105390000D01C66BC56BE552E552E7CFD9FF120090
:1053A000D9CFE6FFE1CFD9FFE6520D01C50509E1EE
:1053B00065BA07D0626A0F01368136890D01020E87
:1053C000C56F6250040B07E00F013651040B03E078
:1053D000629446EC30F065A202D0A1989DD0625054
:1053E000010B0AE00F013651010B06E049DFA088EE
:1053F0000D01040EC56F62906250100B07E00F01A3
:105400003651100B03E030EC30F0629862AC1AD0E9
:105410000F0136AD0FD0010EE66EE66A000EE66EA5
:10542000E66A730EE66EE66AE4EC3DF0326E060E56
:10543000E15E3250629C0D01F65101E0F607F65133
:1054400001E110DA6250200B06E00F013651200B0B
:1054500002E016EC30F06250020B14E00F013651FE
:10546000020B10E0010EE66EE66A000EE66EE66ADA
:10547000E6687F0EE66EE4EC3DF0326E060EE15E0D
:105480003250636A040E0D01E76EC519E8AE02D012
:10549000E73402D0E750C55D02E2A1983DD00F018C
:1054A00036A739D0DF6A040EDF5C35E262A632D05F
:1054B00064CFEDFD0D01ED51780BE842E842E84282
:1054C000EE6F6296EDB508D0EE51EA6AF30FE96E21
:1054D0000D0EEA22EF7007D0EE51EA6AF00FE96E86
:1054E0000D0EEA22EF70EE5103E15EEC30F010D0C9
:1054F000000EE66EE66AED0EE66E0D0EE66E720EBC
:10550000E66EE66AE4EC3DF0326E060EE15E325085
:10551000DF2AC9D700D0A198E552E552E7CFD9FFDD
:105520001200D9CFE6FFE1CFD9FF020EE126FD0E32
:10553000DBA407D0E66AFE0EDBCFE6FF24DAE552F5
:10554000E552FD0EDBA208D0010EE66EFE0EDBCFAB
:10555000E6FF19DAE552E552FE0EDB50336A260FFC
:10556000326E0F0E332232C0DEFF33C0DDFFDECFDE
:10557000E9FFDDCFEAFFFD0EDBCFEFFF020EE15CBE
:1055800002E2E16AE552E16EE552E7CFD9FF12008F
:10559000D9CFE6FFE1CFD9FF020EE126FD0EDB50A9
:1055A0000FE0FE0EEA6ADB34FE0BEA36E96ED30E3C
:1055B000E9260D0EEA22EECFDEFFEDCFDDFF0ED0A5
:1055C000FE0EEA6ADB34FE0BEA36E96ECD0EE92602
:1055D0000D0EEA22EECFDEFFEDCFDDFFD9CFE9FFE2
:1055E000DACFEAFFEE50ED1003E1F36AF46A49D036
:1055F000DECFE9FFDDCFEAFF020EE926000EEA2248
:10560000FB0EDBCFEEFFFC0EDBCFEDFFDECFE9FFC5
:10561000DDCFEAFFEE52FA0EDBCFEFFF400E326E27
:10562000DECFE9FFDDCFEAFF3250EF16880E326E93
:10563000DECFE9FFDDCFEAFF3250EF12FD0EDB5087
:105640000CE0FE0EEA6ADB34FE0BEA36E96ED30E9E
:10565000E9260D0EEA22EF740BD0FE0EEA6ADB3467
:10566000FE0BEA36E96ECD0EE9260D0EEA22EF7446
:10567000DECF32F0DDCF33F032C0F3FF33C0F4FFC2
:1056800000D0020EE15C02E2E16AE552E16EE55211
:10569000E7CFD9FF1200D9CFE6FFE1CFD9FF020E45
:1056A000E126FE0EDB5020E1CBCDE9FFCCCDEAFFB9
:1056B000EE52080EEF6ECBCDE9FFCCCDEAFF020E25
:1056C000E926000EEA22300EEE6E0D0EED6ECBCD09
:1056D000E9FFCCCDEAFF8C0EEF6ED3CDE9FFD4CD40
:1056E000EAFF840EEF6E3DD0FD0EDB50E824346EF1
:1056F000FE0EDB50040DF3503424040DF3CF32F0D2
:10570000F4CF33F0000E32260D0E332232C0DEFF0E
:1057100033C0DDFF840E326EDECFE9FFDDCFEAFF5E
:105720003250EF12FD0EDB50E824346EFE0EDB50DB
:10573000040DF3503424010F040DF3CF32F0F4CFF5
:1057400033F0000E32260D0E332232C0DEFF33C09E
:10575000DDFF840E326EDECFE9FFDDCFEAFF32508F
:10576000EF12020EE15C02E2E16AE552E16EE552FF
:10577000E7CFD9FF1200D9CFE6FFE1CFD9FF65A867
:105780004ED0FE0EEA6ADB34FE0BEA36E96ED30E2B
:10579000E9260D0EEA22EE50EFCFEAFFE96E400E49
:1057A000EE16EE6AEE6AEE6AFE0EEA6ADB34FE0B75
:1057B000EA36E96ED30EE9260D0EEA22EE50EFCF5F
:1057C000EAFFE96EEE7CFE0EEA6ADB34FE0BEA3697
:1057D000E96ED30EE9260D0EEA22EF74400E326E0A
:1057E000FE0EEA6ADB34FE0BEA36E96ED30EE926DA
:1057F0000D0EEA22EE50EFCFEAFFE96E3250EF16BF
:10580000FE0EEA6ADB34FE0BEA36E96ED30EE926B9
:105810000D0EEA22EE50EFCFEAFFE96EEF7CE55283
:10582000E7CFD9FF1200656A0F01366B0D01C56B1A
:1058300000D012000D01C55114E1656A0F01366BED
:10584000160E396F9F0E376F7B0E366FD08EA28883
:10585000A088F28E65B602D06586FCD70D01010ED8
:10586000C56F12000D01F8514DE1010EF86FF951AD
:1058700049E1010EF96F020EDA5D0DE1D3CDE9FFCA
:10588000D4CDEAFFEE52EF6AD3CDE9FFD4CDEAFFE3
:10589000C80EEF6E37D0DA0535E1EF6BC9CDE9FF01
:1058A000CACDEAFFEE52080EEF6EC9CDE9FFCACDB0
:1058B000EAFF020EE926000EEA22300EEE6E0D0E11
:1058C000ED6EC9CDE9FFCACDEAFF840EEF6E010E81
:1058D000EF6FCBCDE9FFCCCDEAFFEE52080EEF6EB5
:1058E000CBCDE9FFCCCDEAFF020EE926000EEA227D
:1058F000300EEE6E0D0EED6ECBCDE9FFCCCDEAFF96
:10590000800EEF6E12000D01FA6BFB6B020EDA5D7A
:105910001AE1CBCDE9FFCCCDEAFFEE52080EEF6ED7
:10592000CBCDE9FFCCCDEAFF020EE926000EEA223C
:10593000380EEE6E0D0EED6ECBCDE9FFCCCDEAFF4D
:10594000C80EEF6E1FD0DF510D01365D0D01E05125
:105950000D01375904E236CDDFFD37CDE0FDD1D85A
:10596000D3CDE9FFD4CDEAFF020EE926000EEA22EC
:10597000380EEE6E0D0EED6ED3CDE9FFD4CDEAFFFD
:10598000C80EEF6E1200D9CFE6FFE1CFD9FF020EAD
:10599000E126000EDE6E0D0EDD6EFD0EDB50E824FE
:1059A000346EFE0EDB50040DF3503424040DF3CF9F
:1059B00032F0F4CF33F0D9CFE9FFDACFEAFF32503B
:1059C000EE263350ED22DECFE9FFDDCFEAFFEF9E7A
:1059D000FD0EDB500FE1FE0EEA6ADB34FE0BEA3609
:1059E000E96ECD0EE9260D0EEA22DECFEEFFDDCF09
:1059F000EDFF0ED0FE0EEA6ADB34FE0BEA36E96EEE
:105A0000D30EE9260D0EEA22DECFEEFFDDCFEDFF4D
:105A1000DECFE9FFDDCFEAFFEF9CDECFE9FFDDCF90
:105A2000EAFF040EE926000EEA22EF8C020EE15C8A
:105A300002E2E16AE552E16EE552E7CFD9FF1200DA
:105A400065980D01DEBF2BD0E3AF09D0020EDA6FEF
:105A5000FB5101E158DF0D01F96BF86B1FD0CBCD85
:105A6000E9FFCCCDEAFFEE52080EEF6ECBCDE9FF99
:105A7000CCCDEAFF020EE926000EEA22300EEE6ED1
:105A80000D0EED6ECBCDE9FFCCCDEAFF8C0EEF6EA7
:105A9000D3CDE9FFD4CDEAFF840EEF6E31D00D01F6
:105AA00030AF0DD00D01010EDA6FFA5101E12BDF9D
:105AB0000D01F96BF86BF75101E1D4DE21D00D0136
:105AC000020EDA6FCBCDE9FFCCCDEAFFEE52080E25
:105AD000EF6ECBCDE9FFCCCDEAFF020EE926000E3A
:105AE000EA22300EEE6E0D0EED6ECBCDE9FFCCCD81
:105AF000EAFF840EEF6EF96BF86BF75101E1B2DE4D
:105B00001200D9CFE6FFE1CFD9FFE652080EDF6ED3
:105B10000D01DF5D000EE0590BE2DFCDDFFFD95153
:105B200003E1010ED96F04D0D90502E1020ED96F4D
:105B3000DF50326E336A3250DF5DDF6F3350E05931
:105B4000E06FD3CDE9FFD4CDEAFFEE52DFCFEFFF18
:105B5000380EE96F0D0EEA6FDEB11CD0DF5019E090
:105B6000DBCDF6FFDB2BDCCDF7FF000EDC23DDCD3C
:105B7000F8FFDD230800F550E66EE9CDE9FFEACD38
:105B8000EAFFE92B000EEA23E552E750EF6EDF064D
:105B9000E5D717D0DF5015E0DBCDE9FFDCCDEAFF1C
:105BA000DB2B000EDC23EF50E66EE9CDE9FFEACDFA
:105BB000EAFFE92B000EEA23E552E750EF6EDF061D
:105BC000E9D7E552E552E7CFD9FF1200D9CFE6FF7A
:105BD000E1CFD9FF020EE126C9CDE9FFCACDEAFF28
:105BE000EE52EFCFDFFFDFCF32F032500D01E45D38
:105BF000000EE55902E2E4CDDFFFDF50326E336A7A
:105C00003250E45DE46F3350E559E56F010EDB6A15
:105C1000DF50F36E010EDBCFF4FFF350F45C16E2BD
:105C2000010EDB50EA6A380FE96E0D0EEA22EF50E2
:105C3000E66EE1CDE9FFE2CDEAFFE12B000EE223C3
:105C4000E552E750EF6E010EDB2AE2D7000ED88056
:105C5000E455000EE55528E2CBCDE9FFCCCDEAFFB7
:105C6000EE52080EEF6ECBCDE9FFCCCDEAFF020E6F
:105C7000E926000EEA22380EEE6E0D0EED6EC9CD4D
:105C8000E9FFCACDEAFFEF50400B07E1CBCDE9FFBA
:105C9000CCCDEAFFC80EEF6E06D0CBCDE9FFCCCD60
:105CA000EAFF880EEF6E2BD0CBCDE9FFCCCDEAFF1B
:105CB000EE52080EEF6ECBCDE9FFCCCDEAFF020E1F
:105CC000E926000EEA22300EEE6E0D0EED6ECBCD03
:105CD000E9FFCCCDEAFF840EEF6EE651E711E81143
:105CE00009E007D0E8CDFBFFE7CDFAFF0D01E65153
:105CF000F96EF8DF0D01E39FF75101E1B3DD020E0C
:105D0000E15C02E2E16AE552E16EE552E7CFD9FFDC
:105D10001200D9CFE6FFE1CFD9FFE6520D01DE8FA9
:105D2000020EE66EE66AE66A270EE66E0F0EE66E75
:105D30003BEC3FF0326E050EE15E3250300EE66E07
:105D4000E66AE66A000EE66E0D0EE66E3BEC3FF08C
:105D5000326E050EE15E3250658CDF6A030EDF5C49
:105D600010E2DF50EA6AF00FE96E0D0EEA22EF6AE8
:105D7000DF50EA6AF30FE96E0D0EEA22EF6ADF2ABE
:105D8000EDD7020EE66EE66AE66AC70EE66E0D0E07
:105D9000E66E3BEC3FF0326E050EE15E3250659CE4
:105DA0000D01080ED36F0D0ED46F000EC96F0D0ECE
:105DB000CA6FC9CDCBFDCACDCCFD32CDC6FDC65113
:105DC00003E1100EC56F13D0010EE66EE66AC60E33
:105DD000E66E0D0EE66E010EE66EE66AE4EC3DF050
:105DE000326E060EE15E32500D01200EC56FE55297
:105DF000E552E7CFD9FF1200800E0D01305D01E0C2
:105E0000ACD00D01C00EDE6F0D013351030A61E00D
:105E1000010A10E0030A03E00D01DE6B9ED00D01C4
:105E2000660EDB6F7C0EDC6F000EDD6F120EDF6F17
:105E3000E06B93D0270E326E7D0E336E000E346E03
:105E400032CD35F0366A376A030E2A6E2B6A2C6A19
:105E500035C025F036C026F037C027F0F4EC3CF012
:105E600022C035F023C036F024C037F0325035243C
:105E7000F36E33503620F46E34503720F86EF4CF82
:105E8000F7FFF3CFF6FF0900F5CFDBFD0900F5CFF3
:105E9000DCFD0800F5CFDDFDDBCDF6FFDCCDF7FF47
:105EA000DDCDF8FF020EF626000EF722F8220800DC
:105EB000F5CFDFFDDBCDF6FFDCCDF7FFDDCDF8FF65
:105EC000030EF626000EF722F8220800F5CFE0FDBB
:105ED00044D0030E325D3EE22A0E326E7D0E336EEA
:105EE000000E346E32CD35F0366A376A030E2A6EF4
:105EF0002B6A2C6A35C025F036C026F037C027F053
:105F0000F4EC3CF022C035F023C036F024C037F06A
:105F100032503524F36E33503620F46E345037202F
:105F2000F86EF4CFF7FFF3CFF6FF0900F5CFDBFDF6
:105F30000900F5CFDCFD0800F5CFDDFDDBCDF6FF78
:105F4000DCCDF7FFDDCDF8FF0800F5500D01DF6F68
:105F5000E06B02D00D01DE6B00D01200D9CFE6FF5E
:105F6000E1CFD9FF020EE1260D01386B396B3051BC
:105F70001F0B020A12E0030A0DE0010A01E042D001
:105F80000D01DE8F0D0138810D01EB0502E10D01E0
:105F9000388338D00D01DE8F35D00D01DE8F0D0135
:105FA00034BF10D034510F0BE96EEA6AD890E9364D
:105FB000EA36CD0EE9260D0EEA22EECFDEFFEDCF5A
:105FC000DDFF0FD034510F0BE96EEA6AD890E93645
:105FD000EA36D30EE9260D0EEA22EECFDEFFEDCF34
:105FE000DDFFDECFE9FFDDCFEAFFEF50800B09E0F8
:105FF000DECFE9FFDDCFEAFFEF50040B02E0010E38
:10600000386F00D00D01DEAF07D0380EDB6F0D0EFC
:10601000DC6FDE81020EDF6F020EE15C02E2E16AFC
:10602000E552E16EE552E7CFD9FF12000F0126A13C
:1060300015D0C9CDE9FFCACDEAFFEF5080080DE1C8
:10604000D3CDE9FFD4CDEAFFEF50840806E1C9CDF6
:10605000E9FFCACDEAFF8C0EEF6E2691629A12001C
:106060000F013685629865820D01010EEC6F000EFE
:10607000E66EE66AE66EE66A750EE66EE66AE4ECE1
:106080003DF0326E060EE15E325012000D01EC6BF7
:10609000000EE66EE66AE66EE66A740EE66EE66A84
:1060A000E4EC3DF0326E060EE15E325065920F0177
:1060B000369562A402D06294FCD71200D9CFE6FFD5
:1060C000E1CFD9FFE6520D012D0EF66FFD0EED1555
:1060D00053E17E0EED15E8407F0B040DF3CFC9FDB3
:1060E000F4CFCAFD000EC9270D0ECA23C9CDCBFDC2
:1060F000CACDCCFDCB75C9CDE9FFCACDEAFFEF50C3
:106100003C0BE842E8420D0835E1DF6A080EDF5C2F
:1061100023E2C9CDE9FFCACDEAFF020EE926000E4F
:10612000EA22EE50EFCFEAFFE96EEF50E66EDF5065
:10613000EA6A300FE96E0D0EEA22E552E750EF6E83
:10614000C9CDE9FFCACDEAFF020EE926000EEA2218
:10615000EE2AEF22DF2ADAD7C9CDE9FFCACDEAFF5E
:10616000020EE926000EEA22300EEE6E0D0EED6EE6
:106170000DD801D03AD805D0FD0EED15040801E187
:1061800059D8E552E552E7CFD9FF12000D01D96B7E
:10619000F76BFA6BFB6BEF6BDA6BD3CDE9FFD4CD0A
:1061A000EAFFEF9ED375D3CDE9FFD4CDEAFFEF9E92
:1061B000D375CBCDE9FFCCCDEAFFEF9EDE6BDF6B75
:1061C000E06BE36BE46BE56B95D8000EE66EE66A78
:1061D000E66EE66A030EE66EE66AE4EC3DF0326EC9
:1061E000060EE15E325020EF2DF0020E0D01DA5D59
:1061F00002E1ECDC1ED0DA6BEF511AE1CBCDE9FF06
:10620000CCCDEAFFEE52080EEF6ECBCDE9FFCCCD40
:10621000EAFF020EE926000EEA22300EEE6E0D0EA7
:10622000ED6ECBCDE9FFCCCDEAFF8C0EEF6E01D049
:10623000EF6B1200D9CFE6FFE1CFD9FFE652D3CD05
:10624000E9FFD4CDEAFFEF50400B01E0010EDF6E15
:106250000D01D375080EC55D0CE132CD38FF0F017D
:10626000385104E00D01100EC56F03D00D01040E6E
:10627000C56FDA0528E1D3CDE9FFD4CDEAFF020EE0
:10628000E926000EEA22380EEE6E0D0EED6E39DCB8
:10629000020E0D01D95D07E1D3CDE9FFD4CDEAFFB0
:1062A000840EEF6E0FD0DF5007E1D3CDE9FFD4CDE0
:1062B000EAFFC80EEF6E06D0D3CDE9FFD4CDEAFFDA
:1062C000880EEF6E12D0E3AF0FD0E651E711E81160
:1062D00009E007D0E8CDFBFFE7CDFAFF0D01E6515D
:1062E000F96EF8DF0D01E39FDA6BE552E552E7CF77
:1062F000D9FF12000D013051600BE842E842E8423C
:10630000E842E842000901E058D031510C0A54E05B
:106310000B0A43E00C0A35E0010A26E00B0A22E0F2
:10632000020A20E0030A1CE0080A10E0010A0CE05F
:106330000F0A08E0030A01E03FD00D01DE8F080ECE
:10634000C56F3BD059DD39D0E4DC37D00D01C60E26
:10635000DB6F0D0EDC6FDE81010EDF6FDE8F2DD067
:10636000FDDD2BD02BD829D034510D01DB6FDC6B38
:10637000C70EDB270D0EDC23DE81010EDF6FDE8F03
:106380001CD00D01DE8F0D013451EA6AC70FE96E92
:106390000D0EEA2232CDEFFF10D0000EE66EE66A57
:1063A000E66EE66A020EE66EE66AE4EC3DF0326EF8
:1063B000060EE15E325001D000D01200D9CFE6FFC8
:1063C000E1CFD9FF050EE1260D01320510E1305174
:1063D0001F0B00090CE10D01DE8F030E0D01315D75
:1063E00004E10D01010EEB6F02D00D01EB6B0D010D
:1063F000325101E020D130511F0B020801E01BD1C6
:1064000034510F0B000901E116D134510F0B020872
:1064100001E211D1200E0D01C55D01E00CD1DE8F2E
:106420000D0134BF1AD034510F0BE96EEA6AD890CF
:10643000E936EA36CD0EE9260D0EEA22EECFDEFF72
:10644000EDCFDDFF34510F0BEA6AF30FE96E0D0E4D
:10645000EA22020EEFCFDBFF19D034510F0BE96EA9
:10646000EA6AD890E936EA36D30EE9260D0EEA221A
:10647000EECFDEFFEDCFDDFF34510F0BEA6AF00FF8
:10648000E96E0D0EEA22020EEFCFDBFFD950020FAC
:10649000E96EDACFEAFFEF50010B03E1000EDF9463
:1064A00001D0DF8434BF10D034510F0BE96EEA6A9B
:1064B000D890E936EA36CD0EE9260D0EEA22DECF77
:1064C000EEFFDDCFEDFF0FD034510F0BE96EEA6A1E
:1064D000D890E936EA36D30EE9260D0EEA22DECF51
:1064E000EEFFDDCFEDFF030E315D23E1DECFE9FFEF
:1064F000DDCFEAFFEF50800B13E034BF09D03451F9
:106500000F0BEA6AF30FE96E0D0EEA22EF8208D054
:1065100034510F0BEA6AF00FE96E0D0EEA22EF829A
:10652000840E326EDECFE9FFDDCFEAFF3250EF128C
:1065300082D0DF74DECFE9FFDDCFEAFFEF50800BC2
:106540001BE0DECFE9FFDDCFEAFFEF9EDECFE9FF04
:10655000DDCFEAFFEF8C020EE66EE66ADECFE6FFE5
:10656000DDCFE6FF050EE66EE66AE4EC3DF0326E46
:10657000060EE15E325005D0DECFE9FFDDCFEAFF47
:10658000EF8CDF74D950020FE96EDACFEAFFEF50DB
:10659000020B07E1DECFE9FFDDCFEAFFEF50800B12
:1065A0002DE00D0134BF09D034510F0BEA6AF30F0F
:1065B000E96E0D0EEA22EF9208D034510F0BEA6A11
:1065C000F00FE96E0D0EEA22EF923B0E326EDECF37
:1065D000E9FFDDCFEAFF3250EF16020EE66EE66A03
:1065E000DECFE6FFDDCFE6FF050EE66EE66AE4EC01
:1065F0003DF0326E060EE15E325008D03B0E326E38
:10660000DECFE9FFDDCFEAFF3250EF160D01345146
:106610000F0B336A260F326E0F0E3322030E32C079
:10662000DBFF040E33C0DBFF030EDBCFE9FF040EFC
:10663000DBCFEAFFEF90050EE15C02E2E16AE55292
:0A664000E16EE552E7CFD9FF12002A
:06664A0061EC38F0FB0ECC
:10665000DBCFF3FFDB06F35000090AE0AFEC38F0C4
:10666000FA0E1AEC39F0F3E1331CF1E1010E01D01E
:10667000000E90EF38F061EC38F03B0EE12402E3BD
:10668000E168E652E16E010EDB6A020EDB6AF90E8A
:10669000DBCFF6FFFA0EDBCFF7FFFB0EDBCFF8FF09
:1066A0000800F550DF6EDF5002E1B4EF37F0250E41
:1066B000DF5C02E0A7EF37F0030EDB6A040EDB6A53
:1066C000050EDB6A060EDB6A070EDB6AC9EC37F0E3
:1066D0002D0EDF5C0CE02B0EDF5C09E0200EDF5C92
:1066E00006E0230EDF5C03E0300EDF5C1AE1DF50D2
:1066F000300A14E0130A0FE0030A0AE00B0A05E06F
:10670000060AE4E1030EDB80E1D7030EDB82DED76D
:10671000030EDB84DBD7030EDB86D8D7030EDB88C2
:10672000D5D72A0EDF5C1BE1C5EC37F013EC38F04F
:1067300010E0030EDB8026682768130EDBCF2BF0FA
:10674000140EDBCF2CF03DEC3DF0040E24C0DBFF3B
:1067500003D0130EFCEC37F0C9EC37F00BD0090E68
:10676000DB6A6AEC38F003E0DEEC38F0FAD7090EA9
:10677000FCEC37F0030EDBB0DB982E0EDF5C1BE188
:10678000C9EC37F02A0EDF5C0BE1C5EC37F013ECF7
:1067900038F003E1130E4EEC38F0C9EC37F00BD0B3
:1067A000090EDB6A6AEC38F003E0DEEC38F0FAD769
:1067B000090E4EEC38F0680EDF5C07E1C9EC37F0EB
:1067C000680EDF5C1DE1030E18D0740EDF5C17E06D
:1067D0007A0EDF5C14E0480EDF5C06E0540EDF5CEE
:1067E00003E05A0EDF5C02E1020E07D06C0EDF5CA4
:1067F00003E06A0EDF5C04E1010EA1EC38F0C9DBB6
:10680000DF506E0A01E17FD31E0A01E192D1200A16
:1068100001E18FD13F0A01E149D11A0A01E146D1D4
:106820000D0A01E143D1200A01E140D13A0A01E118
:106830003DD1200A01E13AD1260A01E135D10D0A04
:1068400001E132D11A0A01E1D9D0200A4AE0300A26
:106850001FE0460A0EE0250A01E083D3D950F90F64
:10686000E96EFF0EDA20EA6E010EEE5E000EEE5AC1
:10687000EE5AAFEC38F0250EE66E95DB03E1331CE3
:1068800001E169D3ABEC38F001E26BD3DB2A69D3C9
:10689000080EDB6A040EDB50010806E2040EDB047E
:1068A00073EC38F0DB508BDB080EDB5009E0030E95
:1068B000DB50010B05E172DB01E04DD3080EDB6A12
:1068C00064DBEFCFDFFF23EC39F003E1331C01E1A0
:1068D00042D3ABEC38F001E3DB2A60DB01E141D3CA
:1068E0003AD3070EDB5002080FE1EFEC38F0030E4D
:1068F000B6EC38F00E0EEECFDBFF0F0EEECFDBFF67
:10690000100EEECFDBFF20D0F70EDBCF35F0F80E08
:10691000DBCF36F0020E355E000E365AF70E35C06C
:10692000DBFFF80E36C0DBFF35C0E9FF36C0EAFFFB
:10693000A6EC38F0346A0E0E32C0DBFF0F0E33C007
:10694000DBFF100E34C0DBFF0E0EDBCFE6FF0F0EB9
:10695000DBCFE6FF100EDBCFE6FF63EC3FF0E55246
:10696000E552E552130E25C0DBFF140E26C0DBFFF7
:10697000060EDB5005E0130EEAEC38F001E26ADBAC
:106980000EEC39F002E2130E37DBD1EC38F006E002
:10699000040EEAEC38F002E2050E2EDB030EDBB04B
:1069A00005D0FCDA01E0D7D2080EDB6A090EDB6AFB
:1069B0000E0EDBCFF6FF0F0EDBCFF7FF100EDBCF97
:1069C000F8FF0800F550DF6EDF5014E014EC39F0EA
:1069D00011E223EC39F003E1331C01E1BCD2BBDB53
:1069E00001E3DB2A090EDB2AD9500E0FE96E000EF7
:1069F000CBDBE7D7D3DA01E1B4D2ADD2C6DA110EE0
:106A0000EECFDBFF120EEDCFDBFF110EDBCFE6FF8B
:106A1000120EDBCFE6FF55EC3FF0E552E552130EC8
:106A2000F3CFDBFF140EF4CFDBFF060EDB5004E0E8
:106A3000130ED0DB01E20EDB0EEC39F002E2130E96
:106A4000DBDAAFDB05E0040EC5DB02E2050ED4DACB
:106A5000030EDBB005D0A2DA01E07DD2080EDB6ABE
:106A6000090EDB6A110EDBCFE9FF120EDBCFEAFF66
:106A7000EFCFDFFFDF5014E0D7DB12E2E4DB03E10E
:106A8000331C01E168D267DB01E3DB2A090EDB2A54
:106A9000110EDB2ADBCFE9FF120EE8E3DB2AE6D793
:106AA0007DDA01E15ED257D2030EDB8E070EDB04E6
:106AB00010E195DB040E5ADB0A0EEECFDBFF0B0E66
