:020000040000FA
:06000000C0EF3CF012000D
:0600080004EF08F01200F5
:060018000CEF08F01200DD
:06100000C0EF3CF01200FD
:06100800BBEF09F012002D
:0610180022EF08F01200B7
:06102A000200637A0000E1
:10103000FD02000002000000E679000080020000CE
:041040007D0000002F
:0C104400D8CFE4FFE0CFE4FFE46EDACF89
:10105000E4FFE2CFDAFFE9CFE4FFEACFE4FFF3CF2A
:10106000E4FFF4CFE4FFE6529EA201D19E92030E6C
:10107000406E0E50EA6A510FE96E010EEA22EF50FF
:10108000405C30E10E50E96EEA6AD890E936EA3603
:10109000690EE926010EEA22EECF40F0EFCF41F0D3
:1010A00041C040F0416A4050D76E0E50E96EEA6A86
:1010B000D890E936EA36690EE926010EEA22EECF2B
:1010C00040F0EFCF41F04050D66EF28AF294D58EC8
:1010D0000E50EA6A510FE96E010EEA22040EEF6E1D
:1010E0000E50106E020E406E0F50EA6A510FE96EFC
:1010F000010EEA22EF50405C49E10F50E96EEA6AC6
:10110000D890E936EA36690EE926010EEA22EE5059
:10111000ED1009E10F50EA6A510FE96E010EEA2263
:10112000010EEF6E33D0080E0F5C0CE2070E0F14A9
:10113000406E010E405204E0E846FE0B4006FCE122
:1011400089121AD0100E0F5C0CE2070E0F14406EBD
:10115000010E405204E0E846FE0B4006FCE18A1214
:101160000BD0070E0F14406E010E405204E0E8460B
:10117000FE0B4006FCE18B120F50EA6A510FE96E3C
:10118000010EEA22030EEF6E0F500E6E0F2A060EAE
:101190000F5C03E1080E0F6E0AD0130E0F5C03E123
:1011A000160E0F6E04D0180E0F5C01E10F6A000ED0
:1011B000D8800254000E03542EE2112A000E12228F
:1011C0000250115C0350125826E3116A126A030E92
:1011D000065C1FE20450EA6A480FE96E010EEA223B
:1011E00080CFEFFF0450EA6A4B0FE96E010EEA224E
:1011F00081CFEFFF0450EA6A4E0FE96E010EEA223A
:1012000082CFEFFF042A030E045C01E3046A062A7E
:1012100002D0026A036A000ED8800754000E0854F8
:1012200019E20C50000816E2132A000E142207508F
:10123000135C085014580EE3136A146A030E0B5C17
:1012400007E2092A030E095C01E3096A0B2A02D0AE
:10125000076A086A0C5000080AE2156A1550040D66
:10126000F328C26E9E9C9F9C9D8CC280C2829EACC5
:101270002DD09E9CC450446E44C045F0446AC35077
:1012800000014410426E45C043F01550060DF3CFE7
:1012900040F0F4CF41F0000E4026010E41220950EB
:1012A000020D4050F324E96E4150F420EA6E42C032
:1012B000EEFF43C0EDFF152A0C50155C02E39D9C28
:1012C00005D01550040DF328C26EC282F2A442D09C
:1012D000D59EF294F29A040E406E1050EA6A510FB5
:1012E000E96E010EEA22EF50405C34E1080E105C1A
:1012F0000DE2070E1014406E010E405204E0E84665
:10130000FE0B4006FCE1E81C89161CD0100E105C98
:101310000DE2070E1014406E010E405204E0E84644
:10132000FE0B4006FCE1E81C8A160CD0070E1014D8
:10133000406E010E405204E0E846FE0B4006FCE120
:10134000E81C8B161050EA6A510FE96E010EEA2272
:10135000020EEF6EE552E5CFF4FFE5CFF3FFE5CFE8
:10136000EAFFE5CFE9FFE5CFDAFFE550E5CFE0FFA3
:10137000E5CFD8FF1000DACFE4FFE2CFDAFFE9CF04
:10138000E4FFEACFE4FFF6CFE4FFF7CFE4FFF8CFC6
:10139000E4FFF5CFE4FFF3CFE4FFF4CFE4FFFACFAF
:1013A000E4FFFBCFE4FF00EE1EF0140EE80403E3BD
:1013B000EECFE4FFFBD700EE32F00E0EE80403E3BD
:1013C000EECFE4FFFBD7E65295EC25F0A1A24DD07D
:1013D000A1920201805181110AE083C246F0476A5E
:1013E00046507B6E82517A6EF7EC1EF03ED01D5057
:1013F0001EE016507B6E17507A6E1C2A1A501C5C29
:1014000015E31D6A841D8914896E851D8A148A6EF0
:10141000861D8B148B6E871D8C148C6E881D8D140D
:101420008D6E18507B6E19507A6E1C6A1ED0185043
:101430007B6E19507A6E1C2A1B501C5C16E3010E41
:101440001D6E84518910896E85518A108A6E86516D
:101450008B108B6E87518C108C6E88518D108D6E19
:1014600016507B6E17507A6E1C6AE55200EE3FF004
:101470000E0EE80403E3E5CFEDFFFBD700EE31F0FD
:10148000140EE80403E3E5CFEDFFFBD7E5CFFBFF48
:10149000E5CFFAFFE5CFF4FFE5CFF3FFE5CFF5FFAA
:1014A000E5CFF8FFE5CFF7FFE5CFF6FFE5CFEAFFA1
:1014B000E5CFE9FFE5CFDAFF1100D9CFE6FFE1CFB5
:1014C000D9FF020EE126896A92680F0EC16EC290A2
:1014D0000C6A8A6A93688B6A94688C6A95688D6ACC
:1014E0009668FC0E8D16961693840001010EAD6F62
:1014F0000201FD69FE690A6A096A0B6A056A046AE3
:10150000066A026A036A076A086A116A126A136A3B
:10151000146A156ACA82CA80CA9CCA9ACA88CA96BC
:10152000FA0ECB6EDF6ADFCF32F00C0EE76E3218A8
:10153000E8AE02D0E73402D0E750325C36E2010E6A
:10154000DB6ADBCF32F0030EE76E3218E8AE02D072
:10155000E73402D0E750325C26E2DFCF32F0336A64
:1015600032BE3368060E3302F3CF33F03202F3CFCC
:1015700032F0F4503326000E3226010E3322010ED3
:10158000DBCF34F0356A34BE3568D8903436353622
:1015900032503424E96E33503520EA6EEE6AED6A3B
:1015A000010EDB2ACED7DF2ABED70001A76BA86BBE
:1015B000A56BA66BA96BAA6BAB6BAC6B0E6A0F6AC3
:1015C000106ADF6ADFCF32F0180EE76E3218E8AE2D
:1015D00002D0E73402D0E750325C1BE2DFCFE9FFF4
:1015E000EA6AE9BEEA68D890E936EA36690EE92681
:1015F000010EEA22EE6AED6ADFCFE9FFEA6AE9BE90
:10160000EA68510EE926010EEA22010EEF6EDF2A8A
:10161000D9D7D586D59AD59CF294F29AF194D08EEA
:10162000CA949D829F92F28EF28CCA847990020EA7
:10163000E15C02E2E16AE552E16EE552E7CFD9FFF3
:101640001200D9CFE6FFE1CFD9FF0B0EE126020E43
:10165000DB6A030EDB6A040EDB6A82EC1EF00650C6
:10166000000809E2DFEC11F0052A030E055C01E138
:10167000056A0606F4D70B50000809E201EC12F0E7
:101680000A2A030E0A5C01E10A6A0B06F4D7200E4F
:101690000D01E76EC519E8AE02D0E73402D0E7507D
:1016A000C55D03E36550020B01E0B2D2400EE66E69
:1016B000400EE66E020EE66EC6EC35F0E552E552DF
:1016C000E552E76E030EE7CFDBFFDB50000801E3D6
:1016D0005DD1040EDB6A030EDB50F36E040EDBCF2C
:1016E000F4FFF350F45C01E351D1040EDB50EA6ADD
:1016F000400FE96E020EEA22EFCFDFFF0201DD515B
:1017000010E0DE5100080DE20001A751EA6A000F67
:10171000E96E070EEA22DFCFEFFFA72B0201DE07FB
:1017200025D1D95144E10D0E326EDF50325C05E017
:101730000A0E336EDF50335C3AE1010ED96F0001BF
:10174000A751EA6A000FE96E070EEA220D0EEF6E4E
:10175000A72B010EDB6AA751F36E010EDBCFF4FF5E
:10176000F350F45C1CE2010EDBCFE9FFEA6AE9BE4C
:10177000EA68000EE926070EEA22EF50E66E010E37
:10178000DBCFE9FFEA6AE9BEEA68950EE926020EB8
:10179000EA22E552E750EF6E010EDB2ADCD7C1DA10
:1017A0000201DD6BDE6B0001A76BA86BDFD01B0EA7
:1017B000DF5C09E1D55107E1010ED56F1B0ED66F35
:1017C000D76BD86BD3D0D5050BE15B0EDF5C08E19E
:1017D0001B0ED65D05E1D75103E15B0ED76FC6D076
:1017E000D5055EE1410EDF5C5BE11B0ED65D58E185
:1017F0005B0ED75D55E1D66BD76BD86BD56B010E01
:10180000DB6ADBCFE9FFEA6AE9BEEA68000EE92697
:10181000070EEA22EF500D081CE0010EDBCFE9FFB6
:10182000EA6AE9BEEA68950EE926020EEA22EF505E
:10183000E66E010EDBCFE9FFEA6AE9BEEA68000E58
:10184000E926070EEA22E552E750EF6E010EDB2A89
:10185000D8D7010EDBCFA7F00001A751EA6A000F2D
:10186000E96E070EEA22EF6AA20EE66E700EE66ED1
:10187000000EE66E21EC3BF0E552E552E552000E1B
:10188000E66E070EE66E9F0EE66E700EE66E000EBA
:10189000E66E21EC3BF0326E050EE15E325066D012
:1018A000080EDF5C18E10001A751000814E2A70749
:1018B000A751EA6A000FE96E070EEA22EF6A9C0E52
:1018C000E66E700EE66E000EE66E21EC3BF0E55221
:1018D000E552E5524BD00D0EDF5C48E00A0EDF5CAE
:1018E00045E0200EDF5C42E30201D66BD76BD86B7C
:1018F000D56B0001A751EA6A000FE96E070EEA22D4
:10190000DFCFEFFF0201D96B0001A72B030EA75D0C
:101910000AE1420E0701005D06E1530E015D03E19D
:101920000201010EDD6F0201DD5120E0DE511EE1FA
:10193000050E0001A75D09E12C0E0701045D05E11C
:10194000300E035D0201DE6F11D0060E0001A75DAF
:101950000DE12C0E0701055D09E1300E035D0A0D56
:10196000F3CFDEF2300E045D0201DE270001A75145
:10197000326E336A000E321802E1010E331803E1B1
:101980000D86A76BA86B040EDB2AA5D60D5051E07F
:101990000DA00BD0960EE66E700EE66E000EE66E93
:1019A00021EC3BF0E552E552E5520DA40BD07A0E46
:1019B000E66E700EE66E000EE66E21EC3BF0E55230
:1019C000E552E5520DA60BD05E0EE66E700EE66E89
:1019D000000EE66E21EC3BF0E552E552E5520DA813
:1019E0000BD03F0EE66E700EE66E000EE66E21EC3A
:1019F0003BF0E552E552E5520DAA00D00DAC0BD0FC
:101A00001E0EE66E700EE66E000EE66E21EC3BF0EA
:101A1000E552E552E5520DAE0BD0050EE66E700EA6
:101A2000E66E000EE66E21EC3BF0E552E552E55223
:101A30000D6A2ED9020192514DE0000EE66E700E35
:101A4000E66E000EE66E21EC3BF0E552E552E55203
:101A5000050EDB6A060EDB6A050EDBCF32F0060EE2
:101A6000DBCF33F002018F51000133AE02D0D890AA
:101A700003D0325C000E33581FE2050EDBCFE9FFC6
:101A8000060EDBCFEAFFAE0EE926000EEA22EF508B
:101A9000E66EE66AFD0EE66E6F0EE66E000EE66E10
:101AA00021EC3BF0326E050EE15E3250050EDB2A72
:101AB000060E01E3DB2AD0D7AE0EE66E700EE66EA0
:101AC000000EE66E21EC3BF0E552E552E5520201D4
:101AD000926B8F6B93514DE0F80EE66E6F0EE66ED3
:101AE000000EE66E21EC3BF0E552E552E552070EA2
:101AF000DB6A080EDB6A070EDBCF32F0080EDBCFA5
:101B000033F002019051000133AE02D0D89003D0DF
:101B1000325C000E33581FE2070EDBCFE9FF080EE0
:101B2000DBCFEAFFC60EE926000EEA22EF50E66E92
:101B3000E66AFD0EE66E6F0EE66E000EE66E21ECB6
:101B40003BF0326E050EE15E3250070EDB2A080EC6
:101B500001E3DB2AD0D7AE0EE66E700EE66E000E05
:101B6000E66E21EC3BF0E552E552E5520201936B43
:101B7000906B94514DE0F30EE66E6F0EE66E000E24
:101B8000E66E21EC3BF0E552E552E552090EDB6AC8
:101B90000A0EDB6A090EDBCF32F00A0EDBCF33F020
:101BA00002019151000133AE02D0D89003D0325CD3
:101BB000000E33581FE2090EDBCFE9FF0A0EDBCF20
:101BC000EAFFDE0EE926000EEA22EF50E66EE66A34
:101BD000FD0EE66E6F0EE66E000EE66E21EC3BF03B
:101BE000326E050EE15E3250090EDB2A0A0E01E369
:101BF000DB2AD0D7AE0EE66E700EE66E000EE66EF5
:101C000021EC3BF0E552E552E5520201946B916BF9
:101C10000B0EE15C02E2E16AE552E16EE552E7CFCC
:101C2000D9FF1200D9CFE6FFE1CFD9FFE652A5C018
:101C3000DFFFDF2A400E326EDF50325C01E1DF6AE7
:101C40000001A651DF5C01E123D80001A551EA6A39
:101C5000000FE96E020EEA22FE0EDBCFEFFFA52B8E
:101C6000400EA55D01E1A56BA651A55D01E10D84C6
:101C7000FE0EDBCF32F0336A32BE336832C0F3FF80
:101C800033C0F4FF00D0E552E552E7CFD9FF120090
:101C9000D9CFE6FFE1CFD9FFE6520001A551A65DFD
:101CA0003BE00E01925103E0D7EC36F0FAD7000189
:101CB000A651D880A55517E2A651A55DDF6EDFCFEE
:101CC000E6FFA651336A000F326E020E332232C095
:101CD000E6FF33C0E6FF27EC36F0E552E552E55269
:101CE000A5C0A6F017D0400ED880A655DF6EDFCF76
:101CF000E6FFA651336A000F326E020E332232C065
:101D0000E6FF33C0E6FF27EC36F0E552E552E55238
:101D10000001A66BD7EC36F0E552E552E7CFD9FFCC
:101D20001200D9CFE6FFE1CFD9FF040EE126DE6A2B
:101D3000DD6A020EDB6A030EDB6A0001A851EA6A63
:101D4000000FE96E070EEA22EF50E66EE66A55ECE8
:101D50003CF0E552E552020EF3CFDBFF0001A82B69
:101D6000A851326E336A000E321802E1010E3318A8
:101D700001E1A86B020EDB50DE6EDD6AA851EA6A53
:101D8000000FE96E070EEA22EF502C0837E0A85149
:101D9000EA6A000FE96E070EEA22EF500D082EE006
:101DA000A851EA6A000FE96E070EEA22EF50E66ECC
:101DB000E66A55EC3CF0E552E552030EF3CFDBFF4B
:101DC0000001A82BA851326E336A000E321802E1CE
:101DD000010E331801E1A86B020EDBCF34F034C0E2
:101DE00035F0346A030EDB5000013424326E000EED
:101DF0003520336E32C0DEFF33C0DDFF000EDFCF93
:101E000026F0010EDBCF27F0420E261802E1480E25
:101E1000271801E117D1530E261802E1480E2718A2
:101E200001E10DD1460E261801E1275001E104D150
:101E3000490E261802E1430E271801E1FAD0490E97
:101E4000261802E1520E271801E1F0D0490E26189B
:101E500002E1530E271801E1E6D0530E261802E1E5
:101E6000430E271801E1DCD0530E261802E1520E72
:101E7000271801E1D2D0530E261802E1530E27187D
:101E800001E1C8D0530E261802E1420E271801E1E5
:101E9000BED0430E261802E1420E271801E1B4D04D
:101EA000430E261802E1520E271801E1AAD04F0E68
:101EB000261802E1420E271801E1A0D0570E26187D
:101EC00002E14D0E271801E197D0520E261802E1CB
:101ED0004D0E271801E18ED0440E261802E1500E57
:101EE000271801E185D04F0E261802E1500E271861
:101EF00001E17BD0490E261802E1500E271873E04D
:101F0000580E261802E1540E27186AE0540E2618BF
:101F100001E1275063E0410E261801E127505CE003
:101F2000560E261801E1275055E0490E261801E10A
:101F300027504EE0570E261801E1275046E04F0E7D
:101F4000261801E127503FE0550E261802E1430E06
:101F5000271837E0580E261802E1430E27182EE006
:101F6000430E261801E1275027E0520E261801E102
:101F7000275020E0580E261802E1520E271817E0CD
:101F8000030EDB5062E1020EDBCFE6FFE66ADBCF39
:101F9000E6FFE66AD00EE66E6F0EE66E000EE66EA7
:101FA00021EC3BF0326E070EE15E32506AD0B3ECAA
:101FB00014F068D099D866D030D964D0B5EC14F05C
:101FC00061D096D85FD09FD95DD0FDEC17F05AD084
:101FD000F6D958D00ADA56D014DA54D0D2D852D022
:101FE000B1EC14F04FD086DB4DD006EC14F04AD0A3
:101FF000D7DA48D096DA46D055DA44D0DEEC15F080
:1020000041D0B7EC14F03ED070EC15F03BD032EC80
:1020100017F038D061EC18F035D063EC18F032D0FE
:1020200065EC18F02FD067EC18F02CD069EC18F0A4
:1020300029D06BEC18F026D06DEC18F023D07DEC95
:1020400021F020D01CEC24F01DD0030EDBCFE6FFE6
:10205000E66A020EDBCFE6FFE66A030EDBCFE6FFA1
:10206000E66A020EDBCFE6FFE66AA80EE66E6F0EAA
:10207000E66E000EE66E21EC3BF0326E0B0EE15E7A
:10208000325000D00001A851EA6A000FE96E070E35
:10209000EA22EF500D080DE00D500BE1520E326EAA
:1020A000336ADF50321803E1DE52DD50331801E0AD
:1020B0000D8EA7C0A8F0040EE15C02E2E16AE552D1
:1020C000E16EE552E7CFD9FF12000001AD510BE000
:1020D0003E0EE66E790EE66E000EE66E21EC3BF0EB
:1020E000E552E552E55212005DEC0AF065EF10F0A2
:1020F000D9CFE6FFE1CFD9FF030EE126E66AD9CFBB
:10210000E6FFDACFE6FF010EE66EF8EC1BF0E552D3
:10211000E552E552E552E66AD950010FE66E000E2F
:10212000DA20E66E020EE66EF8EC1BF0E552E552A0
:10213000E552E5520D5001E01AD0DF0417E1D95005
:10214000010FE96EDACFEAFFEE50ED100AE0010E62
:10215000326E336ADB50321803E1020EDB50331863
:1021600004E1010EDBCFADF001D00D8CAEDF030E2C
:10217000E15C02E2E16AE552E16EE552E7CFD9FFA8
:102180001200D9CFE6FFE1CFD9FF030EE126020E00
:10219000DB6AE66A000EE66E000EE66E030EE66E81
:1021A000F8EC1BF0E552E552E552E552E66AD950EB
:1021B000020FE66E000EDA20E66E010EE66EF8EC17
:1021C0001BF0E552E552E552E5520D5001E01BD0FF
:1021D000020EDB500CE10050011003E1026A036AB9
:1021E00005D0CA8400C002F001C003F00BD000503B
:1021F000011003E1076A086A05D0CA8400C007F02D
:1022000001C008F062DF030EE15C02E2E16AE55220
:10221000E16EE552E7CFD9FF1200D9CFE6FFE1CF5B
:10222000D9FF040EE126E66AD9CFE6FFDACFE6FF52
:10223000010EE66EF8EC1BF0E552E552E552E55270
:10224000E66AD950010FE66E000EDA20E66E010E46
:10225000E66EF8EC1BF0E552E552E552E552E66A0F
:10226000D950020FE66E000EDA20E66E010EE66E21
:10227000F8EC1BF0E552E552E552E552E66AD9501A
:10228000030FE66E000EDA20E66E010EE66EF8EC45
:102290001BF0E552E552E552E5520D5001E029D020
:1022A000DF50926E010EDB50936E020EDB50946E87
:1022B000030EDB500D0805E20D0EF36E030EF3CF97
:1022C000DBFF030EDB5005E10F0EC16EC2900C6AFE
:1022D0000FD00C6AC26A030EDBCFE6FF0F0EE55289
:1022E000D880E754C16EC280030EDB500C6ECA84E6
:1022F000ECDE040EE15C02E2E16AE552E16EE552D9
:10230000E7CFD9FF1200D9CFE6FFE1CFD9FF020E08
:10231000E126E66AD9CFE6FFDACFE6FF010EE66EE8
:10232000F8EC1BF0E552E552E552E552E76E010E7E
:10233000E7CFDBFF0D5001E038D0010EDB5002E1AA
:10234000DF50896E010EE66ED9CFE6FFDACFE6FFE9
:10235000E66EF8EC1BF0E552E552E552E552E76E09
:10236000010EE7CFDBFF0D5001E01FD0010EDB5067
:1023700002E1DF508A6E010EE66ED9CFE6FFDACFBA
:10238000E6FFE66EF8EC1BF0E552E552E552E55249
:10239000E76E010EE7CFDBFF0D5001E006D0010E26
:1023A000DB5002E1DF508B6E90DE020EE15C02E258
:1023B000E16AE552E16EE552E7CFD9FF12008250A3
:1023C000E66EE66A8150E66EE66A8050E66EE66A80
:1023D000950EE66E6F0EE66E000EE66E21EC3BF09B
:1023E000326E090EE15E32501200460EE66E790E34
:1023F000E66E000EE66E21EC3BF0E552E552E5524A
:102400001200D9CFE6FFE1CFD9FFE652DF6A930E83
:10241000E66E6F0EE66E000EE66E21EC3BF0E552C6
:10242000E552E552DF6A0C50DF5C2CE2DFCF32F080
:10243000336A32BE3368060E3302F3CF33F0320212
:10244000F3CF32F0F4503326000E3226010E332241
:102450000A50020D3250F324E96E3350F420EA6E34
:10246000EECFE6FFEFCFE6FF8D0EE66E6F0EE66E67
:10247000000EE66E21EC3BF0346E050EE15E34504A
:10248000DF2AD1D7430EE66E790EE66E000EE66EB9
:1024900021EC3BF0E552E552E552E552E552E7CF3B
:1024A000D9FF1200D9CFE6FFE1CFD9FF030EE12615
:1024B000E66AD9CFE6FFDACFE6FFE66EF8EC1BF06E
:1024C000E552E552E552E552E66AD950020FE66E52
:1024D000000EDA20E66E010EE66EF8EC1BF0E55217
:1024E000E552E552E5520D5001E011D0DECF32F059
:1024F000DDCF33F0000E325C100E335807E2DECF32
:10250000E9FFDDCFEAFF020EDBCFEFFFDEDD030EDA
:10251000E15C02E2E16AE552E16EE552E7CFD9FF04
:102520001200D9CFE6FFE1CFD9FF030EE126E66A1C
:10253000D9CFE6FFDACFE6FFE66EF8EC1BF0E55206
:10254000E552E552E5520D5001E020D0DECF32F0E9
:10255000DDCF33F0000E325C100E335807E2DECFD1
:10256000E9FFDDCFEAFF020EEFCFDBFF020EDBCF8C
:10257000E6FFE66A830EE66E6F0EE66E000EE66E0E
:1025800021EC3BF0326E050EE15E3250030EE15C51
:1025900002E2E16AE552E16EE552E7CFD9FF1200AF
:1025A000D9CFE6FFE1CFD9FF030EE126E66AD9CF06
:1025B000E6FFDACFE6FF050EE66EF8EC1BF0E5521B
:1025C000E552E552E552E66AD950010FE66E000E7B
:1025D000DA20E66E010EE66EF8EC1BF0E552E552ED
:1025E000E552E552E66AD950020FE66E000EDA2097
:1025F000E66E010EE66EF8EC1BF0E552E552E55290
:10260000E5520D5001E06CD0020EDB50010802E2F1
:102610000D8C66D0010EDB50070802E20D8C60D0F5
:10262000410E326EDF50325C1AE1020EDB500CE1DB
:10263000010EF36EDB5004E0D890F336E806FCE1BF
:10264000F350E81C92160AD0010EF36EDB5004E042
:10265000D890F336E806FCE1F350921240D0420ED7
:10266000326EDF50325C1AE1020EDB500CE1010EDB
:10267000F36EDB5004E0D890F336E806FCE1F3504B
:10268000E81C93160AD0010EF36EDB5004E0D890DC
:10269000F336E806FCE1F350931221D0430E326E7C
:1026A000DF50325C1AE1020EDB500CE1010EF36EDA
:1026B000DB5004E0D890F336E806FCE1F350E81C68
:1026C00094160AD0010EF36EDB5004E0D890F33676
:1026D000E806FCE1F350941202D00D8C01D0F5DC39
:1026E000030EE15C02E2E16AE552E16EE552E7CFFA
:1026F000D9FF1200D9CFE6FFE1CFD9FF030EE126C3
:10270000020EDB6AE66AD9CFE6FFDACFE6FF050EF6
:10271000E66EF8EC1BF0E552E552E552E552E66A4A
:10272000D950010FE66E000EDA20E66E010EE66E5D
:10273000F8EC1BF0E552E552E552E5520D5001E090
:102740005BD0010EDB50070802E20D8C55D0410E24
:10275000326EDF50325C0FE1010EF36EDB5004E0AD
:10276000D890F336E806FCE1F3508014E76E020ED1
:10277000E7CFDBFF2AD0420E326EDF50325C0FE132
:10278000010EF36EDB5004E0D890F336E806FCE16E
:10279000F3508114E76E020EE7CFDBFF16D0430E35
:1027A000326EDF50325C0FE1010EF36EDB5004E05D
:1027B000D890F336E806FCE1F3508214E76E020E7F
:1027C000E7CFDBFF02D00D8C17D0DB5005E0010E08
:1027D000F36E020EF3CFDBFF020EDBCFE6FFE66AFD
:1027E0007A0EE66E6F0EE66E000EE66E21EC3BF0A2
:1027F000326E050EE15E3250030EE15C02E2E16AE8
:10280000E552E16EE552E7CFD9FF1200D9CFE6FFDE
:10281000E1CFD9FF030EE126E66AD9CFE6FFDACF92
:10282000E6FF050EE66EF8EC1BF0E552E552E552C8
:10283000E552E66AD950010FE66E000EDA20E66E28
:10284000010EE66EF8EC1BF0E552E552E552E5525A
:10285000E66AD950020FE66E000EDA20E66E010E2F
:10286000E66EF8EC1BF0E552E552E552E5520D50EC
:1028700001E06DD0020EDB50010802E20D8C67D042
:10288000010EDB50070802E20D8C61D0410E326E62
:10289000DF50325C1AE1020EDB500CE1010EF36EE8
:1028A000DB5004E0D890F336E806FCE1F350E81C76
:1028B00089160AD0010EF36EDB5004E0D890F3368F
:1028C000E806FCE1F350891240D0420E326EDF5030
:1028D000325C1AE1020EDB500CE1010EF36EDB50AC
:1028E00004E0D890F336E806FCE1F350E81C8A16C1
:1028F0000AD0010EF36EDB5004E0D890F336E80600
:10290000FCE1F3508A1221D0430E326EDF50325C6C
:102910001AE1020EDB500CE1010EF36EDB5004E015
:10292000D890F336E806FCE1F350E81C8B160AD089
:10293000010EF36EDB5004E0D890F336E806FCE1BC
:10294000F3508B1202D00D8C02D065EC10F0030E08
:10295000E15C02E2E16AE552E16EE552E7CFD9FFC0
:10296000120065EF10F065EF10F065EF10F0D9CFB1
:10297000E6FFE1CFD9FF040EE126E66AD9CFE6FFF4
:10298000DACFE6FF050EE66EF8EC1BF0E552E552F5
:10299000E552E552E66AD950010FE66E000EDA20E4
:1029A000E66E010EE66EF8EC1BF0E552E552E552DC
:1029B000E552E66AD950020FE66E000EDA20E66EA6
:1029C000030EE66EF8EC1BF0E552E552E552E552D7
:1029D0000D5001E07BD0D950020FE96EDACFEAFF4B
:1029E000720ED880EE542E0EED5402E20D8C6ED095
:1029F000D950020FE96EDACFEAFFEE50ED101FE07A
:102A000035683668376A2D0EE76E020EDBCF38F078
:102A1000030EDBCF39F0E7503826000E39223A6A30
:102A20003850355C326E39503658336E3A5037581C
:102A3000346E020E32C0DBFF030E33C0DBFF010E2B
:102A4000DB50070802E20D8C41D0410E326EDF50A0
:102A5000325C02E1DF6A12D0420E326EDF50325C2D
:102A600003E1080EDF6E0AD0430E326EDF50325C97
:102A700003E1100EDF6E02D00D8C28D0010EDB506A
:102A8000DF24E96EEA6AD890E936EA36690EE9266B
:102A9000010EEA22020EDBCFEEFF030EDBCFEDFFCD
:102AA000010EDB50DF24EA6A510FE96E010EEA22C3
:102AB000EF040AE1010EDB50DF24EA6A510FE96EF0
:102AC000010EEA22020EEF6E65EC10F0040EE15CDE
:102AD00002E2E16AE552E16EE552E7CFD9FF12006A
:102AE000D9CFE6FFE1CFD9FF050EE126E66AD9CFBF
:102AF000E6FFDACFE6FF010EE66EF8EC1BF0E552DA
:102B0000E552E552E552E66AD950020FE66E000E34
:102B1000DA20E66E010EE66EF8EC1BF0E552E552A7
:102B2000E552E552E66AD950030FE66E000EDA2050
:102B3000E66E010EE66EF8EC1BF0E552E552E5524A
:102B4000E552E66AD950010FE66E000EDA20E66E15
:102B5000010EE66EF8EC1BF0E552E552E552E55247
:102B6000E66AD950040FE66E000EDA20E66E010E1A
:102B7000E66EF8EC1BF0E552E552E552E5520D50D9
:102B800001E012D0DFCFA0F0020EDBCFA2F0010EE9
:102B9000DBCFA1F0030EDBCFA3F0040EDBCFA4F05C
:102BA000A0C089FF65EC10F0050EE15C02E2E16A6D
:102BB000E552E16EE552E7CFD9FF1200D9CFE6FF2B
:102BC000E1CFD9FF040EE126030EDB6A0001A85114
:102BD000EA6A000FE96E070EEA22EF502C0818E0AF
:102BE0000001A851EA6A000FE96E070EEA22EF50D1
:102BF000E66EE66A530EE66E6F0EE66E000EE66E49
:102C000021EC3BF0326E050EE15E32500D8A20D190
:102C10000001A82B0001A851326E336A000E321851
:102C200002E1010E331802E10001A86BA0C089FF88
:102C30000001A11D8914326E891C0001A1153210FA
:102C4000E76E010EE7CFDBFF0001A851EA6A000F33
:102C5000E96E070EEA22EF500D0801E1F7D00001FE
:102C6000A851EA6A000FE96E070EEA22EF50E66EFD
:102C7000E66A55EC3CF0E552E552020EF3CFDBFF7D
:102C8000300EF36E020EDBCFF4FFF350F45C0FE373
:102C9000020EDB5039080BE3300E326E020EDBCF32
:102CA000E7FF3250E75E020EE7CFDBFF19D0410E9F
:102CB000F36E020EDBCFF4FFF350F45C0FE3020E71
:102CC000DB5046080BE3370E326E020EDBCFE7FF18
:102CD0003250E75E020EE7CFDBFF02D00D8CB8D09A
:102CE000020EDB38F00BDF6E0001A82B0001A851AB
:102CF000326E336A000E321802E1010E331802E11F
:102D00000001A86B0D0E326E0001A851EA6A000F97
:102D1000E96E070EEA22EF50325C02E10D8898D08E
:102D20000001A851EA6A000FE96E070EEA22EF508F
:102D3000E66EE66A55EC3CF0E552E552020EF3CF42
:102D4000DBFF300EF36E020EDBCFF4FFF350F45CCA
:102D50000FE3020EDB5039080BE3300E326E020E29
:102D6000DBCFE7FF3250E75E020EE7CFDBFF19D083
:102D7000410EF36E020EDBCFF4FFF350F45C0FE371
:102D8000020EDB5046080BE3370E326E020EDBCF2D
:102D9000E7FF3250E75E020EE7CFDBFF02D00D8C7B
:102DA00057D0020EDB50DF24DF6E0001A82B00019C
:102DB000A851326E336A000E321802E1010E331848
:102DC00002E10001A86BDF508A6E010EDB50896EB4
:102DD0000001A45105E0A4C0E6FFDCEC3CF0E552A4
:102DE000A0C089FF0001A35130E0030EA3C0DBFFA8
:102DF0000001A0510001A215326E0001A251801401
:102E0000325C0BE1030EDB5008E000000000000024
:102E100000000000030EDB06EBD7030EA3C0DBFFB0
:102E20000001A0510001A215326E0001A2518014D0
:102E3000325C0BE0030EDB5008E0000000000000F5
:102E400000000000030EDB06EBD7FED665EC10F0A9
:102E5000040EE15C02E2E16AE552E16EE552E7CF81
:102E6000D9FF1200D9CFE6FFE1CFD9FF050EE12649
:102E7000030EDB6A040EDB6AE66AD950040FE66EC5
:102E8000000EDA20E66E010EE66EF8EC1BF0E5525D
:102E9000E552E552E552040EDB5004E0040EDB502F
:102EA000380802E20D8C9FD00001A851EA6A000F99
:102EB000E96E070EEA22EF502C0818E00001A85135
:102EC000EA6A000FE96E070EEA22EF50E66EE66A44
:102ED000530EE66E6F0EE66E000EE66E21EC3BF0D2
:102EE000326E050EE15E32500D8A7DD00001A82BB6
:102EF0000001A851326E336A000E321802E1010E51
:102F0000331802E10001A86BA0C089FF0001A11DD8
:102F10008914326E891C0001A1153210E76E010E72
:102F2000E7CFDBFF040EDB505CE00001A851EA6A4A
:102F3000000FE96E070EEA22EFCFDFFF0001A82B9A
:102F40000001A851326E336A000E321802E1010E00
:102F5000331802E10001A86B040EDB06DF508A6E15
:102F6000010EDB50896E0001A45105E0A4C0E6FF0C
:102F7000DCEC3CF0E552A0C089FF0001A35130E039
:102F8000030EA3C0DBFF0001A0510001A215326EA9
:102F90000001A2518014325C0BE1030EDB5008E00B
:102FA00000000000000000000000030EDB06EBD76D
:102FB000030EA3C0DBFF0001A0510001A215326E79
:102FC0000001A2518014325C0BE0030EDB5008E0DC
:102FD00000000000000000000000030EDB06EBD73D
:102FE000A1D765EC10F0050EE15C02E2E16AE55262
:102FF000E16EE552E7CFD9FF1200D9CFE6FFE1CF6E
:10300000D9FF030EE126E66AD9CFE6FFDACFE6FF65
:10301000010EE66EEDDBE552E552E552E552E66A59
:10302000D950010FE66E000EDA20E66E030EE66E52
:10303000DFDBE552E552E552E552010EDBCF82F2CD
:10304000020EDBCF83F2DF50000821E20F011E8168
:103050001E931E85AF0EE66E4F0EE66EAFEC3BF094
:10306000E552E552FC0EE66E3F0EE66E33EC3AF0AA
:10307000E552E552DFCFE6FFE66A26EC3CF0E5528A
:10308000E5520E01BF910E0EC36F939002D0F0EC8B
:103090003CF0D950010FE96EDACFEAFF000ED8807C
:1030A000EE54000EED5401E200D065EC10F0030E7A
:1030B000E15C02E2E16AE552E16EE552E7CFD9FF59
:1030C000120065EF10F065EF10F065EF10F065EF9E
:1030D00010F065EF10F065EF10F0D9CFE6FFE1CF0B
:1030E000D9FF0F0EE126320EF36E0C0EF3CFDBFF8D
:1030F000010EF36E0D0EF3CFDBFF010EF36E0E0E1D
:10310000F3CFDBFFE66AD950080FE66E000EDA2037
:10311000E66E030EE66E6CDBE552E552E552E552D3
:10312000D950080FE96EDACFEAFFEE50ED101FE13B
:10313000010EE66ED9500A0FE66E000EDA20E66E3A
:10314000050EE66E55DBE552E552E552E552010EFD
:10315000E66ED9500B0FE66E000EDA20E66E010E19
:10316000E66E46DBE552E552E552E5521CD0E66AD2
:10317000D9500A0FE66E000EDA20E66E050EE66EF6
:1031800037DBE552E552E552E552E66AD9500B0FBE
:10319000E66E000EDA20E66E010EE66E29DBE552E1
:1031A000E552E552E552010EE66ED9500C0FE66E7F
:1031B000000EDA20E66E010EE66E1ADBE552E552ED
:1031C000E552E5520D5001E009D3D950080FE96EE0
:1031D000DACFEAFFEE50ED1032E17990A092410E85
:1031E0000001F85D0CE1010EF7C0E7FFE75204E0D3
:1031F000E846FE0BE706FCE1E81C89161DD0420EEE
:10320000F85D0CE1010EF7C0E7FFE75204E0E84685
:10321000FE0BE706FCE1E81C8A160ED0430EF85DB3
:103220000BE1010EF7C0E7FFE75204E0E846FE0BB2
:10323000E706FCE1E81C8B1665EC10F0CFD2080E17
:10324000DBCF36F0090EDBCF37F0386A396A640E0F
:10325000296E2A6A2B6A2C6A36C024F037C025F002
:1032600038C026F039C027F0EEEC3BF020C036F035
:1032700021C037F022C038F023C039F00C0EDBCF6C
:1032800032F0336A346A356A296A1B0E2A6EB70E29
:103290002B6E2C6A32C024F033C025F034C026F0E7
:1032A00035C027F0EEEC3BF020C032F021C033F007
:1032B00022C034F023C035F032C024F033C025F0F2
:1032C00034C026F035C027F036C029F037C02AF0C8
:1032D00038C02BF039C02CF022EC39F024C0DEFFCE
:1032E00025C0DEFF26C0DEFF27C0DDFFDD52DD5238
:1032F000080EDBCF36F0090EDBCF37F0386A396ABB
:10330000640E296E2A6A2B6A2C6A36C024F037C0F4
:1033100025F038C026F039C027F0EEEC3BF020C095
:1033200036F021C037F022C038F023C039F00C0E3F
:10333000DBCFE6FF640EE552D880E754326E336A85
:10334000346A356A296A1B0E2A6EB70E2B6E2C6AF8
:1033500032C024F033C025F034C026F035C027F049
:10336000EEEC3BF020C032F021C033F022C034F04C
:1033700023C035F032C024F033C025F034C026F02D
:1033800035C027F036C029F037C02AF038C02BF0FE
:1033900039C02CF022EC39F0040E24C0DBFF050EFE
:1033A00025C0DBFF060E26C0DBFF070E27C0DBFFB4
:1033B000D9CFE9FFDACFEAFFD880FF0EEE54FF0E37
:1033C000EE54000EEE54000EEE5423E2800EF36E27
:1033D0000D0EF3CFDBFFD9CFE9FFDACFEAFFEECF57
:1033E00024F0EECF25F0EECF26F0EFCF27F0800EC1
:1033F000296E2A6A2B6A2C6A7BEC3CF024C0DEFF23
:1034000025C0DEFF26C0DEFF27C0DDFFDD52DD5216
:1034100005D0010EF36E0D0EF3CFDBFFD9CFE9FF20
:10342000DACFEAFF280EEE5C000EEE58000EEE58E2
:10343000000EEE5807E2280EDE6EDE6ADE6ADD6AF6
:10344000DD52DD52D950040FE96EDACFEAFFD880A1
:10345000FF0EEE54FF0EEE54000EEE54000EEE542E
:1034600025E2800EF36E0E0EF3CFDBFF040EDBCFF2
:1034700024F0050EDBCF25F0060EDBCF26F0070E7D
:10348000DBCF27F0800E296E2A6A2B6A2C6A7BEC30
:103490003CF0040E24C0DBFF050E25C0DBFF060E4A
:1034A00026C0DBFF070E27C0DBFF05D0010EF36E41
:1034B0000E0EF3CFDBFFD950040FE96EDACFEAFF2F
:1034C000280EEE5C000EEE58000EEE58000EEE5880
:1034D0000BE2280EF36E040EF3CFDBFF050EDB6A62
:1034E000060EDB6A070EDB6A040EDBCF32F0050E38
:1034F000DBCF33F0060EDBCF34F0070EDBCF35F039
:10350000140E325E000E335A345A355A040E32C04D
:10351000DBFF050E33C0DBFF060E34C0DBFF070EFA
:1035200035C0DBFFD9CFE9FFDACFEAFFEECF32F0CB
:10353000EECF33F0EECF34F0EFCF35F0140E325E35
:10354000000E335A345A355A32C0DFFF010E33C0F1
:10355000DBFF020E34C0DBFF030E35C0DBFF0B0EBA
:10356000DB50070802E20D8C39D1000EF36E0C0E11
:10357000DBCFF4FFF350F45C04E30C0EDB50630884
:1035800002E20D8C2BD179B06CD00201846B856B7B
:10359000866B410E326E0A0EDB50325C19E1010E71
:1035A000F36E0B0EDB5004E0D890F336E806FCE136
:1035B000F350E81C9216010EF36E0B0EDB5004E084
:1035C000D890F336E806FCE1F3500201841340D0B2
:1035D000420E326E0A0EDB50325C19E1010EF36EC0
:1035E0000B0EDB5004E0D890F336E806FCE1F35014
:1035F000E81C9316010EF36E0B0EDB5004E0D8901E
:10360000F336E806FCE1F3500201851321D0430EA6
:10361000326E0A0EDB50325C19E1010EF36E0B0EB6
:10362000DB5004E0D890F336E806FCE1F350E81CE8
:103630009416010EF36E0B0EDB5004E0D890F336B7
:10364000E806FCE1F3500201861302D00D8CC6D0CF
:103650000B0EDBCFF7F00A0EDBCFF8F0010E1D6E7C
:103660001C6AD9CFE9FFDACFEAFFD880FF0EEE540B
:10367000FF0EEE54000EEE54000EEE540FE3D95040
:10368000040FE96EDACFEAFFD880FF0EEE54FF0E8A
:10369000EE54000EEE54000EEE5402E20D8C9ED05D
:1036A00036683768386A396AD9CFE9FFDACFEAFF76
:1036B000EE50365C326EEE503758336EEE5038585E
:1036C000346EEE503958356E32C0DFFF010E33C014
:1036D000DBFF020E34C0DBFF030E35C0DBFF3668B4
:1036E0003768386A396AD950040FE96EDACFEAFFD1
:1036F000EE50365C326EEE503758336EEE5038581E
:10370000346EEE503958356E040E32C0DBFF050EB4
:1037100033C0DBFF060E34C0DBFF070E35C0DBFF16
:10372000F29ED9CFE9FFDACFEAFFEECF32F0EECF4B
:1037300033F0EECF34F0EFCF35F0080ED8903532BD
:10374000343233323232E806F9E13250166ED9CFD4
:10375000E9FFDACFEAFFEECF32F0EECF33F0EECF73
:1037600034F0EFCF35F03250176E040EDBCF32F06D
:10377000050EDBCF33F0060EDBCF34F0070EDBCFC8
:1037800035F0080ED8903532343233323232E80612
:10379000F9E13250186E040EDBCF32F0050EDBCFAC
:1037A00033F0060EDBCF34F0070EDBCF35F03250AE
:1037B000196E0D0EDB501A6E0E0EDB501B6EF28E64
:1037C00079B00AD03F0E79140009796E7998799A08
:1037D000A282A192A082798065EC10F00F0EE15CCC
:1037E00002E2E16AE552E16EE552E7CFD9FF12004D
:1037F000D9CFE6FFE1CFD9FF040EE126030EDB6A45
:103800000D0E326E0001A851EA6A000FE96E070E34
:10381000EA22EF50325C06E1FB0EDB5001E10D883D
:10382000030ED4D1A851EA6A000FE96E070EEA220E
:10383000EF502C081BE0FB0EDB5016E1A851EA6AA2
:10384000000FE96E070EEA22EF50E66EE66A530EAD
:10385000E66E6F0EE66E000EE66E21EC3BF0326E09
:10386000050EE15E32500D8A020EB0D1A82BA85190
:10387000326E336A000E321802E1010E331801E194
:10388000A86B0D0E326EA851EA6A000FE96E070EA2
:10389000EA22EF50325C06E1FB0EDB5001E10D88BD
:1038A000030E94D12D0E326EA851EA6A000FE96E14
:1038B000070EEA22EF50325C29E1040E336EFE0E51
:1038C000DB50335C23E0050E346EFE0EDB50345CBF
:1038D0001DE0FE0EDB0406E0030E326EFE0EDB5032
:1038E000325C04E10D8C010E71D110D0010EF36E2B
:1038F000030EF3CFDBFFA82BA851326E336A000E04
:10390000321802E1010E331801E1A86B040E326E89
:10391000FE0EDB50325C11E0050E336EFE0EDB5006
:10392000335C0BE0050EE66ED9CFE6FFDACFE6FF9B
:1039300059D9E552E552E5523ED00001A851EA6A54
:10394000000FE96E070EEA22EFCF32F0336A346AD5
:1039500032C0DFFF010E33C0DBFF020E34C0DBFFDD
:10396000050E326EFE0EDB50325C19E1000EDFCF29
:10397000E6FF010EDBCFE6FF55EC3CF0E552E552E9
:10398000F3CF32F0F4CF33F0346A33BE346832C050
:10399000DFFF010E33C0DBFF020E34C0DBFF00018E
:1039A000A82BA851326E336A000E321802E1010EC4
:1039B000331801E1A86B030EDB5021E0DFCF32F0BA
:1039C000010EDBCF33F0020EDBCF34F02A682B6818
:1039D0002C6832C025F033C026F034C027F056ECF6
:1039E00039F022C032F023C033F024C034F032C0AA
:1039F000DFFF010E33C0DBFF020E34C0DBFFFE0E23
:103A0000DB5026E1DFCF32F0010EDBCF33F0020EC8
:103A1000DBCF34F03434000E341807E6D8807F0E44
:103A20003254000E3354000E345401E28CD0D9CFFE
:103A3000E9FFDACFEAFF020ED880EB50FF0A06E674
:103A4000800EEE5CFF0EEE58FF0EEF5801E27BD0C9
:103A5000FE0EDB0424E1DFCF35F0010EDBCF36F0C4
:103A6000020EDBCF37F03734000E371807E6D88068
:103A7000FF0E3554000E3654000E375464E3D9CF90
:103A8000E9FFDACFEAFF020ED890EB50000A06E613
:103A9000000EEE5C000EEE58000EEF5854E3020EDE
:103AA000386EFE0EDB50385C24E1DFCF39F0010EBA
:103AB000DBCF3AF0020EDBCF3BF03B34000E3B187D
:103AC00007E6D880FF0E39547F0E3A54000E3B545F
:103AD0003AE3D9CFE9FFDACFEAFF020ED880EB5004
:103AE000FF0A06E6000EEE5C800EEE58FF0EEF5861
:103AF0002AE3030E3C6EFE0EDB503C5C27E1DFCF79
:103B00003DF0010EDBCF3EF0020EDBCF3FF03F3445
:103B1000000E3F1807E6D880FF0E3D54FF0E3E54BE
:103B2000000E3F5410E3D9CFE9FFDACFEAFF020ECF
:103B3000D890EB50000A06E6000EEE5C000EEE5840
:103B4000000EEF5803E20D8C010E40D0FE0EDB504C
:103B5000030A2DE0010A1EE0030A12E0050A10E044
:103B6000010A0EE0050A02E0040E30D0FC0EDBCFA5
:103B7000E9FFFD0EDBCFEAFF000EDFCFEFFF24D021
:103B8000FC0EDBCFE9FFFD0EDBCFEAFF000EDFCF3F
:103B9000EFFF1AD0FC0EDBCFE9FFFD0EDBCFEAFF13
:103BA000000EDFCFEEFF010EDBCFEDFF0DD0FC0EE0
:103BB000DBCFE9FFFD0EDBCFEAFF000EDFCFEEFF2C
:103BC000010EDBCFEDFF00D0000E00D0326E040EF0
:103BD000E15C02E2E16AE552E16E3250E552E7CF84
:103BE000D9FF1200D9CFE6FFE1CFD9FF020EE126BF
:103BF000FD0EDBCFE9FFFE0EDBCFEAFFEE6AEE6AD9
:103C0000EE6A010EDB6AFC0EDB50F36E010EDBCFB9
:103C1000F4FFF350F45C58E20001A851EA6A000F87
:103C2000E96E070EEA22EFCFDFFF300EDF5C4AE3DA
:103C3000DF50390847E3FD0EDBCFE9FFFE0EDBCF97
:103C4000EAFFEECF35F0EECF36F0EFCF37F00A0EC9
:103C50002A6E2B6A2C6A35C025F036C026F037C094
:103C600027F056EC39F022C035F023C036F024C0DE
:103C700037F0300EDF5C386E396A3A6A35503824D6
:103C8000326E36503920336E37503A20346EFD0E86
:103C9000DBCFE9FFFE0EDBCFEAFF32C0EEFF33C021
:103CA000EEFF34C0EEFF0001A82BA851326E336A3C
:103CB000000E321802E1010E331801E1A86B010E6B
:103CC000DB2AA1D7000E02D0010E00D0326E020E08
:103CD000E15C02E2E16AE552E16E3250E552E7CF83
:103CE000D9FF12000650E66EE66A470EE66E6F0ECA
:103CF000E66E000EE66E21EC3BF0326E050EE15EE4
:103D0000325012000D01C55108E0010E326E6550AF
:103D1000020B01E0010E325C1BE10201DF07000E25
:103D2000E05BE1510BE1DF51E01107E18D80D00E46
:103D3000DF6F070EE06F010EE16F09D0DF51E01178
:103D400006E18D90D00EDF6F070EE06FE16B48D07B
:103D5000C50509E0020EC55D06E0040EC55D03E081
:103D6000100EC55D02E18D803BD0200EC55D38E1AF
:103D70000201DF07000EE05BE1510BE1DF51E011D2
:103D800007E18D80100EDF6F270EE06F010EE16FEF
:103D900027D0E1050BE1DF51E01107E18D90100E16
:103DA000DF6F270EE06F020EE16F1AD0020EE15DA9
:103DB0000BE1DF51E01107E18D80A00EDF6F860E71
:103DC000E06F030EE16F0CD0030EE15D09E3DF51FC
:103DD000E01106E18D90100EDF6F270EE06FE16BB2
:103DE0001200000E03D0010E01D000D01200D9CF76
:103DF000E6FFE1CFD9FFE6520201FA2B000EFB23CA
:103E0000817493948150400B01E0010E895D0AE1B9
:103E1000640E8C5D02E28C2B04D08F5102E0010E07
:103E2000926F25D08150400B01E0010E896F8951BE
:103E300019E1640E8C5D15E28C5108080AE28F517D
:103E40008F2BEA6AAE0FE96E000EEA22010EEF6ECA
:103E500008D08F518F2BEA6AAE0FE96E000EEA226E
:103E6000EF6A04D08C51100801E28F6B8C6B81508B
:103E7000800B01E0010E8A5D0AE1640E8D5D02E2B5
:103E80008D2B04D0905102E0010E936F25D081500C
:103E9000800B01E0010E8A6F8A5119E1640E8D5D7D
:103EA00015E28D5108080AE29051902BEA6AC60F7C
:103EB000E96E000EEA22010EEF6E08D09051902BB1
:103EC000EA6AC60FE96E000EEA22EF6A04D08D514D
:103ED000100801E2906B8D6B8050010B8B5D0AE145
:103EE000640E8E5D02E28E2B04D0915102E0010E31
:103EF000946F23D08050010B8B6F8B5119E1640EAE
:103F00008E5D15E28E5108080AE29151912BEA6A02
:103F1000DE0FE96E000EEA22010EEF6E08D091511D
:103F2000912BEA6ADE0FE96E000EEA22EF6A04D0F6
:103F30008E51100801E2916B8E6B0A0EFBAF02D01E
:103F4000D89003D0FA5D000EFB5901E2D1D1FA6B93
:103F5000FB6BFC2BDF6ADFCF32F0336A32BE336893
:103F6000020133508119E8AE02D0813504D080516E
:103F7000325C8151335801E3BBD1DFCFE9FFEA6AFC
:103F8000E9BEEA68F20EE926020EEA22EF5064E08A
:103F9000DFCFE9FFEA6AE9BEEA68E20EE926020E2F
:103FA000EA22EF50440A43E0070A2DE0010A17E035
:103FB000030A01E050D0DFCFE9FFEA6AE9BEEA6810
:103FC000E60EE926020EEA22EF50326E010E325260
:103FD00004E0E846FE0B3206FCE189123CD0DFCF5C
:103FE000E9FFEA6AE9BEEA68E60EE926020EEA227D
:103FF000EF50326E010E325204E0E846FE0B3206FC
:10400000FCE18A1228D0DFCFE9FFEA6AE9BEEA685C
:10401000E60EE926020EEA22EF50326E010E32520F
:1040200004E0E846FE0B3206FCE18B1214D0DFCF31
:10403000E9FFEA6AE9BEEA68E60EE926020EEA222C
:10404000EF50326E010E325204E0E846FE0B3206AB
:10405000FCE18C1200D067D0DFCFE9FFEA6AE9BE4D
:10406000EA68E20EE926020EEA22EF50440A46E030
:10407000070A2FE0010A18E0030A01E054D0DFCF5D
:10408000E9FFEA6AE9BEEA68E60EE926020EEA22DC
:10409000EF50326E010E325204E0E846FE0B32065B
:1040A000FCE1E81C89163FD0DFCFE9FFEA6AE9BEF0
:1040B000EA68E60EE926020EEA22EF50326E010EA1
:1040C000325204E0E846FE0B3206FCE1E81C8A1698
:1040D0002AD0DFCFE9FFEA6AE9BEEA68E60EE92600
:1040E000020EEA22EF50326E010E325204E0E84630
:1040F000FE0B3206FCE1E81C8B1615D0DFCFE9FF82
:10410000EA6AE9BEEA68E60EE926020EEA22EF5004
:10411000326E010E325204E0E846FE0B3206FCE13C
:10412000E81C8C1600D0DFCFE9FFEA6AE9BEEA6836
:10413000F60EE926020EEA22EF50326E336A0201D1
:10414000FB513318E8AE02D0333404D03250FA5D5C
:104150003350FB5964E2DFCFE9FFEA6AE9BEEA685F
:10416000EA0EE926020EEA22EF50440A43E0070A6B
:104170002DE0010A17E0030A01E050D0DFCFE9FF8C
:10418000EA6AE9BEEA68EE0EE926020EEA22EF507C
:10419000326E010E325204E0E846FE0B3206FCE1BC
:1041A00089123CD0DFCFE9FFEA6AE9BEEA68EE0E89
:1041B000E926020EEA22EF50326E010E325204E07E
:1041C000E846FE0B3206FCE18A1228D0DFCFE9FF79
:1041D000EA6AE9BEEA68EE0EE926020EEA22EF502C
:1041E000326E010E325204E0E846FE0B3206FCE16C
:1041F0008B1214D0DFCFE9FFEA6AE9BEEA68EE0E5F
:10420000E926020EEA22EF50326E010E325204E02D
:10421000E846FE0B3206FCE18C1200D067D0DFCFFF
:10422000E9FFEA6AE9BEEA68EA0EE926020EEA2236
:10423000EF50440A46E0070A2FE0010A18E0030A9B
:1042400001E054D0DFCFE9FFEA6AE9BEEA68EE0E8A
:10425000E926020EEA22EF50326E010E325204E0DD
:10426000E846FE0B3206FCE1E81C89163FD0DFCFA2
:10427000E9FFEA6AE9BEEA68EE0EE926020EEA22E2
:10428000EF50326E010E325204E0E846FE0B320669
:10429000FCE1E81C8A162AD0DFCFE9FFEA6AE9BE12
:1042A000EA68EE0EE926020EEA22EF50326E010EA7
:1042B000325204E0E846FE0B3206FCE1E81C8B16A5
:1042C00015D0DFCFE9FFEA6AE9BEEA68EE0EE9261B
:1042D000020EEA22EF50326E010E325204E0E8463E
:1042E000FE0B3206FCE1E81C8C1600D0DF2A33D628
:1042F000E552E552E7CFD9FF1200D9CFE6FFE1CF73
:10430000D9FF070EE126040EE66EE66AE66AE20EC3
:10431000E66E020EE66ED4EC3AF0326E050EE15E09
:104320003250040EE66EE66AE66AE60EE66E020EAD
:10433000E66ED4EC3AF0326E050EE15E3250040EB9
:10434000E66EE66AE66AEA0EE66E020EE66ED4EC09
:104350003AF0326E050EE15E3250040EE66EE66A09
:10436000E66AEE0EE66E020EE66ED4EC3AF0326EBF
:10437000050EE15E32500201806B816BDE6ADD6A00
:10438000DECF32F0DDCF33F0D890335004E6040EA8
:10439000325C000E335801E3D2D1010EE66EDECF5F
:1043A00032F0DDCF33F0E20E3226020E332232C07D
:1043B000E6FF33C0E6FF050EE66EF8EC1BF0E552B3
:1043C000E552E552E552010EE66EDECF32F0DDCF6A
:1043D00033F0E60E3226020E332232C0E6FF33C03F
:1043E000E6FF010EE66EF8EC1BF0E552E552E552F1
:1043F000E552010EE66EDECF32F0DDCF33F0EA0E8D
:104400003226020E332232C0E6FF33C0E6FF050E2D
:10441000E66EF8EC1BF0E552E552E552E552010E6E
:10442000E66EDECF32F0DDCF33F0EE0E3226020E36
:10443000332232C0E6FF33C0E6FF010EE66EF8EC31
:104440001BF0E552E552E552E552DECFE9FFDDCF44
:10445000EAFFEA0EE926020EEA22EF5001E16AD1F4
:104460000201802B000E8123D950020F326EDACF69
:1044700033F0030E32C0DBFF040E33C0DBFFDECFB0
:10448000E9FFDDCFEAFFE20EE926020EEA22EF5055
:10449000440A40E0070A2BE0010A16E0030A01E0A3
:1044A0004CD0D950030FE96EDACFEAFF920EEE6ED0
:1044B0000F0EED6ED950050FE96EDACFEAFF890EC7
:1044C000EE6E0F0EED6E39D0D950030FE96EDACFD4
:1044D000EAFF930EEE6E0F0EED6ED950050FE96EEA
:1044E000DACFEAFF8A0EEE6E0F0EED6E26D0D950AF
:1044F000030FE96EDACFEAFF940EEE6E0F0EED6E4B
:10450000D950050FE96EDACFEAFF8B0EEE6E0F0E73
:10451000ED6E13D0D950030FE96EDACFEAFF950E96
:10452000EE6E0F0EED6ED950050FE96EDACFEAFF91
:104530008C0EEE6E0F0EED6E00D0DECFE9FFDDCFFC
:10454000EAFFE60EE926020EEA22EF50336E010E74
:10455000335204E0E846FE0B3306FCE1E81C326E01
:10456000030EDBCFE9FF040EDBCFEAFFEF5032147E
:10457000E66E030EDBCFE9FF040EDBCFEAFFE55268
:10458000E750EF6EDECFE9FFDDCFEAFFE60EE9266A
:10459000020EEA22EF50336E010E335204E0E84679
:1045A000FE0B3306FCE1E81C326E050EDBCFE9FFA3
:1045B000060EDBCFEAFFEF503214E66E050EDBCFBE
:1045C000E9FF060EDBCFEAFFE552E750EF6ED95068
:1045D000020F326EDACF33F0030E32C0DBFF040E6F
:1045E00033C0DBFFDECFE9FFDDCFEAFFEA0EE926CD
:1045F000020EEA22EF50440A40E0070A2BE0010ACB
:1046000016E0030A01E04CD0D950030FE96EDACF6F
:10461000EAFF920EEE6E0F0EED6ED950050FE96EA9
:10462000DACFEAFF890EEE6E0F0EED6E39D0D9505B
:10463000030FE96EDACFEAFF930EEE6E0F0EED6E0A
:10464000D950050FE96EDACFEAFF8A0EEE6E0F0E33
:10465000ED6E26D0D950030FE96EDACFEAFF940E43
:10466000EE6E0F0EED6ED950050FE96EDACFEAFF50
:104670008B0EEE6E0F0EED6E13D0D950030FE96E58
:10468000DACFEAFF950EEE6E0F0EED6ED950050FE4
:10469000E96EDACFEAFF8C0EEE6E0F0EED6E00D0F3
:1046A000DECFE9FFDDCFEAFFEE0EE926020EEA22B9
:1046B000EF50336E010E335204E0E846FE0B330632
:1046C000FCE1E81C326E030EDBCFE9FF040EDBCF0A
:1046D000EAFFEF503214E66E030EDBCFE9FF040E63
:1046E000DBCFEAFFE552E750EF6EDECFE9FFDDCF2B
:1046F000EAFFEE0EE926020EEA22EF50336E010EBB
:10470000335204E0E846FE0B3306FCE1E81C326E4F
:10471000050EDBCFE9FF060EDBCFEAFFEF503214C8
:10472000E66E050EDBCFE9FF060EDBCFEAFFE552B2
:10473000E750EF6EDF2A010E01E3DB2A21D680C2AB
:10474000E6FF81C2E6FF350EE66E6F0EE66E000EE6
:10475000E66E21EC3BF0326E050EE15E3250DE6A11
:10476000DD6ADECF32F0DDCF33F002013350811944
:10477000E8AE02D0813504D08051325C815133588B
:104780003DE2DECFE9FFDDCFEAFFEE0EE926020EC5
:10479000EA22EF50E66EE66ADECFE9FFDDCFEAFF00
:1047A000EA0EE926020EEA22EF50E66EE66ADECF56
:1047B000E9FFDDCFEAFFE60EE926020EEA22EF501E
:1047C000E66EE66ADECFE9FFDDCFEAFFE20EE9261C
:1047D000020EEA22EF50E66EE66A290EE66E6F0ED2
:1047E000E66E000EE66E21EC3BF0326E0B0EE15EE3
:1047F0003250DF2A010E01E3DB2AB3D78950E66E7F
:10480000E66A9250E66EE66A160EE66E6F0EE66E89
:10481000000EE66E21EC3BF0326E070EE15E325088
:1048200065EC10F0070EE15C02E2E16AE552E16E30
:10483000E552E7CFD9FF1200D9CFE6FFE1CFD9FF8C
:10484000060EE126DE6ADD6ADECF32F0DDCF33F020
:10485000D890335004E6040E325C000E335801E366
:104860009AD0010EE66ED950020F346EDACF35F0D1
:10487000DE503424326EDD503520336E32C0E6FF18
:1048800033C0E6FFE66AF8EC1BF0E552E552E5526C
:10489000E552000901E07AD0D950020F336EDACF29
:1048A00034F0DE503324E96EDD503420EA6EEFCF71
:1048B00032F0323428E3DECFE9FFDDCFEAFFF20E3B
:1048C000E926020EEA22010EEF6ED950020F346E75
:1048D000DACF35F0DE503424E96EDD503520EA6E53
:1048E000EF50FF0DF350E66ED950020F326EDACF63
:1048F00033F0DE503224E96EDD503320EA6EE552AB
:10490000E750EF6E09D0DECFE9FFDDCFEAFFF20E10
:10491000E926020EEA22EF6AD950020F326EDACF90
:1049200033F0DE503224E96EDD503320EA6EEF5072
:10493000E66EDECFE9FFDDCFEAFFF60EE926020ED6
:10494000EA22E552E750EF6EDECFE9FFDDCFEAFF66
:10495000F60EE926020EEA22EF50E66EE66ADECF98
:10496000E9FFDDCFEAFFF20EE926020EEA22EF5060
:10497000E66EE66A0D0EE66E6F0EE66E000EE66EF1
:1049800021EC3BF0326E070EE15E3250DF2A010E61
:1049900001E3DB2A59D779B00AD03F0E7914000918
:1049A000796E7998799AA282A192A08279808950B1
:1049B000E66EE66A9250E66EE66A160EE66E6F0ED8
:1049C000E66E000EE66E21EC3BF0326E070EE15E05
:1049D00032500201FC51E66EE66A080EE66E6F0E7A
:1049E000E66E000EE66E21EC3BF0326E050EE15EE7
:1049F000325065EC10F0060EE15C02E2E16AE5522D
:0A4A0000E16EE552E7CFD9FF120086
:064A0A00D9CFE6FFE1CF69
:104A1000D9FFE652A098636A626A0F01266B020E04
:104A2000E66EE66AE66A270EE66E0F0EE66ED4ECD8
:104A30003AF0326E050EE15E32500F01160E396FFC
:104A40009F0E376F7B0E366FDF6ADF50326E336A30
:104A50000C0E325C000E335810E2DF50040DF3CF21
:104A6000E9FFF4CFEAFF000EE9260D0EEA22EE6A16
:104A7000EE6AEE6AEE6ADF2AE8D7658C0F01386BC2
:104A80006598659C62A607D062960D01DE6BE36BAC
:104A9000E46BE56BF7D70D01010EF86FF96FFA6B58
:104AA000FB6BEC6BDF6A030EDF5C26E2EA6ADF3445
:104AB000FE0BEA36E96ED30EE9260D0EEA22EE6A07
:104AC000ED6AEA6ADF34FE0BEA36E96ECD0EE926BE
:104AD0000D0EEA22EE6AED6ADF50EA6AF00FE96E27
:104AE0000D0EEA22EF6ADF50EA6AF30FE96E0D0E4F
:104AF000EA22EF6ADF2AD7D70D01080ED36F0D0E19
:104B0000D46F0F01160E266F0D01300E026F0D0EC1
:104B1000036F080E016F840E006F0D01C66BC56B2D
:104B2000E552E552E7CFD9FF1200D9CFE6FFE1CF3A
:104B3000D9FFE6520D01C50509E165BA07D0626AE1
:104B40000F01368136890D01020EC56F6250040BCC
:104B500007E00F013651040B03E062940BEC2CF0DC
:104B600065A202D0A1989DD06250010B0AE00F010E
:104B70003651010B06E049DFA0880D01040EC56F18
:104B800062906250100B07E00F013651100B03E0EA
:104B9000F5EC2BF0629862AC1AD00F0136AD0FD055
:104BA000010EE66EE66A000EE66EE66A730EE66ECB
:104BB000E66AD3EC38F0326E060EE15E3250629C4B
:104BC0000D01F65101E0F607F65101E110DA6250ED
:104BD000200B06E00F013651200B02E0DBEC2BF03E
:104BE0006250020B14E00F013651020B10E0010E6F
:104BF000E66EE66A000EE66EE66AE6687F0EE66E30
:104C0000D3EC38F0326E060EE15E3250636A040E69
:104C10000D01E76EC519E8AE02D0E73402D0E750C7
:104C2000C55D02E2A1983DD00F0136A739D0DF6AF9
:104C3000040EDF5C35E262A632D064CFEDFD0D01DB
:104C4000ED51780BE842E842E842EE6F6296EDB52E
:104C500008D0EE51EA6AF30FE96E0D0EEA22EF700A
:104C600007D0EE51EA6AF00FE96E0D0EEA22EF70FE
:104C7000EE5103E123EC2CF010D0000EE66EE66A54
:104C8000ED0EE66E0D0EE66E720EE66EE66AD3EC83
:104C900038F0326E060EE15E3250DF2AC9D700D0FE
:104CA000A198E552E552E7CFD9FF1200D9CFE6FF30
:104CB000E1CFD9FF020EE126FD0EDBA407D0E66AA4
:104CC000FE0EDBCFE6FF24DAE552E552FD0EDBA255
:104CD00008D0010EE66EFE0EDBCFE6FF19DAE552D4
:104CE000E552FE0EDB50336A260F326E0F0E332272
:104CF00032C0DEFF33C0DDFFDECFE9FFDDCFEAFFEC
:104D0000FD0EDBCFEFFF020EE15C02E2E16AE5524D
:104D1000E16EE552E7CFD9FF1200D9CFE6FFE1CF30
:104D2000D9FF020EE126FD0EDB500FE0FE0EEA6A0F
:104D3000DB34FE0BEA36E96ED30EE9260D0EEA22CD
:104D4000EECFDEFFEDCFDDFF0ED0FE0EEA6ADB34E4
:104D5000FE0BEA36E96ECD0EE9260D0EEA22EECF05
:104D6000DEFFEDCFDDFFD9CFE9FFDACFEAFFEE506E
:104D7000ED1003E1F36AF46A49D0DECFE9FFDDCF3D
:104D8000EAFF020EE926000EEA22FB0EDBCFEEFF61
:104D9000FC0EDBCFEDFFDECFE9FFDDCFEAFFEE5209
:104DA000FA0EDBCFEFFF400E326EDECFE9FFDDCF34
:104DB000EAFF3250EF16880E326EDECFE9FFDDCF0C
:104DC000EAFF3250EF12FD0EDB500CE0FE0EEA6AF5
:104DD000DB34FE0BEA36E96ED30EE9260D0EEA222D
:104DE000EF740BD0FE0EEA6ADB34FE0BEA36E96E96
:104DF000CD0EE9260D0EEA22EF74DECF32F0DDCFC4
:104E000033F032C0F3FF33C0F4FF00D0020EE15C98
:104E100002E2E16AE552E16EE552E7CFD9FF120006
:104E2000D9CFE6FFE1CFD9FF020EE126FE0EDB501F
:104E300020E1CBCDE9FFCCCDEAFFEE52080EEF6EBC
:104E4000CBCDE9FFCCCDEAFF020EE926000EEA2227
:104E5000300EEE6E0D0EED6ECBCDE9FFCCCDEAFF40
:104E60008C0EEF6ED3CDE9FFD4CDEAFF840EEF6E4A
:104E70003DD0FD0EDB50E824346EFE0EDB50040DF9
:104E8000F3503424040DF3CF32F0F4CF33F0000E9E
:104E900032260D0E332232C0DEFF33C0DDFF840E1A
:104EA000326EDECFE9FFDDCFEAFF3250EF12FD0EAA
:104EB000DB50E824346EFE0EDB50040DF350342436
:104EC000010F040DF3CF32F0F4CF33F0000E322691
:104ED0000D0E332232C0DEFF33C0DDFF840E326E92
:104EE000DECFE9FFDDCFEAFF3250EF12020EE15CC8
:104EF00002E2E16AE552E16EE552E7CFD9FF120026
:104F0000D9CFE6FFE1CFD9FF65A84ED0FE0EEA6A01
:104F1000DB34FE0BEA36E96ED30EE9260D0EEA22EB
:104F2000EE50EFCFEAFFE96E400EEE16EE6AEE6A43
:104F3000EE6AFE0EEA6ADB34FE0BEA36E96ED30E49
:104F4000E9260D0EEA22EE50EFCFEAFFE96EEE7C85
:104F5000FE0EEA6ADB34FE0BEA36E96ED30EE92672
:104F60000D0EEA22EF74400E326EFE0EEA6ADB345A
:104F7000FE0BEA36E96ED30EE9260D0EEA22EE505C
:104F8000EFCFEAFFE96E3250EF16FE0EEA6ADB342D
:104F9000FE0BEA36E96ED30EE9260D0EEA22EE503C
:104FA000EFCFEAFFE96EEF7CE552E7CFD9FF1200C1
:104FB000656A0F01366B0D01C56B00D012000D0143
:104FC000C55114E1656A0F01366B160E396F9F0EDD
:104FD000376F7B0E366FD08EA288A088F28E65B6B2
:104FE00002D06586FCD70D01010EC56F12000D01C0
:104FF000F8514DE1010EF86FF95149E1010EF96FD9
:10500000020EDA5D0DE1D3CDE9FFD4CDEAFFEE5219
:10501000EF6AD3CDE9FFD4CDEAFFC80EEF6E37D0EB
:10502000DA0535E1EF6BC9CDE9FFCACDEAFFEE52F3
:10503000080EEF6EC9CDE9FFCACDEAFF020EE926E0
:10504000000EEA22300EEE6E0D0EED6EC9CDE9FFB8
:10505000CACDEAFF840EEF6E010EEF6FCBCDE9FFF4
:10506000CCCDEAFFEE52080EEF6ECBCDE9FFCCCDF2
:10507000EAFF020EE926000EEA22300EEE6E0D0E59
:10508000ED6ECBCDE9FFCCCDEAFF800EEF6E1200C6
:105090000D01FA6BFB6B020EDA5D1AE1CBCDE9FF75
:1050A000CCCDEAFFEE52080EEF6ECBCDE9FFCCCDB2
:1050B000EAFF020EE926000EEA22380EEE6E0D0E11
:1050C000ED6ECBCDE9FFCCCDEAFFC80EEF6E1FD061
:1050D000DF510D01365D0D01E0510D01375904E23C
:1050E00036CDDFFD37CDE0FDD1D8D3CDE9FFD4CD2E
:1050F000EAFF020EE926000EEA22380EEE6E0D0ED1
:10510000ED6ED3CDE9FFD4CDEAFFC80EEF6E1200ED
:10511000D9CFE6FFE1CFD9FF020EE126000EDE6E09
:105120000D0EDD6EFD0EDB50E824346EFE0EDB50FE
:10513000040DF3503424040DF3CF32F0F4CF33F0E8
:10514000D9CFE9FFDACFEAFF3250EE263350ED2215
:10515000DECFE9FFDDCFEAFFEF9EFD0EDB500FE172
:10516000FE0EEA6ADB34FE0BEA36E96ECD0EE92666
:105170000D0EEA22DECFEEFFDDCFEDFF0ED0FE0EEC
:10518000EA6ADB34FE0BEA36E96ED30EE9260D0E31
:10519000EA22DECFEEFFDDCFEDFFDECFE9FFDDCF90
:1051A000EAFFEF9CDECFE9FFDDCFEAFF040EE92640
:1051B000000EEA22EF8C020EE15C02E2E16AE552A7
:1051C000E16EE552E7CFD9FF120065980D01DEBF11
:1051D0002BD0E3AF09D0020EDA6FFB5101E158DFAB
:1051E0000D01F96BF86B1FD0CBCDE9FFCCCDEAFFF9
:1051F000EE52080EEF6ECBCDE9FFCCCDEAFF020EEA
:10520000E926000EEA22300EEE6E0D0EED6ECBCDCD
:10521000E9FFCCCDEAFF8C0EEF6ED3CDE9FFD4CD04
:10522000EAFF840EEF6E31D00D0130AF0DD00D01CD
:10523000010EDA6FFA5101E12BDF0D01F96BF86B0A
:10524000F75101E1D4DE21D00D01020EDA6FCBCD92
:10525000E9FFCCCDEAFFEE52080EEF6ECBCDE9FFB1
:10526000CCCDEAFF020EE926000EEA22300EEE6EE9
:105270000D0EED6ECBCDE9FFCCCDEAFF840EEF6EC7
:10528000F96BF86BF75101E1B2DE1200D9CFE6FFFE
:10529000E1CFD9FFE652080EDF6E0D01DF5D000E93
:1052A000E0590BE2DFCDDFFFD95103E1010ED96FE9
:1052B00004D0D90502E1020ED96FDF50326E336A95
:1052C0003250DF5DDF6F3350E059E06FD3CDE9FF3F
:1052D000D4CDEAFFEE52DFCFEFFF380EE96F0D0EAF
:1052E000EA6FDEB11CD0DF5019E0DBCDF6FFDB2B1F
:1052F000DCCDF7FF000EDC23DDCDF8FFDD23080059
:10530000F550E66EE9CDE9FFEACDEAFFE92B000EA4
:10531000EA23E552E750EF6EDF06E5D717D0DF50FE
:1053200015E0DBCDE9FFDCCDEAFFDB2B000EDC2353
:10533000EF50E66EE9CDE9FFEACDEAFFE92B000E7A
:10534000EA23E552E750EF6EDF06E9D7E552E55272
:10535000E7CFD9FF1200D9CFE6FFE1CFD9FF020E88
:10536000E126C9CDE9FFCACDEAFFEE52EFCFDFFF5C
:10537000DFCF32F032500D01E45D000EE55902E25C
:10538000E4CDDFFFDF50326E336A3250E45DE46F0C
:105390003350E559E56F010EDB6ADF50F36E010E05
:1053A000DBCFF4FFF350F45C16E2010EDB50EA6A47
:1053B000380FE96E0D0EEA22EF50E66EE1CDE9FFFF
:1053C000E2CDEAFFE12B000EE223E552E750EF6E5B
:1053D000010EDB2AE2D7000ED880E455000EE55519
:1053E00028E2CBCDE9FFCCCDEAFFEE52080EEF6EFE
:1053F000CBCDE9FFCCCDEAFF020EE926000EEA2272
:10540000380EEE6E0D0EED6EC9CDE9FFCACDEAFF86
:10541000EF50400B07E1CBCDE9FFCCCDEAFFC80E42
:10542000EF6E06D0CBCDE9FFCCCDEAFF880EEF6E54
:105430002BD0CBCDE9FFCCCDEAFFEE52080EEF6EBC
:10544000CBCDE9FFCCCDEAFF020EE926000EEA2221
:10545000300EEE6E0D0EED6ECBCDE9FFCCCDEAFF3A
:10546000840EEF6EE651E711E81109E007D0E8CDB0
:10547000FBFFE7CDFAFF0D01E651F96EF8DF0D01F4
:10548000E39FF75101E1B3DD020EE15C02E2E16A64
:10549000E552E16EE552E7CFD9FF1200D9CFE6FF22
:1054A000E1CFD9FFE6520D01DE8F020EE66EE66A0D
:1054B000E66A270EE66E0F0EE66ED4EC3AF0326E18
:1054C000050EE15E3250300EE66EE66AE66A000EC8
:1054D000E66E0D0EE66ED4EC3AF0326E050EE15E2D
:1054E0003250658CDF6A030EDF5C10E2DF50EA6A3F
:1054F000F00FE96E0D0EEA22EF6ADF50EA6AF30F51
:10550000E96E0D0EEA22EF6ADF2AEDD7020EE66E93
:10551000E66AE66AC70EE66E0D0EE66ED4EC3AF069
:10552000326E050EE15E3250659C0D01080ED36FA0
:105530000D0ED46F000EC96F0D0ECA6FC9CDCBFD15
:10554000CACDCCFD32CDC6FDC65103E1100EC56FEC
:1055500013D0010EE66EE66AC60EE66E0D0EE66E1E
:10556000010EE66EE66AD3EC38F0326E060EE15EAE
:1055700032500D01200EC56FE552E552E7CFD9FF3D
:105580001200800E0D01305D01E0ACD00D01C00EA7
:10559000DE6F0D013351030A61E0010A10E0030AD6
:1055A00003E00D01DE6B9ED00D01980EDB6F730ED4
:1055B000DC6F000EDD6F120EDF6FE06B93D0590EC3
:1055C000326E740E336E000E346E32CD35F0366AA4
:1055D000376A030E2A6E2B6A2C6A35C025F036C056
:1055E00026F037C027F056EC39F022C035F023C042
:1055F00036F024C037F032503524F36E3350362065
:10560000F46E34503720F86EF4CFF7FFF3CFF6FF87
:105610000900F5CFDBFD0900F5CFDCFD0800F5CF73
:10562000DDFDDBCDF6FFDCCDF7FFDDCDF8FF020EB3
:10563000F626000EF722F8220800F5CFDFFDDBCDBD
:10564000F6FFDCCDF7FFDDCDF8FF030EF626000EEA
:10565000F722F8220800F5CFE0FD44D0030E325DBA
:105660003EE25C0E326E740E336E000E346E32CD3E
:1056700035F0366A376A030E2A6E2B6A2C6A35C0FB
:1056800025F036C026F037C027F056EC39F022C09E
:1056900035F023C036F024C037F032503524F36E95
:1056A00033503620F46E34503720F86EF4CFF7FFC5
:1056B000F3CFF6FF0900F5CFDBFD0900F5CFDCFDE8
:1056C0000800F5CFDDFDDBCDF6FFDCCDF7FFDDCD4E
:1056D000F8FF0800F5500D01DF6FE06B02D00D01FF
:1056E000DE6B00D01200D9CFE6FFE1CFD9FF020E6A
:1056F000E1260D01386B396B30511F0B020A12E0A5
:10570000030A0DE0010A01E042D00D01DE8F0D0118
:1057100038810D01EB0502E10D01388338D00D0110
:10572000DE8F35D00D01DE8F0D0134BF10D0345126
:105730000F0BE96EEA6AD890E936EA36CD0EE92613
:105740000D0EEA22EECFDEFFEDCFDDFF0FD034519C
:105750000F0BE96EEA6AD890E936EA36D30EE926ED
:105760000D0EEA22EECFDEFFEDCFDDFFDECFE9FF4B
:10577000DDCFEAFFEF50800B09E0DECFE9FFDDCFA0
:10578000EAFFEF50040B02E0010E386F00D00D016C
:10579000DEAF07D0380EDB6F0D0EDC6FDE81020E40
:1057A000DF6F020EE15C02E2E16AE552E16EE55272
:1057B000E7CFD9FF12000F0126A115D0C9CDE9FF0F
:1057C000CACDEAFFEF5080080DE1D3CDE9FFD4CD7B
:1057D000EAFFEF50840806E1C9CDE9FFCACDEAFF30
:1057E0008C0EEF6E2691629A12000F013685629838
:1057F00065820D01010EEC6F000EE66EE66AE66E44
:10580000E66A750EE66EE66AD3EC38F0326E060E86
:10581000E15E325012000D01EC6B000EE66EE66A9E
:10582000E66EE66A740EE66EE66AD3EC38F0326E27
:10583000060EE15E325065920F01369562A402D0E9
:105840006294FCD71200D9CFE6FFE1CFD9FFE65230
:105850000D012D0EF66FFD0EED1553E17E0EED15CB
:10586000E8407F0B040DF3CFC9FDF4CFCAFD000E55
:10587000C9270D0ECA23C9CDCBFDCACDCCFDCB7532
:10588000C9CDE9FFCACDEAFFEF503C0BE842E84240
:105890000D0835E1DF6A080EDF5C23E2C9CDE9FFC0
:1058A000CACDEAFF020EE926000EEA22EE50EFCF43
:1058B000EAFFE96EEF50E66EDF50EA6A300FE96EFC
:1058C0000D0EEA22E552E750EF6EC9CDE9FFCACDD1
:1058D000EAFF020EE926000EEA22EE2AEF22DF2A74
:1058E000DAD7C9CDE9FFCACDEAFF020EE926000EDC
:1058F000EA22300EEE6E0D0EED6E0DD801D03AD8C4
:1059000005D0FD0EED15040801E159D8E552E55228
:10591000E7CFD9FF12000D01D96BF76BFA6BFB6B68
:10592000EF6BDA6BD3CDE9FFD4CDEAFFEF9ED375F1
:10593000D3CDE9FFD4CDEAFFEF9ED375CBCDE9FF00
:10594000CCCDEAFFEF9EDE6BDF6BE06BE36BE46BCD
:10595000E56B95D8000EE66EE66AE66EE66A030E23
:10596000E66EE66AD3EC38F0326E060EE15E325037
:10597000E5EF28F0020E0D01DA5D02E1ECDC1ED04D
:10598000DA6BEF511AE1CBCDE9FFCCCDEAFFEE5255
:10599000080EEF6ECBCDE9FFCCCDEAFF020EE92673
:1059A000000EEA22300EEE6E0D0EED6ECBCDE9FF4D
:1059B000CCCDEAFF8C0EEF6E01D0EF6B1200D9CF89
:1059C000E6FFE1CFD9FFE652D3CDE9FFD4CDEAFF20
:1059D000EF50400B01E0010EDF6E0D01D375080E94
:1059E000C55D0CE132CD38FF0F01385104E00D01E7
:1059F000100EC56F03D00D01040EC56FDA0528E146
:105A0000D3CDE9FFD4CDEAFF020EE926000EEA224B
:105A1000380EEE6E0D0EED6E39DC020E0D01D95D05
:105A200007E1D3CDE9FFD4CDEAFF840EEF6E0FD0AE
:105A3000DF5007E1D3CDE9FFD4CDEAFFC80EEF6E0A
:105A400006D0D3CDE9FFD4CDEAFF880EEF6E12D099
:105A5000E3AF0FD0E651E711E81109E007D0E8CD38
:105A6000FBFFE7CDFAFF0D01E651F96EF8DF0D01FE
:105A7000E39FDA6BE552E552E7CFD9FF12000D0143
:105A80003051600BE842E842E842E842E84200094F
:105A900001E058D031510C0A54E00B0A43E00C0AE3
:105AA00035E0010A26E00B0A22E0020A20E0030AA0
:105AB0001CE0080A10E0010A0CE00F0A08E0030AE3
:105AC00001E03FD00D01DE8F080EC56F3BD059DDE0
:105AD00039D0E4DC37D00D01C60EDB6F0D0EDC6F64
:105AE000DE81010EDF6FDE8F2DD0FDDD2BD02BD8B8
:105AF00029D034510D01DB6FDC6BC70EDB270D0E97
:105B0000DC23DE81010EDF6FDE8F1CD00D01DE8F06
:105B10000D013451EA6AC70FE96E0D0EEA2232CD4B
:105B2000EFFF10D0000EE66EE66AE66EE66A020E41
:105B3000E66EE66AD3EC38F0326E060EE15E325065
:105B400001D000D01200D9CFE6FFE1CFD9FF050E7A
:105B5000E1260D01320510E130511F0B00090CE167
:105B60000D01DE8F030E0D01315D04E10D01010E0B
:105B7000EB6F02D00D01EB6B0D01325101E020D132
:105B800030511F0B020801E01BD134510F0B0009EB
:105B900001E116D134510F0B020801E211D1200EA0
:105BA0000D01C55D01E00CD1DE8F0D0134BF1AD0AF
:105BB00034510F0BE96EEA6AD890E936EA36CD0E19
:105BC000E9260D0EEA22EECFDEFFEDCFDDFF3451E8
:105BD0000F0BEA6AF30FE96E0D0EEA22020EEFCF09
:105BE000DBFF19D034510F0BE96EEA6AD890E93621
:105BF000EA36D30EE9260D0EEA22EECFDEFFEDCF18
:105C0000DDFF34510F0BEA6AF00FE96E0D0EEA2248
:105C1000020EEFCFDBFFD950020FE96EDACFEAFFB9
:105C2000EF50010B03E1000EDF9401D0DF8434BF9D
:105C300010D034510F0BE96EEA6AD890E936EA3693
:105C4000CD0EE9260D0EEA22DECFEEFFDDCFEDFF11
:105C50000FD034510F0BE96EEA6AD890E936EA3674
:105C6000D30EE9260D0EEA22DECFEEFFDDCFEDFFEB
:105C7000030E315D23E1DECFE9FFDDCFEAFFEF5018
:105C8000800B13E034BF09D034510F0BEA6AF30FD5
:105C9000E96E0D0EEA22EF8208D034510F0BEA6A4A
:105CA000F00FE96E0D0EEA22EF82840E326EDECF27
:105CB000E9FFDDCFEAFF3250EF1282D0DF74DECF92
:105CC000E9FFDDCFEAFFEF50800B1BE0DECFE9FFFD
:105CD000DDCFEAFFEF9EDECFE9FFDDCFEAFFEF8CFD
:105CE000020EE66EE66ADECFE6FFDDCFE6FF050ECA
:105CF000E66EE66AD3EC38F0326E060EE15E3250A4
:105D000005D0DECFE9FFDDCFEAFFEF8CDF74D9509D
:105D1000020FE96EDACFEAFFEF50020B07E1DECFA8
:105D2000E9FFDDCFEAFFEF50800B2DE00D0134BF1E
:105D300009D034510F0BEA6AF30FE96E0D0EEA2217
:105D4000EF9208D034510F0BEA6AF00FE96E0D0E96
:105D5000EA22EF923B0E326EDECFE9FFDDCFEAFFA3
:105D60003250EF16020EE66EE66ADECFE6FFDDCFBA
:105D7000E6FF050EE66EE66AD3EC38F0326E060EEC
:105D8000E15E325008D03B0E326EDECFE9FFDDCF50
:105D9000EAFF3250EF160D0134510F0B336A260F14
:105DA000326E0F0E3322030E32C0DBFF040E33C0FF
:105DB000DBFF030EDBCFE9FF040EDBCFEAFFEF9042
:105DC000050EE15C02E2E16AE552E16EE552E7CFE1
:045DD000D9FF1200E5
:0C5DD40026EC34F0FB0EDBCFF3FFDB0607
:105DE000F35000090AE074EC34F0FA0EDFEC34F002
:105DF000F3E1331CF1E1010E01D0000E55EF34F058
:105E000026EC34F03B0EE12402E3E168E652E16E59
:105E1000010EDB6A020EDB6AF90EDBCFF6FFFA0E2B
:105E2000DBCFF7FFFB0EDBCFF8FF0800F550DF6E8E
:105E3000DF5002E179EF33F0250EDF5C02E06CEF1A
:105E400033F0030EDB6A040EDB6A050EDB6A060E16
:105E5000DB6A070EDB6A8EEC33F02D0EDF5C0CE0A4
:105E60002B0EDF5C09E0200EDF5C06E0230EDF5C1A
:105E700003E0300EDF5C1AE1DF50300A14E0130A51
:105E80000FE0030A0AE00B0A05E0060AE4E1030E4C
:105E9000DB80E1D7030EDB82DED7030EDB84DBD7AA
:105EA000030EDB86D8D7030EDB88D5D72A0EDF5C3E
:105EB0001BE18AEC33F0D8EC33F010E0030EDB800A
:105EC00026682768130EDBCF2BF0140EDBCF2CF0E7
:105ED0009FEC39F0040E24C0DBFF03D0130EC1EC9D
:105EE00033F08EEC33F00BD0090EDB6A2FEC34F07C
:105EF00003E0A3EC34F0FAD7090EC1EC33F0030E43
:105F0000DBB0DB982E0EDF5C1BE18EEC33F02A0E4B
:105F1000DF5C0BE18AEC33F0D8EC33F003E1130ED5
:105F200013EC34F08EEC33F00BD0090EDB6A2FEC5F
:105F300034F003E0A3EC34F0FAD7090E13EC34F09C
:105F4000680EDF5C07E18EEC33F0680EDF5C1DE16C
:105F5000030E18D0740EDF5C17E07A0EDF5C14E0DD
:105F6000480EDF5C06E0540EDF5C03E05A0EDF5C97
:105F700002E1020E07D06C0EDF5C03E06A0EDF5C0C
:105F800004E1010E66EC34F0C9DBDF506E0A01E17A
:105F90007FD31E0A01E192D1200A01E18FD13F0A8D
:105FA00001E149D11A0A01E146D10D0A01E143D1CB
:105FB000200A01E140D13A0A01E13DD1200A01E184
:105FC0003AD1260A01E135D10D0A01E132D11A0A8E
:105FD00001E1D9D0200A4AE0300A1FE0460A0EE06B
:105FE000250A01E083D3D950F90FE96EFF0EDA20BC
:105FF000EA6E010EEE5E000EEE5AEE5A74EC34F0CC
:10600000250EE66E95DB03E1331C01E169D370ECEC
:1060100034F001E26BD3DB2A69D3080EDB6A040E8D
:10602000DB50010806E2040EDB0438EC34F0DB50F0
:106030008BDB080EDB5009E0030EDB50010B05E1A2
:1060400072DB01E04DD3080EDB6A64DBEFCFDFFFCC
:10605000E8EC34F003E1331C01E142D370EC34F09E
:1060600001E3DB2A60DB01E141D33AD3070EDB50C9
:1060700002080FE1B4EC34F0030E7BEC34F00E0EAA
:10608000EECFDBFF0F0EEECFDBFF100EEECFDBFF10
:1060900020D0F70EDBCF35F0F80EDBCF36F0020E56
:1060A000355E000E365AF70E35C0DBFFF80E36C0EF
:1060B000DBFF35C0E9FF36C0EAFF6BEC34F0346A31
:1060C0000E0E32C0DBFF0F0E33C0DBFF100E34C0EC
:1060D000DBFF0E0EDBCFE6FF0F0EDBCFE6FF100E71
:1060E000DBCFE6FFFCEC3AF0E552E552E552130E49
:1060F00025C0DBFF140E26C0DBFF060EDB5005E0DB
:10610000130EAFEC34F001E26ADBD3EC34F002E2C0
:10611000130E37DB96EC34F006E0040EAFEC34F0EF
:1061200002E2050E2EDB030EDBB005D0FCDA01E047
:10613000D7D2080EDB6A090EDB6A0E0EDBCFF6FF44
:106140000F0EDBCFF7FF100EDBCFF8FF0800F55086
:10615000DF6EDF5014E0D9EC34F011E2E8EC34F0FB
:1061600003E1331C01E1BCD2BBDB01E3DB2A090EF6
:10617000DB2AD9500E0FE96E000ECBDBE7D7D3DA5E
:1061800001E1B4D2ADD2C6DA110EEECFDBFF120EB2
:10619000EDCFDBFF110EDBCFE6FF120EDBCFE6FF0C
:1061A000EEEC3AF0E552E552130EF3CFDBFF140E9E
:1061B000F4CFDBFF060EDB5004E0130ED0DB01E270
:1061C0000EDBD3EC34F002E2130EDBDAAFDB05E0DA
:1061D000040EC5DB02E2050ED4DA030EDBB005D0F7
:1061E000A2DA01E07DD2080EDB6A090EDB6A110E2D
:1061F000DBCFE9FF120EDBCFEAFFEFCFDFFFDF508F
:1062000014E0D7DB12E2E4DB03E1331C01E168D2E6
:1062100067DB01E3DB2A090EDB2A110EDB2ADBCF69
:10622000E9FF120EE8E3DB2AE6D77DDA01E15ED270
:1062300057D2030EDB8E070EDB0410E195DB040E54
:106240005ADB0A0EEECFDBFF0B0EEECFDBFF0C0EA0
:10625000EECFDBFF0D0EEECFDBFF6CD0070EDB5079
:1062600003082CE1030EDBAE0DD0B2DA020E76DAB3
:10627000EFCF32F0336A346A356A32AE39D03368E0
:10628000346835D0F70EDBCF33F0F80EDBCF34F0C7
:10629000020E335E000E345AF70E33C0DBFFF80EE9
:1062A00034C0DBFF33C0E9FF34C0EAFFEFCF32F088
:1062B0000A0E32C0DBFF0B0EDB6A38D0070EDB5054
:1062C000020809E1030EDBAE04D059DB34AE10D076
:1062D0000ED055DB0DD0030EDBAE12D079DA020EF4
:1062E0003DDAF9DA346A356A33AE02D0346835689B
:1062F000E2DA0C0E34C0DBFF0D0E35C0DBFF1AD026
:10630000F70EDBCF34F0F80EDBCF35F0020E345E43
:10631000000E355AF70E34C0DBFFF80E35C0DBFF38
:1063200034C0E9FF35C0EAFFD6DAC5DA0C0EDB6A05
:106330000D0EDB6A060EDB5005E1010EF36E050E55
:10634000F3CFDBFF150EDB6A160EDB6AD950370F71
:10635000326E000EDA20336E390E32C0DBFF3A0E99
:1063600033C0DBFF380EDB6A080EDB6A0A0EAEDADA
:10637000DF50780A12E0200A10E0280A0CE0200A18
:106380000AE03F0A06E00D0A02E0200A08E1020ED8
:1063900005D0080E03D0080EDF26100E97DA030E84
:1063A000DBBE02D0DB92DB94DB50800B24E08ADA88
:1063B000D890030EEB50000A08E6000EEE5C000ECB
:1063C000EE58000EEE58000EEE5815E213DA29686A
:1063D0002A682B682C68EEEC3BF00A0E20C0DBFF2D
:1063E0000B0E21C0DBFF0C0E22C0DBFF0D0E23C005
:1063F000DBFF2D0E08D0030EDBA202D02B0E03D044
:10640000DBA408D0200EF36E170EF3CFDBFF150EC2
:10641000DB2A02D0170EDB6A050EDB5003E1B7D989
:1064200001E189D0CE0E326E790E336E000E346EDD
:10643000070EDBCF35F0366A376A386A35C029F087
:1064400036C02AF037C02BF038C02CF0D3D97BEC03
:106450003CF032502024F36E33502120F46E34503F
:106460002220F86EF4CFF7FFF3CFF6FF0800090EF5
:10647000F5CFDBFF580EDF5C0FE1610EF36E090E06
:106480007BD90AE3200E326E090EDBCFE7FF3250D4
:10649000E75E090EE7CFDBFF070EDBCF32F0336A92
:1064A000346A356A0FDA32C029F033C02AF034C0BA
:1064B0002BF035C02CF0EECF24F0EECF25F0EECF50
:1064C00026F0EFCF27F07BEC3CF027C0EDFF26C095
:1064D000EDFF25C0EDFF24C0EFFF390EDBCFE9FF54
:1064E000DB063A0EDBCFEAFF01E2DB06090EDBCF6B
:1064F000EFFF150EDB2A4BD995E1030EDBA61DD06D
:106500006F0EDF5C06E1C1D918E3150EDB285BDAFC
:1065100014D0780EDF5C09E0580EDF5C06E0620EF6
:10652000DF5C03E0420EDF5C08E1020EF36E160E44
:10653000F3CFDBFF02D0150EDB6A030EDB50100B2E
:106540000EE0040EDBCF32F0050EDB50D880325463
:1065500006E2060EDB5003E1040EDB5034DA95D977
:106560000AE2050EDBCFE7FF150EDB50E75E050EF6
:10657000E7CFDBFF02D0050EDB6A040EDBCF32F083
:10658000160E45D9D880325414E2160EDBCFE6FF42
:10659000150EDBCFE6FF040EDBCFE6FF050EDB506A
:1065A000E552E75CE552D880E754E552D880E754DD
:1065B0005FD9030EDB50010B0BE1080EDB5008E046
:1065C000B2D801E08DD0080EDB50BED8080EDB6AD1
:1065D000170EDB5007E088D9170EF1D903E1331C01
:1065E00001E17ED0160EDB5016E07ED9300EE66E4D
:1065F0009FD802E1331C74E077D9DFCFE6FF6DEC62
:106600003BF0E552E552E552F4CF33F00001F31CC4
:1066100002E1331C65E0050EDBCF32F0160EDB50D5
:10662000D880325409E2050EDBCFE7FF160EDB50AF
:10663000E75E050EE7CFDBFF300EE66E050ECBD929
:106640004FE1390EDB2ADBCFE9FF3A0E01E3DB2A0B
:10665000DBCFEAFF090EEFCFDBFFDB500EE044D9C2
:10666000090EADD902E1331C3BE0390EDB2ADBCF4A
:10667000E9FF3A0EEDE3DB2AEBD755D831E1160EF0
:10668000DBCFE6FF080EC3D8E552E7245DD82ED055
:10669000070EDB50030A1CE0010A14E0030A07E0BE
:1066A0007BD9DBCFEEFF020EDBCFEDFF1FD0F5D89D
:1066B000376A35AE02D0366837682CD8BCD837C0B8
:1066C000EEFF14D0EAD835BE366824D8B4D80ED040
:1066D00063D9DBCFEFFF0AD07BD905E1331C03E19F
:1066E000F368F46810D0FCD801E3DB2A79D915EF00
:1066F0002FF0010EDBCF32F0020EDBCF33F032C0D1
:10670000F3FF33C0F4FF3B0EE15C02E2E16AE552C5
:10671000E16ECBD029D9020E7BEF34F061D90800AD
:10672000F550DF6E1200200EE66E080EEBEF34F02F
:106730006DEC3BF0E552E552E552F3CF32F0F4CF89
:1067400033F00001F31C1200326E336AD950010F8E
:106750004DD93250EE263350ED221200365E000E37
:10676000375AF70E36C0DBFFF80E37C0DBFF36C0F6
:10677000E9FF37C0EAFF1200DBCFF4FFF350F45C0F
:106780001200DB50E76E040EE7CFDBFF12000A0EAB
:10679000DBCF32F00B0EDBCF33F00C0EDBCF34F05F
:1067A0000D0EDBCF35F0325033103410351012009F
:1067B000130EEECFDBFF140EEDCFDBFF130EDBCF9E
:1067C00032F0140EDBCF33F00001800E33141200D0
:1067D000F70EDBCF36F0F80EDBCF37F01200050EE8
:1067E000DB50E66ED950130F01D9E552E750EE6E3B
:1067F000ED6A12000A0EDBCF24F00B0EDBCF25F082
:106800000C0EDBCF26F00D0EDBCF27F01200DBCF16
:10681000E6FF150EDBCFE6FF050EDB50E552E72461
:10682000E552E7241200DB50CED8010EF36E060EBF
:10683000F3CFDBFF1200EE50EFCFEAFFE96E34C07A
:10684000EEFF35C0EEFF36C0EEFF1200D9CFE6FFF7
:10685000DACFE6FFE1CFD9FFE2CFDAFF1200DFCFD8
:10686000E6FFE66A69EC3CF0E552E552F3501200AF
:10687000E76E080EE7CFDBFF1200EECF32F0EECF6F
:1068800033F0EFCF34F0356A1200050EDBCF32F073
:10689000150EDB50D88032541200010EDBCF34F0DD
:1068A000020EDBCF35F0366A1200E552E5CFDAFF93
:1068B000E7CFD9FF12000A0E32C0DBFF0B0E33C048
:1068C000DBFF1200D9500A0FF6EF34F0F36E070E1B
:1068D000F3CFDBFF1200EECF32F0EFCF33F0120038
:1068E000010EDB2A020E1200FC0EDBCFE6FFFD0ECE
:1068F000DBCFE6FF1200325E000E335AF70E32C0D5
:10690000DBFFF80E33C0DBFF32C0E9FF33C0EAFF24
:106910001200DA20EA6EEF2AEECFF6FF000EEF2229
:10692000EECFF7FFEF22EECFF8FF1200040EDBCF21
:10693000E6FF130EDB50E552E75C9ADFDB5004DF25
:10694000060EDB501200090EDB500A0DF350DF2457
:10695000D00FE76E090EE7CFDBFF8EEF33F0DB5091
:10696000F36E050EBCEF33F0F70EDBCF32F0F80E0E
:10697000DBCF33F01200DFCFE6FF98EF33F028DFF4
:10698000030EECDE3DEF34F0EAEC2EF0E552E5527A
:10699000E552E55200091200BDDEEE50EFCFEAFFEE
:1069A000E96E010E1200130EDB50F36E040EBCEF05
:1069B00033F0040EDB50F36E090EBCEF33F0DBCF87
:1069C000E6FF98EF33F0E76E050EE7CFDBFF12002E
:1069D0008BDFBBEF34F0DBCFE6FF86DFC4EF34F0B4
:1069E000D950F90FE96EFF0E89EF34F0E96E000E11
:0669F000DA20EA6E12003D
:0A69F6000D0130511F0B010801E0F4
:106A00004BD03051600BE842E842E842E842E842AD
:106A1000010801E041D0345103E0340501E03CD0ED
:106A20003151220A34E0030A27E0010A17E0210A63
:106A30000EE0010A01E030D00D01A40EDB6F0E0E56
:106A4000DC6F080EDF6FE06BDE81DE8F25D00D017D
:106A5000A40EDB6F0E0EDC6FDE8F1ED036CDE4FD94
:106A600037CDE5FD0D01800EE16F0E0EE26FE66B96
:106A7000E76BE86BE38F10D00D01800EDB6F0E0E1D
:106A8000DC6F070EDF6FE06BC10EDE6F05D032CD1D
:106A90009FFE0D01DE8F00D012000E01806B4B0EA9
:106AA000816F826B836B846B856B080E866F916B35
:106AB0001A0EE66E010EE66E56EC26F0E552E55231
