:020000040000FA
:060000006AEF22F012007D
:0600080004EF08F01200F5
:060018000CEF08F01200DD
:061000006AEF22F012006D
:061008008EEF1EF0120045
:06101800E1EF1EF01200E2
:06102A000200F444000086
:101030000001000085000000F2440000FD000000F7
:0410400002000000AA
:0C104400D9CFE6FFE1CFD9FFFE0EDB5054
:10105000020801E319D0020E146EFE0EDBCFE7FF8B
:101060001450E75EFE0EE7CFDBFF0000000000003B
:101070000000000000000000000000000000000070
:101080000000FE0EDB06F4E1E552E7CFD9FF1200C7
:10109000D9CFE6FFE1CFD9FF020EE126FE0EDB50ED
:1010A000040DF3CF14F0156A14BE156814C0DEFFEA
:1010B00015C0DDFFFE0EDB50040DF3CF14F0156AF2
:1010C00014BE156814C0DEFF15C0DDFFDECF14F0BE
:1010D000DDCF15F0153404E214500008000E15544D
:1010E00009E2FA0EE66EAEDFE552DF06010E01E21E
:1010F000DB06ECD7020EE15C02E2E16AE552E16E4A
:10110000E552E7CFD9FF1200D9CFE6FFE1CFD9FFF3
:10111000FF0EE76EFC0EDBCF14F0FD0EDBCF15F0FB
:10112000E7501416156A14C077F0FC0EDBCF14F0EC
:10113000FD0EDBCF15F015C014F0156A1450000138
:10114000786FFE0EDB50010B796F701D6F177751B2
:1011500070156F136E1D6D1778516E156D13721D1E
:1011600071177851719F100B01E0718F7851719D4B
:10117000200B01E0718D78517195400B01E0718574
:1011800078517193800B01E0718379517191010B5A
:1011900001E071816DC089FF6FC08AFF71C08BFF54
:1011A000E552E7CFD9FF1200D9CFE6FFE1CFD9FF53
:1011B00000017651751376C075F0FE0EDB50020A01
:1011C00008E0030A04E0010A01E005D004D07593A9
:1011D00002D0759100D0FD0EDB5002E1759501D073
:1011E0007585FC0EDB5002E06D9B01D06D8B75C0E8
:1011F0008DFF6DC089FFE552E7CFD9FF1200E66A87
:10120000010EE66EE66AD0DFE552E552E5521200C5
:10121000D9CFE6FFE1CFD9FF020EE126FA0EDB506F
:10122000DF6ED9CFE9FFDACFEAFFEF50800B01E0A4
:10123000010E146ED950010FE96EDACFEAFF145097
:10124000010BF36EFE0EEF14F310EF6ED9CFE9FF32
:10125000DACFEAFFEF50400B01E0010E146ED950D7
:10126000010FE96EDACFEAFF1450010BF36EF3467B
:10127000FD0EEF14F310EF6ED9CFE9FFDACFEAFFDE
:10128000EF50200B01E0010E146ED950010FE96EF2
:10129000DACFEAFF1450010BF36EF346F346FB0E70
:1012A000EF14F310EF6ED9CFE9FFDACFEAFFEF507A
:1012B000100B01E0010E146ED950010FE96EDACF68
:1012C000EAFF1450010BF36EF346F346F346F70EB4
:1012D000EF14F310EF6ED9CFE9FFDACFEAFFEF504A
:1012E000080B01E0010E146ED950010FE96EDACF40
:1012F000EAFF1450010BF36EF346F346F346F34650
:10130000EF0EEF14F310EF6ED9CFE9FFDACFEAFF5B
:10131000EF50040B01E0010E146ED950010FE96E7D
:10132000DACFEAFF1450010BF36EF346F346F346AF
:10133000F346F346DF0EEF14F310EF6ED9CFE9FF5B
:10134000DACFEAFFEF50020B01E0010E146ED95024
:10135000010FE96EDACFEAFF1450010BF36EF3468A
:10136000F346F346F346F346F346BF0EEF14F3108D
:10137000EF6ED9CFE9FFDACFEAFFEF50010B146E21
:10138000D950010FE96EDACFEAFF1450010BF36E6A
:10139000F346F346F346F346F346F346F3467F0E31
:1013A000EF14F310EF6EFB0EDBCFE6FFFC0EDBCF8E
:1013B000E6FFFD0EDBCFE6FFA7DEE552E552E55284
:1013C000956A010EDB508C6E010EE66EE66EFE0E27
:1013D000DBCFE6FFE9DEE552E552E552140EE66E9C
:1013E00031DEE552E66A010EE66EE66ADDDEE552C2
:1013F000E552E5529568020EE15C02E2E16AE552CF
:10140000E16EE552E7CFD9FF1200D9CFE6FFE1CF79
:10141000D9FF020EE126FB0EDBCFE6FFFC0EDBCF91
:10142000E6FFFD0EDBCFE6FF6FDEE552E552E5524B
:101430009568E66AE66AFE0EDBCFE6FFB5DEE552AA
:10144000E552E5528350DF6EE66A010EE66EE66A0B
:10145000ABDEE552E552E552D9CFE9FFDACFEAFF3C
:10146000EF50800B01E0010E146ED950010FE96EB0
:10147000DACFEAFF1450010BF36EFE0EEF14F310F7
:10148000EF6ED9CFE9FFDACFEAFFEF50400B01E072
:10149000010E146ED950010FE96EDACFEAFF145035
:1014A000010BF36EF346FD0EEF14F310EF6ED9CF80
:1014B000E9FFDACFEAFFEF50200B01E0010E146ED6
:1014C000D950010FE96EDACFEAFF1450010BF36E29
:1014D000F346F346FB0EEF14F310EF6ED9CFE9FF9E
:1014E000DACFEAFFEF50100B01E0010E146ED95075
:1014F000010FE96EDACFEAFF1450010BF36EF346E9
:10150000F346F346F70EEF14F310EF6ED9CFE9FF71
:10151000DACFEAFFEF50080B01E0010E146ED9504C
:10152000010FE96EDACFEAFF1450010BF36EF346B8
:10153000F346F346F346EF0EEF14F310EF6ED9CFF8
:10154000E9FFDACFEAFFEF50040B01E0010E146E61
:10155000D950010FE96EDACFEAFF1450010BF36E98
:10156000F346F346F346F346F346DF0EEF14F3106B
:10157000EF6ED9CFE9FFDACFEAFFEF50020B01E0BF
:10158000010E146ED950010FE96EDACFEAFF145044
:10159000010BF36EF346F346F346F346F346F34688
:1015A000BF0EEF14F310EF6ED9CFE9FFDACFEAFFE9
:1015B000EF50010B146ED950010FE96EDACFEAFF3C
:1015C0001450010BF36EF346F346F346F346F3462D
:1015D000F346F3467F0EEF14F310EF6E010EDB506F
:1015E000146E020EE15C03E200D0E16AE552E16EA6
:1015F0001450E552E7CFD9FF1200D9CFE6FFE1CF73
:10160000D9FF020EE1269568E66AE66AFE0EDBCF98
:10161000E6FFCADDE552E552E5528350DF6EE66A29
:10162000010EE66EE66AC0DDE552E552E552D9CF1D
:10163000E9FFDACFEAFFEF50800B01E0010E146EF4
:10164000D950010FE96EDACFEAFF1450010BF36EA7
:10165000FE0EEF14F310EF6ED9CFE9FFDACFEAFFF9
:10166000EF50400B01E0010E146ED950010FE96EEE
:10167000DACFEAFF1450010BF36EF346FD0EEF14C0
:10168000F310EF6ED9CFE9FFDACFEAFFEF50200B6E
:1016900001E0010E146ED950010FE96EDACFEAFFB6
:1016A0001450010BF36EF346F346FB0EEF14F310E8
:1016B000EF6ED9CFE9FFDACFEAFFEF50100B01E070
:1016C000010E146ED950010FE96EDACFEAFF145003
:1016D000010BF36EF346F346F346F70EEF14F310E7
:1016E000EF6ED9CFE9FFDACFEAFFEF50080B01E048
:1016F000010E146ED950010FE96EDACFEAFF1450D3
:10170000010BF36EF346F346F346F346EF0EEF1488
:10171000F310EF6ED9CFE9FFDACFEAFFEF50040BF9
:1017200001E0010E146ED950010FE96EDACFEAFF25
:101730001450010BF36EF346F346F346F346F346BB
:10174000DF0EEF14F310EF6ED9CFE9FFDACFEAFF27
:10175000EF50020B01E0010E146ED950010FE96E3B
:10176000DACFEAFF1450010BF36EF346F346F3466B
:10177000F346F346F346BF0EEF14F310EF6ED9CFE6
:10178000E9FFDACFEAFFEF50010B146ED950010FD9
:10179000E96EDACFEAFF1450010BF36EF346F3461D
:1017A000F346F346F346F346F3467F0EEF14F31089
:1017B000EF6E010EDB50146E020EE15C03E200D00E
:1017C000E16AE552E16E1450E552E7CFD9FF12000D
:1017D000D9CFE6FFE1CFD9FF020EE126DE6ADD6A4E
:1017E000AA0EE66E550EE66EE66EE66AFE0EDBCFDC
:1017F000E6FF0EDD146E050EE15E1450550EE66E2A
:10180000AA0EE66E2A0EE66EE66AFE0EDBCFE6FF55
:10181000FFDC146E050EE15E1450900EE66E550E60
:10182000E66EE66EE66AFE0EDBCFE6FFF1DC146ED6
:10183000050EE15E1450140EE66E04DCE552000E57
:10184000E66EE66AE66AFE0EDBCFE6FFDEDDE55217
:10185000E552E552E55200017B6F010EE66EE66A45
:10186000E66AFE0EDBCFE6FFD0DDE552E552E5523B
:10187000E55200017C6FF00EE66E340EE66E120E3D
:10188000E66EE66AFE0EDBCFE6FFC2DC146E050EE6
:10189000E15E1450140EE66E22EC08F0E552DECF45
:1018A00014F0DDCF15F014C0F3FF15C0F4FF020EE5
:1018B000E15C03E200D0E16AE552E16EE552E7CF78
:1018C000D9FF1200D9CFE6FFE1CFD9FFAA0EE66E0D
:1018D000550EE66EE66EE66AFE0EDBCFE6FF98DC9E
:1018E000146E050EE15E1450550EE66EAA0EE66EFD
:1018F0002A0EE66EE66AFE0EDBCFE6FF89DC146E8A
:10190000050EE15E1450800EE66E550EE66EE66E34
:10191000E66AFE0EDBCFE6FF7BDC146E050EE15EB1
:101920001450AA0EE66E550EE66EE66EE66AFE0EE0
:10193000DBCFE6FF6DDC146E050EE15E1450550E34
:10194000E66EAA0EE66E2A0EE66EE66AFE0EDBCFA5
:10195000E6FF5EDC146E050EE15E1450100EE66EBE
:10196000550EE66EE66EE66AFE0EDBCFE6FF50DC55
:10197000146E050EE15E1450960EE66E48EC08F00B
:10198000E552E552E7CFD9FF1200D9CFE6FFE1CF0C
:10199000D9FFAA0EE66E550EE66EE66EE66AFE0EFC
:1019A000DBCFE6FF35DC146E050EE15E1450550EFC
:1019B000E66EAA0EE66E2A0EE66EE66AFE0EDBCF35
:1019C000E6FF26DC146E050EE15E1450A00EE66EF6
:1019D000550EE66EE66EE66AFE0EDBCFE6FF18DC1D
:1019E000146E050EE15E1450FA0EDBCFE6FFFB0E1F
:1019F000DBCFE6FFFC0EDBCFE6FFFD0EDBCFE6FF25
:101A0000FE0EDBCFE6FF04DC146E050EE15E145023
:101A1000160EE66E22EC08F0E552E552E7CFD9FF4C
:101A20001200D9CFE6FFE1CFD9FFAA0EE66E550E20
:101A3000E66EE66EE66A010EE66E08EC09F0146EDC
:101A4000050EE15E1450AA0EE66E550EE66EE66EC9
:101A5000E66A020EE66E08EC09F0146E050EE15E11
:101A60001450550EE66EAA0EE66E2A0EE66EE66A73
:101A7000010EE66E08EC09F0146E050EE15E1450DE
:101A8000550EE66EAA0EE66E2A0EE66EE66A020EA7
:101A9000E66E08EC09F0146E050EE15E1450A00E1F
:101AA000E66E550EE66EE66EE66A010EE66E08EC30
:101AB00009F0146E050EE15E1450A00EE66E550E90
:101AC000E66EE66EE66A020EE66E08EC09F0146E4B
:101AD000050EE15E1450FB0EDBCFE6FFFC0EDBCF04
:101AE000E6FFFD0EDBCFE6FFFE0EDBCFE6FF010ECD
:101AF000E66E08EC09F0146E050EE15E1450FA0E65
:101B0000DBCFE6FFFC0EDBCFE6FFFD0EDBCFE6FF13
:101B1000FE0EDBCFE6FF020EE66E08EC09F0146E57
:101B2000050EE15E1450160EE66E22EC08F0E5524A
:101B3000E552E7CFD9FF1200010EE66EC3DEE55293
:101B4000020EE66EBFDEE552650EE66ED2EC11F0D7
:101B5000E5521200770EE66ED2EC11F0E552310E2E
:101B6000E66ED2EC11F0E5521200D9CFE6FFE1CFDC
:101B7000D9FF050EE126DF6A010EDB6A020EDB6A81
:101B80000001666B676B686B6851010851E3666B17
:101B9000676B040EDB6A66511F0B23E16ED9D950C7
:101BA000040FE66E000EDA20E66EB5DBE552E55274
:101BB000146E156A14BE1568010E14C0DBFF020E08
:101BC00015C0DBFFD950010FE96EDACFEAFFEE5006
:101BD000ED1007E0040EDB50DF6E210EDF5C01E14B
:101BE00020D066C0E6FF67C0E6FF68C0E6FF010ED2
:101BF000E66E0BDCE552E552E552E552E66EE6D8BC
:101C0000E552020EE66EF9DCE552E66EDFD8E552EB
:101C10000001662B000E67236651671101E101D0B8
:101C2000B8D7210EDF5C01E103D00001682BACD7EF
:101C3000050EE15C02E2E16AE552E16EE552E7CFB2
:101C4000D9FF1200D9CFE6FFE1CFD9FF040EE1267C
:101C5000DF6A010EDB6A020EDB6A0001666B676BEE
:101C6000686B6851010828E3666B676B66C0E6FF26
:101C700067C0E6FF68C0E6FF010EE66E05EC0AF0FD
:101C8000E552E552E552E552E66E6AD8E552020E9B
:101C9000E66EB3DCE552E66E63D8E5520001662BD2
:101CA000000E67236651671104E1210EDF5C02E13B
:101CB00003D0DCD7682BD5D7040EE15C02E2E16AE1
:101CC000E552E16EE552E7CFD9FF1200D9CFE6FF2A
:101CD000E1CFD9FF050EE126020EDB6A030EDB6AB7
:101CE0000001666B676B686B685101082FE345D88C
:101CF000DF6E43D8E76E010EE7CFDBFFDBCFE6FFF9
:101D0000DFCFE6FF66C0E6FF67C0E6FF68C0E6FF1C
:101D100088DE146E050EE15E1450010EE66E6DDC79
:101D2000E552E66E1DD8E552020EE66E66DCE5521F
:101D3000E66E16D8E5526BDB0001662B000E6723BA
:101D40006651671102E1682BCFD7D1D7050EE15C50
:101D500002E2E16AE552E16EE552E7CFD9FF1200F7
:101D6000D9CFE6FFE1CFD9FFFE0EDBCFE6FF1ADBCE
:101D7000E552E552E7CFD9FF1200D9CFE6FFE1CF18
:101D8000D9FF050EE126DE6ADD6AD950020FE66E44
:101D9000000EDA20E66EBFDAE552E552E76E040E79
:101DA000E7CFDBFFE1EC1DF0040EDB50EEE0020EAE
:101DB000DB50146E050EE15C03E200D0E16AE552EF
:101DC000E16E1450E552E7CFD9FF1200D9CFE6FFFC
:101DD000E1CFD9FF030EE126FE0EDB380F0BE76ED5
:101DE000020EE7CFDBFFDBCF14F00A0EE76E14180C
:101DF000E8AE02D0E73402D0E750145C05E2020EF0
:101E0000DB50300FDF6E04D0020EDB50570FDF6E59
:101E1000FE0EDB500F0BE76E020EE7CFDBFFDBCFD2
:101E200014F00A0EE76E1418E8AE02D0E73402D0C0
:101E3000E750145C08E2020EDB50300FE76E010E33
:101E4000E7CFDBFF07D0020EDB50570FE76E010E26
:101E5000E7CFDBFFDFCFE6FFA5DAE552010EDBCFF0
:101E6000E6FFA0DAE552030EE15C02E2E16AE55228
:101E7000E16EE552E7CFD9FF12000D0EE66E92DA61
:101E8000E5520A0EE66E8EDAE5521200D9CFE6FF71
:101E9000E1CFD9FF020EE126DE6ADD6AFD0EDBCF5F
:101EA00014F0FE0EDBCF15F0DE501424E96EDD5089
:101EB0001520EA6EEF5015E0FD0EDBCF14F0FE0E9C
:101EC000DBCF15F0DE501424E96EDD501520EA6EEC
:101ED000EF50E66E67DAE552DF2A010E01E3DB2AF6
:101EE000DDD795DA020EE15C02E2E16AE552E16ECD
:101EF000E552E7CFD9FF1200D9CFE6FFE1CFD9FFF6
:101F0000020EE126DE6ADD6AFD0EDBCF14F0FE0E66
:101F1000DBCF15F0DE501424E96EDD501520EA6E9B
:101F2000EF5015E0FD0EDBCF14F0FE0EDBCF15F009
:101F3000DE501424E96EDD501520EA6EEF50E66E97
:101F400031DAE552DF2A010E01E3DB2ADDD70D0E7F
:101F5000E66E28DAE5520A0EE66E24DAE55257DA22
:101F6000020EE15C02E2E16AE552E16EE552E7CF82
:101F7000D9FF1200D9CFE6FFE1CFD9FF030EE1264A
:101F8000000EE66E010EE66E81DFE552E552D95095
:101F9000020FE66E000EDA20E66EBDD9E552E5527C
:101FA000146E156A14BE156814C0DEFF15C0DDFF7F
:101FB000D9CFE9FFDACFEAFFEE50ED10E8E05DDFC0
:101FC00026DA030EE15C02E2E16AE552E16EE552D7
:101FD000E7CFD9FF120000016D6B0F0E6E6F6F6BB4
:101FE0007069716B726B736B7469756B070E766FCA
:101FF000776B786B796B7A6BC00E926E6DC089FFD0
:10200000936A6FC08AFF946A71C08BFF956873C032
:102010008CFFF80E966E75C08DFF0F0148690F0E8C
:10202000496F1200D9CFE6FFE1CFD9FF020EE126BA
:10203000DF6A0001606BCFDF0F0EE66E010EE66E09
:102040005BDFE552E552240EE66E010EE66E54DFCC
:10205000E552E552DCD991DEE76E010EE7CFDBFFFA
:10206000DB504EE0010EDB50500A48E0200A44E00D
:10207000350A40E00C0A17E01F0A13E0120A07E0D5
:10208000FCDE3F0EE66E6CDEE552F7DE39D0F5DEA3
:10209000490EE66E010EE66E2FDFE552E5523BD8A3
:1020A0002FD058DD2DD0010EE66EE8EC0BF0E55296
:1020B000F3CF62F0F4CF63F07BC0E6FF87DEE5523A
:1020C0007CC0E6FF83DEE5522E0EE66E49DEE55269
:1020D000020EE66EE8EC0BF0E552F3CF64F0F4CFBD
:1020E00065F07BC0E6FF72DEE5527CC0E6FF6EDE87
:1020F000E55206D021DD04D0A5DD02D0E7DD00D019
:10210000A9D7020EE15C02E2E16AE552E16EE55216
:10211000E7CFD9FF1200D9CFE6FFE1CFD9FF040EF8
:10212000E126DF6A580EDF5C01E1EBD070D925DED5
:10213000DF6EDF50640A01E1E1D0200A01E1D5D071
:10214000050A63E0700A4CE0010A36E07F0A21E0EC
:10215000180A0BE00F0A01E0D3D0540EE66E010E10
:10216000E66ECADEE552E552CBD0010EE66EE66EB3
:10217000E66AD4EC08F0E552E552E552630EE66EED
:10218000010EE66E83DEE552E552F4DEFFEC08F068
:10219000B7D0E66AE66AE66AD4EC08F0E552E552A2
:1021A000E5525F0EE66E010EE66EA6DEE552E552E2
:1021B000E1DEFFEC08F0A4D0E66A010EE66EE66E02
:1021C000D4EC08F0E552E552E552670EE66E010EDA
:1021D000E66E92DEE552E552CDDEFFEC08F090D0DF
:1021E000E66A010EE66E020EE66ED4EC08F0E552E9
:1021F000E552E5526B0EE66E010EE66E7DDEE552AF
:10220000E552B8DEFFEC08F07BD0010EF36E020E53
:10221000F3CFDBFF030EDB6A010EDB6ADBCF14F0CA
:10222000100EE76E1418E8AE02D0E73402D0E75083
:10223000145C49E2020EDBCFE6FF030EDBCFE6FFC4
:10224000E66A84EC08F0E552E552E5526F0EE66E60
:10225000010EE66E51DEE552E552020EDBCF14F0C0
:10226000030EDBCF15F015C014F0156A1450E66E9E
:10227000ADDDE552FF0EE76E020EDBCF14F0030E6C
:10228000DBCF15F0E7501416156A1450E66E9EDD8C
:10229000E552800EE66E010EE66E2EDEE552E55248
:1022A00069DE020EDBCF14F0030EDBCF15F0D89001
:1022B00014361536020E14C0DBFF030E15C0DBFF0B
:1022C000010EDB2AABD7000EE66EE66A010EE66E63
:1022D00084EC08F0E552E552E552750EE66E010E0B
:1022E000E66E0ADEE552E5520BD0956A550E8C6E0D
:1022F00041DEAA0E8C6E3EDE956802D036DC00D040
:1023000011D7040EE15C02E2E16AE552E16EE552AA
:10231000E7CFD9FF1200D9CFE6FFE1CFD9FFE652D0
:10232000DF6A01018251E76E8319E8AE02D0E7341B
:1023300002D0E750835D0EE3400EE66E7D0EE66E42
:10234000000EE66ED0EC1CF0E552E552E5520101BC
:10235000826F836B8251E76E8319E8AE02D0E73457
:1023600002D0E750835D17E283C1E9FFEA6AE9BE64
:10237000EA687D0EE926000EEA22EF50E66EFD0EB9
:10238000DBCFE9FFFE0EDBCFEAFFE552E750EF6E51
:10239000832B010EDF6EDF5000D0E552E552E7CF10
:1023A000D9FF1200D9CFE6FFE1CFD9FF400E0101DE
:1023B000E76E8419E8AE02D0E73402D0E750845DBE
:1023C00015E30E01925103E0E1EC1DF0FAD784C150
:1023D000E6FFBD0EE66E000EE66E31EC1DF0E55236
:1023E000E552E552E1EC1DF00101846B8451842B30
:1023F000E96EEA6AE9BEEA68BD0EE926000EEA2245
:10240000FE0EDBCFEFFFE552E7CFD9FF120001014F
:10241000845115E00E01925103E0E1EC1DF0FAD772
:1024200084C1E6FFBD0EE66E000EE66E31EC1DF0D7
:10243000E552E552E552E1EC1DF00101846B12001A
:10244000D9CFE6FFE1CFD9FFE652A098636A626A6E
:102450000F01266B020EE66EE66AE66A270EE66E4E
:102460000F0EE66E01EC22F0146E050EE15E1450C4
:102470000F01160E396F9F0E376F7B0E366FDF6AB6
:10248000DF50146E156A0C0E145C000E155810E225
:10249000DF50040DF3CFE9FFF4CFEAFF000EE92689
:1024A0000D0EEA22EE6AEE6AEE6AEE6ADF2AE8D7DD
:1024B000658C0F01386B6598659C62A607D06296A3
:1024C0000D01DE6BE36BE46BE56BF7D70D01010EDD
:1024D000F86FF96FFA6BFB6BEC6BDF6A030EDF5C76
:1024E00026E2EA6ADF34FE0BEA36E96ED30EE9260D
:1024F0000D0EEA22EE6AED6AEA6ADF34FE0BEA3676
:10250000E96ECD0EE9260D0EEA22EE6AED6ADF5085
:10251000EA6AF00FE96E0D0EEA22EF6ADF50EA6A0E
:10252000F30FE96E0D0EEA22EF6ADF2AD7D70D010D
:10253000080ED36F0D0ED46F0F01160E266F0D010E
:10254000300E026F0D0E036F080E016F840E006FC8
:102550000D01C66BC56BE552E552E7CFD9FF1200FE
:10256000D9CFE6FFE1CFD9FFE6520D01C50509E15C
:1025700065BA07D0626A0F01368136890D01020EF5
:10258000C56F6250040B07E00F013651040B03E0E6
:10259000629426EC19F065A202D0A1989DD06250F9
:1025A000010B0AE00F013651010B06E049DFA0885C
:1025B0000D01040EC56F62906250100B07E00F0111
:1025C0003651100B03E010EC19F0629862AC1AD08F
:1025D0000F0136AD0FD0010EE66EE66A000EE66E14
:1025E000E66A730EE66EE66AB3EC20F0146E060E31
:1025F000E15E1450629C0D01F65101E0F607F651C0
:1026000001E110DA6250200B06E00F013651200B79
:1026100002E0F6EC18F06250020B14E00F013651A4
:10262000020B10E0010EE66EE66A000EE66EE66A48
:10263000E6687F0EE66EB3EC20F0146E060EE15EE7
:102640001450636A040E0D01E76EC519E8AE02D09E
:10265000E73402D0E750C55D02E2A1983DD00F01FA
:1026600036A739D0DF6A040EDF5C35E262A632D0CD
:1026700064CFEDFD0D01ED51780BE842E842E842F0
:10268000EE6F6296EDB508D0EE51EA6AF30FE96E8F
:102690000D0EEA22EF7007D0EE51EA6AF00FE96EF4
:1026A0000D0EEA22EF70EE5103E13EEC19F010D06E
:1026B000000EE66EE66AED0EE66E0D0EE66E720E2A
:1026C000E66EE66AB3EC20F0146E060EE15E14507E
:1026D000DF2AC9D700D0A198E552E552E7CFD9FF4C
:1026E0001200D9CFE6FFE1CFD9FF020EE126FD0EA1
:1026F000DBA407D0E66AFE0EDBCFE6FF24DAE55264
:10270000E552FD0EDBA208D0010EE66EFE0EDBCF19
:10271000E6FF19DAE552E552FE0EDB50156A260F88
:10272000146E0F0E152214C0DEFF15C0DDFFDECFC4
:10273000E9FFDDCFEAFFFD0EDBCFEFFF020EE15C2C
:1027400002E2E16AE552E16EE552E7CFD9FF1200FD
:10275000D9CFE6FFE1CFD9FF020EE126FD0EDB5017
:102760000FE0FE0EEA6ADB34FE0BEA36E96ED30EAA
:10277000E9260D0EEA22EECFDEFFEDCFDDFF0ED013
:10278000FE0EEA6ADB34FE0BEA36E96ECD0EE92670
:102790000D0EEA22EECFDEFFEDCFDDFFD9CFE9FF50
:1027A000DACFEAFFEE50ED1003E1F36AF46A49D0A4
:1027B000DECFE9FFDDCFEAFF020EE926000EEA22B6
:1027C000FB0EDBCFEEFFFC0EDBCFEDFFDECFE9FF34
:1027D000DDCFEAFFEE52FA0EDBCFEFFF400E146EB4
:1027E000DECFE9FFDDCFEAFF1450EF16880E146E3E
:1027F000DECFE9FFDDCFEAFF1450EF12FD0EDB5014
:102800000CE0FE0EEA6ADB34FE0BEA36E96ED30E0C
:10281000E9260D0EEA22EF740BD0FE0EEA6ADB34D5
:10282000FE0BEA36E96ECD0EE9260D0EEA22EF74B4
:10283000DECF14F0DDCF15F014C0F3FF15C0F4FFA8
:1028400000D0020EE15C02E2E16AE552E16EE5527F
:10285000E7CFD9FF1200D9CFE6FFE1CFD9FF020EB3
:10286000E126FE0EDB5020E1CBCDE9FFCCCDEAFF27
:10287000EE52080EEF6ECBCDE9FFCCCDEAFF020E93
:10288000E926000EEA22300EEE6E0D0EED6ECBCD77
:10289000E9FFCCCDEAFF8C0EEF6ED3CDE9FFD4CDAE
:1028A000EAFF840EEF6E3DD0FD0EDB50E824166E7D
:1028B000FE0EDB50040DF3501624040DF3CF14F07C
:1028C000F4CF15F0000E14260D0E152214C0DEFFF5
:1028D00015C0DDFF840E146EDECFE9FFDDCFEAFF09
:1028E0001450EF12FD0EDB50E824166EFE0EDB5086
:1028F000040DF3501624010F040DF3CF14F0F4CFA0
:1029000015F0000E14260D0E152214C0DEFF15C0A2
:10291000DDFF840E146EDECFE9FFDDCFEAFF145039
:10292000EF12020EE15C02E2E16AE552E16EE5526D
:10293000E7CFD9FF1200D9CFE6FFE1CFD9FF65A8D5
:102940004ED0FE0EEA6ADB34FE0BEA36E96ED30E99
:10295000E9260D0EEA22EE50EFCFEAFFE96E400EB7
:10296000EE16EE6AEE6AEE6AFE0EEA6ADB34FE0BE3
:10297000EA36E96ED30EE9260D0EEA22EE50EFCFCD
:10298000EAFFE96EEE7CFE0EEA6ADB34FE0BEA3605
:10299000E96ED30EE9260D0EEA22EF74400E146E96
:1029A000FE0EEA6ADB34FE0BEA36E96ED30EE92648
:1029B0000D0EEA22EE50EFCFEAFFE96E1450EF164B
:1029C000FE0EEA6ADB34FE0BEA36E96ED30EE92628
:1029D0000D0EEA22EE50EFCFEAFFE96EEF7CE552F2
:1029E000E7CFD9FF1200656A0F01366B0D01C56B89
:1029F00000D012000D01C55114E1656A0F01366B5C
:102A0000160E396F9F0E376F7B0E366FD08EA288F1
:102A1000A088F28E65B602D06586FCD70D01010E46
:102A2000C56F12000D01F8514DE1010EF86FF9511B
:102A300049E1010EF96F020EDA5D0DE1D3CDE9FF38
:102A4000D4CDEAFFEE52EF6AD3CDE9FFD4CDEAFF51
:102A5000C80EEF6E37D0DA0535E1EF6BC9CDE9FF6F
:102A6000CACDEAFFEE52080EEF6EC9CDE9FFCACD1E
:102A7000EAFF020EE926000EEA22300EEE6E0D0E7F
:102A8000ED6EC9CDE9FFCACDEAFF840EEF6E010EEF
:102A9000EF6FCBCDE9FFCCCDEAFFEE52080EEF6E23
:102AA000CBCDE9FFCCCDEAFF020EE926000EEA22EB
:102AB000300EEE6E0D0EED6ECBCDE9FFCCCDEAFF04
:102AC000800EEF6E12000D01FA6BFB6B020EDA5DE9
:102AD0001AE1CBCDE9FFCCCDEAFFEE52080EEF6E46
:102AE000CBCDE9FFCCCDEAFF020EE926000EEA22AB
:102AF000380EEE6E0D0EED6ECBCDE9FFCCCDEAFFBC
:102B0000C80EEF6E1FD0DF510D01365D0D01E05193
:102B10000D01375904E236CDDFFD37CDE0FDD1D8C8
:102B2000D3CDE9FFD4CDEAFF020EE926000EEA225A
:102B3000380EEE6E0D0EED6ED3CDE9FFD4CDEAFF6B
:102B4000C80EEF6E1200D9CFE6FFE1CFD9FF020E1B
:102B5000E126000EDE6E0D0EDD6EFD0EDB50E8246C
:102B6000166EFE0EDB50040DF3501624040DF3CF49
:102B700014F0F4CF15F0D9CFE9FFDACFEAFF145003
:102B8000EE261550ED22DECFE9FFDDCFEAFFEF9E06
:102B9000FD0EDB500FE1FE0EEA6ADB34FE0BEA3677
:102BA000E96ECD0EE9260D0EEA22DECFEEFFDDCF77
:102BB000EDFF0ED0FE0EEA6ADB34FE0BEA36E96E5C
:102BC000D30EE9260D0EEA22DECFEEFFDDCFEDFFBC
:102BD000DECFE9FFDDCFEAFFEF9CDECFE9FFDDCFFF
:102BE000EAFF040EE926000EEA22EF8C020EE15CF9
:102BF00002E2E16AE552E16EE552E7CFD9FF120049
:102C000065980D01DEBF2BD0E3AF09D0020EDA6F5D
:102C1000FB5101E158DF0D01F96BF86B1FD0CBCDF3
:102C2000E9FFCCCDEAFFEE52080EEF6ECBCDE9FF07
:102C3000CCCDEAFF020EE926000EEA22300EEE6E3F
:102C40000D0EED6ECBCDE9FFCCCDEAFF8C0EEF6E15
:102C5000D3CDE9FFD4CDEAFF840EEF6E31D00D0164
:102C600030AF0DD00D01010EDA6FFA5101E12BDF0B
:102C70000D01F96BF86BF75101E1D4DE21D00D01A4
:102C8000020EDA6FCBCDE9FFCCCDEAFFEE52080E93
:102C9000EF6ECBCDE9FFCCCDEAFF020EE926000EA8
:102CA000EA22300EEE6E0D0EED6ECBCDE9FFCCCDEF
:102CB000EAFF840EEF6EF96BF86BF75101E1B2DEBB
:102CC0001200D9CFE6FFE1CFD9FFE652080EDF6E42
:102CD0000D01DF5D000EE0590BE2DFCDDFFFD951C2
:102CE00003E1010ED96F04D0D90502E1020ED96FBC
:102CF000DF50146E156A1450DF5DDF6F1550E05918
:102D0000E06FD3CDE9FFD4CDEAFFEE52DFCFEFFF86
:102D1000380EE96F0D0EEA6FDEB11CD0DF5019E0FE
:102D2000DBCDF6FFDB2BDCCDF7FF000EDC23DDCDAA
:102D3000F8FFDD230800F550E66EE9CDE9FFEACDA6
:102D4000EAFFE92B000EEA23E552E750EF6EDF06BB
:102D5000E5D717D0DF5015E0DBCDE9FFDCCDEAFF8A
:102D6000DB2B000EDC23EF50E66EE9CDE9FFEACD68
:102D7000EAFFE92B000EEA23E552E750EF6EDF068B
:102D8000E9D7E552E552E7CFD9FF1200D9CFE6FFE8
:102D9000E1CFD9FF020EE126C9CDE9FFCACDEAFF96
:102DA000EE52EFCFDFFFDFCF14F014500D01E45DE2
:102DB000000EE55902E2E4CDDFFFDF50146E156A24
:102DC0001450E45DE46F1550E559E56F010EDB6AC0
:102DD000DF50F36E010EDBCFF4FFF350F45C16E22C
:102DE000010EDB50EA6A380FE96E0D0EEA22EF5051
:102DF000E66EE1CDE9FFE2CDEAFFE12B000EE22332
:102E0000E552E750EF6E010EDB2AE2D7000ED880C4
:102E1000E455000EE55528E2CBCDE9FFCCCDEAFF25
:102E2000EE52080EEF6ECBCDE9FFCCCDEAFF020EDD
:102E3000E926000EEA22380EEE6E0D0EED6EC9CDBB
:102E4000E9FFCACDEAFFEF50400B07E1CBCDE9FF28
:102E5000CCCDEAFFC80EEF6E06D0CBCDE9FFCCCDCE
:102E6000EAFF880EEF6E2BD0CBCDE9FFCCCDEAFF89
:102E7000EE52080EEF6ECBCDE9FFCCCDEAFF020E8D
:102E8000E926000EEA22300EEE6E0D0EED6ECBCD71
:102E9000E9FFCCCDEAFF840EEF6EE651E711E811B1
:102EA00009E007D0E8CDFBFFE7CDFAFF0D01E651C1
:102EB000F96EF8DF0D01E39FF75101E1B3DD020E7A
:102EC000E15C02E2E16AE552E16EE552E7CFD9FF4B
:102ED0001200D9CFE6FFE1CFD9FFE6520D01DE8F18
:102EE000020EE66EE66AE66A270EE66E0F0EE66EE4
:102EF00001EC22F0146E050EE15E1450300EE66E09
:102F0000E66AE66A000EE66E0D0EE66E01EC22F051
:102F1000146E050EE15E1450658CDF6A030EDF5CF3
:102F200010E2DF50EA6AF00FE96E0D0EEA22EF6A56
:102F3000DF50EA6AF30FE96E0D0EEA22EF6ADF2A2C
:102F4000EDD7020EE66EE66AE66AC70EE66E0D0E75
:102F5000E66E01EC22F0146E050EE15E1450659CE5
:102F60000D01080ED36F0D0ED46F000EC96F0D0E3C
:102F7000CA6FC9CDCBFDCACDCCFD32CDC6FDC65181
:102F800003E1100EC56F13D0010EE66EE66AC60EA1
:102F9000E66E0D0EE66E010EE66EE66AB3EC20F00C
:102FA000146E060EE15E14500D01200EC56FE55241
:102FB000E552E7CFD9FF1200800E0D01305D01E030
:102FC000ACD00D01C00EDE6F0D013351030A61E07C
:102FD000010A10E0030A03E00D01DE6B9ED00D0133
:102FE000040EDB6F420EDC6F000EDD6F120EDF6F22
:102FF000E06B93D0C50E146E420E156E000E166E69
:1030000032CD17F0186A196A030E0C6E0D6A0E6A3B
:1030100017C007F018C008F019C009F0B8EC21F08B
:1030200004C017F005C018F006C019F0145017249A
:10303000F36E15501820F46E16501920F86EF4CF68
:10304000F7FFF3CFF6FF0900F5CFDBFD0900F5CF61
:10305000DCFD0800F5CFDDFDDBCDF6FFDCCDF7FFB5
:10306000DDCDF8FF020EF626000EF722F82208004A
:10307000F5CFDFFDDBCDF6FFDCCDF7FFDDCDF8FFD3
:10308000030EF626000EF722F8220800F5CFE0FD29
:1030900044D0030E325D3EE2C80E146E420E156E31
:1030A000000E166E32CD17F0186A196A030E0C6EF8
:1030B0000D6A0E6A17C007F018C008F019C009F0B1
:1030C000B8EC21F004C017F005C018F006C019F0E4
:1030D00014501724F36E15501820F46E1650192052
:1030E000F86EF4CFF7FFF3CFF6FF0900F5CFDBFD65
:1030F0000900F5CFDCFD0800F5CFDDFDDBCDF6FFE7
:10310000DCCDF7FFDDCDF8FF0800F5500D01DF6FD6
:10311000E06B02D00D01DE6B00D01200D9CFE6FFCC
:10312000E1CFD9FF020EE1260D01386B396B30512A
:103130001F0B020A12E0030A0DE0010A01E042D06F
:103140000D01DE8F0D0138810D01EB0502E10D014E
:10315000388338D00D01DE8F35D00D01DE8F0D01A3
:1031600034BF10D034510F0BE96EEA6AD890E936BB
:10317000EA36CD0EE9260D0EEA22EECFDEFFEDCFC8
:10318000DDFF0FD034510F0BE96EEA6AD890E936B3
:10319000EA36D30EE9260D0EEA22EECFDEFFEDCFA2
:1031A000DDFFDECFE9FFDDCFEAFFEF50800B09E066
:1031B000DECFE9FFDDCFEAFFEF50040B02E0010EA6
:1031C000386F00D00D01DEAF07D0380EDB6F0D0E6B
:1031D000DC6FDE81020EDF6F020EE15C02E2E16A6B
:1031E000E552E16EE552E7CFD9FF12000F0126A1AB
:1031F00015D0C9CDE9FFCACDEAFFEF5080080DE137
:10320000D3CDE9FFD4CDEAFFEF50840806E1C9CD64
:10321000E9FFCACDEAFF8C0EEF6E2691629A12008A
:103220000F013685629865820D01010EEC6F000E6C
:10323000E66EE66AE66EE66A750EE66EE66AB3EC80
:1032400020F0146E060EE15E145012000D01EC6BBE
:10325000000EE66EE66AE66EE66A740EE66EE66AF2
:10326000B3EC20F0146E060EE15E145065920F016F
:10327000369562A402D06294FCD71200D9CFE6FF43
:10328000E1CFD9FFE6520D012D0EF66FFD0EED15C3
:1032900053E17E0EED15E8407F0B040DF3CFC9FD21
:1032A000F4CFCAFD000EC9270D0ECA23C9CDCBFD30
:1032B000CACDCCFDCB75C9CDE9FFCACDEAFFEF5031
:1032C0003C0BE842E8420D0835E1DF6A080EDF5C9E
:1032D00023E2C9CDE9FFCACDEAFF020EE926000EBE
:1032E000EA22EE50EFCFEAFFE96EEF50E66EDF50D4
:1032F000EA6A300FE96E0D0EEA22E552E750EF6EF2
:10330000C9CDE9FFCACDEAFF020EE926000EEA2286
:10331000EE2AEF22DF2ADAD7C9CDE9FFCACDEAFFCC
:10332000020EE926000EEA22300EEE6E0D0EED6E54
:103330000DD801D03AD805D0FD0EED15040801E1F5
:1033400059D8E552E552E7CFD9FF12000D01D96BEC
:10335000F76BFA6BFB6BEF6BDA6BD3CDE9FFD4CD78
:10336000EAFFEF9ED375D3CDE9FFD4CDEAFFEF9E00
:10337000D375CBCDE9FFCCCDEAFFEF9EDE6BDF6BE3
:10338000E06BE36BE46BE56B95D8000EE66EE66AE6
:10339000E66EE66A030EE66EE66AB3EC20F0146EA3
:1033A000060EE15E145000EF16F0020E0D01DA5D1C
:1033B00002E1ECDC1ED0DA6BEF511AE1CBCDE9FF74
:1033C000CCCDEAFFEE52080EEF6ECBCDE9FFCCCDAF
:1033D000EAFF020EE926000EEA22300EEE6E0D0E16
:1033E000ED6ECBCDE9FFCCCDEAFF8C0EEF6E01D0B8
:1033F000EF6B1200D9CFE6FFE1CFD9FFE652D3CD74
:10340000E9FFD4CDEAFFEF50400B01E0010EDF6E83
:103410000D01D375080EC55D0CE132CD38FF0F01EB
:10342000385104E00D01100EC56F03D00D01040EDC
:10343000C56FDA0528E1D3CDE9FFD4CDEAFF020E4E
:10344000E926000EEA22380EEE6E0D0EED6E39DC26
:10345000020E0D01D95D07E1D3CDE9FFD4CDEAFF1E
:10346000840EEF6E0FD0DF5007E1D3CDE9FFD4CD4E
:10347000EAFFC80EEF6E06D0D3CDE9FFD4CDEAFF48
:10348000880EEF6E12D0E3AF0FD0E651E711E811CE
:1034900009E007D0E8CDFBFFE7CDFAFF0D01E651CB
:1034A000F96EF8DF0D01E39FDA6BE552E552E7CFE5
:1034B000D9FF12000D013051600BE842E842E842AA
:1034C000E842E842000901E058D031510C0A54E0CA
:1034D0000B0A43E00C0A35E0010A26E00B0A22E061
:1034E000020A20E0030A1CE0080A10E0010A0CE0CE
:1034F0000F0A08E0030A01E03FD00D01DE8F080E3D
:10350000C56F3BD059DD39D0E4DC37D00D01C60E94
:10351000DB6F0D0EDC6FDE81010EDF6FDE8F2DD0D5
:10352000FDDD2BD02BD829D034510D01DB6FDC6BA6
:10353000C70EDB270D0EDC23DE81010EDF6FDE8F71
:103540001CD00D01DE8F0D013451EA6AC70FE96E00
:103550000D0EEA2232CDEFFF10D0000EE66EE66AC5
:10356000E66EE66A020EE66EE66AB3EC20F0146ED2
:10357000060EE15E145001D000D01200D9CFE6FF54
:10358000E1CFD9FF050EE1260D01320510E13051E2
:103590001F0B00090CE10D01DE8F030E0D01315DE3
:1035A00004E10D01010EEB6F02D00D01EB6B0D017B
:1035B000325101E020D130511F0B020801E01BD134
:1035C00034510F0B000901E116D134510F0B0208E1
:1035D00001E211D1200E0D01C55D01E00CD1DE8F9D
:1035E0000D0134BF1AD034510F0BE96EEA6AD8903E
:1035F000E936EA36CD0EE9260D0EEA22EECFDEFFE1
:10360000EDCFDDFF34510F0BEA6AF30FE96E0D0EBB
:10361000EA22020EEFCFDBFF19D034510F0BE96E17
:10362000EA6AD890E936EA36D30EE9260D0EEA2288
:10363000EECFDEFFEDCFDDFF34510F0BEA6AF00F66
:10364000E96E0D0EEA22020EEFCFDBFFD950020F1A
:10365000E96EDACFEAFFEF50010B03E1000EDF94D1
:1036600001D0DF8434BF10D034510F0BE96EEA6A09
:10367000D890E936EA36CD0EE9260D0EEA22DECFE5
:10368000EEFFDDCFEDFF0FD034510F0BE96EEA6A8C
:10369000D890E936EA36D30EE9260D0EEA22DECFBF
:1036A000EEFFDDCFEDFF030E315D23E1DECFE9FF5D
:1036B000DDCFEAFFEF50800B13E034BF09D0345167
:1036C0000F0BEA6AF30FE96E0D0EEA22EF8208D0C3
:1036D00034510F0BEA6AF00FE96E0D0EEA22EF8209
:1036E000840E146EDECFE9FFDDCFEAFF1450EF1237
:1036F00082D0DF74DECFE9FFDDCFEAFFEF50800B31
:103700001BE0DECFE9FFDDCFEAFFEF9EDECFE9FF72
:10371000DDCFEAFFEF8C020EE66EE66ADECFE6FF53
:10372000DDCFE6FF050EE66EE66AB3EC20F0146E20
:10373000060EE15E145005D0DECFE9FFDDCFEAFFD3
:10374000EF8CDF74D950020FE96EDACFEAFFEF5049
:10375000020B07E1DECFE9FFDDCFEAFFEF50800B80
:103760002DE00D0134BF09D034510F0BEA6AF30F7D
:10377000E96E0D0EEA22EF9208D034510F0BEA6A7F
:10378000F00FE96E0D0EEA22EF923B0E146EDECFC3
:10379000E9FFDDCFEAFF1450EF16020EE66EE66A8F
:1037A000DECFE6FFDDCFE6FF050EE66EE66AB3ECA0
:1037B00020F0146E060EE15E145008D03B0E146E1D
:1037C000DECFE9FFDDCFEAFF1450EF160D013451D3
:1037D0000F0B156A260F146E0F0E1522030E14C060
:1037E000DBFF040E15C0DBFF030EDBCFE9FF040E89
:1037F000DBCFEAFFEF90050EE15C02E2E16AE55201
:0A380000E16EE552E7CFD9FF120098
:06380A000D0130511F0BFF
:10381000010801E04BD03051600BE842E842E84239
:10382000E842E842010801E041D0345103E03405A8
:1038300001E03CD03151220A34E0030A27E0010ABA
:1038400017E0210A0EE0010A01E030D00D01A40EBC
:10385000DB6F0E0EDC6F080EDF6FE06BDE81DE8F3C
:1038600025D00D01A40EDB6F0E0EDC6FDE8F1ED097
:1038700036CDE4FD37CDE5FD0D01800EE16F0E0E76
:10388000E26FE66BE76BE86BE38F10D00D01800E03
:10389000DB6F0E0EDC6F070EDF6FE06BC10EDE6FAD
:1038A00005D032CD9FFE0D01DE8F00D012000E013B
:1038B000806B4B0E816F826B836B846B856B080E04
:1038C000866F916B1A0EE66E010EE66E71EC13F0C8
:1038D000E552E5521E0EE66E020EE66E71EC13F036
:1038E000E552E552400EE66E400EE66E0E0EE66EB6
:1038F000E66A020EE66EA8EC13F0146E050EE15EA9
:103900001450F3CF9BFEF4CF9CFE0E019D6B9E6B7B
:10391000926B1200D9CFE6FFE1CFD9FFFD0EDBCFCE
:1039200008F0FE0EDBCF09F0050E081801E1095082
:1039300002E0000E31D0FB0EDBCF14F0FC0EDBCF2B
:1039400015F00E019B51141802E19C51151813E15A
:10395000400EE66E400EE66E0E0EE66EE66A020E53
:10396000E66EA8EC13F0146E050EE15E1450F3CF72
:103970009BFEF4CF9CFEFB0EDBCF14F0FC0EDBCFE6
:1039800015F00E019D51141802E19E51151802E127
:10399000926B996B010E00D0E552E7CFD9FF120070
:1039A000D9CFE6FFE1CFD9FF0E01916B9B519C115E
:1039B00002E1000E08D09BCEE9FF9CCEEAFFEF505B
:1039C000800B01E0010E000945E1FC0EDBCF14F095
:1039D0009BCEE9FF9CCEEAFFEE52EF50D880145404
:1039E00008E29BCEE9FF9CCEEAFFEE52FC0EEFCF41
:1039F000DBFF916BFC0EDB50915D19E29151EA6A9D
:103A0000400FE96E0E0EEA22EF50E66E9151E76E1E
:103A1000FD0EDBCFE9FFFE0EDBCFEAFFE750E92624
:103A2000000EEA22E552E750EF6E912BE3D7400EED
:103A3000E66E400EE66E0E0EE66EE66A020EE66E6C
:103A4000A8EC13F0146E050EE15E1450F3CF9BFE4C
:103A5000F4CF9CFE0E01915100D0E552E7CFD9FF83
:103A60001200D9CFE6FFE1CFD9FFA0980E01925105
:103A70000CE1FD0EDBCF93FEFE0EDBCF94FEFC0EC1
:103A8000DBCF99FE010E9A6F926FA088E552E7CFC7
:103A9000D9FF1200D9CFE6FFE1CFD9FF030EE1260F
:103AA000A0980E01925102E0A0882FD0DF6AFD0E8F
:103AB000DBCF08F0FE0EDBCF09F0DE5208C0DEFFE0
:103AC00009C0DDFFDD52DF2ADF50146E156AFF0EDC
:103AD000141801E1155001E10BD0010EDBCFE9FF15
:103AE000DB2A020EDBCFEAFF01E3DB2AEF50EBE13A
:103AF000FD0EDBCF93FEFE0EDBCF94FEDFCF99FEF3
:103B00000E01010E9A6F926FA088030EE15C02E233
:103B1000E16AE552E16EE552E7CFD9FF1200D9CF55
:103B2000E6FFE1CFD9FF040EE126A0980E019251E5
:103B300002E0A0883CD0DF6AD950FC0FE96EFF0E8E
:103B4000DA20EA6E010EEECFDBFF020EEECFDBFFD6
:103B5000030EEECFDBFFDF2ADF50146E156AFF0E77
:103B6000141801E1155001E112D0D950010FE96E8E
:103B7000DACFEAFFEFCFF6FFEE2AEFCFF7FF000E26
:103B8000EE22EFCFF8FFEE220800F550E4E1FC0E44
:103B9000DBCF93FEFD0EDBCF94FEFE0EDBCF95FE5A
:103BA000DFCF99FE0E019A6B010E926FA088040E72
:103BB000E15C02E2E16AE552E16EE552E7CFD9FF4E
:103BC0001200D9CFE6FFE1CFD9FF020EE126A0987F
:103BD0000E019D519E1102E1000E08D09DCEE9FF1D
:103BE0009ECEEAFFEF50800B01E0010E000902E0DB
:103BF000A0888AD0030E925D01E1926B925102E19E
:103C0000A08882D0020E925D16E1E66A000EE66E92
:103C1000E66A010EE66E020EE66EA8EC13F0146E74
:103C2000050EE15E1450F3CF9DFEF4CF9EFE0E0113
:103C3000030E926F68D0920566E1400E146E156A0D
:103C40009951145C000E155803E2400EDF6E02D04D
:103C500099CEDFFFDF50995D996F000E966F0E0EC3
:103C6000976F010EDFCFDBFF9A511AE1010EDB5097
:103C700016E093CEF6FF94CEF7FF95CEF8FF08003E
:103C8000F55096CEE9FF97CEEAFFEF6E962B000E29
:103C90009723932B94239523010EDB06E7D715D0AA
:103CA000010EDB5012E093CEE9FF94CEEAFFEF5015
:103CB00096CEE9FF97CEEAFFEF6E962B000E972384
:103CC000932B9423010EDB06EBD7995108E1400EAC
:103CD000DF5C03E1020E926F02D0030E926FDFCF22
:103CE000E6FF000EE66E0E0EE66E010EE66E020EAA
:103CF000E66EA8EC13F0146E050EE15E1450F3CFDF
:103D00009DFEF4CF9EFEA088020EE15C02E2E16A15
:0C3D1000E552E16EE552E7CFD9FF12004A
:043D1C00DACFE4FF17
:103D2000E2CFDAFFE9CFE4FFEACFE4FFF6CFE4FF2A
:103D3000F7CFE4FFF8CFE4FFF5CFE4FFF3CFE4FFE4
:103D4000F4CFE4FFFACFE4FFFBCFE4FF00EE00F096
:103D5000140EE80403E3EECFE4FFFBD700EE14F00B
:103D6000060EE80403E3EECFE4FFFBD7E652B0EC27
:103D700012F0E55200EE19F0060EE80403E3E5CF79
:103D8000EDFFFBD700EE13F0140EE80403E3E5CFDC
:103D9000EDFFFBD7E5CFFBFFE5CFFAFFE5CFF4FF63
:103DA000E5CFF3FFE5CFF5FFE5CFF8FFE5CFF7FF70
:103DB000E5CFF6FFE5CFEAFFE5CFE9FFE5CFDAFF94
:103DC0001100D8CFE4FFE0CFE4FFE46EDACFE4FFE8
:103DD000E2CFDAFFE652E552E5CFDAFFE550E5CF74
:103DE000E0FFE5CFD8FF100008D80D01C55102E172
:103DF000FAEC14F037D8F9D71200D9CFE6FFE1CFAB
:103E0000D9FF020EE1260F0EC112580EDE6E020E11
:103E1000DD6E9B8CDFCF14F0DF06010EDBCF15F0DB
:103E200001E2DB061450151001E0F4D70F017F0EFC
:103E3000486FBF0E496F0CD820EC12F0020EE15C07
:103E400002E2E16AE552E16EE552E7CFD9FF1200E6
:103E50000D01C26BC16B010EC06FFC0E8D16961664
:103E600093841200D9CFE6FFE1CFD9FF060EE126F9
:103E7000F0D8200E0D01E76EC519E8AE02D0E73488
:103E800002D0E750C55D03E36550020B01E0D7D0D7
:103E90000D01C15114E0C05111E10E0192510EE12A
:103EA0009F0EE66E440EE66E000EE66E8FEC1DF081
:103EB000E552E552E5520D01010EC06F01D0C06B15
:103EC000840EE66E440EE66E000EE66E400EE66E62
:103ED0000D0EE66E1BEC22F0146E050EE15E145022
:103EE000400EE66E0D0EE66E34EC22F0E552E55221
:103EF000DE52F3CFDEFFF4CFDDFFDD52010EDBCF6C
:103F0000E6FF400EE66E0D0EE66E31EC1DF0E5525A
:103F1000E552E55212EC10F00E01925101E08DD005
:103F2000400EE66E800EE66E0D0EE66ED0EC1CF0D6
:103F3000E552E552E552DF6EDF5001E17ED0200E02
:103F40000D01801170082DE1840EE66E440EE66EC0
:103F5000000EE66E400EE66E0D0EE66E1BEC22F0D5
:103F6000146E050EE15E1450400EE66E0D0EE66E08
:103F700034EC22F0E552E552040EF3CFDBFF050EE0
:103F8000F4CFDBFF040EDBCFE6FF400EE66E0D0E36
:103F9000E66E31EC1DF0E552E552E55212EC10F000
:103FA0004CD0030EDB6ADF50F36E030EDBCFF4FF61
:103FB000F350F45C37E2030EDB50EA6A800FE96EDF
:103FC0000D0EEA22EF500A0A16E0070A14E0030E6B
:103FD000DB50EA6A800FE96E0D0EEA22EF28E66EEA
:103FE000030EDB50EA6A400FE96E0D0EEA22E5523D
:103FF000E750EF6E14D0030EDB50EA6A800FE96ED3
:104000000D0EEA22EF50E66E030EDB50EA6A400F17
:10401000E96E0D0EEA22E552E750EF6E00D0030E76
:10402000DB2AC1D7DFCFE6FF400EE66E0D0EE66E4F
:1040300031EC1DF0E552E552E552E1EC1DF0060EC3
:10404000E15C02E2E16AE552E16EE552E7CFD9FFB9
:1040500012000001FD51FE1104E1100EFD6F270E4C
:10406000FE6FFD07000EFE5B65A20AD0FD51FE113A
:1040700006E18D708DA002D08D8201D08D922ED060
:104080000D01C55103E18D908D9228D0C50503E146
:104090008D808D8223D0020EC55D03E18D808D92CF
:1040A0001DD0040EC55D03E18D908D8217D0100EDA
:1040B000C55D07E10001FD51FE1102E18D708D9299
:1040C0000DD0200EC55D0AE10001FD51FE1106E193
:1040D0008D708DA002D08D9201D08D8212001200C1
:1040E00012008150040B01E0010E0D01C15D0DE1D4
:1040F000C25102E0C20708D08150040B040A01E05B
:10410000010EC16F640EC26F03D0C25101E0C2073D
:104110001200120005EF1CF0120057EF1CF00D0109
:10412000EB0520E10D01EC051DE1A098D9DF6592BA
:104130000D01EC6B0D01100EC36F0E0EC46FC307A3
:10414000000EC45BC351C411FAE16584080EC36F4D
:10415000070EC46FC307000EC45BC351C411FAE15C
:104160006594A0881200D9CFE6FFE1CFD9FFFD0EFC
:10417000DBCF08F0FE0EDBCF09F0050E081801E1D9
:10418000095039E0E868081802E17F0E091831E0AB
:10419000030E081801E109502AE0020E081801E197
:1041A000095023E0010E081801E109501CE0740ECB
:1041B000081801E1095015E0750E081801E10950D1
:1041C0000EE0730E081801E1095007E0720E08189E
:1041D00001E1095001E010D00FD083DF0DD07FDF67
:1041E0000BD07EDF09D099DF07D096DF05D092DFB4
:1041F00003D08FDF01D000D0010E00D0E552E7CF11
:04420000D9FF1200D0
:0C4204001201000202000008D8040A00A9
:1042100000010102000109024300020100C032094D
:104220000400000102020100052400100104240220
:104230000205240600010524010001070581030889
:10424000000209040100020A000000070502024002
:104250000000070582024000000403090434034DF6
:10426000006900630072006F0063006800690070FD
:1042700000200054006500630068006E006F006C51
:10428000006F0067007900200049006E0063002E77
:104290000034034300440043002000520053002D2B
:1042A00000320033003200200045006D0075006CC4
:1042B000006100740069006F006E0020004400651A
:1042C000006D006F001642005942005D42009142AD
:0142D00000ED
:0E42D2002A0EF66E100EF76E000EF86E010149
:1042E0000900F5508A6F0900F5508B6F03E18A676A
:1042F00001D03DD00900F550856F0900F550866F5B
:104300000900F550876F09000900F550E96E0900B2
:10431000F550EA6E090009000900F550886F0900A0
:10432000F550896F09000900F6CF8CF1F7CF8DF1B8
:10433000F8CF8EF185C1F6FF86C1F7FF87C1F8FF80
:104340000101885302E1895307E00900F550EE6E40
:104350008807F8E28907F9D78CC1F6FF8DC1F7FF0E
:104360008EC1F8FF01018A07000E8B5BBFD71200D8
:1043700009C013F008C012F007C011F007500C027A
:10438000F4CF05F0F3CF04F008500D02F4CF07F09E
:10439000F3CF06F00C02F3500526F4500622E86A2B
:1043A000072211500D02F3500526F4500622E86A48
:1043B000072209500C02F3500626F4500722095038
:1043C0000D02086AE86A0822F3500726F450082212
:1043D00011500E02F3500626F4500722096AE86ACB
:1043E0000822092212500E02F3500726F450082228
:1043F000E86A092213500E02F3500826F4500922ED
:02440000000CAE
:0E440200FE0EE3CFE9FFFF0EE3CFEAFFE9CFA6
:10441000F3FFEACFF4FFFB0EE35003E1FC0EE350A1
:1044200009E0FB0EE30602E2FC0EE306FD0EE3509C
:10443000EE6EF1D71200FB0EE3CFF6FFFC0EE3CFDA
:10444000F7FFFD0EE3CFF8FFFE0EE3CFE9FFFF0E0F
:10445000E3CFEAFFE9CFF3FFEACFF4FF0900F5CF9E
:10446000EFFFEE66FBD71200FE0EE3CFE9FFFF0E73
:10447000E3CFEAFFF36AF46AEE5203E0F34AF42A68
:04448000FBD7120054
:0C4484005374617274696E672050726F8F
:104490006772616D6D657220436F64650D0A00423D
:1044A0007574746F6E2050726573736564202D2D62
:0444B000200D0A00D1
:0C44B400B00EF36E00EE00F00E0E01D80A
:1044C0001200EA6002D0EE6AFCD7F350E9601200F5
:0444D000EE6AFCD7BD
:0C44D4001CEE00F02CEE00F0F86A019CD9
:1044E00069EC21F078EC22F0F4EC1EF0FBD712001E
:0244F0001200B8
:0244F2000000C8
:0C44F40050726573732061206B65792E97
:104500002E2E00492D43796269652055706C6F61CC
:1045100064657220312E30004162736F6C75746572
:104520006C79204E4F2077617272617469657320D7
:104530006F6620616E79206B696E642E004465623F
:104540007567204D6F64650065786974696E672EC4
:104550002E2E005F4F45005F574500434530004316
:10456000453100413A20302E00413A20312E303082
:0945700030304800480000000052
:020000040001F9
:01FFF800BA4E
:01FFF900F710
:01FFFA003DC9
:01FFFB00FF06
:01FFFC0063A1
:01FFFD00FA09
:01FFFE008181
:01FFFF00F908
:00000001FF
