:020000040000FA
:0600000003EF46F01200C0
:0600080004EF08F01200F5
:060018000CEF08F01200DD
:0610000003EF46F01200B0
:06100800BBEF09F012002D
:0610180022EF08F01200B7
:06102A000200F98C000039
:10103000AC0E000002000000888C0000800200005E
:04104000710000003B
:0C104400D8CFE4FFE0CFE4FFE46EDACF89
:10105000E4FFE2CFDAFFE9CFE4FFEACFE4FFF3CF2A
:10106000E4FFF4CFE4FFE6529EA201D19E92030E6C
:10107000406E0E50EA6A510FE96E010EEA22EF50FF
:10108000405C30E10E50E96EEA6AD890E936EA3603
:10109000690EE926010EEA22EECF40F0EFCF41F0D3
:1010A00041C040F0416A4050D76E0E50E96EEA6A86
:1010B000D890E936EA36690EE926010EEA22EECF2B
:1010C00040F0EFCF41F04050D66EF28AF294D58EC8
:1010D0000E50EA6A510FE96E010EEA22040EEF6E1D
:1010E0000E50106E020E406E0F50EA6A510FE96EFC
:1010F000010EEA22EF50405C49E10F50E96EEA6AC6
:10110000D890E936EA36690EE926010EEA22EE5059
:10111000ED1009E10F50EA6A510FE96E010EEA2263
:10112000010EEF6E33D0080E0F5C0CE2070E0F14A9
:10113000406E010E405204E0E846FE0B4006FCE122
:1011400089121AD0100E0F5C0CE2070E0F14406EBD
:10115000010E405204E0E846FE0B4006FCE18A1214
:101160000BD0070E0F14406E010E405204E0E8460B
:10117000FE0B4006FCE18B120F50EA6A510FE96E3C
:10118000010EEA22030EEF6E0F500E6E0F2A060EAE
:101190000F5C03E1080E0F6E0AD0130E0F5C03E123
:1011A000160E0F6E04D0180E0F5C01E10F6A000ED0
:1011B000D8800254000E03542EE2112A000E12228F
:1011C0000250115C0350125826E3116A126A030E92
:1011D000065C1FE20450EA6A480FE96E010EEA223B
:1011E00080CFEFFF0450EA6A4B0FE96E010EEA224E
:1011F00081CFEFFF0450EA6A4E0FE96E010EEA223A
:1012000082CFEFFF042A030E045C01E3046A062A7E
:1012100002D0026A036A000ED8800754000E0854F8
:1012200019E20C50000816E2132A000E142207508F
:10123000135C085014580EE3136A146A030E0B5C17
:1012400007E2092A030E095C01E3096A0B2A02D0AE
:10125000076A086A0C5000080AE2156A1550040D66
:10126000F328C26E9E9C9F9C9D8CC280C2829EACC5
:101270002DD09E9CC450446E44C045F0446AC35077
:1012800000014410426E45C043F01550060DF3CFE7
:1012900040F0F4CF41F0000E4026010E41220950EB
:1012A000020D4050F324E96E4150F420EA6E42C032
:1012B000EEFF43C0EDFF152A0C50155C02E39D9C28
:1012C00005D01550040DF328C26EC282F2A442D09C
:1012D000D59EF294F29A040E406E1050EA6A510FB5
:1012E000E96E010EEA22EF50405C34E1080E105C1A
:1012F0000DE2070E1014406E010E405204E0E84665
:10130000FE0B4006FCE1E81C89161CD0100E105C98
:101310000DE2070E1014406E010E405204E0E84644
:10132000FE0B4006FCE1E81C8A160CD0070E1014D8
:10133000406E010E405204E0E846FE0B4006FCE120
:10134000E81C8B161050EA6A510FE96E010EEA2272
:10135000020EEF6EE552E5CFF4FFE5CFF3FFE5CFE8
:10136000EAFFE5CFE9FFE5CFDAFFE550E5CFE0FFA3
:10137000E5CFD8FF1000DACFE4FFE2CFDAFFE9CF04
:10138000E4FFEACFE4FFF6CFE4FFF7CFE4FFF8CFC6
:10139000E4FFF5CFE4FFF3CFE4FFF4CFE4FFFACFAF
:1013A000E4FFFBCFE4FF00EE1EF0140EE80403E3BD
:1013B000EECFE4FFFBD700EE32F00E0EE80403E3BD
:1013C000EECFE4FFFBD7E65286EC2EF0A1A24DD083
:1013D000A1920201805181110AE083C246F0476A5E
:1013E00046507B6E82517A6E16EC24F03ED01D5032
:1013F0001EE016507B6E17507A6E1C2A1A501C5C29
:1014000015E31D6A841D8914896E851D8A148A6EF0
:10141000861D8B148B6E871D8C148C6E881D8D140D
:101420008D6E18507B6E19507A6E1C6A1ED0185043
:101430007B6E19507A6E1C2A1B501C5C16E3010E41
:101440001D6E84518910896E85518A108A6E86516D
:101450008B108B6E87518C108C6E88518D108D6E19
:1014600016507B6E17507A6E1C6AE55200EE3FF004
:101470000E0EE80403E3E5CFEDFFFBD700EE31F0FD
:10148000140EE80403E3E5CFEDFFFBD7E5CFFBFF48
:10149000E5CFFAFFE5CFF4FFE5CFF3FFE5CFF5FFAA
:1014A000E5CFF8FFE5CFF7FFE5CFF6FFE5CFEAFFA1
:1014B000E5CFE9FFE5CFDAFF1100D9CFE6FFE1CFB5
:1014C000D9FF020EE126896A92680F0EC16EC290A2
:1014D0000C6A8A6A93688B6A94688C6A956A8D6ACA
:1014E0009668FC0E8D16961693840301010E4D6FBF
:1014F0000E01AC69AD690A6A096A0B6A056A046A79
:10150000066A026A036A076A086A116A126A136A3B
:10151000146A156ACA82CA80CA9CCA9ACA88CA96BC
:10152000FA0ECB6EDF6ADFCF32F00C0EE76E3218A8
:10153000E8AE02D0E73402D0E750325C36E2010E6A
:10154000DB6ADBCF32F0030EE76E3218E8AE02D072
:10155000E73402D0E750325C26E2DFCF32F0336A64
:1015600032BE3368060E3302F3CF33F03202F3CFCC
:1015700032F0F4503326000E3226010E3322010ED3
:10158000DBCF34F0356A34BE3568D8903436353622
:1015900032503424E96E33503520EA6EEE6AED6A3B
:1015A000010EDB2ACED7DF2ABED70301476B486B7B
:1015B000456B466B496B4A6B4B6B4C6B0E6A0F6A03
:1015C000106ADF6ADFCF32F0180EE76E3218E8AE2D
:1015D00002D0E73402D0E750325C1BE2DFCFE9FFF4
:1015E000EA6AE9BEEA68D890E936EA36690EE92681
:1015F000010EEA22EE6AED6ADFCFE9FFEA6AE9BE90
:10160000EA68510EE926010EEA22010EEF6EDF2A8A
:10161000D9D7D586D59AD59CF294F29AF194D08EEA
:10162000CA949D829F92F28EF28CCA8479902A0E7F
:10163000E66EE66AE66AB50EE66E030EE66E01EC4D
:1016400044F0326E050EE15E3250020EE15C02E2C1
:10165000E16AE552E16EE552E7CFD9FF1200D9CF3A
:10166000E6FFE1CFD9FF070EE126020EDB6A030E8B
:10167000DB6A040EDB6AB2EC1FF00650000809E2D8
:101680000FEC13F0052A030E055C01E1056A06065E
:10169000F4D70B50000809E231EC13F00A2A030ECC
:1016A0000A5C01E10A6A0B06F4D7200E0101E76E1D
:1016B0009919E8AE02D0E73402D0E750995D03E310
:1016C0006550020B01E0C0D3400EE66E400EE66EA0
:1016D000020EE66EB7EC3EF0E552E552E552E76EDB
:1016E000030EE7CFDBFFDB50000801E35DD1040E02
:1016F000DB6A030EDB50F36E040EDBCFF4FFF35016
:10170000F45C01E351D1040EDB50EA6A400FE96E4C
:10171000020EEA22EFCFDFFF0201D15110E0D251D9
:1017200000080DE203014751EA6A000FE96E070E57
:10173000EA22DFCFEFFF472B0201D20725D1CD519F
:1017400044E10D0E326EDF50325C05E00A0E336E5E
:10175000DF50335C3AE1010ECD6F03014751EA6A75
:10176000000FE96E070EEA220D0EEF6E472B010EF9
:10177000DB6A4751F36E010EDBCFF4FFF350F45CEC
:101780001CE2010EDBCFE9FFEA6AE9BEEA68000E5F
:10179000E926070EEA22EF50E66E010EDBCFE9FFE5
:1017A000EA6AE9BEEA68890EE926020EEA22E552F3
:1017B000E750EF6E010EDB2ADCD7CFDB0201D16BE5
:1017C000D26B0301476B486BDFD01B0EDF5C09E176
:1017D000C95107E1010EC96F1B0ECA6FCB6BCC6BF1
:1017E000D3D0C9050BE15B0EDF5C08E11B0ECA5DBF
:1017F00005E1CB5103E15B0ECB6FC6D0C9055EE1BD
:10180000410EDF5C5BE11B0ECA5D58E15B0ECB5DF8
:1018100055E1CA6BCB6BCC6BC96B010EDB6ADBCFBE
:10182000E9FFEA6AE9BEEA68000EE926070EEA2245
:10183000EF500D081CE0010EDBCFE9FFEA6AE9BEBC
:10184000EA68890EE926020EEA22EF50E66E010EE2
:10185000DBCFE9FFEA6AE9BEEA68000EE926070E77
:10186000EA22E552E750EF6E010EDB2AD8D7010ECF
:10187000DBCF47F303014751EA6A000FE96E070E19
:10188000EA22EF6AB00EE66E820EE66E000EE66E9B
:101890004EEC44F0E552E552E552000EE66E070EBE
:1018A000E66EAD0EE66E820EE66E000EE66E4EEC55
:1018B00044F0326E050EE15E325066D0080EDF5CF9
:1018C00018E103014751000814E247074751EA6A4B
:1018D000000FE96E070EEA22EF6AAA0EE66E820E8C
:1018E000E66E000EE66E4EEC44F0E552E552E5522F
:1018F0004BD00D0EDF5C48E00A0EDF5C45E0200EA9
:10190000DF5C42E30201CA6BCB6BCC6BC96B03019A
:101910004751EA6A000FE96E070EEA22DFCFEFFFB8
:101920000201CD6B0301472B030E475D0AE1420E16
:101930000701005D06E1530E015D03E10201010EA6
:10194000D16F0201D15120E0D2511EE1050E0301F9
:10195000475D09E12C0E0701045D05E1300E035DD2
:101960000201D26F11D0060E0301475D0DE12C0E6E
:101970000701055D09E1300E035D0A0DF3CFD2F2D8
:10198000300E045D0201D22703014751326E336AE3
:10199000000E321802E1010E331803E10D86476B89
:1019A000486B040EDB2AA5D60D5051E00DA00BD0DC
:1019B000A40EE66E820EE66E000EE66E4EEC44F06D
:1019C000E552E552E5520DA40BD0880EE66E820E6C
:1019D000E66E000EE66E4EEC44F0E552E552E5523E
:1019E0000DA60BD06C0EE66E820EE66E000EE66E55
:1019F0004EEC44F0E552E552E5520DA80BD04D0EE9
:101A0000E66E820EE66E000EE66E4EEC44F0E55297
:101A1000E552E5520DAA00D00DAC0BD02C0EE66EAF
:101A2000820EE66E000EE66E4EEC44F0E552E55294
:101A3000E5520DAE0BD0130EE66E820EE66E000E72
:101A4000E66E4EEC44F0E552E552E5520D6A3CDAA2
:101A5000010EDB6ADBCF32F0030EE76E3218E8AE20
:101A600002D0E73402D0E750325C01E3EDD1010E41
:101A7000DBCFE9FFEA6AE9BEEA680E0EEA02F3CFBD
:101A8000EAFFE902F3CFE9FFF450EA26B50EE926B2
:101A9000030EEA220B0EE926000EEA22EF5001E1C6
:101AA000D0D1010EDBCFE9FFEA6AE9BEEA680E0E8B
:101AB000EA02F3CFEAFFE902F3CFE9FFF450EA26A6
:101AC000B50EE926030EEA220A0EE926000EEA22E6
:101AD000EF50E66EE66A010EDBCFE9FFEA6AE9BE87
:101AE000EA680E0EEA02F3CFEAFFE902F3CFE9FF5C
:101AF000F450EA26B50EE926030EEA220C0EE9267A
:101B0000000EEA22EF50E66EE66A010EDBCFE9FF37
:101B1000EA6AE9BEEA680E0EEA02F3CFEAFFE902DA
:101B2000F3CFE9FFF450EA26B50EE926030EEA22C8
:101B30000D0EE926000EEA22EF50E66EE66A010E6F
:101B4000DBCF32F0336A32BE336832C0E6FF33C0D7
:101B5000E6FFF80EE66E810EE66E000EE66E4EECC7
:101B600044F0346E0B0EE15E3450010EF36E050E40
:101B7000F3CFDBFF060EDB6A050EDBCF32F0060E7D
:101B8000DBCF33F0010EDBCFE9FFEA6AE9BEEA689A
:101B90000E0EEA02F3CFEAFFE902F3CFE9FFF450B9
:101BA000EA26B50EE926030EEA220A0EE926000E01
:101BB000EA22EF28000133AE02D0D89003D0325C85
:101BC000000E335867E2050EDBCF36F0060EDBCF92
:101BD00037F03606000E375A070E3616000E371647
:101BE000070ED8803656000E3756010EDBCFE9FFC0
:101BF000EA6AE9BEEA680E0EEA02F3CFEAFFE902FA
:101C0000F3CFE9FFF450EA26B50EE926030EEA22E7
:101C1000020EE926000EEA22E9CF32F0EACF33F0D5
:101C2000050EDBCF34F0060EDBCF35F03406000EA8
:101C3000355A080E2B6E2C6A34C026F035C027F0BA
:101C400060EC41F026C034F027C035F03250342427
:101C5000E96E33503520EA6EEF5036C0E7FFE752A9
:101C600004E0E8427F0BE706FCE1010BE66EE66A62
:101C7000F50EE66E810EE66E000EE66E4EEC44F05A
:101C8000386E050EE15E3850050EDB2A060E01E3C4
:101C9000DB2A72D7F30EE66E810EE66E000EE66E5C
:101CA0004EEC44F0E552E552E552050EDB6A060EB5
:101CB000DB6A050EDBCF32F0060EDBCF33F0010E10
:101CC000DBCFE9FFEA6AE9BEEA680E0EEA02F3CF6B
:101CD000EAFFE902F3CFE9FFF450EA26B50EE92660
:101CE000030EEA220A0EE926000EEA22EF04070F8D
:101CF000F80BE842E842E842000133AE02D0D89047
:101D000003D0325C000E335838E2010EDBCFE9FF1E
:101D1000EA6AE9BEEA680E0EEA02F3CFEAFFE902D8
:101D2000F3CFE9FFF450EA26B50EE926030EEA22C6
:101D3000020EE926000EEA22E9CF32F0EACF33F0B4
:101D4000050EDB503224E96E060EDB503320EA6EBE
:101D5000EF50E66EE66AEC0EE66E810EE66E000E61
:101D6000E66E4EEC44F0346E050EE15E3450050E26
:101D7000DB2A060E01E3DB2A9CD7BC0EE66E820E40
:101D8000E66E000EE66E4EEC44F0E552E552E5528A
:101D9000080EE66EE66AE66A010EDBCFE9FFEA6A44
:101DA000E9BEEA680E0EEA02F3CFEAFFE902F3CFDA
:101DB000E9FFF450EA26B50EE926030EEA22020EE8
:101DC000E926000EEA22E9CF32F0EACF33F032C042
:101DD000E6FF33C0E6FF01EC44F0346E050EE15E31
:101DE0003450010EDBCFE9FFEA6AE9BEEA680E0E65
:101DF000EA02F3CFEAFFE902F3CFE9FFF450EA2663
:101E0000B50EE926030EEA220B0EE926000EEA22A1
:101E1000EF6A010EDBCFE9FFEA6AE9BEEA680E0E5F
:101E2000EA02F3CFEAFFE902F3CFE9FFF450EA2632
:101E3000B50EE926030EEA220A0EE926000EEA2272
:101E4000EF6A010EDB2A06D6070EE15C02E2E16AC8
:101E5000E552E16EE552E7CFD9FF1200D9CFE6FF98
:101E6000E1CFD9FFE65245C3DFFFDF2A400E326ED5
:101E7000DF50325C01E1DF6A03014651DF5C01E1C2
:101E800023D803014551EA6A000FE96E020EEA22E7
:101E9000FE0EDBCFEFFF452B400E455D01E1456BAC
:101EA0004651455D01E10D84FE0EDBCF32F0336A11
:101EB00032BE336832C0F3FF33C0F4FF00D0E552C6
:101EC000E552E7CFD9FF1200D9CFE6FFE1CFD9FF26
:101ED000E65203014551465D3BE00E01925103E09D
:101EE000C8EC3FF0FAD703014651D880455517E2B8
:101EF0004651455DDF6EDFCFE6FF4651336A000F86
:101F0000326E020E332232C0E6FF33C0E6FF18EC19
:101F10003FF0E552E552E55245C346F317D0400E77
:101F2000D8804655DF6EDFCFE6FF4651336A000F9B
:101F3000326E020E332232C0E6FF33C0E6FF18ECE9
:101F40003FF0E552E552E5520301466BC8EC3FF025
:101F5000E552E552E7CFD9FF1200D9CFE6FFE1CF36
:101F6000D9FF040EE126DE6ADD6A020EDB6A030E8B
:101F7000DB6A03014851EA6A000FE96E070EEA22A4
:101F8000EF50E66EE66A82EC45F0E552E552020E4D
:101F9000F3CFDBFF0301482B4851326E336A000E4A
:101FA000321802E1010E331801E1486B020EDB50DA
:101FB000DE6EDD6A4851EA6A000FE96E070EEA221A
:101FC000EF502C0837E04851EA6A000FE96E070E1F
:101FD000EA22EF500D082EE04851EA6A000FE96E40
:101FE000070EEA22EF50E66EE66A82EC45F0E55213
:101FF000E552030EF3CFDBFF0301482B4851326E4D
:10200000336A000E321802E1010E331801E1486B09
:10201000020EDBCF34F034C035F0346A030EDB50EF
:1020200000013424326E000E3520336E32C0DEFFE4
:1020300033C0DDFF000EDFCF26F0010EDBCF27F02F
:10204000580E261802E1490E271801E12BD1520E35
:10205000261802E1490E271801E121D1420E261867
:1020600002E1480E271801E117D1530E261802E1AC
:10207000480E271801E10DD1460E261801E1275020
:1020800001E104D1490E261802E1430E271801E1AF
:10209000FAD0490E261802E1520E271801E1F0D0BD
:1020A000490E261802E1530E271801E1E6D0530E1F
:1020B000261802E1430E271801E1DCD0530E261842
:1020C00002E1520E271801E1D2D0530E261802E188
:1020D000530E271801E1C8D0530E261802E1420E14
:1020E000271801E1BED0430E261802E1420E271840
:1020F00001E1B4D0430E261802E1520E271801E187
:10210000AAD04F0E261802E1420E271801E1A0D0F6
:10211000570E261802E14D0E271801E197D0520EF6
:10212000261802E14D0E271801E18ED0440E261824
:1021300002E1500E271801E185D04F0E261802E16A
:10214000500E271801E17BD0490E261802E1500EEF
:10215000271873E0580E261802E1540E27186AE07B
:10216000540E261801E1275063E0410E261801E1C4
:1021700027505CE0560E261801E1275055E0490E25
:10218000261801E127504EE0570E261801E127508E
:1021900046E04F0E261801E127503FE0550E261865
:1021A00002E1430E271837E0580E261802E1430ECD
:1021B00027182EE0430E261801E1275027E0520E83
:1021C000261801E1275020E0580E261802E1520E91
:1021D000271817E0030EDB5068E1020EDBCFE6FFA5
:1021E000E66ADBCFE6FFE66AC90EE66E810EE66EB2
:1021F000000EE66E4EEC44F0326E070EE15E325099
:1022000070D0E3EC15F06ED09FD86CD036D96AD080
:10221000E5EC15F067D09CD865D0A5D963D02DEC3E
:1022200019F060D0FCD95ED010DA5CD01ADA5AD03E
:10223000D8D858D0E1EC15F055D08CDB53D036EC23
:1022400015F050D0DDDA4ED09CDA4CD05BDA4AD0B3
:102250000EEC17F047D0E7EC15F044D0A0EC16F0E8
:1022600041D062EC18F03ED091EC19F03BD093ECE9
:1022700019F038D095EC19F035D097EC19F032D030
:1022800099EC19F02FD09BEC19F02CD09DEC19F0A3
:1022900029D027EC26F026D0C6EC28F023D0AFECCE
:1022A00029F020D06FEC2AF01DD0030EDBCFE6FF23
:1022B000E66A020EDBCFE6FFE66A030EDBCFE6FF3F
:1022C000E66A020EDBCFE6FFE66AA10EE66E810E3D
:1022D000E66E000EE66E4EEC44F0326E0B0EE15EE2
:1022E000325000D003014851EA6A000FE96E070E30
:1022F000EA22EF500D080DE00D500BE1520E326E48
:10230000336ADF50321803E1DE52DD50331801E04A
:102310000D8E47C348F3040EE15C02E2E16AE55228
:10232000E16EE552E7CFD9FF120003014D510BE0FA
:10233000C40EE66E8B0EE66E000EE66E4EEC44F0BA
:10234000E552E552E55212005DEC0AF095EF11F00E
:10235000D9CFE6FFE1CFD9FF030EE126E66AD9CF58
:10236000E6FFDACFE6FF010EE66E28EC1DF0E5523F
:10237000E552E552E552E66AD950010FE66E000ECD
:10238000DA20E66E020EE66E28EC1DF0E552E5520C
:10239000E552E5520D5001E01AD0DF0417E1D950A3
:1023A000010FE96EDACFEAFFEE50ED100AE0010E00
:1023B000326E336ADB50321803E1020EDB50331801
:1023C00004E1010EDBCF4DF301D00D8CAEDF030E27
:1023D000E15C02E2E16AE552E16EE552E7CFD9FF46
:1023E0001200D9CFE6FFE1CFD9FF030EE126020E9E
:1023F000DB6AE66A000EE66E000EE66E030EE66E1F
:1024000028EC1DF0E552E552E552E552E66AD95056
:10241000020FE66E000EDA20E66E010EE66E28EC84
:102420001DF0E552E552E552E5520D5001E01BD09A
:10243000020EDB500CE10050011003E1026A036A56
:1024400005D0CA8400C002F001C003F00BD00050D8
:10245000011003E1076A086A05D0CA8400C007F0CA
:1024600001C008F062DF030EE15C02E2E16AE552BE
:10247000E16EE552E7CFD9FF1200D9CFE6FFE1CFF9
:10248000D9FF040EE126E66AD9CFE6FFDACFE6FFF0
:10249000010EE66E28EC1DF0E552E552E552E552DC
:1024A000E66AD950010FE66E000EDA20E66E010EE4
:1024B000E66E28EC1DF0E552E552E552E552E66A7B
:1024C000D950020FE66E000EDA20E66E010EE66EBF
:1024D00028EC1DF0E552E552E552E552E66AD95086
:1024E000030FE66E000EDA20E66E010EE66E28ECB3
:1024F0001DF0E552E552E552E5520D5001E029D0BC
:10250000DF50926E010EDB50936E020EDB50946E24
:10251000030EDB500D0805E20D0EF36E030EF3CF34
:10252000DBFF030EDB5005E10F0EC16EC2900C6A9B
:102530000FD00C6AC26A030EDBCFE6FF0F0EE55226
:10254000D880E754C16EC280030EDB500C6ECA8483
:10255000ECDE040EE15C02E2E16AE552E16EE55276
:10256000E7CFD9FF1200D9CFE6FFE1CFD9FF020EA6
:10257000E126E66AD9CFE6FFDACFE6FF010EE66E86
:1025800028EC1DF0E552E552E552E552E76E010EEA
:10259000E7CFDBFF0D5001E038D0010EDB5002E148
:1025A000DF50896E010EE66ED9CFE6FFDACFE6FF87
:1025B000E66E28EC1DF0E552E552E552E552E76E75
:1025C000010EE7CFDBFF0D5001E01FD0010EDB5005
:1025D00002E1DF508A6E010EE66ED9CFE6FFDACF58
:1025E000E6FFE66E28EC1DF0E552E552E552E552B5
:1025F000E76E010EE7CFDBFF0D5001E006D0010EC4
:10260000DB5002E1DF508B6E90DE020EE15C02E2F5
:10261000E16AE552E16EE552E7CFD9FF1200825040
:10262000E66EE66A8150E66EE66A8050E66EE66A1D
:102630008E0EE66E810EE66E000EE66E4EEC44F0F7
:10264000326E090EE15E32501200CC0EE66E8B0E39
:10265000E66E000EE66E4EEC44F0E552E552E552B1
:102660001200D9CFE6FFE1CFD9FFE652DF6A8C0E28
:10267000E66E810EE66E000EE66E4EEC44F0E5521C
:10268000E552E552DF6A0C50DF5C2CE2DFCF32F01E
:10269000336A32BE3368060E3302F3CF33F03202B0
:1026A000F3CF32F0F4503326000E3226010E3322DF
:1026B0000A50020D3250F324E96E3350F420EA6ED2
:1026C000EECFE6FFEFCFE6FF860EE66E810EE66EFA
:1026D000000EE66E4EEC44F0346E050EE15E3450B2
:1026E000DF2AD1D7C90EE66E8B0EE66E000EE66EBF
:1026F0004EEC44F0E552E552E552E552E552E7CFA3
:10270000D9FF1200D9CFE6FFE1CFD9FF030EE126B2
:10271000E66AD9CFE6FFDACFE6FFE66E28EC1DF0D9
:10272000E552E552E552E552E66AD950020FE66EEF
:10273000000EDA20E66E010EE66E28EC1DF0E55282
:10274000E552E552E5520D5001E011D0DECF32F0F6
:10275000DDCF33F0000E325C100E335807E2DECFCF
:10276000E9FFDDCFEAFF020EDBCFEFFFDEDD030E78
:10277000E15C02E2E16AE552E16EE552E7CFD9FFA2
:102780001200D9CFE6FFE1CFD9FF030EE126E66ABA
:10279000D9CFE6FFDACFE6FFE66E28EC1DF0E55272
:1027A000E552E552E5520D5001E020D0DECF32F087
:1027B000DDCF33F0000E325C100E335807E2DECF6F
:1027C000E9FFDDCFEAFF020EEFCFDBFF020EDBCF2A
:1027D000E6FFE66A7C0EE66E810EE66E000EE66EA1
:1027E0004EEC44F0326E050EE15E3250030EE15CB9
:1027F00002E2E16AE552E16EE552E7CFD9FF12004D
:10280000D9CFE6FFE1CFD9FF030EE126E66AD9CFA3
:10281000E6FFDACFE6FF050EE66E28EC1DF0E55286
:10282000E552E552E552E66AD950010FE66E000E18
:10283000DA20E66E010EE66E28EC1DF0E552E55258
:10284000E552E552E66AD950020FE66E000EDA2034
:10285000E66E010EE66E28EC1DF0E552E552E552FB
:10286000E5520D5001E06CD0020EDB50010802E28F
:102870000D8C66D0010EDB50070802E20D8C60D093
:10288000410E326EDF50325C1AE1020EDB500CE179
:10289000010EF36EDB5004E0D890F336E806FCE15D
:1028A000F350E81C92160AD0010EF36EDB5004E0E0
:1028B000D890F336E806FCE1F350921240D0420E75
:1028C000326EDF50325C1AE1020EDB500CE1010E79
:1028D000F36EDB5004E0D890F336E806FCE1F350E9
:1028E000E81C93160AD0010EF36EDB5004E0D8907A
:1028F000F336E806FCE1F350931221D0430E326E1A
:10290000DF50325C1AE1020EDB500CE1010EF36E77
:10291000DB5004E0D890F336E806FCE1F350E81C05
:1029200094160AD0010EF36EDB5004E0D890F33613
:10293000E806FCE1F350941202D00D8C01D0F5DCD6
:10294000030EE15C02E2E16AE552E16EE552E7CF97
:10295000D9FF1200D9CFE6FFE1CFD9FF030EE12660
:10296000020EDB6AE66AD9CFE6FFDACFE6FF050E94
:10297000E66E28EC1DF0E552E552E552E552E66AB6
:10298000D950010FE66E000EDA20E66E010EE66EFB
:1029900028EC1DF0E552E552E552E5520D5001E0FC
:1029A0005BD0010EDB50070802E20D8C55D0410EC2
:1029B000326EDF50325C0FE1010EF36EDB5004E04B
:1029C000D890F336E806FCE1F3508014E76E020E6F
:1029D000E7CFDBFF2AD0420E326EDF50325C0FE1D0
:1029E000010EF36EDB5004E0D890F336E806FCE10C
:1029F000F3508114E76E020EE7CFDBFF16D0430ED3
:102A0000326EDF50325C0FE1010EF36EDB5004E0FA
:102A1000D890F336E806FCE1F3508214E76E020E1C
:102A2000E7CFDBFF02D00D8C17D0DB5005E0010EA5
:102A3000F36E020EF3CFDBFF020EDBCFE6FFE66A9A
:102A4000730EE66E810EE66E000EE66E4EEC44F0FE
:102A5000326E050EE15E3250030EE15C02E2E16A85
:102A6000E552E16EE552E7CFD9FF1200D9CFE6FF7C
:102A7000E1CFD9FF030EE126E66AD9CFE6FFDACF30
:102A8000E6FF050EE66E28EC1DF0E552E552E55234
:102A9000E552E66AD950010FE66E000EDA20E66EC6
:102AA000010EE66E28EC1DF0E552E552E552E552C6
:102AB000E66AD950020FE66E000EDA20E66E010ECD
:102AC000E66E28EC1DF0E552E552E552E5520D5058
:102AD00001E06DD0020EDB50010802E20D8C67D0E0
:102AE000010EDB50070802E20D8C61D0410E326E00
:102AF000DF50325C1AE1020EDB500CE1010EF36E86
:102B0000DB5004E0D890F336E806FCE1F350E81C13
:102B100089160AD0010EF36EDB5004E0D890F3362C
:102B2000E806FCE1F350891240D0420E326EDF50CD
:102B3000325C1AE1020EDB500CE1010EF36EDB5049
:102B400004E0D890F336E806FCE1F350E81C8A165E
:102B50000AD0010EF36EDB5004E0D890F336E8069D
:102B6000FCE1F3508A1221D0430E326EDF50325C0A
:102B70001AE1020EDB500CE1010EF36EDB5004E0B3
:102B8000D890F336E806FCE1F350E81C8B160AD027
:102B9000010EF36EDB5004E0D890F336E806FCE15A
:102BA000F3508B1202D00D8C02D095EC11F0030E75
:102BB000E15C02E2E16AE552E16EE552E7CFD9FF5E
:102BC000120095EF11F095EF11F095EF11F0D9CFBC
:102BD000E6FFE1CFD9FF040EE126E66AD9CFE6FF92
:102BE000DACFE6FF050EE66E28EC1DF0E552E55261
:102BF000E552E552E66AD950010FE66E000EDA2082
:102C0000E66E010EE66E28EC1DF0E552E552E55247
:102C1000E552E66AD950020FE66E000EDA20E66E43
:102C2000030EE66E28EC1DF0E552E552E552E55242
:102C30000D5001E07BD0D950020FE96EDACFEAFFE8
:102C4000720ED880EE542E0EED5402E20D8C6ED032
:102C5000D950020FE96EDACFEAFFEE50ED101FE017
:102C600035683668376A2D0EE76E020EDBCF38F016
:102C7000030EDBCF39F0E7503826000E39223A6ACE
:102C80003850355C326E39503658336E3A503758BA
:102C9000346E020E32C0DBFF030E33C0DBFF010EC9
:102CA000DB50070802E20D8C41D0410E326EDF503E
:102CB000325C02E1DF6A12D0420E326EDF50325CCB
:102CC00003E1080EDF6E0AD0430E326EDF50325C35
:102CD00003E1100EDF6E02D00D8C28D0010EDB5008
:102CE000DF24E96EEA6AD890E936EA36690EE92609
:102CF000010EEA22020EDBCFEEFF030EDBCFEDFF6B
:102D0000010EDB50DF24EA6A510FE96E010EEA2260
:102D1000EF040AE1010EDB50DF24EA6A510FE96E8D
:102D2000010EEA22020EEF6E95EC11F0040EE15C4A
:102D300002E2E16AE552E16EE552E7CFD9FF120007
:102D4000D9CFE6FFE1CFD9FF050EE126E66AD9CF5C
:102D5000E6FFDACFE6FF010EE66E28EC1DF0E55245
:102D6000E552E552E552E66AD950020FE66E000ED2
:102D7000DA20E66E010EE66E28EC1DF0E552E55213
:102D8000E552E552E66AD950030FE66E000EDA20EE
:102D9000E66E010EE66E28EC1DF0E552E552E552B6
:102DA000E552E66AD950010FE66E000EDA20E66EB3
:102DB000010EE66E28EC1DF0E552E552E552E552B3
:102DC000E66AD950040FE66E000EDA20E66E010EB8
:102DD000E66E28EC1DF0E552E552E552E5520D5045
:102DE00001E012D0DFCF40F3020EDBCF42F3010E41
:102DF000DBCF41F3030EDBCF43F3040EDBCF44F311
:102E000040C389FF95EC11F0050EE15C02E2E16A36
:102E1000E552E16EE552E7CFD9FF1200D9CFE6FFC8
:102E2000E1CFD9FF040EE126030EDB6A030148510E
:102E3000EA6A000FE96E070EEA22EF502C0818E04C
:102E400003014851EA6A000FE96E070EEA22EF50CB
:102E5000E66EE66A4C0EE66E810EE66E000EE66EDB
:102E60004EEC44F0326E050EE15E32500D8A20D1F8
:102E70000301482B03014851326E336A000E3218A9
:102E800002E1010E331802E10301486B40C389FFE0
:102E90000301411D8914326E891C03014115321052
:102EA000E76E010EE7CFDBFF03014851EA6A000F2E
:102EB000E96E070EEA22EF500D0801E1F7D0030199
:102EC0004851EA6A000FE96E070EEA22EF50E66EFB
:102ED000E66A82EC45F0E552E552020EF3CFDBFFE5
:102EE000300EF36E020EDBCFF4FFF350F45C0FE311
:102EF000020EDB5039080BE3300E326E020EDBCFD0
:102F0000E7FF3250E75E020EE7CFDBFF19D0410E3C
:102F1000F36E020EDBCFF4FFF350F45C0FE3020E0E
:102F2000DB5046080BE3370E326E020EDBCFE7FFB5
:102F30003250E75E020EE7CFDBFF02D00D8CB8D037
:102F4000020EDB38F00BDF6E0301482B0301485102
:102F5000326E336A000E321802E1010E331802E1BC
:102F60000301486B0D0E326E03014851EA6A000FEF
:102F7000E96E070EEA22EF50325C02E10D8898D02C
:102F800003014851EA6A000FE96E070EEA22EF508A
:102F9000E66EE66A82EC45F0E552E552020EF3CFAA
:102FA000DBFF300EF36E020EDBCFF4FFF350F45C68
:102FB0000FE3020EDB5039080BE3300E326E020EC7
:102FC000DBCFE7FF3250E75E020EE7CFDBFF19D021
:102FD000410EF36E020EDBCFF4FFF350F45C0FE30F
:102FE000020EDB5046080BE3370E326E020EDBCFCB
:102FF000E7FF3250E75E020EE7CFDBFF02D00D8C19
:1030000057D0020EDB50DF24DF6E0301482B030193
:103010004851326E336A000E321802E1010E331845
:1030200002E10301486BDF508A6E010EDB50896EAE
:103030000301445105E044C3E6FF2DEC46F0E552A0
:1030400040C389FF0301435130E0030E43C3DBFF5C
:103050000301405103014215326E030142518014B5
:10306000325C0BE1030EDB5008E0000000000000C2
:1030700000000000030EDB06EBD7030E43C3DBFFAB
:103080000301405103014215326E03014251801485
:10309000325C0BE0030EDB5008E000000000000093
:1030A00000000000030EDB06EBD7FED695EC11F016
:1030B000040EE15C02E2E16AE552E16EE552E7CF1F
:1030C000D9FF1200D9CFE6FFE1CFD9FF050EE126E7
:1030D000030EDB6A040EDB6AE66AD950040FE66E63
:1030E000000EDA20E66E010EE66E28EC1DF0E552C9
:1030F000E552E552E552040EDB5004E0040EDB50CD
:10310000380802E20D8C9FD003014851EA6A000F93
:10311000E96E070EEA22EF502C0818E0030148512F
:10312000EA6A000FE96E070EEA22EF50E66EE66AE1
:103130004C0EE66E810EE66E000EE66E4EEC44F02E
:10314000326E050EE15E32500D8A7DD00301482BB0
:1031500003014851326E336A000E321802E1010E4B
:10316000331802E10301486B40C389FF0301411D8D
:103170008914326E891C030141153210E76E010E6D
:10318000E7CFDBFF040EDB505CE003014851EA6A45
:10319000000FE96E070EEA22EFCFDFFF0301482B95
:1031A00003014851326E336A000E321802E1010EFB
:1031B000331802E10301486B040EDB06DF508A6E10
:1031C000010EDB50896E0301445105E044C3E6FF64
:1031D0002DEC46F0E55240C389FF0301435130E036
:1031E000030E43C3DBFF0301405103014215326E5E
:1031F000030142518014325C0BE1030EDB5008E006
:1032000000000000000000000000030EDB06EBD70A
:10321000030E43C3DBFF0301405103014215326E2D
:10322000030142518014325C0BE0030EDB5008E0D6
:1032300000000000000000000000030EDB06EBD7DA
:10324000A1D795EC11F0050EE15C02E2E16AE552CE
:10325000E16EE552E7CFD9FF1200D9CFE6FFE1CF0B
:10326000D9FF030EE126E66AD9CFE6FFDACFE6FF03
:10327000010EE66EEDDBE552E552E552E552E66AF7
:10328000D950010FE66E000EDA20E66E030EE66EF0
:10329000DFDBE552E552E552E552010EDBCF82F26B
:1032A000020EDBCF83F2DF50000821E20F011E8106
:1032B0001E931E85AF0EE66E4F0EE66EDCEC44F0FC
:1032C000E552E552FC0EE66E3F0EE66E60EC43F012
:1032D000E552E552DFCFE6FFE66A53EC45F0E552F2
:1032E000E5520E01BF910E0EC36F939002D041ECD8
:1032F00046F0D950010FE96EDACFEAFF000ED88010
:10330000EE54000EED5401E200D095EC11F0030EE6
:10331000E15C02E2E16AE552E16EE552E7CFD9FFF6
:10332000120095EF11F095EF11F095EF11F095EF78
:1033300011F095EF11F095EF11F0D9CFE6FFE1CF45
:10334000D9FF0F0EE126320EF36E0C0EF3CFDBFF2A
:10335000010EF36E0D0EF3CFDBFF010EF36E0E0EBA
:10336000F3CFDBFFE66AD950080FE66E000EDA20D5
:10337000E66E030EE66E6CDBE552E552E552E55271
:10338000D950080FE96EDACFEAFFEE50ED101FE1D9
:10339000010EE66ED9500A0FE66E000EDA20E66ED8
:1033A000050EE66E55DBE552E552E552E552010E9B
:1033B000E66ED9500B0FE66E000EDA20E66E010EB7
:1033C000E66E46DBE552E552E552E5521CD0E66A70
:1033D000D9500A0FE66E000EDA20E66E050EE66E94
:1033E00037DBE552E552E552E552E66AD9500B0F5C
:1033F000E66E000EDA20E66E010EE66E29DBE5527F
:10340000E552E552E552010EE66ED9500C0FE66E1C
:10341000000EDA20E66E010EE66E1ADBE552E5528A
:10342000E552E5520D5001E009D3D950080FE96E7D
:10343000DACFEAFFEE50ED1032E17990A092410E22
:103440000301E15D0CE1010EE0C3E7FFE75204E098
:10345000E846FE0BE706FCE1E81C89161DD0420E8B
:10346000E15D0CE1010EE0C3E7FFE75204E0E8464E
:10347000FE0BE706FCE1E81C8A160ED0430EE15D68
:103480000BE1010EE0C3E7FFE75204E0E846FE0B64
:10349000E706FCE1E81C8B1695EC11F0CFD2080E84
:1034A000DBCF36F0090EDBCF37F0386A396A640EAD
:1034B000296E2A6A2B6A2C6A36C024F037C025F0A0
:1034C00038C026F039C027F01BEC45F020C036F09C
:1034D00021C037F022C038F023C039F00C0EDBCF0A
:1034E00032F0336A346A356A296A1B0E2A6EB70EC7
:1034F0002B6E2C6A32C024F033C025F034C026F085
:1035000035C027F01BEC45F020C032F021C033F06D
:1035100022C034F023C035F032C024F033C025F08F
:1035200034C026F035C027F036C029F037C02AF065
:1035300038C02BF039C02CF086EC41F024C0DEFFFF
:1035400025C0DEFF26C0DEFF27C0DDFFDD52DD52D5
:10355000080EDBCF36F0090EDBCF37F0386A396A58
:10356000640E296E2A6A2B6A2C6A36C024F037C092
:1035700025F038C026F039C027F01BEC45F020C0FC
:1035800036F021C037F022C038F023C039F00C0EDD
:10359000DBCFE6FF640EE552D880E754326E336A23
:1035A000346A356A296A1B0E2A6EB70E2B6E2C6A96
:1035B00032C024F033C025F034C026F035C027F0E7
:1035C0001BEC45F020C032F021C033F022C034F0B3
:1035D00023C035F032C024F033C025F034C026F0CB
:1035E00035C027F036C029F037C02AF038C02BF09C
:1035F00039C02CF086EC41F0040E24C0DBFF050E30
:1036000025C0DBFF060E26C0DBFF070E27C0DBFF51
:10361000D9CFE9FFDACFEAFFD880FF0EEE54FF0ED4
:10362000EE54000EEE54000EEE5423E2800EF36EC4
:103630000D0EF3CFDBFFD9CFE9FFDACFEAFFEECFF4
:1036400024F0EECF25F0EECF26F0EFCF27F0800E5E
:10365000296E2A6A2B6A2C6AA8EC45F024C0DEFF8A
:1036600025C0DEFF26C0DEFF27C0DDFFDD52DD52B4
:1036700005D0010EF36E0D0EF3CFDBFFD9CFE9FFBE
:10368000DACFEAFF280EEE5C000EEE58000EEE5880
:10369000000EEE5807E2280EDE6EDE6ADE6ADD6A94
:1036A000DD52DD52D950040FE96EDACFEAFFD8803F
:1036B000FF0EEE54FF0EEE54000EEE54000EEE54CC
:1036C00025E2800EF36E0E0EF3CFDBFF040EDBCF90
:1036D00024F0050EDBCF25F0060EDBCF26F0070E1B
:1036E000DBCF27F0800E296E2A6A2B6A2C6AA8ECA1
:1036F00045F0040E24C0DBFF050E25C0DBFF060EDF
:1037000026C0DBFF070E27C0DBFF05D0010EF36EDE
:103710000E0EF3CFDBFFD950040FE96EDACFEAFFCC
:10372000280EEE5C000EEE58000EEE58000EEE581D
:103730000BE2280EF36E040EF3CFDBFF050EDB6AFF
:10374000060EDB6A070EDB6A040EDBCF32F0050ED5
:10375000DBCF33F0060EDBCF34F0070EDBCF35F0D6
:10376000140E325E000E335A345A355A040E32C0EB
:10377000DBFF050E33C0DBFF060E34C0DBFF070E98
:1037800035C0DBFFD9CFE9FFDACFEAFFEECF32F069
:10379000EECF33F0EECF34F0EFCF35F0140E325ED3
:1037A000000E335A345A355A32C0DFFF010E33C08F
:1037B000DBFF020E34C0DBFF030E35C0DBFF0B0E58
:1037C000DB50070802E20D8C39D1000EF36E0C0EAF
:1037D000DBCFF4FFF350F45C04E30C0EDB50630822
:1037E00002E20D8C2BD179B06CD00201846B856B19
:1037F000866B410E326E0A0EDB50325C19E1010E0F
:10380000F36E0B0EDB5004E0D890F336E806FCE1D3
:10381000F350E81C9216010EF36E0B0EDB5004E021
:10382000D890F336E806FCE1F3500201841340D04F
:10383000420E326E0A0EDB50325C19E1010EF36E5D
:103840000B0EDB5004E0D890F336E806FCE1F350B1
:10385000E81C9316010EF36E0B0EDB5004E0D890BB
:10386000F336E806FCE1F3500201851321D0430E44
:10387000326E0A0EDB50325C19E1010EF36E0B0E54
:10388000DB5004E0D890F336E806FCE1F350E81C86
:103890009416010EF36E0B0EDB5004E0D890F33655
:1038A000E806FCE1F3500201861302D00D8CC6D06D
:1038B0000B0EDBCFE0F30A0EDBCFE1F3010E1D6E42
:1038C0001C6AD9CFE9FFDACFEAFFD880FF0EEE54A9
:1038D000FF0EEE54000EEE54000EEE540FE3D950DE
:1038E000040FE96EDACFEAFFD880FF0EEE54FF0E28
:1038F000EE54000EEE54000EEE5402E20D8C9ED0FB
:1039000036683768386A396AD9CFE9FFDACFEAFF13
:10391000EE50365C326EEE503758336EEE503858FB
:10392000346EEE503958356E32C0DFFF010E33C0B1
:10393000DBFF020E34C0DBFF030E35C0DBFF366851
:103940003768386A396AD950040FE96EDACFEAFF6E
:10395000EE50365C326EEE503758336EEE503858BB
:10396000346EEE503958356E040E32C0DBFF050E52
:1039700033C0DBFF060E34C0DBFF070E35C0DBFFB4
:10398000F29ED9CFE9FFDACFEAFFEECF32F0EECFE9
:1039900033F0EECF34F0EFCF35F0080ED89035325B
:1039A000343233323232E806F9E13250166ED9CF72
:1039B000E9FFDACFEAFFEECF32F0EECF33F0EECF11
:1039C00034F0EFCF35F03250176E040EDBCF32F00B
:1039D000050EDBCF33F0060EDBCF34F0070EDBCF66
:1039E00035F0080ED8903532343233323232E806B0
:1039F000F9E13250186E040EDBCF32F0050EDBCF4A
:103A000033F0060EDBCF34F0070EDBCF35F032504B
:103A1000196E0D0EDB501A6E0E0EDB501B6EF28E01
:103A200079B00AD03F0E79140009796E7998799AA5
:103A3000A282A192A082798095EC11F00F0EE15C38
:103A400002E2E16AE552E16EE552E7CFD9FF1200EA
:103A5000D9CFE6FFE1CFD9FF040EE126030EDB6AE2
:103A60000D0E326E03014851EA6A000FE96E070E2F
:103A7000EA22EF50325C06E1FB0EDB5001E10D88DB
:103A8000030ED4D14851EA6A000FE96E070EEA220C
:103A9000EF502C081BE0FB0EDB5016E14851EA6AA0
:103AA000000FE96E070EEA22EF50E66EE66A4C0E52
:103AB000E66E810EE66E000EE66E4EEC44F0326E5F
:103AC000050EE15E32500D8A020EB0D1482B4851EE
:103AD000326E336A000E321802E1010E331801E132
:103AE000486B0D0E326E4851EA6A000FE96E070E00
:103AF000EA22EF50325C06E1FB0EDB5001E10D885B
:103B0000030E94D12D0E326E4851EA6A000FE96E11
:103B1000070EEA22EF50325C29E1040E336EFE0EEE
:103B2000DB50335C23E0050E346EFE0EDB50345C5C
:103B30001DE0FE0EDB0406E0030E326EFE0EDB50CF
:103B4000325C04E10D8C010E71D110D0010EF36EC8
:103B5000030EF3CFDBFF482B4851326E336A000E61
:103B6000321802E1010E331801E1486B040E326E87
:103B7000FE0EDB50325C11E0050E336EFE0EDB50A4
:103B8000335C0BE0050EE66ED9CFE6FFDACFE6FF39
:103B900059D9E552E552E5523ED003014851EA6A4F
:103BA000000FE96E070EEA22EFCF32F0336A346A73
:103BB00032C0DFFF010E33C0DBFF020E34C0DBFF7B
:103BC000050E326EFE0EDB50325C19E1000EDFCFC7
:103BD000E6FF010EDBCFE6FF82EC45F0E552E55251
:103BE000F3CF32F0F4CF33F0346A33BE346832C0EE
:103BF000DFFF010E33C0DBFF020E34C0DBFF030129
:103C0000482B4851326E336A000E321802E1010E21
:103C1000331801E1486B030EDB5021E0DFCF32F0B7
:103C2000010EDBCF33F0020EDBCF34F02A682B68B5
:103C30002C6832C025F033C026F034C027F0BAEC2F
:103C400041F022C032F023C033F024C034F032C03F
:103C5000DFFF010E33C0DBFF020E34C0DBFFFE0EC0
:103C6000DB5026E1DFCF32F0010EDBCF33F0020E66
:103C7000DBCF34F03434000E341807E6D8807F0EE2
:103C80003254000E3354000E345401E28CD0D9CF9C
:103C9000E9FFDACFEAFF020ED880EB50FF0A06E612
:103CA000800EEE5CFF0EEE58FF0EEF5801E27BD067
:103CB000FE0EDB0424E1DFCF35F0010EDBCF36F062
:103CC000020EDBCF37F03734000E371807E6D88006
:103CD000FF0E3554000E3654000E375464E3D9CF2E
:103CE000E9FFDACFEAFF020ED890EB50000A06E6B1
:103CF000000EEE5C000EEE58000EEF5854E3020E7C
:103D0000386EFE0EDB50385C24E1DFCF39F0010E57
:103D1000DBCF3AF0020EDBCF3BF03B34000E3B181A
:103D200007E6D880FF0E39547F0E3A54000E3B54FC
:103D30003AE3D9CFE9FFDACFEAFF020ED880EB50A1
:103D4000FF0A06E6000EEE5C800EEE58FF0EEF58FE
:103D50002AE3030E3C6EFE0EDB503C5C27E1DFCF16
:103D60003DF0010EDBCF3EF0020EDBCF3FF03F34E3
:103D7000000E3F1807E6D880FF0E3D54FF0E3E545C
:103D8000000E3F5410E3D9CFE9FFDACFEAFF020E6D
:103D9000D890EB50000A06E6000EEE5C000EEE58DE
:103DA000000EEF5803E20D8C010E40D0FE0EDB50EA
:103DB000030A2DE0010A1EE0030A12E0050A10E0E2
:103DC000010A0EE0050A02E0040E30D0FC0EDBCF43
:103DD000E9FFFD0EDBCFEAFF000EDFCFEFFF24D0BF
:103DE000FC0EDBCFE9FFFD0EDBCFEAFF000EDFCFDD
:103DF000EFFF1AD0FC0EDBCFE9FFFD0EDBCFEAFFB1
:103E0000000EDFCFEEFF010EDBCFEDFF0DD0FC0E7D
:103E1000DBCFE9FFFD0EDBCFEAFF000EDFCFEEFFC9
:103E2000010EDBCFEDFF00D0000E00D0326E040E8D
:103E3000E15C02E2E16AE552E16E3250E552E7CF21
:103E4000D9FF1200D9CFE6FFE1CFD9FF020EE1265C
:103E5000FD0EDBCFE9FFFE0EDBCFEAFFEE6AEE6A76
:103E6000EE6A010EDB6AFC0EDB50F36E010EDBCF57
:103E7000F4FFF350F45C58E203014851EA6A000F82
:103E8000E96E070EEA22EFCFDFFF300EDF5C4AE378
:103E9000DF50390847E3FD0EDBCFE9FFFE0EDBCF35
:103EA000EAFFEECF35F0EECF36F0EFCF37F00A0E67
:103EB0002A6E2B6A2C6A35C025F036C026F037C032
:103EC00027F0BAEC41F022C035F023C036F024C010
:103ED00037F0300EDF5C386E396A3A6A3550382474
:103EE000326E36503920336E37503A20346EFD0E24
:103EF000DBCFE9FFFE0EDBCFEAFF32C0EEFF33C0BF
:103F0000EEFF34C0EEFF0301482B4851326E336A96
:103F1000000E321802E1010E331801E1486B010E68
:103F2000DB2AA1D7000E02D0010E00D0326E020EA5
:103F3000E15C02E2E16AE552E16E3250E552E7CF20
:103F4000D9FF12000650E66EE66A400EE66E810E5C
:103F5000E66E000EE66E4EEC44F0326E050EE15E4B
:103F6000325012000101995108E0010E326E655085
:103F7000020B01E0010E325C1BE10201D307000ECF
:103F8000D45BD5510BE1D351D41107E18D80D00E14
:103F9000D36F070ED46F010ED56F09D0D351D41152
:103FA00006E18D90D00ED36F070ED46FD56B48D03D
:103FB000990509E0020E995D06E0040E995D03E0A3
:103FC000100E995D02E18D803BD0200E995D38E1A5
:103FD0000201D307000ED45BD5510BE1D351D411AC
:103FE00007E18D80100ED36F270ED46F010ED56FB1
:103FF00027D0D5050BE1D351D41107E18D90100ED8
:10400000D36F270ED46F020ED56F1AD0020ED55D76
:104010000BE1D351D41107E18D80A00ED36F860E32
:10402000D46F030ED56F0CD0030ED55D09E3D351C9
:10403000D41106E18D90100ED36F270ED46FD56B7F
:104040001200000E03D0010E01D000D01200D9CF13
:10405000E6FFE1CFD9FF020EE126FD0EDBCFE9FF3F
:10406000FE0EDBCFEAFFEF50010B326EFC0EDB5091
:10407000325C70E0DF6AFD0EDBCFE9FFFE0EDBCFC6
:10408000EAFFEE52EF50050802E2010EDF6EFC0E71
:10409000DB5047E1FD0EDBCFE9FFFE0EDBCFEAFF91
:1040A0000A0EE926000EEA22EF04E76E010EE7CFC2
:1040B000DBFFDF502BE0070E356E010EDB50070BE8
:1040C000355C366E010E365204E0E846FE0B3606CD
:1040D000FCE1346EFD0EDBCFE9FFFE0EDBCFEAFF25
:1040E000020EE926000EEA22E9CF32F0EACF33F0E1
:1040F000010EDB50F80BE842E842E8420F0132249F
:10410000E96E000E3320EA6E3450EF12FD0EDBCF65
:10411000E9FFFE0EDBCFEAFF0A0EE926000EEA22D7
:10412000EF2AFD0EDBCFE9FFFE0EDBCFEAFFEE52FA
:10413000EF6AFC0EDB50326EFD0EDBCFE9FFFE0EA8
:10414000DBCFEAFF3250010BF36EFE0EEF14F310DB
:10415000EF6E2DD0FD0EDBCFE9FFFE0EDBCFEAFFC9
:10416000EE52EFCF32F0640E325C09E2FD0EDBCF8F
:10417000E9FFFE0EDBCFEAFFEE52EF2A18D0FD0E6C
:10418000DBCFE9FFFE0EDBCFEAFF0A0EE926000EC9
:10419000EA22EF500CE0FD0EDBCFE9FFFE0EDBCF95
:1041A000EAFF0B0EE926000EEA22010EEF6E020E68
:1041B000E15C02E2E16AE552E16EE552E7CFD9FF48
:1041C0001200D9CFE6FFE1CFD9FF020EE126FD0EA6
:1041D000DBCFE9FFFE0EDBCFEAFF0A0EE926000E79
:1041E000EA22EFCFDFFFDE52640EDD6EFD0EDBCF85
:1041F000E9FFFE0EDBCFEAFF0C0EE926000EEA22F5
:10420000EF041AE1FD0EDBCFE9FFFE0EDBCFEAFF84
:104210000A0EE926000EEA22EF500EE0FC0EDBCF7C
:10422000E6FFFD0EDBCFE6FFFE0EDBCFE6FF0FDF86
:10423000E552E552E552A7D2FD0EDBCFE9FFFE0EB7
:10424000DBCFEAFF0C0EE926000EEA22EF50040A4B
:1042500008E0050A05E0030A03E0010A01E000D0D6
:1042600004D0DE52280EDD6E00D0FD0EDBCFE9FF5C
:10427000FE0EDBCFEAFFEF50010B326EFC0EDB507F
:10428000325C2FE1FD0EDBCFE9FFFE0EDBCFEAFF54
:10429000EE52EFCF32F0010EDB50325C09E2FD0E40
:1042A000DBCFE9FFFE0EDBCFEAFFEE52EF2A18D09C
:1042B000FD0EDBCFE9FFFE0EDBCFEAFF0A0EE9269B
:1042C000000EEA22EF500CE0FD0EDBCFE9FFFE0E00
:1042D000DBCFEAFF0B0EE926000EEA22010EEF6E9D
:1042E00052D2FC0EDB50326EFD0EDBCFE9FFFE0E2C
:1042F000DBCFEAFF3250010BF36EFE0EEF14F3102A
:10430000EF6EFC0EDB5001E055D1FD0EDBCFE9FF77
:10431000FE0EDBCFEAFFEE52EFCF32F0010EDB50A4
:10432000325C01E346D1DF5001E09FD0FD0EDBCFD0
:10433000E9FFFE0EDBCFEAFF0C0EE926000EEA22B3
:10434000EF50040A01E178D0070A55E0010A10E0B5
:10435000030A01E000D0FD0EDBCFE9FFFE0EDBCF4C
:10436000EAFF0D0EE926000EEA22030EEF6E71D071
:10437000FD0EDBCFE9FFFE0EDBCFEAFFEE52EF5082
:10438000030DF350FE0BE842E66EFD0EDBCFE9FFB6
:10439000FE0EDBCFEAFF0D0EE926000EEA22E55203
:1043A000E750EF6E070E356EDF14355C366E010E8A
:1043B000365204E0E846FE0B3606FCE1346EFD0E94
:1043C000DBCFE9FFFE0EDBCFEAFF020EE926000E8F
:1043D000EA22E9CF32F0EACF33F0DF50F80BE842BF
:1043E000E842E8420F013224E96E000E3320EA6E03
:1043F0003450EF122ED0FD0EDBCFE9FFFE0EDBCFE7
:10440000EAFFEE52EFCF32F0030E336E33C02CF0E2
:1044100032C027F01FEC46F02750E66EFD0EDBCFD2
:10442000E9FFFE0EDBCFEAFF0D0EE926000EEA22C1
:10443000E552E750EF6E0DD0FD0EDBCFE9FFFE0E2B
:10444000DBCFEAFF0D0EE926000EEA220A0EEF6E20
:1044500000D0FD0EDBCFE9FFFE0EDBCFEAFF0A0E38
:10446000E926000EEA22EF2AA4D0400EDF5C01E329
:10447000A0D0FD0EDBCFE9FFFE0EDBCFEAFF0C0E76
:10448000E926000EEA22EF50040A01E186D0070A6D
:1044900043E0010A01E000D0FD0EDBCFE9FFFE0E94
:1044A000DBCFEAFFEE52EFCF32F0FD0EDBCFE9FFBC
:1044B000FE0EDBCFEAFF0D0EE926000EEA22EF50DA
:1044C000D880325428E2070E356EDF14355C366E24
:1044D000010E365204E0E846FE0B3606FCE1346E6F
:1044E000FD0EDBCFE9FFFE0EDBCFEAFF020EE92671
:1044F000000EEA22E9CF32F0EACF33F0DF50F80BBA
:10450000E842E842E8420F013224E96E000E33200F
:10451000EA6E3450EF1242D0DF06FD0EDBCFE9FF2A
:10452000FE0EDBCFEAFFEE52EFCF32F0FD0EDBCF17
:10453000E9FFFE0EDBCFEAFF0D0EE926000EEA22B0
:10454000EF50D880325428E2070E356EDF14355C08
:10455000366E010E365204E0E846FE0B3606FCE1EC
:10456000346EFD0EDBCFE9FFFE0EDBCFEAFF020E5D
:10457000E926000EEA22E9CF32F0EACF33F0DF502D
:10458000F80BE842E842E8420F013224E96E000EDF
:104590003320EA6E3450EF1201D000D0FD0EDBCF95
:1045A000E9FFFE0EDBCFEAFF0A0EE926000EEA2243
:1045B000EF2AE1D0DF5001E089D0FD0EDBCFE9FF2B
:1045C000FE0EDBCFEAFFEE52EF50280818E2FD0E98
:1045D000DBCFE9FFFE0EDBCFEAFFEE52EFCF32F08A
:1045E000320E325C0CE2FD0EDBCFE9FFFE0EDBCFBC
:1045F000EAFF0C0EE926000EEA22010EEF6EFD0E18
:10460000DBCFE9FFFE0EDBCFEAFFEE52EF501908D9
:1046100018E2FD0EDBCFE9FFFE0EDBCFEAFFEE5224
:10462000EFCF32F0240E325C0CE2FD0EDBCFE9FF5F
:10463000FE0EDBCFEAFF0C0EE926000EEA22020E88
:10464000EF6EFD0EDBCFE9FFFE0EDBCFEAFFEE5291
:10465000EF500D0818E2FD0EDBCFE9FFFE0EDBCFB9
:10466000EAFFEE52EFCF32F0150E325C0CE2FD0E97
:10467000DBCFE9FFFE0EDBCFEAFF0C0EE926000ED2
:10468000EA22030EEF6EFD0EDBCFE9FFFE0EDBCF5D
:10469000EAFFEE52EF50040818E2FD0EDBCFE9FF0F
:1046A000FE0EDBCFEAFFEE52EFCF32F00A0E325CA5
:1046B0000CE2FD0EDBCFE9FFFE0EDBCFEAFF0C0EB6
:1046C000E926000EEA22040EEF6E55D0FD0EDBCF78
:1046D000E9FFFE0EDBCFEAFF0C0EE926000EEA2210
:1046E000EF50040A08E0050A05E0030A03E0010AA6
:1046F00001E000D040D0FD0EDBCFE9FFFE0EDBCFA6
:10470000EAFFEE52EFCF32F0FD0EDBCFE9FFFE0EF7
:10471000DBCFEAFF0D0EE926000EEA22EF50D8802B
:10472000325428E2070E356EDF14355C366E010E0A
:10473000365204E0E846FE0B3606FCE1346EFD0E10
:10474000DBCFE9FFFE0EDBCFEAFF020EE926000E0B
:10475000EA22E9CF32F0EACF33F0DF50F80BE8423B
:10476000E842E8420F013224E96E000E3320EA6E7F
:104770003450EF1200D0FD0EDBCFE9FFFE0EDBCF91
:10478000EAFFEE52EF6A020EE15C02E2E16AE552F4
:10479000E16EE552E7CFD9FF1200D9CFE6FFE1CFB6
:1047A000D9FFE652020EDF6E0301B451330A0BE06B
:1047B000010A06E0030A01E006D0020EDF6E06D011
:1047C000040EDF6E03D0080EDF6E00D0B351EA6A2C
:1047D0004F0FE96E030EEA22EF501FE0B3A103D0A2
:1047E000DF50891202D0DF1C8916B351EA6A4F0FDD
:1047F000E96E030EEA22EF06B351EA6A4F0FE96E43
:10480000030EEA22EF5008E1B32B4E51B35D04E1F1
:104810004E6BB36BDF50891204D04E6BB36BDF501D
:104820008912E552E552E7CFD9FF1200D9CFE6FF52
:10483000E1CFD9FFE6520201EE2B000EEF23817487
:1048400093948150400B01E0010EE66EB50EE66ECA
:10485000030EE66EB6DCE552E552E5528150800B60
:1048600001E0010EE66EC30EE66E030EE66EA9DCF5
:10487000E552E552E5528050010BE66ED10EE66E30
:10488000030EE66E9EDCE552E552E55203014E5101
:1048900001E083DF0A0E0201EFAF02D0D89003D00F
:1048A000EE5D000EEF5901E2CDD1EE6BEF6BF02B18
:1048B0000A0EF05D01E3F06BDF6ADFCF32F0336A9E
:1048C00032BE3368020133508119E8AE02D081351F
:1048D00004D08051325C8151335801E3B3D1DFCF32
:1048E000E9FFEA6AE9BEEA68E60EE926020EEA2274
:1048F000EF5064E0DFCFE9FFEA6AE9BEEA68D60E6E
:10490000E926020EEA22EF50440A43E0070A2DE0AE
:10491000010A17E0030A01E050D0DFCFE9FFEA6A9D
:10492000E9BEEA68DA0EE926020EEA22EF50326E9C
:10493000010E325204E0E846FE0B3206FCE1891219
:104940003CD0DFCFE9FFEA6AE9BEEA68DA0EE92681
:10495000020EEA22EF50326E010E325204E0E846B7
:10496000FE0B3206FCE18A1228D0DFCFE9FFEA6AAB
:10497000E9BEEA68DA0EE926020EEA22EF50326E4C
:10498000010E325204E0E846FE0B3206FCE18B12C7
:1049900014D0DFCFE9FFEA6AE9BEEA68DA0EE92659
:1049A000020EEA22EF50326E010E325204E0E84667
:1049B000FE0B3206FCE18C1200D067D0DFCFE9FF9E
:1049C000EA6AE9BEEA68D60EE926020EEA22EF504C
:1049D000440A46E0070A2FE0010A18E0030A01E052
:1049E00054D0DFCFE9FFEA6AE9BEEA68DA0EE926C9
:1049F000020EEA22EF50326E010E325204E0E84617
:104A0000FE0B3206FCE1E81C89163FD0DFCFE9FF40
:104A1000EA6AE9BEEA68DA0EE926020EEA22EF50F7
:104A2000326E010E325204E0E846FE0B3206FCE123
:104A3000E81C8A162AD0DFCFE9FFEA6AE9BEEA68F5
:104A4000DA0EE926020EEA22EF50326E010E3252E1
:104A500004E0E846FE0B3206FCE1E81C8B1615D09C
:104A6000DFCFE9FFEA6AE9BEEA68DA0EE926020E5C
:104A7000EA22EF50326E010E325204E0E846FE0B9D
:104A80003206FCE1E81C8C1600D0DFCFE9FFEA6AB1
:104A9000E9BEEA68EA0EE926020EEA22EFCF32F01A
:104AA0000201F051D880325464E2DFCFE9FFEA6AB4
:104AB000E9BEEA68DE0EE926020EEA22EF50440A59
:104AC00043E0070A2DE0010A17E0030A01E050D095
:104AD000DFCFE9FFEA6AE9BEEA68E20EE926020EE4
:104AE000EA22EF50326E010E325204E0E846FE0B2D
:104AF0003206FCE189123CD0DFCFE9FFEA6AE9BE69
:104B0000EA68E20EE926020EEA22EF50326E010E4A
:104B1000325204E0E846FE0B3206FCE18A1228D04D
:104B2000DFCFE9FFEA6AE9BEEA68E20EE926020E93
:104B3000EA22EF50326E010E325204E0E846FE0BDC
:104B40003206FCE18B1214D0DFCFE9FFEA6AE9BE3E
:104B5000EA68E20EE926020EEA22EF50326E010EFA
:104B6000325204E0E846FE0B3206FCE18C1200D023
:104B700067D0DFCFE9FFEA6AE9BEEA68DE0EE92620
:104B8000020EEA22EF50440A46E0070A2FE0010A2B
:104B900018E0030A01E054D0DFCFE9FFEA6AE9BE7A
:104BA000EA68E20EE926020EEA22EF50326E010EAA
:104BB000325204E0E846FE0B3206FCE1E81C89169E
:104BC0003FD0DFCFE9FFEA6AE9BEEA68E20EE926F4
:104BD000020EEA22EF50326E010E325204E0E84635
:104BE000FE0B3206FCE1E81C8A162AD0DFCFE9FF73
:104BF000EA6AE9BEEA68E20EE926020EEA22EF500E
:104C0000326E010E325204E0E846FE0B3206FCE141
:104C1000E81C8B1615D0DFCFE9FFEA6AE9BEEA6827
:104C2000E20EE926020EEA22EF50326E010E3252F7
:104C300004E0E846FE0B3206FCE1E81C8C1600D0CE
:104C4000DF2A3BD6E552E552E7CFD9FF1200D9CF94
:104C5000E6FFE1CFD9FF070EE126040EE66EE66A15
:104C6000E66AD60EE66E020EE66E01EC44F0326E97
:104C7000050EE15E3250040EE66EE66AE66ADA0E72
:104C8000E66E020EE66E01EC44F0326E050EE15E59
:104C90003250040EE66EE66AE66ADE0EE66E020E3C
:104CA000E66E01EC44F0326E050EE15E3250040E09
:104CB000E66EE66AE66AE20EE66E020EE66E01EC6B
:104CC00044F0326E050EE15E32500201806B816B62
:104CD000DE6ADD6ADECF32F0DDCF33F0D8903350BC
:104CE00004E6040E325C000E335801E3D2D1010E0B
:104CF000E66EDECF32F0DDCF33F0D60E3226020E76
:104D0000332232C0E6FF33C0E6FF050EE66E28EC24
:104D10001DF0E552E552E552E552010EE66EDECF9A
:104D200032F0DDCF33F0DA0E3226020E332232C0FB
:104D3000E6FF33C0E6FF010EE66E28EC1DF0E552FB
:104D4000E552E552E552010EE66EDECF32F0DDCFE0
:104D500033F0DE0E3226020E332232C0E6FF33C0BD
:104D6000E6FF050EE66E28EC1DF0E552E552E55231
:104D7000E552010EE66EDECF32F0DDCF33F0E20E0B
:104D80003226020E332232C0E6FF33C0E6FF010EA8
:104D9000E66E28EC1DF0E552E552E552E552DECF15
:104DA000E9FFDDCFEAFFDE0EE926020EEA22EF5030
:104DB00001E16AD10201802B000E8123D950020F3C
:104DC000326EDACF33F0030E32C0DBFF040E33C095
:104DD000DBFFDECFE9FFDDCFEAFFD60EE926020ECC
:104DE000EA22EF50440A40E0070A2BE0010A16E0ED
:104DF000030A01E04CD0D950030FE96EDACFEAFF85
:104E0000920EEE6E0F0EED6ED950050FE96EDACFF1
:104E1000EAFF890EEE6E0F0EED6E39D0D950030FFA
:104E2000E96EDACFEAFF930EEE6E0F0EED6ED950FB
:104E3000050FE96EDACFEAFF8A0EEE6E0F0EED6E09
:104E400026D0D950030FE96EDACFEAFF940EEE6E4A
:104E50000F0EED6ED950050FE96EDACFEAFF8B0E1B
:104E6000EE6E0F0EED6E13D0D950030FE96EDACF50
:104E7000EAFF950EEE6E0F0EED6ED950050FE96E3E
:104E8000DACFEAFF8C0EEE6E0F0EED6E00D0DECFA5
:104E9000E9FFDDCFEAFFDA0EE926020EEA22EF5043
:104EA000336E010E335204E0E846FE0B3306FCE19C
:104EB000E81C326E030EDBCFE9FF040EDBCFEAFF06
:104EC000EF503214E66E030EDBCFE9FF040EDBCFAA
:104ED000EAFFE552E750EF6EDECFE9FFDDCFEAFFF4
:104EE000DA0EE926020EEA22EF50336E010E33523B
:104EF00004E0E846FE0B3306FCE1E81C326E050ECA
:104F0000DBCFE9FF060EDBCFEAFFEF503214E66E8F
:104F1000050EDBCFE9FF060EDBCFEAFFE552E750D7
:104F2000EF6ED950020F326EDACF33F0030E32C07B
:104F3000DBFF040E33C0DBFFDECFE9FFDDCFEAFF8E
:104F4000DE0EE926020EEA22EF50440A40E0070A8C
:104F50002BE0010A16E0030A01E04CD0D950030F00
:104F6000E96EDACFEAFF920EEE6E0F0EED6ED950BB
:104F7000050FE96EDACFEAFF890EEE6E0F0EED6EC9
:104F800039D0D950030FE96EDACFEAFF930EEE6EF7
:104F90000F0EED6ED950050FE96EDACFEAFF8A0EDB
:104FA000EE6E0F0EED6E26D0D950030FE96EDACFFC
:104FB000EAFF940EEE6E0F0EED6ED950050FE96EFE
:104FC000DACFEAFF8B0EEE6E0F0EED6E13D0D950D6
:104FD000030FE96EDACFEAFF950EEE6E0F0EED6E5F
:104FE000D950050FE96EDACFEAFF8C0EEE6E0F0E88
:104FF000ED6E00D0DECFE9FFDDCFEAFFE20EE9265D
:10500000020EEA22EF50336E010E335204E0E846FE
:10501000FE0B3306FCE1E81C326E030EDBCFE9FF2A
:10502000040EDBCFEAFFEF503214E66E030EDBCF47
:10503000E9FF040EDBCFEAFFE552E750EF6EDECF6B
:10504000E9FFDDCFEAFFE20EE926020EEA22EF5089
:10505000336E010E335204E0E846FE0B3306FCE1EA
:10506000E81C326E050EDBCFE9FF060EDBCFEAFF50
:10507000EF503214E66E050EDBCFE9FF060EDBCFF4
:10508000EAFFE552E750EF6EDF2A010E01E3DB2A6B
:1050900021D680C2E6FF81C2E6FF2E0EE66E810EAB
:1050A000E66E000EE66E4EEC44F0326E050EE15EEA
:1050B0003250DE6ADD6ADECF32F0DDCF33F002013E
:1050C00033508119E8AE02D0813504D08051325C72
:1050D000815133583DE2DECFE9FFDDCFEAFFE20E3A
:1050E000E926020EEA22EF50E66EE66ADECFE9FF1D
:1050F000DDCFEAFFDE0EE926020EEA22EF50E66E71
:10510000E66ADECFE9FFDDCFEAFFDA0EE926020E1E
:10511000EA22EF50E66EE66ADECFE9FFDDCFEAFF76
:10512000D60EE926020EEA22EF50E66EE66A220E5D
:10513000E66E810EE66E000EE66E4EEC44F0326EC8
:105140000B0EE15E3250DF2A010E01E3DB2AB3D7FA
:105150008950E66EE66A9250E66EE66A0F0EE66EDB
:10516000810EE66E000EE66E4EEC44F0326E070ED7
:10517000E15E325095EC11F0070EE15C02E2E16A6B
:10518000E552E16EE552E7CFD9FF1200D9CFE6FF35
:10519000E1CFD9FF060EE126DE6ADD6ADECF32F00E
:1051A000DDCF33F0D890335004E6040E325C000EAD
:1051B000335801E39AD0010EE66ED950020F346ED7
:1051C000DACF35F0DE503424326EDD503520336EC8
:1051D00032C0E6FF33C0E6FFE66A28EC1DF0E55278
:1051E000E552E552E552000901E07AD0D950020FAC
:1051F000336EDACF34F0DE503324E96EDD503420E4
:10520000EA6EEFCF32F0323428E3DECFE9FFDDCFB4
:10521000EAFFE60EE926020EEA22010EEF6ED950F1
:10522000020F346EDACF35F0DE503424E96EDD50F3
:105230003520EA6EEF50FF0DF350E66ED950020FA5
:10524000326EDACF33F0DE503224E96EDD50332097
:10525000EA6EE552E750EF6E09D0DECFE9FFDDCF11
:10526000EAFFE60EE926020EEA22EF6AD950020FA3
:10527000326EDACF33F0DE503224E96EDD50332067
:10528000EA6EEF50E66EDECFE9FFDDCFEAFFEA0E11
:10529000E926020EEA22E552E750EF6EDECFE9FF83
:1052A000DDCFEAFFEA0EE926020EEA22EF50E66EB3
:1052B000E66ADECFE9FFDDCFEAFFE60EE926020E61
:1052C000EA22EF50E66EE66A060EE66E810EE66EA4
:1052D000000EE66E4EEC44F0326E070EE15E325088
:1052E000DF2A010E01E3DB2A59D779B00AD03F0E3D
:1052F00079140009796E7998799AA282A192A08294
:1053000079808950E66EE66A9250E66EE66A0F0E84
:10531000E66E810EE66E000EE66E4EEC44F0326EE6
:10532000070EE15E32500201F051E66EE66A010EB0
:10533000E66E810EE66E000EE66E4EEC44F0326EC6
:10534000050EE15E325095EC11F0060EE15C02E2D2
:10535000E16AE552E16EE552E7CFD9FF1200D9CFFD
:10536000E6FFE1CFD9FF020EE12603014851EA6AC8
:10537000000FE96E070EEA22EF502C0817E04851A3
:10538000EA6A000FE96E070EEA22EF50E66EE66A5F
:105390004C0EE66E810EE66E000EE66E4EEC44F0AC
:1053A000326E050EE15E32500D8A8FD0482B485187
:1053B000326E336A000E321802E1010E331801E139
:1053C000486B4851EA6A000FE96E070EEA22EFCFF8
:1053D000B4F3482B4851326E336A000E321802E1A2
:1053E000010E331801E1486B640EE66EE66AE66A68
:1053F0004F0EE66E030EE66E01EC44F0326E050EC3
:10540000E15E3250FE0EE66E800EE66E000EE66E37
:105410004EEC44F0E552E552E552DE6ADD6ADECF3D
:1054200032F0DDCF33F0D890335004E6640E325CB6
:10543000000E335835E2010EE66EDECF32F0DDCFDE
:1054400033F04F0E3226030E332232C0E6FF33C054
:10545000E6FFE66A28EC1DF0E552E552E552E5521A
:1054600000091BE1DECFE9FFDDCFEAFF4F0EE926A1
:10547000030EEA22EF50E66EE66AFA0EE66E800E42
:10548000E66E000EE66E4EEC44F0326E050EE15E06
:105490003250DF2A010E03E301D002D0DB2ABFD74E
:1054A0000301B36BDFCF4EF34E51E66EE66AEA0EB0
:1054B000E66E800EE66E000EE66E4EEC44F0326E46
:1054C000050EE15E325095EC11F0020EE15C02E255
:1054D000E16AE552E16EE552E7CFD9FF1200D9CF7C
:1054E000E6FFE1CFD9FF050EE126020EDB6A030ECF
:1054F000DB6A310EF36E040EF3CFDBFF030148517C
:10550000EA6A000FE96E070EEA22EF502C0817E056
:105510004851EA6A000FE96E070EEA22EF50E66E84
:10552000E66A4C0EE66E810EE66E000EE66E4EECFE
:1055300044F0326E050EE15E32500D8A4DD3482B99
:105540004851326E336A000E321802E1010E3318F0
:1055500001E1486B4851EA6A000FE96E070EEA2242
:10556000EFCFB4F3482B4851326E336A000E321835
:1055700002E1010E331801E1486B4851EA6A000F5D
:10558000E96E070EEA22EF502C0817E04851EA6A4C
:10559000000FE96E070EEA22EF50E66EE66A4C0E47
:1055A000E66E810EE66E000EE66E4EEC44F0326E54
:1055B000050EE15E32500D8A0FD3482B4851326EF2
:1055C000336A000E321802E1010E331801E1486B14
:1055D0004851EA6A000FE96E070EEA22040EEFCF87
:1055E000DBFF482B4851326E336A000E321802E15D
:1055F000010E331801E1486B4851EA6A000FE96E69
:10560000070EEA22EF502C0817E04851EA6A000F13
:10561000E96E070EEA22EF50E66EE66A4C0EE66E81
:10562000810EE66E000EE66E4EEC44F0326E050E14
:10563000E15E32500D8AD0D2482B4851326E336A27
:10564000000E321802E1010E331801E1486BB36B12
:10565000040EDB50350A55E0010A3AE0070A1FE064
:10566000010A04E0030A01E001D04CD0020EDBCFB6
:10567000F3FFDB2AF350EA6A4F0FE96E030EEA22CA
:105680002D0EEF6E020EDBCFF3FFDB2AF350EA6A3A
:105690004F0FE96E030EEA22140EEF6E33D0020EA6
:1056A000DBCFF3FFDB2AF350EA6A4F0FE96E030EFC
:1056B000EA222D0EEF6E020EDBCFF3FFDB2AF35052
:1056C000EA6A4F0FE96E030EEA220A0EEF6E1AD055
:1056D000020EDBCFF3FFDB2AF350EA6A4F0FE96ECD
:1056E000030EEA22110EEF6E020EDBCFF3FFDB2A70
:1056F000F350EA6A4F0FE96E030EEA22080EEF6ECE
:1057000001D000D003014851EA6A000FE96E070E8C
:10571000EA22EF500D0801E121D24851EA6A000F58
:10572000E96E070EEA22EF50E66EE66A82EC45F07B
:10573000E552E552010EF3CFDBFF300EF36E010EA2
:10574000DBCFF4FFF350F45C0FE3010EDB503908BC
:105750000BE3300E326E010EDBCFE7FF3250E75E17
:10576000010EE7CFDBFF19D0410EF36E010EDBCF48
:10577000F4FFF350F45C0FE3010EDB5046080BE33B
:10578000370E326E010EDBCFE7FF3250E75E010EBF
:10579000E7CFDBFF02D00D8C1FD2DB38F00BDF6EC2
:1057A0000301482B4851326E336A000E321802E171
:1057B000010E331801E1486B0D0E326E4851EA6A52
:1057C000000FE96E070EEA22EF50325C02E10D880D
:1057D00003D24851EA6A000FE96E070EEA22EF5041
:1057E000E66EE66A82EC45F0E552E552010EF3CF33
:1057F000DBFF300EF36E010EDBCFF4FFF350F45CF1
:105800000FE3010EDB5039080BE3300E326E010E50
:10581000DBCFE7FF3250E75E010EE7CFDBFF19D0A9
:10582000410EF36E010EDBCFF4FFF350F45C0FE397
:10583000010EDB5046080BE3370E326E010EDBCF54
:10584000E7FF3250E75E010EE7CFDBFF02D00D8CA1
:10585000C3D1DB50DF24DF6E0301482B4851326E89
:10586000336A000E321802E1010E331801E1486B71
:10587000040EDB50350A01E116D1010A01E1BBD06B
:10588000060A5FE0010A5DE0020A01E05AD0030E59
:10589000DB6A080EF36E030EDBCFF4FFF350F45C0B
:1058A0004FE2630EF36E020EDBCFF4FFF350F45CB5
:1058B00044E2030EDBCFE6FF070EE552D880E75443
:1058C000326EDF5032C0E7FFE75204E0E8427F0B60
:1058D000E706FCE1010B19E0020EDBCFF3FFDB2A48
:1058E000F350EA6A4F0FE96E030EEA22050EEF6EDF
:1058F000020EDBCFF3FFDB2AF350EA6A4F0FE96EAB
:10590000030EEA22100EEF6E18D0020EDBCFF3FF6B
:10591000DB2AF350EA6A4F0FE96E030EEA22050E06
:10592000EF6E020EDBCFF3FFDB2AF350EA6A4F0F74
:10593000E96E030EEA22040EEF6E030EDB2AA9D7EE
:105940000CD1030EDB6A080EF36E030EDBCFF4FFFF
:10595000F350F45C4FE2630EF36E020EDBCFF4FF04
:10596000F350F45C44E2030EDBCFE6FF070EE55292
:10597000D880E754326EDF5032C0E7FFE75204E0D0
:10598000E8427F0BE706FCE1010B19E0020EDBCFDA
:10599000F3FFDB2AF350EA6A4F0FE96E030EEA22A7
:1059A000030EEF6E020EDBCFF3FFDB2AF350EA6A41
:1059B0004F0FE96E030EEA22080EEF6E18D0020EAA
:1059C000DBCFF3FFDB2AF350EA6A4F0FE96E030ED9
:1059D000EA22030EEF6E020EDBCFF3FFDB2AF35059
:1059E000EA6A4F0FE96E030EEA22030EEF6E030E12
:1059F000DB2AA9D7B2D0030EDB6A080EF36E030EC2
:105A0000DBCFF4FFF350F45C4DE2630EF36E020E55
:105A1000DBCFF4FFF350F45C42E2030EDBCFE6FF92
:105A2000070EE552D880E754326EDF5032C0E7FFF0
:105A3000E75204E0E8427F0BE706FCE1010B18E0C7
:105A4000020EDBCFF3FFDB2AF350EA6A4F0FE96E59
:105A5000030EEA22020EEF6EDBCFF3FFDB2AF350D8
:105A6000EA6A4F0FE96E030EEA22060EEF6E17D0B8
:105A7000020EDBCFF3FFDB2AF350EA6A4F0FE96E29
:105A8000030EEA22020EEF6EDBCFF3FFDB2AF350A8
:105A9000EA6A4F0FE96E030EEA22020EEF6E030E62
:105AA000DB2AABD75AD0030EDB6A080EF36E030E67
:105AB000DBCFF4FFF350F45C4FE2630EF36E020EA3
:105AC000DBCFF4FFF350F45C44E2030EDBCFE6FFE0
:105AD000070EE552D880E754326EDF5032C0E7FF40
:105AE000E75204E0E8427F0BE706FCE1010B19E016
:105AF000020EDBCFF3FFDB2AF350EA6A4F0FE96EA9
:105B0000030EEA22110EEF6E020EDBCFF3FFDB2A4B
:105B1000F350EA6A4F0FE96E030EEA22060EEF6EAB
:105B200018D0020EDBCFF3FFDB2AF350EA6A4F0FE7
:105B3000E96E030EEA22060EEF6E020EDBCFF3FFD4
:105B4000DB2AF350EA6A4F0FE96E030EEA22110EC8
:105B5000EF6E030EDB2AA9D700D0D4D5040EDB509C
:105B6000350A34E0010A25E0060A16E0010A14E0CD
:105B7000020A01E011D0020EDBCFF3FFDB2AF35063
:105B8000EA6A4F0FE96E030EEA22050EEF6E200E51
:105B90004F6F040E506F1BD0020EDBCFF3FFDB2ADA
:105BA000F350EA6A4F0FE96E030EEA22030EEF6E1E
:105BB0000ED0020EDBCFF3FFDB2AF350EA6A4F0F61
:105BC000E96E030EEA22020EEF6E01D000D0020E43
:105BD000DBCF4EF395EC11F0050EE15C02E2E16AD9
:0C5BE000E552E16EE552E7CFD9FF12005C
:045BEC00D9CFE6FF28
:105BF000E1CFD9FFE652A098636A626A0F01266B73
:105C0000020EE66EE66AE66A270EE66E0F0EE66E96
:105C100001EC44F0326E050EE15E32500F01160EBB
:105C2000396F9F0E376F7B0E366FDF6ADF50326E33
:105C3000336A0C0E325C000E335810E2DF50040D54
:105C4000F3CFE9FFF4CFEAFF000EE9260D0EEA22BA
:105C5000EE6AEE6AEE6AEE6ADF2AE8D7658C0F011B
:105C6000386B6598659C62A607D062960101B26B9D
:105C7000B76BB86BB96BF7D70101010ECC6FCD6F65
:105C8000CE6BCF6BC06BDF6A030EDF5C26E2EA6A85
:105C9000DF34FE0BEA36E96EA70EE926010EEA2292
:105CA000EE6AED6AEA6ADF34FE0BEA36E96EA10EAF
:105CB000E926010EEA22EE6AED6ADF50EA6AC40FB5
:105CC000E96E010EEA22EF6ADF50EA6AC70FE96E59
:105CD000010EEA22EF6ADF2AD7D70101080EA76F6B
:105CE0000D0EA86F0F01160E266F0D01300E026FFC
:105CF0000D0E036F080E016F840E006F01019A6B89
:105D0000996BE552E552E7CFD9FF1200D9CFE6FFF4
:105D1000E1CFD9FFE6520101990509E165BA07D043
:105D2000626A0F01368136890101020E996F625055
:105D3000040B07E00F013651040B03E06294FCEC06
:105D400034F065A202D0A1989DD06250010B0AE008
:105D50000F013651010B06E049DFA0880101040E56
:105D6000996F62906250100B07E00F013651100BD3
:105D700003E0E6EC34F0629862AC1AD00F0136AD65
:105D80000FD0010EE66EE66A000EE66EE66A730E4E
:105D9000E66EE66AAAEC42F0326E060EE15E325022
:105DA000629C0101CA5101E0CA07CA5101E110DA3F
:105DB0006250200B06E00F013651200B02E0CCECC4
:105DC00034F06250020B14E00F013651020B10E068
:105DD000010EE66EE66A000EE66EE66AE6687F0E83
:105DE000E66EAAEC42F0326E060EE15E3250636A55
:105DF000040E0101E76E9919E8AE02D0E73402D033
:105E0000E750995D02E2A1983DD00F0136A739D045
:105E1000DF6A040EDF5C35E262A632D064CFC1F1E6
:105E20000101C151780BE842E842E842C26F629634
:105E3000C1B508D0C251EA6AC70FE96E010EEA2265
:105E4000EF7007D0C251EA6AC40FE96E010EEA2270
:105E5000EF70C25103E114EC35F010D0000EE66E85
:105E6000E66AC10EE66E010EE66E720EE66EE66A38
:105E7000AAEC42F0326E060EE15E3250DF2AC9D73C
:105E800000D0A198E552E552E7CFD9FF1200D9CF53
:105E9000E6FFE1CFD9FF020EE126FD0EDBA407D01D
:105EA000E66AFE0EDBCFE6FF24DAE552E552FD0E90
:105EB000DBA208D0010EE66EFE0EDBCFE6FF19DA9C
:105EC000E552E552FE0EDB50336A260F326E0F0E9E
:105ED000332232C0DEFF33C0DDFFDECFE9FFDDCF8E
:105EE000EAFFFD0EDBCFEFFF020EE15C02E2E16AAA
:105EF000E552E16EE552E7CFD9FF1200D9CFE6FFB8
:105F0000E1CFD9FF020EE126FD0EDB500FE0FE0EC1
:105F1000EA6ADB34FE0BEA36E96EA70EE926010ECB
:105F2000EA22EECFDEFFEDCFDDFF0ED0FE0EEA6AF5
:105F3000DB34FE0BEA36E96EA10EE926010EEA22F9
:105F4000EECFDEFFEDCFDDFFD9CFE9FFDACFEAFFFD
:105F5000EE50ED1003E1F36AF46A49D0DECFE9FFB9
:105F6000DDCFEAFF020EE926000EEA22FB0EDBCFB0
:105F7000EEFFFC0EDBCFEDFFDECFE9FFDDCFEAFF6A
:105F8000EE52FA0EDBCFEFFF400E326EDECFE9FFAE
:105F9000DDCFEAFF3250EF16880E326EDECFE9FF1A
:105FA000DDCFEAFF3250EF12FD0EDB500CE0FE0EAB
:105FB000EA6ADB34FE0BEA36E96EA70EE926010E2B
:105FC000EA22EF740BD0FE0EEA6ADB34FE0BEA36EF
:105FD000E96EA10EE926010EEA22EF74DECF32F05F
:105FE000DDCF33F032C0F3FF33C0F4FF00D0020E38
:105FF000E15C02E2E16AE552E16EE552E7CFD9FFEA
:106000001200D9CFE6FFE1CFD9FF020EE126FE0E46
:10601000DB5020E19FC1E9FFA0C1EAFFEE52080E6C
:10602000EF6E9FC1E9FFA0C1EAFF020EE926000E54
:10603000EA22300EEE6E0D0EED6E9FC1E9FFA0C19B
:10604000EAFF8C0EEF6EA7C1E9FFA8C1EAFF840E3C
:10605000EF6E3DD0FD0EDB50E824346EFE0EDB50BB
:10606000040DF3503424040DF3CF32F0F4CF33F0A9
:10607000000E32260D0E332232C0DEFF33C0DDFFAC
:10608000840E326EDECFE9FFDDCFEAFF3250EF1231
:10609000FD0EDB50E824346EFE0EDB50040DF35091
:1060A0003424010F040DF3CF32F0F4CF33F0000E9F
:1060B00032260D0E332232C0DEFF33C0DDFF840EE8
:1060C000326EDECFE9FFDDCFEAFF3250EF12020E73
:1060D000E15C02E2E16AE552E16EE552E7CFD9FF09
:1060E0001200D9CFE6FFE1CFD9FF65A84ED0FE0E52
:1060F000EA6ADB34FE0BEA36E96EA70EE926010EEA
:10610000EA22EE50EFCFEAFFE96E400EEE16EE6A9D
:10611000EE6AEE6AFE0EEA6ADB34FE0BEA36E96EE0
:10612000A70EE926010EEA22EE50EFCFEAFFE96E54
:10613000EE7CFE0EEA6ADB34FE0BEA36E96EA70E51
:10614000E926010EEA22EF74400E326EFE0EEA6A74
:10615000DB34FE0BEA36E96EA70EE926010EEA22D1
:10616000EE50EFCFEAFFE96E3250EF16FE0EEA6A0C
:10617000DB34FE0BEA36E96EA70EE926010EEA22B1
:10618000EE50EFCFEAFFE96EEF7CE552E7CFD9FFA3
:106190001200656A0F01366B0101996B00D0120085
:1061A0000101995114E1656A0F01366B160E396FC2
:1061B0009F0E376F7B0E366FD08EA288A088F28E2E
:1061C00065B602D06586FCD70101010E996F1200F9
:1061D0000101CC514DE1010ECC6FCD5149E1010ED1
:1061E000CD6F020EAE5D0DE1A7C1E9FFA8C1EAFFC8
:1061F000EE52EF6AA7C1E9FFA8C1EAFFC80EEF6E31
:1062000037D0AE0535E1C36B9DC1E9FF9EC1EAFF02
:10621000EE52080EEF6E9DC1E9FF9EC1EAFF020E2D
:10622000E926000EEA22300EEE6E0D0EED6E9DC1D7
:10623000E9FF9EC1EAFF840EEF6E010EC36F9FC19E
:10624000E9FFA0C1EAFFEE52080EEF6E9FC1E9FF21
:10625000A0C1EAFF020EE926000EEA22300EEE6E21
:106260000D0EED6E9FC1E9FFA0C1EAFF800EEF6E3B
:1062700012000101CE6BCF6B020EAE5D1AE19FC121
:10628000E9FFA0C1EAFFEE52080EEF6E9FC1E9FFE1
:10629000A0C1EAFF020EE926000EEA22380EEE6ED9
:1062A0000D0EED6E9FC1E9FFA0C1EAFFC80EEF6EB3
:1062B0001FD0B3510D01365D0101B4510D013759A5
:1062C00004E236CDB3F137CDB4F1D1D8A7C1E9FF9F
:1062D000A8C1EAFF020EE926000EEA22380EEE6E91
:1062E0000D0EED6EA7C1E9FFA8C1EAFFC80EEF6E63
:1062F0001200D9CFE6FFE1CFD9FF020EE126000E52
:10630000DE6E0D0EDD6EFD0EDB50E824346EFE0EEB
:10631000DB50040DF3503424040DF3CF32F0F4CFEE
:1063200033F0D9CFE9FFDACFEAFF3250EE2633500F
:10633000ED22DECFE9FFDDCFEAFFEF9EFD0EDB5061
:106340000FE1FE0EEA6ADB34FE0BEA36E96EA10EBF
:10635000E926010EEA22DECFEEFFDDCFEDFF0ED003
:10636000FE0EEA6ADB34FE0BEA36E96EA70EE9267A
:10637000010EEA22DECFEEFFDDCFEDFFDECFE9FF3B
:10638000DDCFEAFFEF9CDECFE9FFDDCFEAFF040EB1
:10639000E926000EEA22EF8C020EE15C02E2E16ADD
:1063A000E552E16EE552E7CFD9FF12006598010191
:1063B000B2BF2BD0B7AF09D0020EAE6FCF5101E103
:1063C00058DF0101CD6BCC6B1FD09FC1E9FFA0C18D
:1063D000EAFFEE52080EEF6E9FC1E9FFA0C1EAFF8F
:1063E000020EE926000EEA22300EEE6E0D0EED6E64
:1063F0009FC1E9FFA0C1EAFF8C0EEF6EA7C1E9FFC4
:10640000A8C1EAFF840EEF6E31D00D0130AF0DD080
:106410000101010EAE6FCE5101E12BDF0101CD6B09
:10642000CC6BCB5101E1D4DE21D00101020EAE6F65
:106430009FC1E9FFA0C1EAFFEE52080EEF6E9FC1B7
:10644000E9FFA0C1EAFF020EE926000EEA22300EA3
:10645000EE6E0D0EED6E9FC1E9FFA0C1EAFF840E46
:10646000EF6ECD6BCC6BCB5101E1B2DE1200D9CF18
:10647000E6FFE1CFD9FFE652080EDF6E0101B35D02
:10648000000EB4590BE2B3C1DFFFAD5103E1010EC1
:10649000AD6F04D0AD0502E1020EAD6FDF50326E7C
:1064A000336A3250B35DB36F3350B459B46FA7C180
:1064B000E9FFA8C1EAFFEE52DFCFEFFF380EBD6F54
:1064C0000D0EBE6FB2B11CD0DF5019E0AFC1F6FFA8
:1064D000AF2BB0C1F7FF000EB023B1C1F8FFB1235D
:1064E0000800F550E66EBDC1E9FFBEC1EAFFBD2B55
:1064F000000EBE23E552E750EF6EDF06E5D717D05A
:10650000DF5015E0AFC1E9FFB0C1EAFFAF2B000ECD
:10651000B023EF50E66EBDC1E9FFBEC1EAFFBD2B5F
:10652000000EBE23E552E750EF6EDF06E9D7E552D5
:10653000E552E7CFD9FF1200D9CFE6FFE1CFD9FF6F
:10654000020EE1269DC1E9FF9EC1EAFFEE52EFCFA8
:10655000DFFFDFCF32F032500101B85D000EB959D4
:1065600002E2B8C1DFFFDF50326E336A3250B85DED
:10657000B86F3350B959B96F010EDB6ADF50F36E53
:10658000010EDBCFF4FFF350F45C16E2010EDB509A
:10659000EA6A380FE96E0D0EEA22EF50E66EB5C1D9
:1065A000E9FFB6C1EAFFB52B000EB623E552E7506E
:1065B000EF6E010EDB2AE2D7000ED880B855000E30
:1065C000B95528E29FC1E9FFA0C1EAFFEE52080ECB
:1065D000EF6E9FC1E9FFA0C1EAFF020EE926000E9F
:1065E000EA22380EEE6E0D0EED6E9DC1E9FF9EC1E2
:1065F000EAFFEF50400B07E19FC1E9FFA0C1EAFFAE
:10660000C80EEF6E06D09FC1E9FFA0C1EAFF880E59
:10661000EF6E2BD09FC1E9FFA0C1EAFFEE52080E3A
:10662000EF6E9FC1E9FFA0C1EAFF020EE926000E4E
:10663000EA22300EEE6E0D0EED6E9FC1E9FFA0C195
:10664000EAFF840EEF6EBA51BB11BC1109E007D00E
:10665000BCC1FBFFBBC1FAFF0101BA51F96EF8DF03
:106660000101B79FCB5101E1B3DD020EE15C02E213
:10667000E16AE552E16EE552E7CFD9FF1200D9CFCA
:10668000E6FFE1CFD9FFE6520101B28F020EE66EBE
:10669000E66AE66A270EE66E0F0EE66E01EC44F03F
:1066A000326E050EE15E3250300EE66EE66AE66A44
:1066B000000EE66E0D0EE66E01EC44F0326E050E35
:1066C000E15E3250658CDF6A030EDF5C10E2DF5062
:1066D000EA6AC40FE96E010EEA22EF6ADF50EA6A45
:1066E000C70FE96E010EEA22EF6ADF2AEDD7020E2C
:1066F000E66EE66AE66A9B0EE66E010EE66E01EC59
:1067000044F0326E050EE15E3250659C0101080EC8
:10671000A76F0D0EA86F000E9D6F0D0E9E6F9DC191
:106720009FF19EC1A0F132CD9AF19A5103E1100E72
:10673000996F13D0010EE66EE66A9A0EE66E010EB0
:10674000E66E010EE66EE66AAAEC42F0326E060EC6
:10675000E15E32500101200E996FE552E552E7CF1C
:10676000D9FF1200800E0D01305D01E0ACD00101B7
:10677000C00EB26F0D013351030A61E0010A10E04F
:10678000030A03E00101B26B9ED00101F20EAF6F6C
:10679000850EB06F000EB16F120EB36FB46B93D055
:1067A000B30E326E860E336E000E346E32CD35F07F
:1067B000366A376A030E2A6E2B6A2C6A35C025F0BA
:1067C00036C026F037C027F0BAEC41F022C035F0D1
:1067D00023C036F024C037F032503524F36E3350E6
:1067E0003620F46E34503720F86EF4CFF7FFF3CF35
:1067F000F6FF0900F5CFAFF10900F5CFB0F10800C1
:10680000F5CFB1F1AFC1F6FFB0C1F7FFB1C1F8FFED
:10681000020EF626000EF722F8220800F5CFB3F19B
:10682000AFC1F6FFB0C1F7FFB1C1F8FF030EF62606
:10683000000EF722F8220800F5CFB4F144D0030E81
:10684000325D3EE2B60E326E860E336E000E346E50
:1068500032CD35F0366A376A030E2A6E2B6A2C6AFF
:1068600035C025F036C026F037C027F0BAEC41F02D
:1068700022C035F023C036F024C037F03250352422
:10688000F36E33503620F46E34503720F86EF4CF68
:10689000F7FFF3CFF6FF0900F5CFAFF10900F5CF11
:1068A000B0F10800F5CFB1F1AFC1F6FFB0C1F7FF0D
:1068B000B1C1F8FF0800F5500101B36FB46B02D00D
:1068C0000101B26B00D01200D9CFE6FFE1CFD9FFB2
:1068D000020EE1260D01386B396B30511F0B020A95
:1068E00012E0030A0DE0010A01E042D00101B28F7B
:1068F0000D0138810101BF0502E10D01388338D057
:106900000101B28F35D00101B28F0D0134BF10D01B
:1069100034510F0BE96EEA6AD890E936EA36A10ED7
:10692000E926010EEA22EECFDEFFEDCFDDFF0FD02C
:1069300034510F0BE96EEA6AD890E936EA36A70EB1
:10694000E926010EEA22EECFDEFFEDCFDDFFDECF3E
:10695000E9FFDDCFEAFFEF50800B09E0DECFE9FF72
:10696000DDCFEAFFEF50040B02E0010E386F00D0DC
:106970000101B2AF07D0380EAF6F0D0EB06FB2810C
:10698000020EB36F020EE15C02E2E16AE552E16ED3
:10699000E552E7CFD9FF12000F0126A115D09DC106
:1069A000E9FF9EC1EAFFEF5080080DE1A7C1E9FFB2
:1069B000A8C1EAFFEF50840806E19DC1E9FF9EC12E
:1069C000EAFF8C0EEF6E2691629A12000F01368557
:1069D000629865820101010EC06F000EE66EE66AE4
:1069E000E66EE66A750EE66EE66AAAEC42F0326E74
:1069F000060EE15E325012000101C06B000EE66E21
:106A0000E66AE66EE66A740EE66EE66AAAEC42F0A4
:106A1000326E060EE15E325065920F01369562A429
:106A200002D06294FCD71200D9CFE6FFE1CFD9FFA4
:106A3000E65201012D0ECA6FFD0EC11553E17E0E07
:106A4000C115E8407F0B040DF3CF9DF1F4CF9EF10B
:106A5000000E9D270D0E9E239DC19FF19EC1A0F1AA
:106A60009F759DC1E9FF9EC1EAFFEF503C0BE842D4
:106A7000E8420D0835E1DF6A080EDF5C23E29DC1C4
:106A8000E9FF9EC1EAFF020EE926000EEA22EE505F
:106A9000EFCFEAFFE96EEF50E66EDF50EA6A300FA3
:106AA000E96E0D0EEA22E552E750EF6E9DC1E9FF57
:106AB0009EC1EAFF020EE926000EEA22EE2AEF222C
