:020000040000FA
:060000009CEF44F0120029
:0600080004EF08F01200F5
:060018000CEF08F01200DD
:061000009CEF44F0120019
:06100800B7EF09F0120031
:0610180022EF08F01200B7
:06102A0002002B8A000009
:10103000FB02000002000000BA89000080020000EC
:04104000710000003B
:0C104400D8CFE4FFE0CFE4FFE46EDACF89
:10105000E4FFE9CFE4FFEACFE4FFF3CFE4FFF4CF0E
:10106000E4FFE6529EA200D19E92030E406E0E5007
:10107000EA6A510FE96E010EEA22EF50405C30E15E
:101080000E50E96EEA6AD890E936EA36690EE9262A
:10109000010EEA22EECF40F0EFCF41F041C040F028
:1010A000416A4050D76E0E50E96EEA6AD890E93630
:1010B000EA36690EE926010EEA22EECF40F0EFCFC4
:1010C00041F04050D66EF28AF294D58E0E50EA6A04
:1010D000510FE96E010EEA22040EEF6E0E50106EF3
:1010E000020E406E0F50EA6A510FE96E010EEA22BD
:1010F000EF50405C49E10F50E96EEA6AD890E9365A
:10110000EA36690EE926010EEA22EE50ED1009E1F9
:101110000F50EA6A510FE96E010EEA22010EEF6EDE
:1011200033D0080E0F5C0CE2070E0F14406E010E58
:10113000405204E0E846FE0B4006FCE189121AD05A
:10114000100E0F5C0CE2070E0F14406E010E4052A1
:1011500004E0E846FE0B4006FCE18A120BD0070EC5
:101160000F14406E010E405204E0E846FE0B4006AC
:10117000FCE18B120F50EA6A510FE96E010EEA2270
:10118000030EEF6E0F500E6E0F2A060E0F5C02E17B
:10119000080E04D0130E0F5C03E1160E0F6E04D080
:1011A000180E0F5C01E10F6A000ED8800254000E89
:1011B00003542EE2112A000E12220250115C035039
:1011C000125826E3116A126A030E065C1FE20450ED
:1011D000EA6A480FE96E010EEA2280CFEFFF045061
:1011E000EA6A4B0FE96E010EEA2281CFEFFF04504D
:1011F000EA6A4E0FE96E010EEA2282CFEFFF042A5F
:10120000030E045C01E3046A062A02D0026A036A40
:10121000000ED8800754000E085419E20C50000844
:1012200016E2132A000E14220750135C08501458BB
:101230000EE3136A146A030E0B5C07E2092A030E1D
:10124000095C01E3096A0B2A02D0076A086A0C509C
:1012500000080AE2156A1550040DF328C26E9E9C20
:101260009F9C9D8CC280C2829EAC2CD09E9CC45000
:10127000446E456E446AC35000014410426E45C03E
:1012800043F01550060DF3CF40F0F4CF41F0000EBF
:101290004026010E41220950020D4050F324E96E10
:1012A0004150F420EA6E42C0EEFF43C0EDFF152A24
:1012B0000C50155C02E39D9C05D01550040DF328DD
:1012C000C26EC282F2A442D0D59EF294F29A040E6B
:1012D000406E1050EA6A510FE96E010EEA22EF509B
:1012E000405C34E1080E105C0DE2070E1014406EF5
:1012F000010E405204E0E846FE0B4006FCE1E81C0B
:1013000089161CD0100E105C0DE2070E1014406EF2
:10131000010E405204E0E846FE0B4006FCE1E81CEA
:101320008A160CD0070E1014406E010E405204E0D5
:10133000E846FE0B4006FCE1E81C8B161050EA6AFA
:10134000510FE96E010EEA22020EEF6EE552E5CF73
:10135000F4FFE5CFF3FFE5CFEAFFE5CFE9FFE5CF07
:10136000DAFFE550E5CFE0FFE5CFD8FF1000DACF98
:10137000E4FFE2CFDAFFE9CFE4FFEACFE4FFF6CF04
:10138000E4FFF7CFE4FFF5CFE4FFF3CFE4FFF4CFC2
:10139000E4FFFACFE4FF00EE1EF0140EE80403E3CE
:1013A000EECFE4FFFBD700EE32F00E0EE80403E3CD
:1013B000EECFE4FFFBD7E652E2EC2DF0A1A24BD03A
:1013C000A1920201805181110AE083C246F0476A6E
:1013D00046507B6E82517A6EA8EC23F03CD01D50B3
:1013E0001CE016507B6E17507A6E1C2A1A501C5C3B
:1013F00032E31D6A841D8914896E851D8A148A6EE4
:10140000861D8B148B6E871D8C148C6E881D8D141D
:101410008D6E18507B6E19501CD018507B6E195071
:101420007A6E1C2A1B501C5C16E3010E1D6E845143
:101430008910896E85518A108A6E86518B108B6E49
:1014400087518C108C6E88518D108D6E16507B6E6E
:1014500017507A6E1C6AE55200EE3FF00E0EE8045B
:1014600003E3E5CFEDFFFBD700EE31F0140EE80407
:1014700003E3E5CFEDFFFBD7E5CFFAFFE5CFF4FFC0
:10148000E5CFF3FFE5CFF5FFE5CFF7FFE5CFF6FFBB
:10149000E5CFEAFFE5CFE9FFE5CFDAFF1100D9CFCD
:1014A000E6FFE1CFD9FF020EE126896A92680F0EAE
:1014B000C16EC2900C6A8A6A93688B6A94688C6A5F
:1014C000956A8D6A9668FC0E8D16961693840301B4
:1014D000010E4D6F0201FB69FC690A6A096A0B6A19
:1014E000056A046A066A026A036A076A086A116A78
:1014F000126A136A146A156ACA82CA80CA9CCA9A96
:10150000CA88CA96FA0ECB6EDF6ADFCF32F00C0EB5
:10151000E76E3218E8AE02D0E73402D0E750325C12
:1015200036E2010EDB6ADBCF32F0030EE76E3218D3
:10153000E8AE02D0E73402D0E750325C26E2DFCFDB
:1015400032F0336A32BE3368060E3302F3CF33F023
:101550003202F3CF32F0F4503326000E3226010E61
:101560003322010EDBCF34F0356A34BE3568D890B3
:101570003436353632503424E96E33503520EA6E35
:10158000EE6AED6A010EDB2ACED7DF2ABED7030151
:10159000476B486B456B466B496B4A6B4B6B4C6BAF
:1015A0000E6A0F6A106ADF6ADFCF32F0180EE76E3C
:1015B0003218E8AE02D0E73402D0E750325C1BE2CA
:1015C000DFCFE9FFEA6AE9BEEA68D890E936EA3691
:1015D000690EE926010EEA22EE6AED6ADFCFE9FF25
:1015E000EA6AE9BEEA68510EE926010EEA22010E16
:1015F000EF6EDF2AD9D7D586D59AD59CF294F29A88
:10160000F194D08ECA949D829F92F28EF28CCA84FD
:1016100079902A0EE66EE66AE66AB50EE66E030E6D
:10162000E66E99EC42F0326E050EE15E3250020E2B
:10163000E15C02E2E16AE552E16EE552E7CFD9FFF3
:101640001200D9CFE6FFE1CFD9FF070EE126020E47
:10165000DB6A030EDB6A040EDB6AB4EC1FF0065093
:10166000000809E23CEC13F0052A030E055C01E1D9
:10167000056A0606F4D70B50000809E266EC13F081
:101680000A2A030E0A5C01E10A6A0B06F4D7200E4F
:101690000101E76E9919E8AE02D0E73402D0E750B5
:1016A000995D02E250EF0FF06550020B01E0F8D3B4
:1016B000400EE66E400EE66E020EE66E71EC3DF0F8
:1016C000E552E552E552E76E030EE7CFDBFFDB5054
:1016D000000801E36AD1040EDB6A030EDB50F36EEF
:1016E000040EDBCFF4FFF350F45C01E35ED1040E93
:1016F000DB50EA6A400FE96E020EEA22EFCFDFFF0D
:101700000201D15110E0D25100080DE2030147510E
:10171000EA6A000FE96E070EEA22DFCFEFFF472BE0
:101720000201D20732D1CD5145E10D0E326EDF50AC
:10173000325C05E00A0E336EDF50335C3BE1010E94
:10174000CD6F03014751EA6A000FE96E070EEA22E6
:101750000D0EEF6E472B010EDB6A4751F36E010E43
:10176000DBCFF4FFF350F45C1CE2010EDBCFE9FFAA
:10177000EA6AE9BEEA68000EE926070EEA22EF509F
:10178000E66E010EDBCFE9FFEA6AE9BEEA68890E80
:10179000E926020EEA22E552E750EF6E010EDB2A3F
:1017A000DCD7D8EC0FF00201D16BD26B0301476B91
:1017B000486BEBD01B0EDF5C09E1C95107E1010E5C
:1017C000C96F1B0ECA6FCB6BCC6BDFD0C9050BE1A9
:1017D0005B0EDF5C08E11B0ECA5D05E1CB5103E146
:1017E0005B0ECB6FD2D0C90566E1410EDF5C63E1D1
:1017F0001B0ECA5D60E15B0ECB5D5DE1CA6BCB6B1E
:10180000CC6BC96B010EDB6ADBCFE9FFEA6AE9BE8C
:10181000EA68000EE926070EEA22EF500D081CE0E8
:10182000010EDBCFE9FFEA6AE9BEEA68890EE92624
:10183000020EEA22EF50E66E010EDBCFE9FFEA6A04
:10184000E9BEEA68000EE926070EEA22E552E750F3
:10185000EF6E010EDB2AD8D7010EDBCF47F3030171
:101860004751EA6A000FE96E070EEA22EF6AF20EAC
:10187000326E7F0E336E346A32C0E6FFE66E34C0DD
:10188000E6FFE6EC42F0E552E552E552000EE66E68
:10189000070EE66EEF0E326E7F0E336E346A32C084
:1018A000E6FFE66E34C0E6FFE6EC42F0356E050E6C
:1018B000E15E35506AD0080EDF5C1CE10301475140
:1018C000000818E247074751EA6A000FE96E070E61
:1018D000EA22EF6AEC0E326E7F0E336E346A32C04B
:1018E000E6FFE66E34C0E6FFE6EC42F0E552E55274
:1018F000E5524BD00D0EDF5C48E00A0EDF5C45E0A0
:10190000200EDF5C42E30201CA6BCB6BCC6BC96B70
:1019100003014751EA6A000FE96E070EEA22DFCFA2
:10192000EFFF0201CD6B0301472B030E475D0AE178
:10193000420E0701005D06E1530E015D03E1020165
:10194000010ED16F0201D15120E0D2511EE1050EEE
:101950000301475D09E12C0E0701045D05E1300E2E
:10196000035D0201D26F11D0060E0301475D0DE148
:101970002C0E0701055D09E1300E035D0A0DF3CF62
:10198000D2F2300E045D0201D22703014751326EBC
:10199000336A000E321806E1010E331803E10D869A
:1019A000476B486B040EDB2A98D60D5067E00DA0FC
:1019B0000FD0E60E326E7F0E336E346A32C0E6FF11
:1019C000E66E34C0E6FFE6EC42F0E552E552E55241
:1019D0000DA40FD0CA0E326E7F0E336E346A32C041
:1019E000E6FFE66E34C0E6FFE6EC42F0E552E55273
:1019F000E5520DA60FD0AE0E326E7F0E336E346AF6
:101A000032C0E6FFE66E34C0E6FFE6EC42F0E55297
:101A1000E552E5520DA80FD08F0E326E7F0E336E59
:101A2000346A32C0E6FFE66E34C0E6FFE6EC42F010
:101A3000E552E552E5520DAC0FD06E0E326E7F0EC0
:101A4000336E346A32C0E6FFE66E34C0E6FFE6EC81
:101A500042F0E552E552E5520DAE0FD0550E326E12
:101A60007F0E336E346A32C0E6FFE66E34C0E6FFA6
:101A7000E6EC42F0E552E552E5520D6A50DA010E0D
:101A8000DB6ADBCF32F0030EE76E3218E8AE02D02D
:101A9000E73402D0E750325C01E302D2010EDBCF23
:101AA000E9FFEA6AE9BEEA680E0EEA02F3CFEAFF4E
:101AB000E902F3CFE9FFF450EA26B50EE926030E5A
:101AC000EA220B0EE926000EEA22EF5001E1E5D1F1
:101AD000010EDBCFE9FFEA6AE9BEEA680E0EEA0210
:101AE000F3CFEAFFE902F3CFE9FFF450EA26B50E9F
:101AF000E926030EEA220A0EE926000EEA22EF503A
:101B0000E66EE66A010EDBCFE9FFEA6AE9BEEA6843
:101B10000E0EEA02F3CFEAFFE902F3CFE9FFF45039
:101B2000EA26B50EE926030EEA220C0EE926000E7F
:101B3000EA22EF50E66EE66A010EDBCFE9FFEA6AC1
:101B4000E9BEEA680E0EEA02F3CFEAFFE902F3CF3C
:101B5000E9FFF450EA26B50EE926030EEA220D0E3F
:101B6000E926000EEA22EF50E66EE66A010EDBCFB0
:101B700032F0336A32BE336832C0E6FF33C0E6FF6C
:101B80003A0E346E7F0E356E366A34C0E6FFE66E6E
:101B900036C0E6FFE6EC42F0376E0B0EE15E3750E2
:101BA000010EF36E050EF3CFDBFF060EDB6A050EAA
:101BB000DBCF32F0060EDBCF33F0010EDBCFE9FFD7
:101BC000EA6AE9BEEA680E0EEA02F3CFEAFFE9022A
:101BD000F3CFE9FFF450EA26B50EE926030EEA2218
:101BE0000A0EE926000EEA22EF28000133AE02D0E9
:101BF000D89003D0325C000E33586CE2050EDBCF78
:101C000036F0060EDBCF37F03606000E375A070ED9
:101C10003616000E3716070ED8803656000E375689
:101C2000010EDBCFE9FFEA6AE9BEEA680E0EEA02BE
:101C3000F3CFEAFFE902F3CFE9FFF450EA26B50E4D
:101C4000E926030EEA22020EE926000EEA22E9CF77
:101C500032F0EACF33F0050EDBCF34F0060EDBCFE7
:101C600035F03406000E355A080E2B6E2C6A34C03F
:101C700026F035C027F001EC40F026C034F027C034
:101C800035F032502624E96E33502720EA6EEF50AB
:101C900036C0E7FFE75204E0E8427F0BE706FCE1CD
:101CA000010BE66EE66A370E386E7F0E396E3A6AC1
:101CB00038C0E6FFE66E3AC0E6FFE6EC42F03B6E67
:101CC000050EE15E3B50050EDB2A060E01E26FD7E2
:101CD000DB2A6DD7350E326E7F0E336E346A32C01A
:101CE000E6FFE66E34C0E6FFE6EC42F0E552E55270
:101CF000E552050EDB6A060EDB6A050EDBCF32F01D
:101D0000060EDBCF33F0010EDBCFE9FFEA6AE9BE56
:101D1000EA680E0EEA02F3CFEAFFE902F3CFE9FF29
:101D2000F450EA26B50EE926030EEA220A0EE92649
:101D3000000EEA22EF04070FF80BE842E842E842FF
:101D4000000133AE02D0D89003D0325C000E33587D
:101D50003CE2010EDBCFE9FFEA6AE9BEEA680E0E5B
:101D6000EA02F3CFEAFFE902F3CFE9FFF450EA26F3
:101D7000B50EE926030EEA22020EE926000EEA223B
:101D8000E9CF32F0EACF33F0050EDB50E924E96EFB
:101D9000060EDB50EA20EA6EEF50E66EE66A2E0E83
:101DA000346E7F0E356E366A34C0E6FFE66E36C09E
:101DB000E6FFE6EC42F0376E050EE15E3750050EA9
:101DC000DB2A060E9AE3DB2A98D7FE0E326E7F0ED0
:101DD000336E346A32C0E6FFE66E34C0E6FFE6ECEE
:101DE00042F0E552E552E552080EE66EE66AE66A12
:101DF000010EDBCFE9FFEA6AE9BEEA680E0EEA02ED
:101E0000F3CFEAFFE902F3CFE9FFF450EA26B50E7B
:101E1000E926030EEA22020EE926000EEA22E9CFA5
:101E200032F0EACF33F0E9CFE6FFEACFE6FF99ECF4
:101E300042F0346E050EE15E3450010EDBCFE9FF57
:101E4000EA6AE9BEEA680E0EEA02F3CFEAFFE902A7
:101E5000F3CFE9FFF450EA26B50EE926030EEA2295
:101E60000B0EE926000EEA22EF6A010EDBCFE9FF36
:101E7000EA6AE9BEEA680E0EEA02F3CFEAFFE90277
:101E8000F3CFE9FFF450EA26B50EE926030EEA2265
:101E90000A0EE926000EEA22EF6A010EDB2AF1D5CE
:101EA000070EE15C02E2E16AE552E16EE552E7CF3E
:101EB000D9FF1200D9CFE6FFE1CFD9FFE65245C3E3
:101EC000DFFFDF2A400E326EDF50325C01E1DF6A55
:101ED00003014651DF5C01E122D803014551EA6A62
:101EE000000FE96E020EEA22FE0EDBCFEFFF452B5C
:101EF000400E455D01E1456B4651455D01E10D84B4
:101F0000FE0EDBCF32F0336A32BE336832C0F3FFED
:101F100033C0F4FFE552E552E7CFD9FF1200D9CF25
:101F2000E6FFE1CFD9FFE65203014551465D3BE0B4
:101F30000E01925103E06FEC3EF0FAD703014651D7
:101F4000D880455517E24651455DDF6EDFCFE6FF8D
:101F50004651336A000F326E020E332232C0E6FF62
:101F600033C0E6FFD1EC3DF0E552E552E55245C302
:101F700046F317D0400ED8804655DF6EDFCFE6FF20
:101F80004651336A000F326E020E332232C0E6FF32
:101F900033C0E6FFD1EC3DF0E552E552E5520301D6
:101FA000466B6FEC3EF0E552E552E7CFD9FF1200E9
:101FB000D9CFE6FFE1CFD9FF040EE126DE6ADD6A64
:101FC000020EDB6A030EDB6A03014851EA6A000F66
:101FD000E96E070EEA22EF50E66EE66A1AEC44F06C
:101FE000E552E552020EF3CFDBFF0301482B4851C7
:101FF000326E336A000E321804E1010E331801E12B
:10200000486B020EDB50DE6EDD6A4851EA6A000F53
:10201000E96E070EEA22EF502C0836E04851EA6AD2
:10202000000FE96E070EEA22EF500D082DE048512F
:10203000EA6A000FE96E070EEA22EF50E66EE66AE2
:102040001AEC44F0E552E552030EF3CFDBFF030137
:10205000482B4851326E336A000E321804E1010EEB
:10206000331801E1486B020EDBCF34F034C035F099
:10207000346A030EDB5000013424326E000E35202A
:10208000336E32C0DEFFDD6E000EDFCF26F0010EB4
:10209000DBCF27F0580E261802E1490E271801E180
:1020A0002DD1520E261802E1490E271801E123D145
:1020B000420E261802E1480E271801E119D1530EED
:1020C000261802E1480E271801E10FD1460E261806
:1020D00001E1275001E106D1490E261802E1430E25
:1020E000271801E1FCD0490E261802E1520E2718EC
:1020F00001E1F2D0490E261802E1530E271801E142
:10210000E8D0530E261802E1430E271801E1DED075
:10211000530E261802E1520E271801E1D4D0530EB7
:10212000261802E1530E271801E1CAD0530E2618D3
:1021300002E1420E271801E1C0D0430E261802E149
:10214000420E271801E1B6D0430E261802E1520EC6
:10215000271801E1ACD04F0E261802E1420E2718D5
:1021600001E1A2D0570E261802E14D0E271801E119
:1021700099D0520E261802E14D0E271801E190D099
:10218000440E261802E1500E271801E187D04F0EA9
:10219000261802E1500E271801E17DD0490E2618BD
:1021A00002E1500E271875E0580E261802E1540E71
:1021B00027186CE0540E261801E1275065E0410E07
:1021C000261801E127505EE0560E261801E127503F
:1021D00057E0490E261801E1275050E0570E261807
:1021E00001E1275048E04F0E261801E1275041E059
:1021F000550E261802E1430E271839E0580E26180E
:1022000002E1430E271830E0430E261801E1275063
:1022100029E0520E261801E1275022E0580E261818
:1022200002E1520E271819E0030EDB506AE1020E9C
:10223000DBCFE6FFE66ADBCFE6FFE66A0B0E326E27
:102240007F0E336E346A32C0E6FFE66E34C0E6FFBE
:10225000E6EC42F0356E070E72D015EC16F071D038
:10226000A6D86FD03BD96DD017EC16F06AD0A3D8A2
:1022700068D0A9D966D062EC19F063D0FDD961D0DD
:1022800015DA5FD023DA5DD0DED85BD013EC16F020
:1022900058D09EDB56D06DEC15F053D0F4DA51D007
:1022A000B0DA4FD070DA4DD039EC17F04AD019ECD3
:1022B00016F047D0CCEC16F044D092EC18F041D098
:1022C000C4EC19F03ED0C6EC19F03BD0C8EC19F0C4
:1022D00038D0CAEC19F035D0CCEC19F032D0CEECB5
:1022E00019F02FD0D0EC19F02CD0B5EC25F029D076
:1022F00057EC28F026D04CEC29F023D01AEC2AF029
:1023000020D0030EDBCFE6FFE66A020EDBCFE6FF4E
:10231000E66A030EDBCFE6FFE66A020EDBCFE6FFDE
:10232000E66AE30E326E7E0E336E346A32C0E6FF2A
:10233000E66E34C0E6FFE6EC42F0356E0B0EE15E71
:10234000355003014851EA6A000FE96E070EEA2290
:10235000EF500D080DE00D500BE1520E326E336A56
:10236000DF50321803E1DE52DD50331801E00D8EEC
:1023700047C348F3040EE15C02E2E16AE552E16E14
:10238000E552E7CFD9FF120003014D510FE0F40EE3
:10239000326E880E336E346A32C0E6FFE66E34C0A9
:1023A000E6FFE6EC42F0E552E552E55212004FEC52
:1023B0000AF0C4EF11F0D9CFE6FFE1CFD9FF030E49
:1023C000E126E66AD9CFE6FFDACFE6FF010EE66E38
:1023D00049EC1DF0E552E552E552E552E66AD95066
:1023E000010FE66E000EDA20E66E020EE66E49EC94
:1023F0001DF0E552E552E552E5520D501AE1DF04B9
:1024000017E1D950010FE96EDACFEAFFEE50ED1077
:102410000AE0010E326E336ADB50321808E1020E18
:10242000DB50331804E1010EDBCF4DF301D00D8CEE
:10243000ABDF030EE15C02E2E16AE552E16EE552D8
:10244000E7CFD9FF1200D9CFE6FFE1CFD9FF030EC6
:10245000E126020EDB6AE66A000EE66E000EE66E0C
:10246000030EE66E49EC1DF0E552E552E552E552E9
:10247000E66AD950020FE66E000EDA20E66E010E13
:10248000E66E49EC1DF0E552E552E552E5520D507D
:102490001BE1020EDB500CE10050011003E1026A67
:1024A000036A11D0CA8400C002F001C003F00BD04F
:1024B0000050011003E1076A086A05D0CA8400C011
:1024C00007F001C008F060DF030EE15C02E2E16AA0
:1024D000E552E16EE552E7CFD9FF1200D9CFE6FF12
:1024E000E1CFD9FF040EE126E66AD9CFE6FFDACFC5
:1024F000E6FF010EE66E49EC1DF0E552E552E552AD
:10250000E552E66AD950010FE66E000EDA20E66E5B
:10251000010EE66E49EC1DF0E552E552E552E5523A
:10252000E66AD950020FE66E000EDA20E66E010E62
:10253000E66E49EC1DF0E552E552E552E552E66AD9
:10254000D950030FE66E000EDA20E66E010EE66E3D
:1025500049EC1DF0E552E552E552E5520D5029E1F6
:10256000DF50926E010EDB50936E020EDB50946EC4
:10257000030EDB500D0805E20D0EF36E030EF3CFD4
:10258000DBFF030EDB5005E10F0EC16EC2900C6A3B
:102590000FD00C6AC26A030EDBCFE6FF0F0EE552C6
:1025A000D880E754C16EC280030EDB500C6ECA8423
:1025B000EBDE040EE15C02E2E16AE552E16EE55217
:1025C000E7CFD9FF1200D9CFE6FFE1CFD9FF020E46
:1025D000E126E66AD9CFE6FFDACFE6FF010EE66E26
:1025E00049EC1DF0E552E552E552E552E76E010E69
:1025F000E7CFDBFF0D5036E1010EDB5002E1DF508B
:10260000896E010EE66ED9CFE6FFDACFE6FFE66E01
:1026100049EC1DF0E552E552E552E552E76E010E38
:10262000E7CFDBFF0D501EE1010EDB5002E1DF5072
:102630008A6E010EE66ED9CFE6FFDACFE6FFE66ED0
:1026400049EC1DF0E552E552E552E552E76E010E08
:10265000E7CFDBFF0D5006E1010EDB5002E1DF505A
:102660008B6E92DE020EE15C02E2E16AE552E16EFF
:10267000E552E7CFD9FF12008250E66EE66A81503C
:10268000E66EE66A8050E66EE66AD00E326E7E0E28
:10269000336E346A32C0E6FFE66E34C0E6FFE6EC25
:1026A00042F0356E090EE15E35501200FC0E326EBE
:1026B000880E336E346A32C0E6FFE66E34C0E6FF41
:1026C000E6EC42F0E552E552E5521200D9CFE6FFC2
:1026D000E1CFD9FFE652DF6ACE0E326E7E0E336E48
:1026E000346A32C0E6FFE66E34C0E6FFE6EC42F044
:1026F000E552E552E552DF6A0C50DF5C30E2DFCF95
:1027000032F0336A32BE3368060E3302F3CF33F051
:102710003202F3CF32F0F4503326000E3226010E8F
:1027200033220A50020D3250F324E96E3350F42064
:10273000EA6EEECFE6FFEFCFE6FFC80E346E7E0EF8
:10274000356E366A34C0E6FFE66E36C0E6FFE6EC6C
:1027500042F0376E050EE15E3750DF2ACDD7F90E15
:10276000326E880E336E346A32C0E6FFE66E34C0D5
:10277000E6FFE6EC42F0E552E552E552E552E5525D
:10278000E7CFD9FF1200D9CFE6FFE1CFD9FF030E83
:10279000E126E66AD9CFE6FFDACFE6FFE66E49EC3E
:1027A0001DF0E552E552E552E552E66AD950020FB6
:1027B000E66E000EDA20E66E010EE66E49EC1DF0C4
:1027C000E552E552E552E5520D5011E1DECF32F00F
:1027D000DDCF33F0000E325C100E335807E2DECF4F
:1027E000E9FFDDCFEAFF020EDBCFEFFFCDDD030E09
:1027F000E15C02E2E16AE552E16EE552E7CFD9FF22
:102800001200D9CFE6FFE1CFD9FF030EE126E66A39
:10281000D9CFE6FFDACFE6FFE66E49EC1DF0E552D0
:10282000E552E552E5520D5024E1DECF32F0DDCF26
:1028300033F0000E325C100E335807E2DECFE9FFB2
:10284000DDCFEAFF020EEFCFDBFF020EDBCFE6FFAC
:10285000E66ABE0E326E7E0E336E346A32C0E6FF1A
:10286000E66E34C0E6FFE6EC42F0356E050EE15E42
:102870003550030EE15C02E2E16AE552E16EE55299
:10288000E7CFD9FF1200D9CFE6FFE1CFD9FF030E82
:10289000E126E66AD9CFE6FFDACFE6FF050EE66E5F
:1028A00049EC1DF0E552E552E552E552E66AD95091
:1028B000010FE66E000EDA20E66E010EE66E49ECC0
:1028C0001DF0E552E552E552E552E66AD950020F95
:1028D000E66E000EDA20E66E010EE66E49EC1DF0A3
:1028E000E552E552E552E5520D5068E1020EDB502B
:1028F000010861E3010EDB5007085DE3410E326E13
:10290000DF50325C1AE1020EDB500CE1010EF36E77
:10291000DB5004E0D890F336E806FCE1F350F31CFA
:1029200092164BD0010EF36EDB5004E0D890F336D4
:10293000E806FCE1F350921240D0420E326EDF50B6
:10294000325C1AE1020EDB500CE1010EF36EDB503B
:1029500004E0D890F336E806FCE1F350F31C93163C
:102960002CD0010EF36EDB5004E0D890F336E8066D
:10297000FCE1F350931221D0430E326EDF50325CF3
:102980001AE1020EDB500CE1010EF36EDB5004E0A5
:10299000D890F336E806FCE1F350F31C94160DD002
:1029A000010EF36EDB5004E0D890F336E806FCE14C
:1029B000F350941202D00D8C01D0E6DC030EE15CE2
:1029C00002E2E16AE552E16EE552E7CFD9FF12007B
:1029D000D9CFE6FFE1CFD9FF030EE126020EDB6A75
:1029E000E66AD9CFE6FFDACFE6FF050EE66E49ECE0
:1029F0001DF0E552E552E552E552E66AD950010F65
:102A0000E66E000EDA20E66E010EE66E49EC1DF071
:102A1000E552E552E552E5520D5055E1010EDB500D
:102A2000070836E3410E326EDF50325C0BE1010ED7
:102A3000F36EDB5004E0D890F336E806FCE1F35087
:102A400080141FD0420E326EDF50325C0BE1010E5B
:102A5000F36EDB5004E0D890F336E806FCE1F35067
:102A600081140FD0430E326EDF50325C11E1010E43
:102A7000F36EDB5004E0D890F336E806FCE1F35047
:102A80008214E76E020EE7CFDBFFDB5008E002D0D6
:102A90000D8C19D0010EF36E020EF3CFDBFF020E88
:102AA000DBCFE6FFE66AB50E326E7E0E336E346A19
:102AB00032C0E6FFE66E34C0E6FFE6EC42F0356E6B
:102AC000050EE15E3550030EE15C02E2E16AE5527B
:102AD000E16EE552E7CFD9FF1200D9CFE6FFE1CF93
:102AE000D9FF030EE126E66AD9CFE6FFDACFE6FF8B
:102AF000050EE66E49EC1DF0E552E552E552E55251
:102B0000E66AD950010FE66E000EDA20E66E010E7D
:102B1000E66E49EC1DF0E552E552E552E552E66AF3
:102B2000D950020FE66E000EDA20E66E010EE66E58
:102B300049EC1DF0E552E552E552E5520D5069E1D0
:102B4000020EDB50010861E3010EDB5007085DE374
:102B5000410E326EDF50325C1AE1020EDB500CE1A6
:102B6000010EF36EDB5004E0D890F336E806FCE18A
:102B7000F350F31C89164BD0010EF36EDB5004E0CA
:102B8000D890F336E806FCE1F350891240D0420EAB
:102B9000326EDF50325C1AE1020EDB500CE1010EA6
:102BA000F36EDB5004E0D890F336E806FCE1F35016
:102BB000F31C8A162CD0010EF36EDB5004E0D89083
:102BC000F336E806FCE1F3508A1221D0430E326E50
:102BD000DF50325C1AE1020EDB500CE1010EF36EA5
:102BE000DB5004E0D890F336E806FCE1F350F31C28
:102BF0008B160DD0010EF36EDB5004E0D890F33647
:102C0000E806FCE1F3508B1202D00D8C02D0C4EC2C
:102C100011F0030EE15C02E2E16AE552E16EE55279
:102C2000E7CFD9FF1200C4EF11F0C4EF11F0C4EFE9
:102C300011F0D9CFE6FFE1CFD9FF040EE126E66A15
:102C4000D9CFE6FFDACFE6FF050EE66E49EC1DF0C0
:102C5000E552E552E552E552E66AD950010FE66EBB
:102C6000000EDA20E66E010EE66E49EC1DF0E5522C
:102C7000E552E552E552E66AD950020FE66E000EC3
:102C8000DA20E66E030EE66E49EC1DF0E552E552E1
:102C9000E552E5520D5076E1D950020FE96EDACFD8
:102CA000EAFF720ED880EE542E0EED5441E3D95057
:102CB000020FE96EDACFEAFFEE50ED101FE0356843
:102CC0003668376A2D0EE76E020EDBCF38F0030E42
:102CD000DBCF39F0E7503826000E39223A6A3850F7
:102CE000355C326E39503658336E3A503758346E40
:102CF000020E32C0DBFF030E33C0DBFF010EDB50E0
:102D0000070816E3410E326EDF50325C02E1DF6AE3
:102D100011D0420E326EDF50325C02E1080E06D056
:102D2000430E326EDF50325C03E1100EDF6E02D0D4
:102D30000D8C28D0010EDB50DF24E96EEA6AD890B2
:102D4000E936EA36690EE926010EEA22020EDBCFE9
:102D5000EEFF030EDBCFEDFF010EDB50DF24EA6A4E
:102D6000510FE96E010EEA22EF040AE1010EDB5079
:102D7000DF24EA6A510FE96E010EEA22020EEF6EBD
:102D8000C4EC11F0040EE15C02E2E16AE552E16E8E
:102D9000E552E7CFD9FF1200D9CFE6FFE1CFD9FF47
:102DA000050EE126E66AD9CFE6FFDACFE6FF010E8F
:102DB000E66E49EC1DF0E552E552E552E552E66A51
:102DC000D950020FE66E000EDA20E66E010EE66EB6
:102DD00049EC1DF0E552E552E552E552E66AD9505C
:102DE000030FE66E000EDA20E66E010EE66E49EC89
:102DF0001DF0E552E552E552E552E66AD950010F61
:102E0000E66E000EDA20E66E010EE66E49EC1DF06D
:102E1000E552E552E552E552E66AD950040FE66EF6
:102E2000000EDA20E66E010EE66E49EC1DF0E5526A
:102E3000E552E552E5520D5012E1DFCF40F3020EAC
:102E4000DBCF42F3010EDBCF41F3030EDBCF43F3C5
:102E5000040EDBCF44F340C389FFC4EC11F0050E30
:102E6000E15C02E2E16AE552E16EE552E7CFD9FFAB
:102E70001200D9CFE6FFE1CFD9FF040EE126030E01
:102E8000DB6A03014851EA6A000FE96E070EEA2285
:102E9000EF502C081DE003014851EA6A000FE96E6B
:102EA000070EEA22EF50E66EE66A8E0E326E7E0E56
:102EB000336E346A32C0E6FF33C0E6FF34C0E6FF4B
:102EC000E6EC42F0356E050EE15E35500D8A20D1FC
:102ED0000301482B03014851326E336A000E321849
:102EE00002E1010E331802E10301486B40C389FF80
:102EF0000301411D8914326E891C030141153210F2
:102F0000E76E010EE7CFDBFF03014851EA6A000FCD
:102F1000E96E070EEA22EF500D0801E1F7D0030138
:102F20004851EA6A000FE96E070EEA22EF50E66E9A
:102F3000E66A1AEC44F0E552E552020EF3CFDBFFED
:102F4000300EF36E020EDBCFF4FFF350F45C0FE3B0
:102F5000020EDB5039080BE3300E326E020EDBCF6F
:102F6000E7FF3250E75E020EE7CFDBFF19D0410EDC
:102F7000F36E020EDBCFF4FFF350F45C0FE3020EAE
:102F8000DB5046080BE3370E326E020EDBCFE7FF55
:102F90003250E75E020EE7CFDBFF02D00D8CB8D0D7
:102FA000020EDB38F00BDF6E0301482B03014851A2
:102FB000326E336A000E321802E1010E331802E15C
:102FC0000301486B0D0E326E03014851EA6A000F8F
:102FD000E96E070EEA22EF50325C02E10D8898D0CC
:102FE00003014851EA6A000FE96E070EEA22EF502A
:102FF000E66EE66A1AEC44F0E552E552020EF3CFB3
:10300000DBFF300EF36E020EDBCFF4FFF350F45C07
:103010000FE3020EDB5039080BE3300E326E020E66
:10302000DBCFE7FF3250E75E020EE7CFDBFF19D0C0
:10303000410EF36E020EDBCFF4FFF350F45C0FE3AE
:10304000020EDB5046080BE3370E326E020EDBCF6A
:10305000E7FF3250E75E020EE7CFDBFF02D00D8CB8
:1030600057D0020EDB50DF24DF6E0301482B030133
:103070004851326E336A000E321802E1010E3318E5
:1030800002E10301486BDF508A6E010EDB50896E4E
:103090000301445105E044C3E6FFC6EC44F0E552A9
:1030A00040C389FF0301435130E0030E43C3DBFFFC
:1030B0000301405103014215326E03014251801455
:1030C000325C0BE1030EDB5008E000000000000062
:1030D00000000000030EDB06EBD7030E43C3DBFF4B
:1030E0000301405103014215326E03014251801425
:1030F000325C0BE0030EDB5008E000000000000033
:1031000000000000030EDB06EBD7FED6C4EC11F086
:10311000040EE15C02E2E16AE552E16EE552E7CFBE
:10312000D9FF1200D9CFE6FFE1CFD9FF050EE12686
:10313000030EDB6A040EDB6AE66AD950040FE66E02
:10314000000EDA20E66E010EE66E49EC1DF0E55247
:10315000E552E552E552040EDB5004E0040EDB506C
:10316000380802E20D8CA4D003014851EA6A000F2E
:10317000E96E070EEA22EF502C081DE003014851CA
:10318000EA6A000FE96E070EEA22EF50E66EE66A81
:103190008E0E326E7E0E336E346A32C0E6FF33C05E
:1031A000E6FF34C0E6FFE6EC42F0356E050EE15E68
:1031B00035500D8A7DD00301482B03014851326EF2
:1031C000336A000E321802E1010E331802E10301E6
:1031D000486B40C389FF0301411D8914326E891C6D
:1031E000030141153210E76E010EE7CFDBFF040E3D
:1031F000DB505CE003014851EA6A000FE96E070EFC
:10320000EA22EFCFDFFF0301482B03014851326E62
:10321000336A000E321802E1010E331802E1030195
:10322000486B040EDB06DF508A6E010EDB50896EA0
:103230000301445105E044C3E6FFC6EC44F0E55207
:1032400040C389FF0301435130E0030E43C3DBFF5A
:103250000301405103014215326E030142518014B3
:10326000325C0BE1030EDB5008E0000000000000C0
:1032700000000000030EDB06EBD7030E43C3DBFFA9
:103280000301405103014215326E03014251801483
:10329000325C0BE0030EDB5008E000000000000091
:1032A00000000000030EDB06EBD7A1D7C4EC11F041
:1032B000050EE15C02E2E16AE552E16EE552E7CF1C
:1032C000D9FF1200D9CFE6FFE1CFD9FF030EE126E7
:1032D000E66AD9CFE6FFDACFE6FF010EE66ED9DB6C
:1032E000E552E552E552E552E66AD950010FE66E25
:1032F000000EDA20E66E030EE66ECBDBE552E552F9
:10330000E552E552010EDBCF82F2020EDBCF83F2F3
:10331000DF50000821E20F011E811E931E85AF0EB3
:10332000E66E4F0EE66E74EC43F0E552E552FC0E8D
:10333000E66E3F0EE66EF8EC41F0E552E552DFCF67
:10334000E6FFE66AEBEC43F0E552E5520E01BF9171
:103350000E0EC36F939002D0DAEC44F0D950010FF7
:10336000E96EDACFEAFF000ED880EE54000EED547D
:10337000C4EC11F0030EE15C02E2E16AE552E16E99
:10338000E552E7CFD9FF1200C4EF11F0C4EF11F0FE
:10339000C4EF11F0C4EF11F0C4EF11F0C4EF11F05D
:1033A000D9CFE6FFE1CFD9FF0F0EE126320EF36E43
:1033B0000C0EF3CFDBFF010EF36E0D0EF3CFDBFF30
:1033C000010EF36E0E0EF3CFDBFFE66AD950080F45
:1033D000E66E000EDA20E66E030EE66E5ADBE5526C
:1033E000E552E552E552D950080FE96EDACFEAFF0F
:1033F000EE50ED1012E1010EE66ED9500A0FE66EA6
:10340000000EDA20E66E050EE66E43DBE552E5526D
:10341000E552E552010EE66E0FD0E66AD9500A0F6A
:10342000E66E000EDA20E66E050EE66E32DBE55241
:10343000E552E552E552E66AD9500B0FE66E000EF2
:10344000DA20E66E010EE66E24DBE552E552E55227
:10345000E552010EE66ED9500C0FE66E000EDA2032
:10346000E66E010EE66E15DBE552E552E552E552D9
:103470000D5001E004D3D950080FE96EDACFEAFF0E
:10348000EE50ED1031E17990A092410E0301E15D23
:103490000CE1010EE0C3E7FFE75204E0E846FE0B53
:1034A000E706FCE1E81C8916E8D2420EE15D0CE17A
:1034B000010EE0C3E7FFE75204E0E846FE0BE70633
:1034C000FCE1E81C8A16D9D2430EE15D01E0D5D2B9
:1034D000010EE0C3E7FFE75204E0E846FE0BE70613
:1034E000FCE1E81C8B16C9D2080EDBCF36F0090EC2
:1034F000DBCF37F0386A396A640E296E2A6A2B6A84
:103500002C6A36C024F037C025F038C026F039C008
:1035100027F0B3EC43F020C036F021C037F022C0D2
:1035200038F023C039F00C0EDBCF32F0336A346A46
:10353000356A296A1B0E2A6EB70E2B6E2C6A32C0B2
:1035400024F033C025F034C026F035C027F0B3ECAA
:1035500043F020C032F021C033F022C034F023C049
:1035600035F020C024F021C025F022C026F023C071
:1035700027F036C029F037C02AF038C02BF039C008
:103580002CF027EC40F024C0DEFF25C0DEFF26C073
:10359000DEFF27C0DDFFDD52DD52080EDBCF36F047
:1035A000090EDBCF37F0386A396A640E296E2A6A51
:1035B0002B6A2C6A36C024F037C025F038C026F0BC
:1035C00039C027F0B3EC43F020C036F021C037F00B
:1035D00022C038F023C039F00C0EDBCFE6FF640EBA
:1035E000E552D880E754326E336A346A356A296A04
:1035F0001B0E2A6EB70E2B6E2C6A32C024F033C01D
:1036000025F034C026F035C027F0B3EC43F020C0DD
:1036100032F021C033F022C034F023C035F020C096
:1036200024F021C025F022C026F023C027F036C0A8
:1036300029F037C02AF038C02BF039C02CF027EC25
:1036400040F0040E24C0DBFF050E25C0DBFF060E94
:1036500026C0DBFF070E27C0DBFFD9CFE9FFDACF9B
:10366000EAFFD880FF0EEE54FF0EEE54000EEE542B
:10367000000EEE5423E2800EF36E0D0EF3CFDBFF4F
:10368000D9CFE9FFDACFEAFFEECF24F0EECF25F075
:10369000EECF26F0EFCF27F0800E296E2A6A2B6A34
:1036A0002C6A40EC44F024C0DEFF25C0DEFF26C0BB
:1036B000DEFF27C0DDFFDD52DD5205D0010EF36EC7
:1036C0000D0EF3CFDBFFD9CFE9FFDACFEAFF280EEB
:1036D000EE5C000EEE58000EEE58000EEE5807E2BB
:1036E000280EDE6EDE6ADE6ADD6ADD52DD52D950FA
:1036F000040FE96EDACFEAFFD880FF0EEE54FF0E1A
:10370000EE54000EEE54000EEE5425E2800EF36EE1
:103710000E0EF3CFDBFF040EDBCF24F0050EDBCF64
:1037200025F0060EDBCF26F0070EDBCF27F0800E4C
:10373000296E2A6A2B6A2C6A40EC44F0040E24C0DD
:10374000DBFF050E25C0DBFF060E26C0DBFF070EE4
:1037500027C0DBFF05D0010EF36E0E0EF3CFDBFFAB
:10376000D950040FE96EDACFEAFF280EEE5C000EA6
:10377000EE58000EEE58000EEE580BE2280EF36ED7
:10378000040EF3CFDBFF050EDB6A060EDB6A070EC5
:10379000DB6A040EDBCF32F0050EDBCF33F0060E12
:1037A000DBCF34F0070EDBCF35F0140E325E000EA7
:1037B000335A345A355A040E32C0DBFF050E33C07B
:1037C000DBFF060E34C0DBFF070E35C0DBFFD9CFB1
:1037D000E9FFDACFEAFFEECF32F0EECF33F0EECFF3
:1037E00034F0EFCF35F0140E325E000E335A345AF7
:1037F000355A32C0DFFF010E33C0DBFF020E34C08A
:10380000DBFF030E35C0DBFF0B0EDB50070801E2C8
:1038100096D0000EF36E0C0EDBCFF4FFF350F45C89
:1038200001E28DD00C0EDB50630801E288D079B044
:1038300069D00201846B856B866B410E326E0A0E75
:10384000DB50325C19E1010EF36E0B0EDB5004E02D
:10385000D890F336E806FCE1F350F31C9216010E03
:10386000F36E0B0EDB5004E0D890F336E806FCE173
:10387000F350020184133DD0420E326E0A0EDB502B
:10388000325C19E1010EF36E0B0EDB5004E0D890B0
:10389000F336E806FCE1F350F31C9316010EF36EC9
:1038A0000B0EDB5004E0D890F336E806FCE1F35051
:1038B000020185131ED0430E326E0A0EDB50325CBD
:1038C0003EE1010EF36E0B0EDB5004E0D890F336B0
:1038D000E806FCE1F350F31C9416010EF36E0B0E98
:1038E000DB5004E0D890F336E806FCE1F350020127
:1038F00086130B0EDBCFE0F30A0EDBCFE1F3010EF4
:103900001D6E1C6AD9CFE9FFDACFEAFFD880FF0E1F
:10391000EE54FF0EEE54000EEE54000EEE540FE384
:10392000D950040FE96EDACFEAFFD880FF0EEE54CB
:10393000FF0EEE54000EEE54000EEE5402E20D8C1B
:103940009ED036683768386A396AD9CFE9FFDACF4E
:10395000EAFFEE50365C326EEE503758336EEE5062
:103960003858346EEE503958356E32C0DFFF010ED4
:1039700033C0DBFF020E34C0DBFF030E35C0DBFFBC
:1039800036683768386A396AD950040FE96EDACF79
:10399000EAFFEE50365C326EEE503758336EEE5022
:1039A0003858346EEE503958356E040E32C0DBFF95
:1039B000050E33C0DBFF060E34C0DBFF070E35C03B
:1039C000DBFFF29ED9CFE9FFDACFEAFFEECF32F08C
:1039D000EECF33F0EECF34F0EFCF35F0080ED890C5
:1039E0003532343233323232E806F9E13250166E73
:1039F000D9CFE9FFDACFEAFFEECF32F0EECF33F0E6
:103A0000EECF34F0EFCF35F03250176E040EDBCF2F
:103A100032F0050EDBCF33F0060EDBCF34F0070EAD
:103A2000DBCF35F0080ED8903532343233323232B3
:103A3000E806F9E13250186E040EDBCF32F0050EC5
:103A4000DBCF33F0060EDBCF34F0070EDBCF35F0E3
:103A50003250196E0D0EDB501A6E0E0EDB501B6EBF
:103A6000F28E79B00AD03F0E79140009796E7998F8
:103A7000799AA282A192A0827980C4EC11F00F0EF3
:103A8000E15C02E2E16AE552E16EE552E7CFD9FF7F
:103A90001200D9CFE6FFE1CFD9FF040EE126030ED5
:103AA000DB6A0D0E326E03014851EA6A000FE96EBF
:103AB000070EEA22EF50325C05E1FB0EDB5044E1D9
:103AC0000D8842D04851EA6A000FE96E070EEA22DB
:103AD000EF502C081FE0FB0EDB501AE14851EA6A58
:103AE000000FE96E070EEA22EF50E66EE66A8E0ED0
:103AF000326E7E0E336E346A32C0E6FFE66E34C03C
:103B0000E6FFE6EC42F0356E050EE15E35500D8ABB
:103B1000020E90D1482B4851326E336A000E321893
:103B200004E1010E331801E1486B0D0E326E48516D
:103B3000EA6A000FE96E070EEA22EF50325C06E1F6
:103B4000FB0EDB5001E10D88030E74D12D0E326E99
:103B50004851EA6A000FE96E070EEA22EF50325C24
:103B600027E1040E336EFE0EDB50335C21E0050EC0
:103B7000346EFE0EDB50345C1BE0FE0EDB0401E114
:103B80002FD1030E326EFE0EDB50325C01E128D1E4
:103B9000010EF36E030EF3CFDBFF482B4851326E5C
:103BA000336A000E321804E1010E331801E1486B4C
:103BB000040E326EFE0EDB50325C11E0050E336EE9
:103BC000FE0EDB50335C0BE0050EE66ED9CFE6FF50
:103BD000DACFE6FF3BD9E552E552E5523DD04851F8
:103BE000EA6A000FE96E070EEA22EFCF32F0336A7D
:103BF000346A32C0DFFF010E33C0DBFF020E34C077
:103C0000DBFF050E326EFE0EDB50325C19E1000E5A
:103C1000DFCFE6FF010EDBCFE6FF1AEC44F0E55202
:103C2000E552F3CF32F0F4CF33F0346A33BE346868
:103C300032C0DFFF010E33C0DBFF020E34C0DBFFFA
:103C40000301482B4851326E336A000E321804E1EA
:103C5000010E331801E1486B030EDB501DE0DFCF8E
:103C600032F0010EDBCF33F0020EDBCF34F02A68E6
:103C70002B682C6832C025F033C026F034C027F002
:103C80005BEC40F022C032F022C0DFFF010E23C007
:103C9000DBFF020E24C0DBFFFE0EDB5026E1DFCF90
:103CA00032F0010EDBCF33F0020EDBCF34F03434D0
:103CB000000E341807E6D8807F0E3254000E3354BD
:103CC000000E345401E28CD0D9CFE9FFDACFEAFFFD
:103CD000020ED880EB50FF0A06E6800EEE5CFF0E67
:103CE000EE58FF0EEF5801E27BD0FE0EDB0424E11C
:103CF000DFCF35F0010EDBCF36F0020EDBCF37F031
:103D00003734000E371807E6D880FF0E3554000E02
:103D10003654000E375464E3D9CFE9FFDACFEAFF17
:103D2000020ED890EB50000A06E6000EEE5C000E84
:103D3000EE58000EEF5854E3020E386EFE0EDB50C4
:103D4000385C24E1DFCF39F0010EDBCF3AF0020E10
:103D5000DBCF3BF03B34000E3B1807E6D880FF0E6C
:103D600039547F0E3A54000E3B543AE3D9CFE9FF61
:103D7000DACFEAFF020ED880EB50FF0A06E6000E0B
:103D8000EE5C800EEE58FF0EEF582AE3030E3C6EF9
:103D9000FE0EDB503C5C27E1DFCF3DF0010EDBCFB8
:103DA0003EF0020EDBCF3FF03F34000E3F1807E637
:103DB000D880FF0E3D54FF0E3E54000E3F5410E3DA
:103DC000D9CFE9FFDACFEAFF020ED890EB50000A14
:103DD00006E6000EEE5C000EEE58000EEF5803E211
:103DE0000D8C010E27D0FE0EDB50030A16E0010AEF
:103DF00014E0030A08E0050A06E0010A04E0050AE7
:103E000002E0040E17D0FC0EDBCFE9FFFD0EDBCF86
:103E1000EAFF000EDFCFEFFF0CD0FC0EDBCFE9FF97
:103E2000FD0EDBCFEAFF000EDFCFEEFF010EDBCF92
:103E3000EDFF000E326E040EE15C02E2E16AE55233
:103E4000E16E3250E552E7CFD9FF1200D9CFE6FF3D
:103E5000E1CFD9FF020EE126FD0EDBCFE9FFFE0E1A
:103E6000DBCFEAFFEE6AEE6AEE6A010EDB6AFC0E59
:103E7000DB50F36E010EDBCFF4FFF350F45C53E242
:103E800003014851EA6A000FE96E070EEA22EFCFFC
:103E9000DFFF300EDF5C42E3DF5039083FE3FD0E09
:103EA000DBCFE9FFFE0EDBCFEAFFEECF35F0EECF42
:103EB00036F0EFCF37F00A0E2A6E2B6A2C6A35C027
:103EC00025F036C026F037C027F05BEC40F0300E0E
:103ED000DF5C386E396A3A6A22503824326E2350D9
:103EE0003920336E24503A20346EFD0EDBCFE9FFCB
:103EF000FE0EDBCFEAFF32C0EEFF33C0EEFF34C070
:103F0000EEFF0301482B4851326E336A000E32181F
:103F100007E1010E331804E1486B02D0000E04D013
:103F2000010EDB2AA4D7010E326E020EE15C02E222
:103F3000E16AE552E16E3250E552E7CFD9FF120057
:103F40000650E66EE66A820E326E7E0E336E346A7C
:103F500032C0E6FFE66E34C0E6FFE6EC42F0356EB6
:103F6000050EE15E355012000101995108E0010E85
:103F7000326E6550020B01E0010E325C1BE1020162
:103F8000D307000ED45BD5510BE1D351D41111E10D
:103F90008D80D00ED36F070ED46F010ED56F120037
:103FA000D351D4114DE18D90D00ED36F070ED46F45
:103FB000D56B1200990509E0020E995D06E0040E2A
:103FC000995D03E0100E995D02E18D801200200ED4
:103FD000995D36E10201D307000ED45BD5510AE1A9
:103FE000D351D4112DE18D80100ED36F270ED46FD5
:103FF000010E18D0D5050AE1D351D41121E18D90DD
:10400000100ED36F270ED46F020E0CD0020ED55DAA
:104010000BE1D351D41114E18D80A00ED36F860E25
:10402000D46F030ED56F1200030ED55D09E3D35193
:10403000D41106E18D90100ED36F270ED46FD56B7F
:104040001200000CD9CFE6FFE1CFD9FF020EE12626
:10405000FD0EDBCFE9FFFE0EDBCFEAFFEF50010BD9
:10406000326EFC0EDB50325C6CE0DF6AFD0EDBCFA3
:10407000E9FFFE0EDBCFEAFFEE52EF50050802E249
:10408000010EDF6EFC0EDB5044E1FD0EDBCFE9FFDD
:10409000FE0EDBCFEAFF0A0EE926000EEA22EF044D
:1040A000E76E010EE7CFDBFFDF5028E0070E356E2D
:1040B000010EDB50070B355C366E010E365204E004
:1040C000E846FE0B3606FCE1346EFD0EDBCFE9FF61
:1040D000FE0EDBCFEAFF020EE926000EEA22E9CF50
:1040E00032F0010EDB50F80BE842E842E842E924E6
:1040F000E96E000EEA20EA6E3450EF12FD0EDBCFBF
:10410000E9FFFE0EDBCFEAFF0A0EE926000EEA22E7
:10411000EF2AFD0EDBCFE9FFFE0EDBCFEAFFEE520A
:10412000EF6AFC0EDB50326EFD0EDBCFE9FFFE0EB8
:10413000DBCFEAFF3250010BF36EFE0EEF14F310EB
:104140002CD0FD0EDBCFE9FFFE0EDBCFEAFFEE52F7
:10415000EFCF32F0640E325C09E2FD0EDBCFE9FFF7
:10416000FE0EDBCFEAFFEE52EF2A18D0FD0EDBCFBA
:10417000E9FFFE0EDBCFEAFF0A0EE926000EEA2277
:10418000EF500CE0FD0EDBCFE9FFFE0EDBCFEAFFC8
:104190000B0EE926000EEA22010EEF6E020EE15C24
:1041A00002E2E16AE552E16EE552E7CFD9FF120083
:1041B000D9CFE6FFE1CFD9FF020EE126FD0EDBCF1E
:1041C000E9FFFE0EDBCFEAFF0A0EE926000EEA2227
:1041D000EFCFDFFFDE52640EDD6EFD0EDBCFE9FFB9
:1041E000FE0EDBCFEAFF0C0EE926000EEA22EF04FA
:1041F0001AE1FD0EDBCFE9FFFE0EDBCFEAFF0A0E70
:10420000E926000EEA22EF500EE0FC0EDBCFE6FFBF
:10421000FD0EDBCFE6FFFE0EDBCFE6FF13DFE55240
:10422000E552E5524BD2FD0EDBCFE9FFFE0EDBCFB0
:10423000EAFF0C0EE926000EEA22EF50040A07E01E
:10424000050A08E0030A06E0010A04E003D0DE5292
:10425000280EDD6EFD0EDBCFE9FFFE0EDBCFEAFFA1
:10426000EF50010B326EFC0EDB50325C30E1FD0E84
:10427000DBCFE9FFFE0EDBCFEAFFEE52EFCF32F0ED
:10428000010EDB50325C09E2FD0EDBCFE9FFFE0ED2
:10429000DBCFEAFFEE52EF2A11D2FD0EDBCFE9FFB2
:1042A000FE0EDBCFEAFF0A0EE926000EEA22EF50EF
:1042B00001E104D2FD0EDBCFE9FFFE0EDBCFEAFF0A
:1042C0000B0EE926000EEA22010EEF6EF7D1FC0E6E
:1042D000DB50326EFD0EDBCFE9FFFE0EDBCFEAFFD7
:1042E0003250010BF36EFE0EEF14F310EF6EFC0E66
:1042F000DB5001E001D1FD0EDBCFE9FFFE0EDBCF8D
:10430000EAFFEE52EFCF32F0010EDB50325C01E3F8
:10431000CDD1DF5072E1FD0EDBCFE9FFFE0EDBCF2A
:10432000EAFF0C0EE926000EEA22EF50040A58E0DC
:10433000070A37E0010A0DE0030AFD0EDBCFE9FFB3
:10434000FE0EDBCFEAFF0D0EE926000EEA22030E79
:1043500052D0FD0EDBCFE9FFFE0EDBCFEAFFEE52BF
:10436000EF50030DF350FE0BE842E66EFD0EDBCF7F
:10437000E9FFFE0EDBCFEAFF0D0EE926000EEA2272
:10438000E552E750EF6E070E356EDF14355C366E82
:10439000010E365201E18DD0E846FE0B3606FCE1F7
:1043A00088D0FD0EDBCFE9FFFE0EDBCFEAFFEE5239
:1043B000EFCF32F0030E336E2C6E32C027F0B8EC24
:1043C00044F02750E66EFD0EDBCFE9FFFE0EDBCF9B
:1043D000EAFF0D0EE926000EEA22E552E7500BD067
:1043E000FD0EDBCFE9FFFE0EDBCFEAFF0D0EE92667
:1043F000000EEA220A0EEF6E73D0400EDF5C01E37E
:1044000055D1FD0EDBCFE9FFFE0EDBCFEAFF0C0E30
:10441000E926000EEA22EF50040A62E0070A25E0CE
:10442000010AFD0EDBCFE9FFFE0EDBCFEAFFEE5205
:10443000EFCF32F0FD0EDBCFE9FFFE0EDBCFEAFF60
:104440000D0EE926000EEA22EF50D880325448E2E1
:10445000070E356EDF14355C366E010E365229E0DC
:10446000E846FE0B3606FCE124D0DF06FD0EDBCF6E
:10447000E9FFFE0EDBCFEAFFEE52EFCF32F0FD0E8A
:10448000DBCFE9FFFE0EDBCFEAFF0D0EE926000EC3
:10449000EA22EF50D880325423E2070E356EDF1443
:1044A000355C366E010E365204E0E846FE0B3606E9
:1044B000FCE1346EFD0EDBCFE9FFFE0EDBCFEAFF41
:1044C000020EE926000EEA22DF50F80BE842E8422D
:1044D000E842E924E96E000EEA20EA6E3450EF1259
:1044E000FD0EDBCFE9FFFE0EDBCFEAFF0A0EE92669
:1044F000000EEA22EF2ADAD0DF5001E089D0FD0E6B
:10450000DBCFE9FFFE0EDBCFEAFFEE52EF502808CB
:1045100018E2FD0EDBCFE9FFFE0EDBCFEAFFEE5225
:10452000EFCF32F0320E325C0CE2FD0EDBCFE9FF52
:10453000FE0EDBCFEAFF0C0EE926000EEA22010E8A
:10454000EF6EFD0EDBCFE9FFFE0EDBCFEAFFEE5292
:10455000EF50190818E2FD0EDBCFE9FFFE0EDBCFAE
:10456000EAFFEE52EFCF32F0240E325C0CE2FD0E89
:10457000DBCFE9FFFE0EDBCFEAFF0C0EE926000ED3
:10458000EA22020EEF6EFD0EDBCFE9FFFE0EDBCF5F
:10459000EAFFEE52EF500D0818E2FD0EDBCFE9FF07
:1045A000FE0EDBCFEAFFEE52EFCF32F0150E325C9B
:1045B0000CE2FD0EDBCFE9FFFE0EDBCFEAFF0C0EB7
:1045C000E926000EEA22030EEF6EFD0EDBCFE9FFB7
:1045D000FE0EDBCFEAFFEE52EF50040867E2FD0E5D
:1045E000DBCFE9FFFE0EDBCFEAFFEE52EFCF32F07A
:1045F0000A0E325C5BE2FD0EDBCFE9FFFE0EDBCF85
:10460000EAFF0C0EE926000EEA22040EEF6E4ED0F1
:10461000FD0EDBCFE9FFFE0EDBCFEAFF0C0EE92635
:10462000000EEA22EF50040A07E0050A3FE0030A01
:104630003DE0010A3BE03AD0FD0EDBCFE9FFFE0E84
:10464000DBCFEAFFEE52EFCF32F0FD0EDBCFE9FF1A
:10465000FE0EDBCFEAFF0D0EE926000EEA22EF5038
:10466000D880325423E2070E356EDF14355C366E87
:10467000010E365204E0E846FE0B3606FCE1346ECD
:10468000FD0EDBCFE9FFFE0EDBCFEAFF020EE926CF
:10469000000EEA22DF50F80BE842E842E842E92443
:1046A000E96E000EEA20EA6E3450EF12FD0EDBCF09
:1046B000E9FFFE0EDBCFEAFFEE52EF6A020EE15C8D
:1046C00002E2E16AE552E16EE552E7CFD9FF12005E
:1046D000D9CFE6FFE1CFD9FFE652020EDF6E03012C
:1046E000B451330A08E0010A04E0030A04E1020EAF
:1046F00003D0040E01D0080EDF6EB351EA6A4F0FEB
:10470000E96E030EEA22EF501AE0B3A103D0DF50A6
:10471000891202D0DF1C8916B351EA6A4F0FE96E85
:10472000030EEA22EF06B351EA6A4F0FE96E030E59
:10473000EA22EF5008E1B32B4E51B35D04E14E6B1A
:10474000B36BDF508912E552E552E7CFD9FF120073
:10475000D9CFE6FFE1CFD9FFE6520201EE2B000EE2
:10476000EF23817493948150200B01E0010EE66EDB
:10477000B50EE66E030EE66E1BDDE552E552E55220
:104780008150400B01E0010EE66EC30EE66E030E93
:10479000E66E0EDDE552E552E5528150800B01E0F8
:1047A000010EE66ED10EE66E030EE66E01DDE552F9
:1047B000E552E55203014E5101E08ADF0A0E020183
:1047C000EFAF02D0D89003D0EE5D000EEF5901E2BA
:1047D000C7D1EE6BEF6BF02B0A0EF05D01E3F06BCF
:1047E000DF6ADFCF32F0336A32BE33680201335002
:1047F0008119E8AE02D0813504D08051325C8151FC
:10480000335801E3ADD1DFCFE9FFEA6AE9BEEA68D8
:10481000E60EE926020EEA22EF5063E0DFCFE9FF61
:10482000EA6AE9BEEA68D60EE926020EEA22EF50ED
:10483000440A43E0070A2DE0010A17E0030A01E0F9
:10484000B5D0DFCFE9FFEA6AE9BEEA68DA0EE92609
:10485000020EEA22EF50326E010E325204E0E846B8
:10486000FE0B3206FCE18912A1D0DFCFE9FFEA6A34
:10487000E9BEEA68DA0EE926020EEA22EF50326E4D
:10488000010E325204E0E846FE0B3206FCE18A12C9
:104890008DD0DFCFE9FFEA6AE9BEEA68DA0EE926E1
:1048A000020EEA22EF50326E010E325204E0E84668
:1048B000FE0B3206FCE18B1279D0DFCFE9FFEA6A0A
:1048C000E9BEEA68DA0EE926020EEA22EF50326EFD
:1048D000010E325204E0E846FE0B3206FCE18C1277
:1048E00065D0DFCFE9FFEA6AE9BEEA68D60EE926BD
:1048F000020EEA22EF50440A45E0070A2EE0010AC0
:1049000017E0030A53E1DFCFE9FFEA6AE9BEEA688C
:10491000DA0EE926020EEA22EF50326E010E325212
:1049200004E0E846FE0B3206FCE1E81C89163ED0A6
:10493000DFCFE9FFEA6AE9BEEA68DA0EE926020E8D
:10494000EA22EF50326E010E325204E0E846FE0BCE
:104950003206FCE1E81C8A1629D0DFCFE9FFEA6ABB
:10496000E9BEEA68DA0EE926020EEA22EF50326E5C
:10497000010E325204E0E846FE0B3206FCE1E81C70
:104980008B1614D0DFCFE9FFEA6AE9BEEA68DA0ED7
:10499000E926020EEA22EF50326E010E325204E096
:1049A000E846FE0B3206FCE1E81C8C16DFCFE9FF7F
:1049B000EA6AE9BEEA68EA0EE926020EEA22EFCFC9
:1049C00032F00201F051D880325463E2DFCFE9FFC8
:1049D000EA6AE9BEEA68DE0EE926020EEA22EF5034
:1049E000440A43E0070A2DE0010A17E0030A01E048
:1049F000B5D0DFCFE9FFEA6AE9BEEA68E20EE92650
:104A0000020EEA22EF50326E010E325204E0E84606
:104A1000FE0B3206FCE18912A1D0DFCFE9FFEA6A82
:104A2000E9BEEA68E20EE926020EEA22EF50326E93
:104A3000010E325204E0E846FE0B3206FCE18A1217
:104A40008DD0DFCFE9FFEA6AE9BEEA68E20EE92627
:104A5000020EEA22EF50326E010E325204E0E846B6
:104A6000FE0B3206FCE18B1279D0DFCFE9FFEA6A58
:104A7000E9BEEA68E20EE926020EEA22EF50326E43
:104A8000010E325204E0E846FE0B3206FCE18C12C5
:104A900065D0DFCFE9FFEA6AE9BEEA68DE0EE92603
:104AA000020EEA22EF50440A45E0070A2EE0010A0E
:104AB00017E0030A53E1DFCFE9FFEA6AE9BEEA68DB
:104AC000E20EE926020EEA22EF50326E010E325259
:104AD00004E0E846FE0B3206FCE1E81C89163ED0F5
:104AE000DFCFE9FFEA6AE9BEEA68E20EE926020ED4
:104AF000EA22EF50326E010E325204E0E846FE0B1D
:104B00003206FCE1E81C8A1629D0DFCFE9FFEA6A09
:104B1000E9BEEA68E20EE926020EEA22EF50326EA2
:104B2000010E325204E0E846FE0B3206FCE1E81CBE
:104B30008B1614D0DFCFE9FFEA6AE9BEEA68E20E1D
:104B4000E926020EEA22EF50326E010E325204E0E4
:104B5000E846FE0B3206FCE1E81C8C16DF2A41D643
:104B6000E552E552E7CFD9FF1200D9CFE6FFE1CFFA
:104B7000D9FF070EE126040EE66EE66AE66AD60E57
:104B8000E66E020EE66E99EC42F0326E050EE15EC4
:104B90003250040EE66EE66AE66ADA0EE66E020E41
:104BA000E66E99EC42F0326E050EE15E3250040E74
:104BB000E66EE66AE66ADE0EE66E020EE66E99ECD8
:104BC00042F0326E050EE15E3250040EE66EE66A89
:104BD000E66AE20EE66E020EE66E99EC42F0326E86
:104BE000050EE15E32500201806B816BDE6ADD6A88
:104BF000DECF32F0DDCF33F0D890335004E6040E30
:104C0000325C000E335801E3C9D1010EE66EDECFEF
:104C100032F0DDCF33F0D60E3226020E332232C010
:104C2000E6FF33C0E6FF050EE66E49EC1DF0E552E7
:104C3000E552E552E552010EE66EDECF32F0DDCFF1
:104C400033F0DA0E3226020E332232C0E6FF33C0D2
:104C5000E6FF010EE66E49EC1DF0E552E552E55225
:104C6000E552010EE66EDECF32F0DDCF33F0DE0E20
:104C70003226020E332232C0E6FF33C0E6FF050EB5
:104C8000E66E49EC1DF0E552E552E552E552010EA3
:104C9000E66EDECF32F0DDCF33F0E20E3226020ECA
:104CA000332232C0E6FF33C0E6FF010EE66E49EC68
:104CB0001DF0E552E552E552E552DECFE9FFDDCFCA
:104CC000EAFFDE0EE926020EEA22EF5001E160D192
:104CD0000201802B000E8123D950020F326EDACFF1
:104CE00033F0030E32C0DBFF040EDACFDBFFDECF82
:104CF000E9FFDDCFEAFFD60EE926020EEA22EF50E9
:104D0000440A3CE0070A28E0010A14E0030A48E1EB
:104D1000D950030FE96EDACFEAFF920EEE6E0F0E56
:104D2000ED6ED950050FE96EDACFEAFF890EEE6E0F
:104D30000F0E35D0D950030FE96EDACFEAFF930E8C
:104D4000EE6E0F0EED6ED950050FE96EDACFEAFF69
:104D50008A0EEE6E0F0E23D0D950030FE96EDACF14
:104D6000EAFF940EEE6E0F0EED6ED950050FE96E50
:104D7000DACFEAFF8B0EEE6E0F0E11D0D950030F73
:104D8000E96EDACFEAFF950EEE6E0F0EED6ED9509A
:104D9000050FE96EDACFEAFF8C0EEE6E0F0EED6EA8
:104DA000DECFE9FFDDCFEAFFDA0EE926020EEA22C6
:104DB000EF50336E010E335204E0E846FE0B33062B
:104DC000FCE1E81C326E030EDBCFE9FF040EDBCF03
:104DD000EAFFEF503214E66E030EDBCFE9FF040E5C
:104DE000DBCFEAFFE552E750EF6EDECFE9FFDDCF24
:104DF000EAFFDA0EE926020EEA22EF50336E010EC8
:104E0000335204E0E846FE0B3306FCE1E81C326E48
:104E1000050EDBCFE9FF060EDBCFEAFFEF503214C1
:104E2000E66E050EDBCFE9FF060EDBCFEAFFE552AB
:104E3000E750EF6ED950020F326EDACF33F0030E27
:104E400032C0DBFF040EDACFDBFFDECFE9FFDDCFC0
:104E5000EAFFDE0EE926020EEA22EF50440A3CE0A9
:104E6000070A28E0010A14E0030A48E1D950030FB9
:104E7000E96EDACFEAFF920EEE6E0F0EED6ED950AC
:104E8000050FE96EDACFEAFF890EEE6E0F0E35D010
:104E9000D950030FE96EDACFEAFF930EEE6E0F0ED4
:104EA000ED6ED950050FE96EDACFEAFF8A0EEE6E8D
:104EB0000F0E23D0D950030FE96EDACFEAFF940E1C
:104EC000EE6E0F0EED6ED950050FE96EDACFEAFFE8
:104ED0008B0EEE6E0F0E11D0D950030FE96EDACFA4
:104EE000EAFF950EEE6E0F0EED6ED950050FE96ECE
:104EF000DACFEAFF8C0EEE6E0F0EED6EDECFE9FF1D
:104F0000DDCFEAFFE20EE926020EEA22EF50336E11
:104F1000010E335204E0E846FE0B3306FCE1E81CC8
:104F2000326E030EDBCFE9FF040EDBCFEAFFEF505A
:104F30003214E66E030EDBCFE9FF040EDBCFEAFF8F
:104F4000E552E750EF6EDECFE9FFDDCFEAFFE20E7C
:104F5000E926020EEA22EF50336E010E335204E0CE
:104F6000E846FE0B3306FCE1E81C326E050EDBCF93
:104F7000E9FF060EDBCFEAFFEF503214E66E050EB6
:104F8000DBCFE9FF060EDBCFEAFFE552E750EF6E1D
:104F9000DF2A010E01E22CD6DB2A2AD680C2E6FFE8
:104FA00081C2E6FF700E326E7E0E336E346A32C0FE
:104FB000E6FFE66E34C0E6FFE6EC42F0356E050E25
:104FC000E15E3550DE6ADD6ADECF32F0DDCF33F0F0
:104FD000020133508119E8AE02D0813504D08051EE
:104FE000325C8151335841E2DECFE9FFDDCFEAFF89
:104FF000E20EE926020EEA22EF50E66EE66ADECF06
:10500000E9FFDDCFEAFFDE0EE926020EEA22EF50CD
:10501000E66EE66ADECFE9FFDDCFEAFFDA0EE926CB
:10502000020EEA22EF50E66EE66ADECFE9FFDDCF40
:10503000EAFFD60EE926020EEA22EF50E66EE66A95
:10504000640E326E7E0E336E346A32C0E6FFE66E58
:1050500034C0E6FFE6EC42F0356E0B0EE15E3550F3
:10506000DF2A010EB1E3DB2AAFD78950E66EE66A8C
:105070009250E66EE66A510E326E7E0E336E346AE0
:1050800032C0E6FFE66E34C0E6FFE6EC42F0356E75
:10509000070EE15E3550C4EC11F0070EE15C02E250
:1050A000E16AE552E16EE552E7CFD9FF1200D9CFB0
:1050B000E6FFE1CFD9FF060EE126DE6ADD6ADECF2C
:1050C00032F0DDCF33F0D890335004E6040E325C7A
:1050D000000E335801E39ED0010EE66ED950020F48
:1050E000346EDACF35F0DE503424326EDD503520A8
:1050F000336E32C0E6FFE66EE66A49EC1DF0E5521B
:10510000E552E552E552000901E07ED0D950020F88
:10511000336EDACF34F0DE503324E96EDD503420C4
:10512000EA6EEFCF32F0323428E3DECFE9FFDDCF95
:10513000EAFFE60EE926020EEA22010EEF6ED950D2
:10514000020F346EDACF35F0DE503424E96EDD50D4
:105150003520EA6EEF50FF0DF350E66ED950020F86
:10516000326EDACF33F0DE503224E96EDD50332078
:10517000EA6EE552E750EF6E09D0DECFE9FFDDCFF2
:10518000EAFFE60EE926020EEA22EF6AD950020F84
:10519000326EDACF33F0DE503224E96EDD50332048
:1051A000EA6EEF50E66EDECFE9FFDDCFEAFFEA0EF2
:1051B000E926020EEA22E552E750EF6EDECFE9FF64
:1051C000DDCFEAFFEA0EE926020EEA22EF50E66E94
:1051D000E66ADECFE9FFDDCFEAFFE60EE926020E42
:1051E000EA22EF50E66EE66A480E326E7E0E336EAD
:1051F000346A32C0E6FFE66E34C0E6FFE6EC42F009
:10520000356E070EE15E3550DF2A010E01E257D7F9
:10521000DB2A55D779B00AD03F0E79140009796E90
:105220007998799AA282A192A08279808950E66EBB
:10523000E66A9250E66EE66A510E326E7E0E336E6C
:10524000346A32C0E6FFE66E34C0E6FFE6EC42F0B8
:10525000356E070EE15E35500201F051E66EE66AEA
:10526000430E326E7E0E336E346A32C0E6FFE66E57
:1052700034C0E6FFE6EC42F0356E050EE15E3550D7
:10528000C4EC11F0060EE15C02E2E16AE552E16E67
:10529000E552E7CFD9FF1200D9CFE6FFE1CFD9FF22
:1052A000020EE12603014851EA6A000FE96E070E7B
:1052B000EA22EF502C081BE04851EA6A000FE96E21
:1052C000070EEA22EF50E66EE66A8E0E326E7E0E12
:1052D000336E346A32C0E6FFE66E34C0E6FFE6ECB9
:1052E00042F0356E050EE15E35500D8A99D0482B9F
:1052F0004851326E336A000E321804E1010E331841
:1053000001E1486B4851EA6A000FE96E070EEA2294
:10531000EFCFB4F3482B4851326E336A000E321887
:1053200004E1010E331801E1486B640EE66EE66A93
:10533000E66A4F0EE66E030EE66E99EC42F0326EB0
:10534000050EE15E3250400E326E7E0E336E346AD0
:1053500032C0E6FFE66E34C0E6FFE6EC42F0E5520E
:10536000E552E552DE6ADD6ADECF32F0DDCF33F0A2
:10537000D890335004E6640E325C000E335837E2A6
:10538000010EE66EDECF32F0DDCF33F04F0E322667
:10539000030E332232C0E6FF33C0E6FFE66A49EC73
:1053A0001DF0E552E552E552E552000920E1DECF5D
:1053B000E9FFDDCFEAFF4F0EE926030EEA22EF50A8
:1053C000E66EE66A3C0E326E7E0E336E346A32C092
:1053D000E6FFE66E34C0E6FFE6EC42F0356E050E01
:1053E000E15E3550DF2A010EBFE3DB2ABDD70301A2
:1053F000B36BDFCF4EF34E51E66EE66A2C0E326E83
:105400007E0E336E346A32C0E6FFE66E34C0E6FFCD
:10541000E6EC42F0356E050EE15E3550C4EC11F05D
:10542000020EE15C02E2E16AE552E16EE552E7CF8D
:10543000D9FF1200D9CFE6FFE1CFD9FF050EE12653
:10544000020EDB6A030EDB6A310EF36E040EF3CF3D
:10545000DBFF03014851EA6A000FE96E070EEA22FA
:10546000EF502C084FE1482B4851326E336A000E42
:10547000321804E1010E331801E1486B4851EA6A21
:10548000000FE96E070EEA22EFCFB4F3482B485124
:10549000326E336A000E321804E1010E331801E156
:1054A000486B4851EA6A000FE96E070EEA22EF5096
:1054B0002C0828E1482B4851326E336A000E32180E
:1054C00004E1010E331801E1486B4851EA6A000F0C
:1054D000E96E070EEA22040EEFCFDBFF482B48519E
:1054E000326E336A000E321804E1010E331801E106
:1054F000486B4851EA6A000FE96E070EEA22EF5046
:105500002C081BE04851EA6A000FE96E070EEA22F8
:10551000EF50E66EE66A8E0E326E7E0E336E346AA1
:1055200032C0E6FFE66E34C0E6FFE6EC42F0356ED0
:10553000050EE15E35500D8AABD2482B4851326ED4
:10554000336A000E321804E1010E331801E1486B92
:10555000B36B040EDB50350A50E0010A36E0070A4F
:105560001CE0010A02E0030A48E0020EDBCFF3FF71
:10557000DB2AF350EA6A4F0FE96E030EEA222D0E82
:10558000EF6E020EDBCFF3FFDB2AF350EA6A4F0F18
:10559000E96E030EEA22140E2FD0020EDBCFF3FFCA
:1055A000DB2AF350EA6A4F0FE96E030EEA222D0E52
:1055B000EF6E020EDBCFF3FFDB2AF350EA6A4F0FE8
:1055C000E96E030EEA220A0E17D0020EDBCFF3FFBC
:1055D000DB2AF350EA6A4F0FE96E030EEA22110E3E
:1055E000EF6E020EDBCFF3FFDB2AF350EA6A4F0FB8
:1055F000E96E030EEA22080EEF6E03014851EA6AD3
:10560000000FE96E070EEA22EF500D0801E106D205
:105610004851EA6A000FE96E070EEA22EF50E66E83
:10562000E66A1AEC44F0E552E552010EF3CFDBFFD7
:10563000300EF36E010EDBCFF4FFF350F45C06E3A3
:10564000010EDB50390802E3300E0DD0410EF36E2F
:10565000010EDBCFF4FFF350F45C6DE3010EDB5081
:10566000460869E3370E326E010EDBCFE7FF32509A
:10567000E75E010EE7CFDBFFDB38F00BDF6E0301E7
:10568000482B4851326E336A000E321804E1010E85
:10569000331801E1486B0D0E326E4851EA6A000F73
:1056A000E96E070EEA22EF50325C02E10D88F0D17C
:1056B0004851EA6A000FE96E070EEA22EF50E66EE3
:1056C000E66A1AEC44F0E552E552010EF3CFDBFF37
:1056D000300EF36E010EDBCFF4FFF350F45C06E303
:1056E000010EDB50390802E3300E0DD0410EF36E8F
:1056F000010EDBCFF4FFF350F45C1DE3010EDB5031
:10570000460819E3370E326E010EDBCFE7FF325049
:10571000E75E010EE7CFDBFFDB50DF24DF6E030126
:10572000482B4851326E336A000E321807E1010EE1
:10573000331804E102D00D8CABD1486B040EDB5062
:10574000350A01E112D1010A01E1B8D0060A5DE093
:10575000010A5BE0020A59E1030EDB6A080EF36EF0
:10576000030EDBCFF4FFF350F45C01E346D7630E86
:10577000F36E020EDBCFF4FFF350F45C43E2030E52
:10578000DBCFE6FF070EE552D880E754326EDF50DC
:1057900032C0E7FFE75204E0E8427F0BE706FCE196
:1057A000010B18E0020EDBCFF3FFDB2AF350EA6AAD
:1057B0004F0FE96E030EEA22050EEF6E020EDBCFED
:1057C000F3FFDB2AF350EA6A4F0FE96E030EEA2279
:1057D000100E17D0020EDBCFF3FFDB2AF350EA6A7C
:1057E0004F0FE96E030EEA22050EEF6E020EDBCFBD
:1057F000F3FFDB2AF350EA6A4F0FE96E030EEA2249
:10580000040EEF6E030EDB2AA9D7030EDB6A080E27
:10581000F36E030EDBCFF4FFF350F45C01E3EDD63F
:10582000630EF36E020EDBCFF4FFF350F45C43E241
:10583000030EDBCFE6FF070EE552D880E754326E49
:10584000DF5032C0E7FFE75204E0E8427F0BE70693
:10585000FCE1010B18E0020EDBCFF3FFDB2AF35073
:10586000EA6A4F0FE96E030EEA22030EEF6E020E94
:10587000DBCFF3FFDB2AF350EA6A4F0FE96E030E2A
:10588000EA22080E17D0020EDBCFF3FFDB2AF3501B
:10589000EA6A4F0FE96E030EEA22030EEF6E020E64
:1058A000DBCFF3FFDB2AF350EA6A4F0FE96E030EFA
:1058B000EA22030EEF6E030EDB2AA9D7030EDB6A82
:1058C000080EF36E030EDBCFF4FFF350F45C01E33C
:1058D00094D6630EF36E020EDBCFF4FFF350F45C4C
:1058E00041E2030EDBCFE6FF070EE552D880E75416
:1058F000326EDF5032C0E7FFE75204E0E8427F0B30
:10590000E706FCE1010B17E0020EDBCFF3FFDB2A19
:10591000F350EA6A4F0FE96E030EEA22020EEF6EB1
:10592000DBCFF3FFDB2AF350EA6A4F0FE96E030E79
:10593000EA22060E16D0020EDBCFF3FFDB2AF3506D
:10594000EA6A4F0FE96E030EEA22020EEF6EDBCF1A
:10595000F3FFDB2AF350EA6A4F0FE96E030EEA22E7
:10596000020EEF6E030EDB2AABD7030EDB6A080EC6
:10597000F36E030EDBCFF4FFF350F45C01E33DD68E
:10598000630EF36E020EDBCFF4FFF350F45C43E2E0
:10599000030EDBCFE6FF070EE552D880E754326EE8
:1059A000DF5032C0E7FFE75204E0E8427F0BE70632
:1059B000FCE1010B18E0020EDBCFF3FFDB2AF35012
:1059C000EA6A4F0FE96E030EEA22110EEF6E020E25
:1059D000DBCFF3FFDB2AF350EA6A4F0FE96E030EC9
:1059E000EA22060E17D0020EDBCFF3FFDB2AF350BC
:1059F000EA6A4F0FE96E030EEA22060EEF6E020E00
:105A0000DBCFF3FFDB2AF350EA6A4F0FE96E030E98
:105A1000EA22110EEF6E030EDB2AA9D7040EDB502B
:105A2000350A31E0010A23E0060A15E0010A13E015
:105A3000020A11E1020EDBCFF3FFDB2AF350EA6A20
:105A40004F0FE96E030EEA22050EEF6E200E4F6F28
:105A5000040E506F18D0020EDBCFF3FFDB2AF35099
:105A6000EA6A4F0FE96E030EEA22030E0BD0020E14
:105A7000DBCFF3FFDB2AF350EA6A4F0FE96E030E28
:105A8000EA22020EEF6E020EDBCF4EF3C4EC11F0F1
:105A9000050EE15C02E2E16AE552E16EE552E7CF14
:045AA000D9FF120018
:0C5AA400D9CFE6FFE1CFD9FFE652A09871
:105AB000636A626A0F01266B020EE66EE66AE66AA8
:105AC000270EE66E0F0EE66E99EC42F0326E050E72
:105AD000E15E32500F01160E396F9F0E376F7B0E4D
:105AE000366FDF6ADF50326E336A0C0E325C000EA6
:105AF000335810E2DF50040DF3CFE9FFF4CFEAFF93
:105B0000000EE9260D0EEA22EE6AEE6AEE6AEE6AF1
:105B1000DF2AE8D7658C0F01386B6598659C62A613
:105B200007D062960101B16BB66BB76BB86BF7D754
:105B30000101010ECA6FCB6FCC6BCD6BBE6BDF6A00
:105B4000030EDF5C26E2EA6ADF34FE0BEA36E96E1A
:105B5000A70EE926010EEA22EE6AED6AEA6ADF3450
:105B6000FE0BEA36E96EA10EE926010EEA22EE6A84
:105B7000ED6ADF50EA6AC20FE96E010EEA22EF6AAF
:105B8000DF50EA6AC50FE96E010EEA22EF6ADF2AEA
:105B9000D7D70101080EA76F0D0EA86F0F01160EC3
:105BA000266F0D01300E026F0D0E036F080E016F90
:105BB000840E006F01019A6B996BE552E552E7CFB5
:105BC000D9FF1200D9CFE6FFE1CFD9FFE65201019C
:105BD000990509E165BA07D0626A0F0136813689F5
:105BE0000101020E996F6250040B07E00F0136515C
:105BF000040B03E06294D5EC33F065B25ED06250E2
:105C0000010B0AE00F013651010B06E04BDFA088C3
:105C10000101040E996F62906250100B07E00F01B2
:105C20003651100B03E0BFEC33F0629862AC1AD02F
:105C30000F0136AD0FD0010EE66EE66A000EE66E7D
:105C4000E66A730EE66EE66A49EC41F0326E060EC5
:105C5000E15E3250629C0101C85101E0C807C851A1
:105C600001E100DA6250200B06E00F013651200BF3
:105C700002E0A5EC33F06250020B14E00F01365144
:105C8000020B10E0010EE66EE66A000EE66EE66AB2
:105C9000E6687F0EE66E49EC41F0326E060EE15E7C
:105CA0003250636A040E0101E76E9919E8AE02D022
:105CB000E73402D0E750995D02E2A1983AD00F0193
:105CC00036A736D0DF6A040EDF5C32E262A630D03F
:105CD00064CFBFF10101BF51780BE842E842E842CE
:105CE000C06F6296BFB506D0C051EA6AC50FE96EB3
:105CF000010E05D0C051EA6AC20FE96E010EEA2218
:105D0000EF70C05103E1EDEC33F010D0000EE66E01
:105D1000E66ABF0EE66E010EE66E720EE66EE66A8B
:105D200049EC41F0326E060EE15E3250DF2ACBD7ED
:105D3000A198E552E552E7CFD9FF1200D9CFE6FF8F
:105D4000E1CFD9FF020EE126FD0EDBA407D0E66A03
:105D5000FE0EDBCFE6FF15DAE552E552FD0EDBA2C3
:105D600008D0010EE66EFE0EDBCFE6FF0ADAE55242
:105D7000E552FE0EDB50336A260F326E0F0E3322D1
:105D800032C0DEFF33C0DDFFDECFE9FFDDCFEAFF4B
:105D9000FD0EDBCFEFFF020EE15C02E2E16AE552AD
:105DA000E16EE552E7CFD9FF1200D9CFE6FFE1CF90
:105DB000D9FF020EE126FD0EDB500AE0FE0EEA6A74
:105DC000DB34FE0BEA36E96EA70EE926010E09D098
:105DD000FE0EEA6ADB34FE0BEA36E96EA10EE92616
:105DE000010EEA22EECFDEFFEDCFDDFFD9CFE9FFD6
:105DF000DACFEAFFEE50ED1003E1F36AF46A44D023
:105E0000DECFE9FFDDCFEAFF020EE926000EEA222F
:105E1000FB0EDBCFEEFFFC0EDBCFEDFFDECFE9FFAD
:105E2000DDCFEAFFEE52FA0EDBCFEFFF400EDECF02
:105E3000E9FFDDCFEAFFE850EF16880EDECFE9FF7D
:105E4000DDCFEAFFE850EF12FD0EDB500AE0FE0E58
:105E5000EA6ADB34FE0BEA36E96EA70EE926010E8C
:105E600009D0FE0EEA6ADB34FE0BEA36E96EA10EBB
:105E7000E926010EEA22EF74DECF32F0DDCF33F0F7
:105E800032C0F3FF33C0F4FF020EE15C02E2E16ACC
:105E9000E552E16EE552E7CFD9FF1200D9CFE6FF18
:105EA000E1CFD9FF020EE126FE0EDB5020E19FC1BB
:105EB000E9FFA0C1EAFFEE52080EEF6E9FC1E9FFB5
:105EC000A0C1EAFF020EE926000EEA22300EEE6EB5
:105ED0000D0EED6E9FC1E9FFA0C1EAFF8C0EEF6EC3
:105EE000A7C1E9FFA8C1EAFF840EEF6E3BD0FD0E0B
:105EF000DB50E824346EFE0EDB50040DF3503424E6
:105F0000040DF3CF32F0F4CF33F0000E32260D0E35
:105F1000332232C0DEFF33C0DDFF840EDECFE9FF67
:105F2000DDCFEAFFE850EF12FD0EDB50E824346EBF
:105F3000FE0EDB50040DF3503424010F040DF3CF9B
:105F400032F0F4CF33F0000E32260D0E332232C081
:105F5000DEFF33C0DDFF840EDECFE9FFDDCFEAFFD9
:105F6000E850EF12020EE15C02E2E16AE552E16EF6
:105F7000E552E7CFD9FF1200D9CFE6FFE1CFD9FF35
:105F800065A84ED0FE0EEA6ADB34FE0BEA36E96EF7
:105F9000A70EE926010EEA22EE50EFCFEAFFE96EE6
:105FA000400EEE16EE6AEE6AEE6AFE0EEA6ADB3428
:105FB000FE0BEA36E96EA70EE926010EEA22EE5044
:105FC000EFCFEAFFE96EEE7CFE0EEA6ADB34FE0BF1
:105FD000EA36E96EA70EE926010EEA22EF74400EBA
:105FE000326EFE0EEA6ADB34FE0BEA36E96EA70E6D
:105FF000E926010EEA22EE50EFCFEAFFE96E3250B9
:10600000EF16FE0EEA6ADB34FE0BEA36E96EA70EE7
:10601000E926010EEA22EE50EFCFEAFFE96EEF7CAF
:10602000E552E7CFD9FF1200656A0F01366B010117
:10603000996B12000101995114E1656A0F01366BE9
:10604000160E396F9F0E376F7B0E366FD08EA2887B
:10605000A088F28E65B602D06586FCD70101010EDC
:10606000996F12000101CA514DE1010ECA6FCB5167
:1060700049E1010ECB6F020EAE5D0DE1A7C1E9FF54
:10608000A8C1EAFFEE52EF6AA7C1E9FFA8C1EAFF83
:10609000C80EEF6E1200AE0535E1C16B9DC1E9FF80
:1060A0009EC1EAFFEE52080EEF6E9DC1E9FF9EC150
:1060B000EAFF020EE926000EEA22300EEE6E0D0E09
:1060C000ED6E9DC1E9FF9EC1EAFF840EEF6E010EE9
:1060D000C16F9FC1E9FFA0C1EAFFEE52080EEF6E4B
:1060E0009FC1E9FFA0C1EAFF020EE926000EEA22E5
:1060F000300EEE6E0D0EED6E9FC1E9FFA0C1EAFFFE
:10610000800EEF6E12000101CC6BCD6B020EAE5D06
:1061100018E19FC1E9FFA0C1EAFFEE52080EEF6E41
:106120009FC1E9FFA0C1EAFF020EE926000EEA22A4
:10613000380EEE6E0D0EED6E9FC1E9FFA0C1EAFFB5
:106140001DD0B2510D01365D0101B3510D0137591A
:1061500004E236CDB2F137CDB3F1CAD8A7C1E9FF19
:10616000A8C1EAFF020EE926000EEA22380EEE6E02
:106170000D0EED6EA7C1E9FFA8C1EAFFC80EEF6ED4
:106180001200D9CFE6FFE1CFD9FF020EE126000EC3
:10619000DE6E0D0EDD6EFD0EDB50E824346EFE0E5D
:1061A000DB50040DF3503424040DF4CF33F0D9CF79
:1061B000E9FFDACFEAFFF350EE263350ED22DECFCF
:1061C000E9FFDDCFEAFFEF9EFD0EDB500AE1FE0E98
:1061D000EA6ADB34FE0BEA36E96EA10EE926010E0F
:1061E00009D0FE0EEA6ADB34FE0BEA36E96EA70E32
:1061F000E926010EEA22DECFEEFFDDCFEDFFDECF96
:10620000E9FFDDCFEAFFEF9CDECFE9FFDDCFEAFF5C
:10621000040EE926000EEA22EF8C020EE15C02E297
:10622000E16AE552E16EE552E7CFD9FF12006598C9
:106230000101B1BF2BD0B6AF09D0020EAE6FCD5168
:1062400001E161DF0101CB6BCA6B12009FC1E9FF65
:10625000A0C1EAFFEE52080EEF6E9FC1E9FFA0C198
:10626000EAFF020EE926000EEA22300EEE6E0D0E57
:10627000ED6E9FC1E9FFA0C1EAFF8C0EEF6EA7C1D2
:10628000E9FFA8C1EAFF840EEF6E12000D0130AFE6
:106290000DD00101010EAE6FCC5101E134DF0101DF
:1062A000CB6BCA6BC95123E132EF30F00101020E12
:1062B000AE6F9FC1E9FFA0C1EAFFEE52080EEF6E7C
:1062C0009FC1E9FFA0C1EAFF020EE926000EEA2203
:1062D000300EEE6E0D0EED6E9FC1E9FFA0C1EAFF1C
:1062E000840EEF6ECB6BCA6BC95101E1BBDE1200AD
:1062F000D9CFE6FFE1CFD9FFE652080EDF6E0101EC
:10630000B25D000EB3590AE2B2C1DFFFAD5102E146
:10631000010E03D0AD0502E1020EAD6FDF50336A0E
:10632000E850B25DB26F3350B359B36FA7C1E9FF04
:10633000A8C1EAFFEE52DFCFEFFF380EBB6F0D0EA4
:10634000BC6FB1B118D0DF502DE0AFC1F6FFB0C1C6
:10635000F7FFAF2B000EB0230800F550E66EBBC16F
:10636000E9FFBCC1EAFFBB2B000EBC23E552E7509E
:10637000EF6EDF06E8D7DF5015E0AFC1E9FFB0C12F
:10638000EAFFAF2B000EB023EF50E66EBBC1E9FF72
:10639000BCC1EAFFBB2B000EBC23E552E750EF6EF9
:1063A000DF06E9D7E552E552E7CFD9FF1200D9CF92
:1063B000E6FFE1CFD9FF020EE1269DC1E9FF9EC1B4
:1063C000EAFFEE52EFCFDFFFDFCF32F032500101B4
:1063D000B75D000EB85902E2B7C1DFFFDF50326E81
:1063E000336AE850B75DB76F3350B859B86F010ED4
:1063F000DB6ADF50F36E010EDBCFF4FFF350F45C89
:1064000016E2010EDB50EA6A380FE96E0D0EEA2241
:10641000EF50E66EB4C1E9FFB5C1EAFFB42B000E40
:10642000B523E552E750EF6E010EDB2AE2D7000EEE
:10643000D880B755000EB85527E29FC1E9FFA0C12B
:10644000EAFFEE52080EEF6E9FC1E9FFA0C1EAFF1E
:10645000020EE926000EEA22380EEE6E0D0EED6EEB
:106460009DC1E9FF9EC1EAFFEF50400B06E19FC1CD
:10647000E9FFA0C1EAFFC80E05D09FC1E9FFA0C196
:10648000EAFF880EEF6E28D09FC1E9FFA0C1EAFFA6
:10649000EE52080EEF6E9FC1E9FFA0C1EAFF020EA7
:1064A000E926000EEA22300EEE6E0D0EED6E9FC153
:1064B000E9FFA0C1EAFF840EEF6EB951BA1107E0FF
:1064C00005D0BAC1FAFF0101B951F96EFADF010135
:1064D000B69FC95101E1C6DD020EE15C02E2E16A4C
:1064E000E552E16EE552E7CFD9FF1200D9CFE6FFC2
:1064F000E1CFD9FFE6520101B18F020EE66EE66AE6
:10650000E66A270EE66E0F0EE66E99EC42F0326EEA
:10651000050EE15E3250300EE66EE66AE66A000E67
:10652000E66E0D0EE66E99EC42F0326E050EE15EFF
:106530003250658CDF6A030EDF5C10E2DF50EA6ADE
:10654000C20FE96E010EEA22EF6ADF50EA6AC50F58
:10655000E96E010EEA22EF6ADF2AEDD7020EE66E3F
:10656000E66AE66A9B0EE66E010EE66E99EC42F074
:10657000326E050EE15E3250659C0101080EA76F78
:106580000D0EA86F000E9D6F0D0E9E6F9DC19FF1A9
:10659000A06F32CD9AF19A5102E1100E12D0010E85
:1065A000E66EE66A9A0EE66E010EE66E010EE66E85
:1065B000E66A49EC41F0326E060EE15E32500101AE
:1065C000200E996FE552E552E7CFD9FF1200800EF9
:1065D0000D01305D58E10101C00EB16F0D01335165
:1065E000030A2FE0010A09E0030A4BE10101260E2C
:1065F000AF6F830EB06F120E3ED03251F66EF76A57
:10660000D890F636F736E70EF626830EF722090005
:10661000F5CFAFF10A00F5CFB0F1020E0101F76A34
:10662000AF25F66EB051F7220800F5CFB2F1030E98
:10663000F76AAF25F66EB051F7220800F5CFB3F137
:106640001200030E325D1AE23251F66EF76AD890EC
:10665000F636F736E90EF626830EF7220900F5CF57
:10666000AFF10A00F5CFB0F1AFC1F6FFB0C1F7FF4F
:106670000800F5500101B26FB36B12000101B16B5C
:1066800012000101B16B1200D9CFE6FFE1CFD9FFB3
:10669000020EE1260D01386B396B30511F0B020AD7
:1066A00011E0030A0CE0010A3CE10101B18F0D0188
:1066B00038810101BD0535E10D01388332D001017A
:1066C000B18F2FD00101B18F0D0134BF0BD03451E8
:1066D0000F0BE96EEA6AD890E936EA36A10EE92690
:1066E000010E0AD034510F0BE96EEA6AD890E936F0
:1066F000EA36A70EE926010EEA22EECFDEFFEDCF45
:10670000DDFFDECFE9FFDDCFEAFFEF50800B09E0D0
:10671000DECFE9FFDDCFEAFFEF50040B02E0010E10
:10672000386F0101B1AF07D0380EAF6F0D0EB06FEB
:10673000B181020EB26F020EE15C02E2E16AE55243
:10674000E16EE552E7CFD9FF12000F0126A115D067
:106750009DC1E9FF9EC1EAFFEF5080080DE1A7C18E
:10676000E9FFA8C1EAFFEF50840806E19DC1E9FFF7
:106770009EC1EAFF8C0EEF6E2691629A12000F0105
:106780003685629865820101010EBE6F000EE66ECD
:10679000E66AE66EE66A750EE66EE66A49EC41F078
:1067A000326E060EE15E325012000101BE6B000E29
:1067B000E66EE66AE66EE66A740EE66EE66A49EC36
:1067C00041F0326E060EE15E325065920F01369551
:1067D00062A402D06294FCD71200D9CFE6FFE1CFC9
:1067E000D9FFE65201012D0EC86FFD0EBF1553E112
:1067F0007E0EBF15E8407F0B040DF3CF9DF1F4CF63
:106800009EF1000E9D270D0E9E239DC19FF19EC1FE
:10681000A0F19F759DC1E9FF9EC1EAFFEF503C0BBF
:10682000E842E8420D0835E1DF6A080EDF5C23E24A
:106830009DC1E9FF9EC1EAFF020EE926000EEA2291
:10684000EE50EFCFEAFFE96EEF50E66EDF50EA6AF6
:10685000300FE96E0D0EEA22E552E750EF6E9DC152
:10686000E9FF9EC1EAFF020EE926000EEA22EE2AA7
:10687000EF22DF2ADAD79DC1E9FF9EC1EAFF020EAF
:10688000E926000EEA22300EEE6E0D0EED6E0DD8EA
:1068900007D03AD805D0FD0EBF15040801E159D83C
:1068A000E552E552E7CFD9FF12000101AD6BC96B8C
:1068B000CC6BCD6BC16BAE6BA7C1E9FFA8C1EAFF82
:1068C000EF9EA775A7C1E9FFA8C1EAFFEF9EA775D4
:1068D0009FC1E9FFA0C1EAFFEF9EB16BB26BB36B42
:1068E000B66BB76BB86B8FD8000EE66EE66AE66ED5
:1068F000E66A030EE66EE66A49EC41F0326E060E79
:10690000E15E325017EF31F0020E0101AE5D02E19F
:10691000D7EF31F0AE6BC1511AE19FC1E9FFA0C1C1
:10692000EAFFEE52080EEF6E9FC1E9FFA0C1EAFF39
:10693000020EE926000EEA22300EEE6E0D0EED6E0E
:106940009FC1E9FFA0C1EAFF8C0EEF6E1200C16B80
:106950001200D9CFE6FFE1CFD9FFE652A7C1E9FF88
:10696000A8C1EAFFEF50400B01E0010EDF6E01010C
:10697000A775080E995D0BE132CD38FF0F01385134
:1069800003E00101100E02D00101040E996FAE0563
:1069900026E1A7C1E9FFA8C1EAFF020EE926000E21
:1069A000EA22380EEE6E0D0EED6EA2DC020E010133
:1069B000AD5D06E1A7C1E9FFA8C1EAFF840E0DD0D5
:1069C000DF5006E1A7C1E9FFA8C1EAFFC80E05D064
:1069D000A7C1E9FFA8C1EAFF880EEF6E0FD0B6AFDE
:1069E0000CD0B951BA1107E005D0BAC1FAFF0101C4
:1069F000B951F96EFADF0101B69FAE6BE552E5526F
:106A0000E7CFD9FF12000D013051600BE842E84298
:106A1000E842E842E842000901E0120031510C0A64
:106A200050E00B0A3FE00C0A31E0010A22E00B0AB9
:106A30001EE0020A1CE0030A18E0080A10E0010A3E
:106A40000CE00F0A08E0030A01E012000101B18F17
:106A5000080E996F1200E7EF32F076EF32F0010185
:106A60009A0EAF6F010EB06F0CD044EF33F062EFAF
:106A700035F034510101AF6FB06B9B0EAF27010EA3
:106A8000B023B181010EB26FB18F12000101B18F3D
:106A90000D013451EA6A9B0FE96E010EEA2232CDF4
:106AA000EFFF1200000EE66EE66AE66EE66A020E80
:106AB000E66EE66A49EC41F0326E060EE15E325057
